S01A00006D6963726F726F735F7465737462656E63682E737265637D
S3150000000038290020A50A000015090000A10A0000F1
S31500000010A10A0000A10A0000A10A0000A10A00002E
S31500000020000000000000000000000000A10A00001F
S31500000030A10A000000000000A10A0000A10A0000B9
S315000000404507000031030000AD020000B9030000BF
S31500000050F90300000000000000000000000000009E
S31500000060000000000000000000000000000000008A
S31500000070000000000000000000000000000000007A
S31500000080000000000000000000000000000000006A
S31500000090000000000000000000000000000000005A
S315000000A0000000000000000000000000000000004A
S315000000B0000000000000000000000000000000003A
S315000000C0000000000000000000000000000000002A
S315000000D0000000000000000000000000000000001A
S315000000E0000000000000000000000000000000000A
S315000000F000000000000000000000000000000000FA
S3150000010000000000000000000000000000000000E9
S3150000011000000000000000000000000000000000D9
S3150000012000000000000000000000000000000000C9
S3150000013000000000000000000000000000000000B9
S3150000014000000000000000000000000000000000A9
S315000001500000000000000000000000000000000099
S315000001600000000000000000000000000000000089
S315000001700000000000000000000000000000000079
S315000001800000000000000000000000000000000069
S315000001900000000000000000000000000000000059
S315000001A00000000000000000000000000000000049
S315000001B00000000000000000000000000000000039
S315000001C0FFFFFFFFFFFFFFFFFFFFFFFFFFFFFFFF39
S315000001D0FFFFFFFFFFFFFFFFFFFFFFFFFFFFFFFF29
S315000001E0FFFFFFFFFFFFFFFFFFFFFFFFFFFFFFFF19
S315000001F0FFFFFFFFFFFFFFFFFFFFFFFFFFFFFFFF09
S3150000020010B5054C237833B9044B13B1044800E00C
S3150000021000BF0123237010BD28000020000000004D
S31500000220680E000008B5034B1BB10349034800E004
S3150000023000BF08BD000000002C000020680E000072
S31500000240704700BF022800D07047024B0248596829
S3150000025000F020BA240C00004400002008B5FFF787
S31500000260EFFF002008BD00BFF0B5846A85B00546E3
S315000002700F4694466E46B4B194E80F0086E80F0028
S31500000280EB6920461B7884F804C02360EB6AC4E956
S3150000029002736B6A9847AC6A1CB196E80F0084E853
S315000002A00F0005B0F0BD3446EAE700BF30B4EFF307
S315000002B00383103B5BB21C4A03F1C00152F82100D4
S315000002C01A4C6FF3104042F8210054F82300C3691A
S315000002D01B691BB103691BB130BC7047036963B965
S315000002E00021046A8022A36823F4801343F40013D8
S315000002F0A360C16030BCFFF7B7BF827802F003018C
S315000003000229C16809D0046A0D78656002F003020B
S315000003109B1A0A44C0E90323DDE70C88056A24F426
S31500000320DC44A4B26C60F1E7006000409800002055
S3150000033010B582B0EFF30383103B1D4A5BB203F1A5
S31500000340C00152F821001B4C6FF3104042F8210007
S3150000035054F82340A27802F00303022B236A19689B
S31500000360A3690CBFC1F30801C9B2019133B90422D4
S31500000370204602B0BDE81040FFF776BF02F0030248
S3150000038001A9606900F004FCD4E90521A37803F013
S3150000039003031A44C91AC4E9052109B102B010BD04
S315000003A00122204602B0BDE81040FFF75DBF00BF46
S315000003B0006000409800002010B5EFF303840C4B5A
S315000003C0103C64B253F824000222016AC0348B68E0
S315000003D023F4401323F010038B600021FFF744FF42
S315000003E0044B53F824206FF3104243F8242010BD29
S315000003F0980000200060004038B5EFF303841A4BE4
S31500000400103C64B253F824008378056A03F00303B2
S31500000410022B2968AB6C08BFC1F308014FEA2362BF
S315000004204FEAD34302F0100C03F0200343EA0C0317
S3150000043002F0080218BFC9B21A43DB0604D5AB6C3A
S315000004401B0458BF42F04002AB6EC03443F0C853A1
S31500000450AB66FFF709FF054B53F824206FF31042F4
S3150000046043F8242038BD00BF9800002000600040FB
S315000004700022034610461A60704700BF0B0A10B4EC
S315000004801B01064C53FA81F154F821300020C3F3C6
S3150000049040035DF8044B1370704700BF00F801403D
S315000004A0090A490101F1804101F5F8314B68002044
S315000004B013807047090A490123EA020C01F18041C1
S315000004C01A4001F5F83142EA0C4200208A60704772
S315000004D00123C8B283404AB91A040B0A5B0103F12F
S315000004E0804303F5F83300209A6070479AB2F4E728
S315000004F0090A490101F1804101F5F83110B40C688F
S3150000050002EA030C4CEA040C62EA030202EA0C0259
S3150000051000205DF8044B0A60704700BF090A4901D4
S3150000052001F1804101F5F8314B680020C3F30F4318
S3150000053013807047012310B44FEA112C4FEA4C1C6C
S315000005400CF1804C0CF5F83CDCF80440C9B203FA17
S3150000055001F18BB201EA1441C91AB1FA81F14909D4
S3150000056000205DF8044B1170704700BF090A49016D
S3150000057023EA020C01F180411A4001F5F83142EA02
S315000005800C420020CA60704706207047012A14D02A
S315000005904FF480300B0A5B0103F1804303F5F83317
S315000005A010B4CAB2DC6800FA02F22243120C12043A
S315000005B000205DF8044BDA6070470B0A5B0103F11B
S315000005C0804303F5F833D868C9B28A40024392B231
S315000005D00020DA60704700BFF0B5EFF31082012308
S315000005E083F31088284E33681BB928490B734023C0
S315000005F00B7333680133336082F3108803887BB34F
S31500000600426803F1FF3E1FFA8EFE02F10801204CFC
S3150000061001EBCE0E08E0D2B21B0113448E450A460A
S3150000062044F823001CD008311068928810F4803FEB
S315000006304FEA1223EFD0130AD2B202EB031C54F88E
S315000006402C701B01134420F480356FF310478E4540
S3150000065044F82C700A4644F82C5044F82300E2D1A2
S31500000660EFF31082012383F31088336813B13368E4
S31500000670013B336033681BB9802004490B73087350
S3150000068082F31088F0BD00BF9400002000FD0140F9
S3150000069000F8014008B5034B03600846FFF79CFFCE
S315000006A0002008BD54524F5008B50846FFF794FF86
S315000006B0002008BD30B4EFF31084012383F31088C3
S315000006C01D4B186828B94FF0400C1C4D287385F84F
S315000006D00CC018680130186084F31088D4034FEA00
S315000006E01120C9B219D40001154C014444F8212047
S315000006F0EFF31082012181F31088196811B119688E
S31500000700013919601B681BB980200C490B730873EB
S3150000071082F31088002030BC7047094C01EB001CA6
S3150000072054F82C5000016FF3104544F82C5022F475
S31500000730803544F82C50D7E79400002000FD014096
S3150000074000F80140F0B585B0EFF30383103B204A73
S315000007505BB203F1C00152F821001E4C6FF310404A
S3150000076042F8210054F82350D5E901120878137B8A
S315000007700128DBB20BD1F42703F0F003E868177306
S315000007801373097C144E441E46F8210014602F6929
S31500000790B7B16C6901AECCB194E8070086E80700F2
S315000007A09B0644BF00232371AB6920462360B847EC
S315000007B06B691BB196E8070083E80700AA68137BFC
S315000007C0DBB203F00F03137305B0F0BD3446E7E761
S315000007D000600040980000204C000020064B0749AE
S315000007E093F826001A6A51F82030C2F302620449CF
S315000007F0D3400B60704700BF00E0014008000020B6
S31500000800200200204AF2035001233949394A70B5C3
S31500000810A1F8FE03A2F80431B2F804319BB2002B12
S31500000820FAD101214FF400453348344C0361856009
S31500000830A2F80011A160216009212024304E05F1A3
S31500000840987505F52D45C0E90056294A92F82650B7
S31500000850156A82F8134482F8A21082F832302949C8
S31500000860294BC160436192F83C301907FBD54FF420
S315000008703C5400231E49148582F82A3091F83C30F6
S315000008809B06FBD54FF0010E4FF0050C1F4B194D83
S315000008901F4C85F81CE181F826C00B6291F82630C2
S315000008A0134A50F82330086AC0F30260C34023603D
S315000008B091F8753043F0400381F8753092F8753041
S315000008C0DB09FBD0C523012082F86D0082F8753064
S315000008D092F8753006496FF3861382F8753091F8F1
S315000008E07530DB09FBD14FF42543A1F8FE3370BD0B
S315000008F000E0014000C001400800002000700040F8
S3150000090000127A0080969800001C4E0E21120220DA
S315000009102002002070B500240A4B0B4EB3F840515C
S31500000920ADB225FA04F3DB07E0B203D556F824305E
S3150000093003B198470134102CF3D1024BA3F8305180
S3150000094070BD00BF006000405400002030B56FF05D
S31500000950FF0585B0032000F079F84FF0FF311F4CFA
S315000009601F482246856400230125CDE90111039124
S3150000097004F1C00E32F8020F590960B104A800EB69
S31500000980810151F80C0C03F01F0C05FA0CFC20EA4F
S315000009900C0041F80C0C724503F10103EAD10199F0
S315000009A0104B0F4A03201167C3F880120299516752
S315000009B0C3F8841203999167C3F8881200F016F8F9
S315000009C00023094803F1C00234F8021F0133602BEB
S315000009D040F82210F6D105B030BD00BF660D00000C
S315000009E00080004000E100E000600040EFF310816D
S315000009F0012383F31088124B33F8102092B22AB1E8
S31500000A0033F81020013A92B223F8102033F8103050
S31500000A109BB293B90B4A10B4B2F8FE330A4C9BB2A0
S31500000A2034F8100043F4254323EA0003A2F8FE330A
S31500000A3081F310885DF8044B704781F31088704786
S31500000A401802002000E00140600E000030B4EFF311
S31500000A501081012383F310880E4A32F810309BB2BE
S31500000A606BB90D4C0D4DB4F8FE3335F810C09BB282
S31500000A7043EA0C0343F425439BB2A4F8FE3332F851
S31500000A80103001339BB222F8103081F3108830BC4D
S31500000A90704700BF1802002000E00140600E000011
S31500000AA000BE704708B500F003F8FFF7D7FBFEE776
S31500000AB04FF47001294B2A4A70B5C3F888109A6022
S31500000AC0EFF31081012484F31088264B9A6822F4F0
S31500000AD080129A609B6881F310880020FFF7B2FBB2
S31500000AE0FFF790FE2046FFF7ADFB1F4B83F30A8806
S31500000AF01E481F4A0021121A00F057F81D481E4AC8
S31500000B001E49121A00F044F81D4D1E4B5B1B002BAC
S31500000B1007DD00249E1055F8043B01349847A64291
S31500000B20F9DCFFF75BFE0320FFF790FF00234FF68B
S31500000B30FF70154903F10C020133092B21F822003D
S31500000B40F8D10320FFF752FF0220FFF77BFBFFF7E8
S31500000B50FDFEBDE87040002000F018B800ED00E092
S31500000B600000000000400840B015002028000020CA
S31500000B702402002000000020080000206C0E000067
S31500000B80000000200400002000FD0140704700BF67
S31500000B900A44431E914200D1704710B511F8014B2B
S31500000BA0914203F8014FF9D110BD02440346934226
S31500000BB000D1704703F8011BF9E7FFFF4275696C26
S31500000BC07420776974682052656E6573617320417D
S31500000BD06476616E63656420466C657869626C65EF
S31500000BE020536F667477617265205061636B61672D
S31500000BF0652076657273696F6E20332E352E300050
S31500000C00332E352E3000000000000503F8B500BF76
S31500000C10F8BC08BC9E467047F8B500BFF8BC08BCD7
S31500000C209E46704744000020300C0000280E00004D
S31500000C3026000000380C000000000103080A00002E
S31500000C4000000103090A0000000001030A0A00006F
S31500000C50000001030B0A0000000001020C0A00005C
S31500000C60000001000D0A0000000001000E0A00004D
S31500000C70000001000F0A000000400000010B000008
S31500000C8000000100030B000000000103040B00003C
S31500000C9000000103050B000000000103060B000025
S31500000CA000000103070B000000000103080B000011
S31500000CB000000103090B000000000000000C00000A
S31500000CC000000000010C000000400000040C0000C1
S31500000CD000400000050C000005000000060C0000A6
S31500000CE005000000070C000000000103080C0000CE
S31500000CF000000103090C0000000001020D0C0000B9
S31500000D00000001030E0C0000000001030F0C0000A0
S31500000D1005000000010D000005000000020D0000A6
S31500000D2005000000030D000000000000040D000097
S31500000D3000000000070D000000000103080D000080
S31500000D4000000103090D0000004000000C0D00002A
S31500000D50004000000D0D0000004000000E0D0000D8
S31500000D60050000000F0D000040008D018E018F016F
S31500000D7090010000000000000000000000000000DC
S31500000D80000000000000000000000000000000005D
S31500000D90000000000000000000000000000000004D
S31500000DA0000000000000000000000000000000003D
S31500000DB0000000000000000000000000000000002D
S31500000DC0000000000000000000000000000000001D
S31500000DD0000000000000000000000000000000000D
S31500000DE000000000000000000000000000000000FD
S31500000DF000000000000000000000000000000000ED
S31500000E0000000000000000000000000000000000DC
S31500000E1000000000000000000000000000000000CC
S31500000E2000000000000000009506000071040000AC
S31500000E30A9060000B5060000350500008D05000076
S31500000E40890500007D040000D1040000F1040000C3
S31500000E501D0500006D050000A1040000B50400009A
S31100000E6001000200080010000000000065
S30D00000E6C25020000010200004E
S3150100A100FFFFFFFFFFFFFFFFFFFFFFFFFFFFFFFF58
S3150100A110FFFFFFFFFFFFFFFFFFFFFFFFFFFFFFFF48
S3150100A120FFFFFFFFFFFFFFFFFFFFFFFFFFFFFFFF38
S30D0100A130FFFFFFFFFFFFFFFF28
S3150100A200FFFDF0FFFFFFFFFFFFFFFFFFFFFFFFFF68
S3150100A210FFFFFFFFFFFFFFFFFFFFFFFFFFFFFFFF47
S3150100A220FFFFFFFFFFFFFFFFFFFFFFFFFFFFFFFF37
S3150100A230FFFFFFFFFFFFFFFFFFFFFFFFFFFFFFFF27
S3150100A240FFFFFFFFFFFFFFFFFFFFFFFFFFFFFFFF17
S3150100A250FFFFFFFFFFFFFFFFFFFFFFFFFFFFFFFF07
S3150100A260FFFFFFFFFFFFFFFFFFFFFFFFFFFFFFFFF7
S3150100A270FFFFFFFFFFFFFFFFFFFFFFFFFFFFFFFFE7
S3150100A280F8F8F0FFFFFFFFFFFFFFFFFFFFFFFFFFF4
S3150100A290FFFFFFFFFFFFFFFFFFFFFFFFFFFFFFFFC7
S3150100A2A0FFFFFFFFFFFFFFFFFFFFFFFFFFFFFFFFB7
S3150100A2B0FFFFFFFFFFFFFFFFFFFFFFFFFFFFFFFFA7
S3110100A2C0FFFFFFFFFFFFFFFFFFFFFFFF97
S70500000AA54B
