S01A00006D6963726F726F735F7465737462656E63682E737265637D
S3150000000018650120093E0000313C0000053E000055
S31500000010053E0000053E0000053E0000053E0000CE
S315000000200000000000000000000000008D1F00001E
S31500000030053E000000000000A51F00000D20000086
S315000000404D390000252F00001D2E0000B5300000A0
S31500000050FD3000000000000000000000000000006D
S31500000060000000000000000000000000000000008A
S31500000070000000000000000000000000000000007A
S31500000080000000000000000000000000000000006A
S31500000090000000000000000000000000000000005A
S315000000A0000000000000000000000000000000004A
S315000000B0000000000000000000000000000000003A
S315000000C0000000000000000000000000000000002A
S315000000D0000000000000000000000000000000001A
S315000000E0000000000000000000000000000000000A
S315000000F000000000000000000000000000000000FA
S3150000010000000000000000000000000000000000E9
S3150000011000000000000000000000000000000000D9
S3150000012000000000000000000000000000000000C9
S3150000013000000000000000000000000000000000B9
S3150000014000000000000000000000000000000000A9
S315000001500000000000000000000000000000000099
S315000001600000000000000000000000000000000089
S315000001700000000000000000000000000000000079
S315000001800000000000000000000000000000000069
S315000001900000000000000000000000000000000059
S315000001A00000000000000000000000000000000049
S315000001B00000000000000000000000000000000039
S315000001C00348044B834202D0034B03B118477047E0
S315000001D0200200202002002000000000064B0749F4
S315000001E0C91A891048BF0131491003D0044B0BB11D
S315000001F001481847704700BF200200202002002057
S315000002000000000010B5064C237843B9FFF7D8FF6D
S31500000210044B13B10448AFF300800123237010BDD3
S315000002204002002000000000FCA8000008B5054BB5
S315000002301BB105490548AFF30080BDE80840FFF74C
S31500000240CDBF00BF0000000044020020FCA8000053
S31500000250022800D07047024B0248596803F0D6B80E
S31500000260709D0000900400202DE9F041A0B02522E9
S31500000270002116A807F012FEDFF8D4C00DF1380EE3
S31500000280BCE80F00AEE80F000CF130055CF8103B3F
S315000002900024BCE80300CEF80030032342F2B8265F
S315000002A0CDF85E10DFF8AC80BCF80010204F0DF1E1
S315000002B0240E0EAA08928DF859301E4A1E4BCDF810
S315000002C05A00ADF86210CDE9144495E80300ADF884
S315000002D078408EE80300139408A9204619941A94CE
S315000002E01B941C941D940B940C94CDE90078ADF8E6
S315000002F0346006F0C3F803A806F092F80F4B104AD4
S315000003001049CDE90323104B03A80591069306F087
S3150000031097F820B100F056F820B0BDE8F0813921F9
S315000003200A4806F0B7FE00F04DF820B0BDE8F081AF
S3150000033059050000C904000029050000AD030000AE
S31500000340A9030000B5030000C10300008C8F000064
S31500000350209D00000506000070B50C46064605F017
S31500000360EFF8D4B1204603F0F7FD054620B11EB1E3
S3150000037056F8042C002A03DB05F0EAF8284670BD7F
S3150000038022F00042083AA24228BF2246314607F030
S31500000390C1FA304603F07AFEEEE72546304603F012
S315000003A075FE284670BD00BF03F0D6BD08B103F048
S315000003B06DBE704708B1FFF7CFBF084603F0CCBD4E
S315000003C003F0A2BE704700BF044AD2E900310133F0
S315000003D041F10001C2E90031704700BF7002002000
S315000003E02DE9F041324E334D33780C466F6882B0BA
S315000003F05BB3314D314E6946314803F0ADF9314BAF
S31500000400D3E90020009BA7EB030CD6E9001302FBFF
S3150000041003F301FB0033D5E90005A2FB01210B44E0
S31500000420A0FB0C010CFB0511801841EB03011AA37C
S31500000430D3E9002306F056FC034600202360DB17B1
S31500000440A260636002B0BDE8F0814FF00108294662
S315000004501B4803F0D3F91A4803F0A0F9287A164D81
S3150000046008FA00F006F072F90DA3D3E9002306F0AE
S3150000047001FB0DA3D3E9002306F0D2F906F04AFCEE
S315000004802860A7FB000307FB013386F800800B4EAC
S31500000490696030607360AEE700CA9A3B00000000F6
S315000004A00000000084D787410000000065CDCD41E3
S315000004B0780200201C9E00006802002060020020D6
S315000004C0D80400207002002030B5D0F88C5283B0DA
S315000004D02C6804F1220007F0A7FB0346204684F8A7
S315000004E0423007F0A1FB84F8200000F065F910B156
S315000004F0002003B030BD0122094B20461A7000F0DF
S315000005006DF90028F4D16424AA8A0A23291D0094CF
S31500000510044801F0B7FEB0FA80F0400903B030BDE0
S315000005208C04002088040020094B10B5094C18687B
S3150000053001F020FF23780BB9012010BD00F046F929
S3150000054008B92070F8E7207880F0010010BD00BFE0
S31500000550880400208C040020F8B514460C4F0E4683
S315000005600C49022238681D460C8001F03BFF022828
S3150000057003D001232B700020F8BD2246314638688F
S3150000058001F030FF0028F4DB00232B70F8BD00BF1C
S31500000590880400208404002038B590F806520446EA
S315000005A0D5B1012D00D038BDB0F80412B0F8022242
S315000005B0134B521A1868214401F000FFB4F80422C4
S315000005C0B4F80232104480B2834204BF022384F896
S315000005D00632A4F8040238BD094B0222186804F555
S315000005E0007101F0EBFE0128DDDD0123B4F80022E5
S315000005F084F80632A4F80452A4F8022238BD00BFDB
S3150000060088040020F8B50F461D46134E01E0012D63
S315000006101CDD05F0E1FE04463046FFF7BDFF05F0A0
S31500000620DBFE96F80632001B022BA5EB0005EED189
S315000006300025B6F80242069B3846224606491D703A
S3150000064007F068F986F806522046F8BD0123002413
S31500000650069A20461370F8BD7C020020704700BF42
S31500000660FFF7FCBF00BE704738B5164C4FF0FF31A0
S31500000670206804F035F9012803D000212068FFF72F
S31500000680F1FF114B1A7802B138BD01221A70FFF73B
S31500000690E7FF0E4D2B68013B2B60002BF4D00023A7
S315000006A020681A46194603F0DFFE0128F2D0002121
S315000006B02068FFF7D7FF2B68013B2B60002BEED19C
S315000006C038BD00BF100A0020140A0020180A0020B6
S315000006D038B500230B4D0C4C01214FF480700B4AAA
S315000006E02B60237003F082FE094B186028B100F0DE
S315000006F037F804F0DBFE002038BD0146FFF7B2FFF5
S31500000700F5E700BF180A0020140A0020C8090020D7
S31500000710100A0020802330B4034D044C05600C60A1
S31500000720136030BC704700BF6009002060070020DE
S31500000730802330B4034D044C05600C60136030BC5C
S31500000740704700BFF8060020F804002010B50446E4
S31500000750FFF78AFF2046BDE81040FFF785BD00BFC2
S3150000076030B501240D480E4A03680E4D85B019199F
S31500000770CDE901250C4B016040F2E2420B490C48E1
S31500000780009404F045FE0B4B186008B105B030BD6F
S31500000790014605B0BDE83040FFF764BF180A0020E7
S315000007A018650120200A0020449E0000C48F000026
S315000007B04D0700001C0A002008B5034800F054FB52
S315000007C0003818BF012008BD7C9D000008B500F068
S315000007D09DFD003818BF012008BD00BFD8B108B57F
S315000007E090F82030ABB190F8422090F8211052B921
S315000007F079B9202B0DD800F1220201F033F9003827
S3150000080018BF012008BD052903D8202B01D8202AAE
S31500000810F1D9012008BD0120704700BF934228BFCF
S3150000082013462DE9F0411C46D3B105688368074697
S315000008305E1BA64228BF2646B2421BD3AA19934284
S315000008401FD38846816932464046294407F062F83C
S31500000850B44208D8BB682544AB4298BFED1A3D6048
S315000008602046BDE8F081B96908EB0600A21B07F037
S3150000087051F8EFE741F2F701054B064A064803F047
S31500000880A3F941F2F801054B024A034803F09CF92B
S31500000890D88F00009CA10000F48F0000309000006B
S315000008A00B4B70B51E689D680A4CEB6921890022C6
S315000008B030469847192004F01FFF3046EB6921891E
S315000008C001229847BDE87040012004F015BF00BF23
S315000008D0709D0000900A002070B5264CD4F8A40D37
S315000008E020B104F0FBF80023C4F8A43DD4F8A80D09
S315000008F020B104F0F3F80023C4F8A83D1E4DD5F846
S31500000900D80B20B104F058FA0023C5F8D83BD4F828
S31500000910C40D20B104F0E2F80023C4F8C43DD4F8B5
S31500000920C80D20B104F0DAF80023C4F8C83DD4F8A5
S31500000930CC0D20B104F040FA0023C4F8CC3DD4F825
S31500000940BC3D0E4A18684168914202D19B68DB693A
S315000009509847EB68022B00D070BDD4F8C03D074A1B
S31500000960186841689142F7D1BDE870409B68DB6921
S31500000970184700BF901A0020900A0020554943539B
S31500000980074B0246596921B103F50053D3F8F80D18
S3150000099018B1FF230348136070470346FBE700BF07
S315000009A0900A00207411010070B511F001060C4682
S315000009B0054603D1A3070DD4002070BD00F5805372
S315000009C042F21071D3F8A40D03F08AFF01280CD16E
S315000009D0A307F1D505F5805542F21071D5F8A80D9B
S315000009E003F07EFF0128E7D016B94FF0FF3070BD47
S315000009F00023D5F8A40D1A46194603F035FDF4E791
S31500000A008A0770B50C46054602D4E3070BD470BDC1
S31500000A10002300F580521946D2F8A80D1A4603F0B5
S31500000A2023FDE307F3D5002305F580501A46BDE8FC
S31500000A3070401946D0F8A40D03F016BD002230B55B
S31500000A403B4D83B005F58053D3F8C03D0192027942
S31500000A50002B4BD05968022A036809782ED0042A45
S31500000A6042D18B4247D041F2340442F6F852D5F8CF
S31500000A70FC3B90F808C004FB03539B58002B46D060
S31500000A80EB68012B43D041F6CC51D5F8FC2B01ABDA
S31500000A9004FB0252505801220DF103018DF803C0E8
S31500000AA004F01CFA012815D042F6F451D5F8FC3BA7
S31500000AB004FB03535A5801325A500BE05B1AB3FA3F
S31500000AC083F35B0903F5EE6405EB8404606803F0C9
S31500000AD0F3FF38B3019B3BB14FF08052154B5A6080
S31500000AE0BFF34F8FBFF36F8F03B030BD022AE9D03B
S31500000AF0042AB8D0F8E784680122D5F8D80B01ABF0
S31500000B000DF103018DF8034004F0E8F9E2E7012254
S31500000B10D5F8D80B01AB0DF103018DF803C004F035
S31500000B20DDF9D7E7606801A903F0BCFDD2E700BF95
S31500000B30900A002000ED00E02DE9F04385B0002981
S31500000B4000F08E800446002800F08380007F0E4669
S31500000B5010F001001746994614BF4FF00408D4F868
S31500000B600C80002B40D1A368656822681D44AD1A2D
S31500000B70AB4298BFED1A28B9D5B90025284605B06D
S31500000B80BDE8F0834545F8D9B8F1000F10D02B46E3
S31500000B904246204603A9D4F80090FFF73FFE039B88
S31500000BA0A5EB08059F4236BF00271F46C4F80090F4
S31500000BB02B463A4631462046FFF730FE05460028CA
S31500000BC0DBD004F0BDFC636943B10026606933469F
S31500000BD032463146009605F0ABF8666104F0B8FC83
S31500000BE0284605B0BDE8F08301F056FAA3686568AB
S31500000BF022681D44AD1AAB4298BFED1AA84522D310
S31500000C000021084605F0EAF92569002D2FD104F0E8
S31500000C1023FF206101F068FA2B462A46294628461A
S31500000C20CDF8009005F030F82561A3686568226864
S31500000C30207F1D44AD1AAB4200F0010098BFED1AAB
S31500000C4000289FD198E701F04FFA237FDB07AFD545
S31500000C509AE741F25F11094B094A0A4802F0B4FFCC
S31500000C6041F25E11084B064A064802F0ADFF41F21A
S31500000C708311064B024A034802F0A6FF7490000057
S31500000C80B4A10000F48F000068900000849000007A
S31500000C902DE9F04F4FF47A740A26002783468DB06B
S31500000CA00192169A04FB03F302FB04F46B4D0296C1
S31500000CB0A5FB0323A5FB04549B099DF85C6000F586
S31500000CC08E5E079300F5ED59A3090EF11C0E0896EA
S31500000CD00591069309F10C09CDF810E040F6B832FB
S31500000CE000210498C9F80070C9F80470C9F80870A2
S31500000CF0A9F80C7007F0D2F8019B002B00F09F803A
S31500000D00059B0BEB830404F58054D4F8C40D03F063
S31500000D10BBFE002840F09380019ED4F8BC5D3046AF
S31500000D2006F082FFAB680246314628689B68984702
S31500000D300990002840F08380D4F8C40D169903F07A
S31500000D40CFFD012802467AD1069BDBF8D80B0DF1C0
S31500000D502F01FFF7F1FE0128044670D19DF82F30D0
S31500000D600BF5805888F8DC3188F8AC3D0BF58E55CC
S31500000D7040F6B731DBF8D80B1D3504F077F8294675
S31500000D8040F6B732079BDBF8D80BFFF7D5FE0646D1
S31500000D902146DBF8D80B04F069F8002E55D041F651
S31500000DA0AC51A81905E015F8012B013485425A54B7
S31500000DB019D00C2C0BEB0403F5D10BF5ED5A0AF107
S31500000DC00D0A4B46A146544682460C221846214639
S31500000DD007F04AF815F8012B0346554588F8B72D54
S31500000DE0F3D14C468146D8F8945D089BDFF87080B5
S31500000DF005EB430358F8231001360846039106F025
S31500000E0013FFB04202461AD804F5ED540C34241AE6
S31500000E105C442046039906F050FEB0B10E3558F8F2
S31500000E202550284606F000FF29460246204606F0D1
S31500000E3044FE80B1029B013B02937FF44FAFDFF883
S31500000E4024C060460DB0BDE8F08FDDF824C06046D2
S31500000E500DB0BDE8F08F4FF0070CF2E7D34D6210EE
S31500000E60D4A10000741101002DE9F0478246DFF895
S31500000E707C804FF438520021404692B007F00EF8BD
S31500000E80DAF80030C8F804A0C8F80C3083B300269E
S31500000E904FF00309144D0AF1080708F5EE5409E06E
S31500000EA0002103F01DFDD8F80C300136B34205F1E0
S31500000EB048051DD9002257F8041F2B46CDF800908F
S31500000EC0012044F8041C114603F04EFA44F8040FBE
S31500000ED00028E5D1FFF700FD20680028E0D10920B1
S31500000EE012B0BDE8F08700BF90380020900A0020BD
S31500000EF0002241F28833BAF80800DAF80410C14D2E
S31500000F00A8F80800C8E90512C8F81030FFF7C8FCB1
S31500000F10D5F8A40D08B103F0E1FD0120BA4903F0AC
S31500000F206FFBC5F8A40D002800F05581D5F8A80D73
S31500000F3008B103F0D3FD0120B44903F061FBC5F805
S31500000F40A80D002800F04F810022B14B012100932B
S31500000F5040F6B830CDE90122A3F6BC3303F0C6FE55
S31500000F60C8F8D80B002800F046810DF114094E464A
S31500000F704FF47A7004F0C0FBD5F8BC7D0AAC7B68F0
S31500000F80DFF8D8A2D3F81CC0DCF80000DCF80410A7
S31500000F90DCF80820DCF80C300FC6DCF810003060F6
S31500000FA07E6830687168B268F3680FC43069716929
S31500000FB0B269F3694FF6FF760FC4534642F2283200
S31500000FC000214FF4E13001F035FE00238DF820308A
S31500000FD0BB6838681B68CDF818A0CDF844900AA9FC
S31500000FE0ADF81E6098470446002840F0EE80642065
S31500000FF004F082FB4FF4C871CDE900140A23D8F837
S315000010001810844A8448C5F8944DC8F8FC4BFFF77D
S315000010103FFE0146002840F0D880804C4FF48052B5
S31500001020204606F03BFF7E4B7E4A93E80300206095
S315000010302171204611680A2206F02CFD204606F092
S31500001040F3FD0346784A11791068E218E0501171F1
S31500001050D5F8BC2D5268D2695189B14203D1127BB1
S31500001060082A40F0FD80714A04331088E118E052E6
S3150000107093788B7000244FF4C876D8F818100A239A
S31500001080CDE90064654A6448FFF702FE002840F097
S315000010909C80D5F8BC3D9A681868D36998470028A3
S315000010A040F09380642004F027FBD5F8BC3D9A6895
S315000010B0D3E90001126890470446002840F0858075
S315000010C04FF47A7004F018FBCDE900640A23514A04
S315000010D0D8F818105048FFF7DBFDCDE900640A2365
S315000010E0534A4D48D8F81810FFF7D2FD00286CD1A6
S315000010F00124C8270190D8F81810C5F8944D032389
S315000011004C4A45480097FFF7C3FD014600285CD1CD
S31500001110D8F80C30022B00F0AB8041F28833C8E9D6
S315000011200540C8F81C00C8F810300025C8244FF444
S31500001130FA560323404ACDE900453748FFF7A8FD94
S31500001140CDE9006564233D4A3348D8F81810FFF707
S315000011509FFD002839D1CDE900602346384AD8F8EA
S3150000116018102D48FFF794FD78BBCDE900402346C3
S31500001170344AD8F818102848FFF78AFD28BB4FF4E0
S315000011807A750190D8F8181023462F4A2248009500
S31500001190FFF77EFDC8B9CDE9004003232B4AD8F8F6
S315000011A018101D48FFF774FD78B9CDE900500323E8
S315000011B0274AD8F818101848FFF76AFD28B9254BB2
S315000011C0C8F8FC0BC8F800308AE6FFF785FB224812
S315000011D012B0BDE8F087FFF77FFBD5F8A43D002BE2
S315000011E03FF47DAEA2E6FFF777FBD5F8A83D002BCE
S315000011F03FF475AEA8E6FFF76FFBD8F8D83B002B97
S31500001200E5D0B2E6901A0020203900206839002087
S315000012106C160020BC900000900A00208028002058
S31500001220C090000080010020C8900000D09000000F
S31500001230D8900000E0900000009100000C910000A2
S315000012401891000024910000349100003C910000A8
S31500001250489100004957495774110100880A002037
S31500001260244A04331088E118E05293788B7001E722
S315000012704FF4FA670190D8F8181003231E4A1F4846
S315000012800097FFF705FD00289FD1D5F8C03DC8F8A7
S3150000129018409A68D3E9000112689047002894D153
S315000012A0CDE900700323164AD8F818101348FFF743
S315000012B0EFFC00288BD1CDE900600323114AD8F852
S315000012C018100E48FFF7E4FC00287FF47EAF0025D7
S315000012D0D8F818100323CDE900750B4A0748FFF725
S315000012E0D7FC00287FF471AF012200230121C8E951
S315000012F006231AE7D4900000E8900000900A002028
S31500001300E0900000D8900000F4900000F0B5224D67
S3150000131083B003212846FFF747FB002838D1EB6846
S315000013200446012B28601FD000274FF47A76A9695E
S315000013300323CDE90067194A1748FFF7A9FC20BB2C
S315000013400023174D1A461946D5F8A80D03F08CF858
S315000013500023D5F8A40D1A46194603F085F8FFF7C1
S31500001360BBFA204603B0F0BD05F50053D3F8F03DB7
S31500001370042BD9D14FF47A760190A9690323284624
S31500001380084A0096FFF784FCCEE7FFF789FAD7E70D
S31500001390054C204603B0F0BD900A002034910000B1
S315000013A0901A00205091000074110100F0B5404CD5
S315000013B007460D468BB003212046FFF7F5FA0028B5
S315000013C062D13C4B04F5406C06460FCBACE80700F7
S315000013D03A46604638498CF8003006F02DFCE36842
S315000013E0012B05D104F50053D3F8F03D042B4DD065
S315000013F0002740F6B836314AA1694FF49673CDE915
S315000014000067A2F54060FFF743FC044668BB09AAE3
S3150000141008ABCDE9013207AA00922949294806AB53
S3150000142005AA06F029FC05281FD1059B012B1CD116
S315000014306A1E06AB033553F8041BFF2915D802F8BC
S31500001440011FAA42F7D100231F4D1A461946D5F8A7
S31500001450A80D03F009F80023D5F8A40D1A4619467D
S3150000146003F002F820460BB0F0BD0023164C1A46D6
S315000014701946D4F8A80D02F0F7FF0023D4F8A40DFE
S315000014801A46194602F0F0FF104CEBE704F58054BB
S31500001490334632463146D4F8A80D02F0E5FF33460E
S315000014A032463146D4F8A40D02F0DEFFECE700BF69
S315000014B0900A0020549100006491000090160020CC
S315000014C0689100006C1C0020901A00207411010025
S315000014D02DE9F043214D83B0EB68022B27D1D5F8D7
S315000014E0FC3B0446834229D04FF00A09DFF870809E
S315000014F005F5406605F5805722464146304606F01A
S315000015009BFB4FF47A630022CDE900321348032394
S315000015103246A969FFF7BCFBC8B997F8DD310D2B38
S3150000152018D197F8DC31302B06D0342B0AD04FF087
S31500001530FF3003B0BDE8F083C5F8FC4B002003B0D4
S31500001540BDE8F083B9F10109D6D10420F7E76FF0C1
S315000015500100F4E76FF00200F1E700BF900A0020F7
S315000015607C91000041F2340342F6F8522DE9F04135
S315000015703E4D82B003FB00539B58012B04D003263B
S31500001580304602B0BDE8F081044603212846FFF745
S315000015900BFA064600283AD1EB68022B4AD0012BFB
S315000015A0A96936D04FF000084FF47A76A96903236B
S315000015B0CDE900682E4A2D48FFF76AFB06462D4FF7
S315000015C0434642464146D7F8A80D02F04DFF434632
S315000015D042464146D7F8A40D02F046FFBEB941F295
S315000015E0340342F6F05203FB04F4A7F6F877A31887
S315000015F02C44A650FE503B445E60EB68022BBFD1E4
S3150000160041F6CC53E05803F0F3FB0128B8D01A4E4C
S31500001610B6E71A48D0F8F03D042BC3D100234FF4A7
S315000016207A72A0F50050CDE900230323144AFFF790
S315000016302FFBB7E7D5F8FC3BA342B3D02046FFF714
S3150000164047FF08B9EB68AAE705F5805533463246E9
S315000016503146D5F8A80D02F007FF3346324631462B
S31500001660D5F8A40D02F000FFD1E700BF900A0020D4
S3150000167090910000901A002074110100902A002019
S31500001680509100002DE9F0414E4C80460E4686B042
S31500001690032120461546FFF787F900287ED141F23F
S315000016A0340342F6F85203FB08439B58002B77D0CD
S315000016B0E3680746022B4BD040F2DC520021424839
S315000016C006F0ECFB0295F3B2404A3F4D0193C6F398
S315000016D0072307CA009303C5C6F307433C492A708C
S315000016E02846320E06F0A8FA012343F69822CDE9E1
S315000016F00023A5F608400323A169A5F10802FFF718
S31500001700C7FA20B1C0B2072801D0012836D141F26C
S31500001710340E002342F6FC5203214FF0040C42F62D
S31500001720F0560EFB08442B4DA150D5F8A80D1A46CD
S31500001730194644F806C002F097FE0023D5F8A40D1A
S315000017401A46194602F090FE384606B0BDE8F0810A
S315000017504046FFF7BDFE0028AED004F580543B4658
S315000017603A463946D4F8A80D02F07EFE3B463A4684
S315000017703946D4F8A40D02F077FE0FE0002305F5F4
S315000017807E751A461946D5F8A80D02F06DFE00239F
S31500001790D5F8A40D1A46194602F066FE0E4FD3E799
S315000017A004F580541A461946D4F8A80D059302F09C
S315000017B05BFE059BD4F8A40D1A46194602F054FEAA
S315000017C0ECE700BF900A002090160020C4910000AC
S315000017D0A8910000901A0020741101002DE9F04331
S315000017E04E4C06460F4683B003212046FFF7DCF831
S315000017F0002870D141F2340342F6F85203FB064347
S315000018009B580546012B56D0E368022B4ED0012F7C
S3150000181094BF0022012204234149424806F00CFAF3
S315000018204FF00009C821CDE900193E4A0323A169FA
S31500001830A2F54060FFF72CFA074600B3C3B2DFF803
S31500001840EC80072BD8F8A80D47D141F2340142F6B7
S31500001850F853012201FB0644E2500023D8F8A80DF4
S315000018601A46194602F000FE0023D8F8A40D1A46BF
S31500001870194602F0F9FD284603B0BDE8F08341F2AF
S315000018803403012242F6F05041F6CC5142F6F85CA0
S3150000189003FB06431A50585843F80C2018B103F0BE
S315000018A0A7FA01282AD1DFF88480D6E73046FFF769
S315000018B00FFE0028ABD004F580542B462A46294655
S315000018C0D4F8A80D02F0D0FD2B462A462946D4F8B6
S315000018D0A40D02F0C9FD144DCDE73D464B464A46E0
S315000018E0494602F0C1FD4B464A464946D8F8A40D82
S315000018F002F0BAFD284603B0BDE8F0830B4C3B4628
S315000019003A463946D4F8A80D02F0AEFD3B463A46B3
S315000019103946D4F8A40D02F0A7FDDCE7900A0020B2
S31500001920D09100009016002074110100901A00203A
S315000019302DE9F84F41F2340A42F6FC54474D0AFBB2
S31500001940005A5AF8044014F0020402D12046BDE8B9
S31500001950F88F05F5805983468846D9F8A40D42F2DA
S31500001960107116461F4602F0BBFF012846D142F60B
S31500001970F8535AF80330002B39D042F6F0535AF890
S315000019800330042B33D1EB68022B44D03446002EAF
S3150000199037D04FF47A7303FB07F7314B0024A3FBD0
S315000019A0073740F28C5ABF090DE0EB69394603F55B
S315000019B0EE6305EB8303586802F092FF5C4400284F
S315000019C043D0A6421DD9A6EB040BD34528BFD34668
S315000019D0E86908EB040100F26E7005EB80004368CD
S315000019E09A68186893685A4698470028DDD00023FD
S315000019F0D9F8A40D1A46194602F036FD4FF0FF3409
S31500001A00A4E70023D9F8A40D1A46194602F02CFDC6
S31500001A102046BDE8F88FD5F8FC3B5B45B6D042F2D0
S31500001A201071D9F8A80D02F05BFF0128DFD15846E6
S31500001A30FFF74EFD002304461A461946D9F8A80DAD
S31500001A4002F012FD002CA1D0D1E703460246014662
S31500001A50D9F8A40D02F008FDD0E700BF900A0020D7
S31500001A60D34D62102DE9F04F884697B02C210646DB
S31500001A70144605F0F7FC20B92C21204605F0F2FCAF
S31500001A8020B10324204617B0BDE8F08FAE4D0321E8
S31500001A902846FEF789FF8146002840F0DC8005F5E0
S31500001AA08057D7F898ADBAF1000F40F0C68005F51B
S31500001AB0406940F2DC525146484606F0EFF94FF4D1
S31500001AC0C873CDF804A00093284603239F4AA9694A
S31500001AD0FFF7DEF8002840F0C080B8F1000F00F0F4
S31500001AE0E280A8F10203012B00F2B7804B46984A28
S31500001AF007CA03C331461A704846202205F0CAFFBA
S31500001B00484606F091F8934BB8F1020F1B8829F866
S31500001B1000300CBF904B914B013019889B7809EB34
S31500001B20000229F8001093708D4806F07DF80346F0
S31500001B308C49202208680E7949F803004B441E712F
S31500001B402146874805F0A6FF854806F06DF8864BC6
S31500001B501B8829F80030002644F62064804AA969CB
S31500001B60A2F54060CDE900460323FFF791F804464D
S31500001B7040F2DC5231467A4806F090F9002C40F0EB
S31500001B80C7804FF00508DFF804B2DFF8BCA1642374
S31500001B900022CDE9003250465A46A969FFF778F887
S31500001BA00446002868D115AB099314AB089313AB10
S31500001BB0079311AB059310AB04930FAB03930DABD7
S31500001BC0019312AE0CAB0DF13809009367496848D2
S31500001BD00696CDF808900AAA0BAB06F04DF80C282D
S31500001BE04AD1DDE90A3213430C9A13430D9A134383
S31500001BF042D049465F4A0AAB53F8040B02F8010F7C
S31500001C0051F8040B9945107156F8040B1072F3D174
S31500001C10EB68022B5BD0D7F8985DD7F8A80DADBB63
S31500001C202B462A46294602F01FFC2B462A46294601
S31500001C30D7F8A40D02F018FC0DE003460246014653
S31500001C40D7F8A80D02F010FC4B464A464946D7F88D
S31500001C50A40D02F009FC484C14E70023D7F8A80DA0
S31500001C601A46194602F000FC0023D7F8A40D1A46BE
S31500001C70194602F0F9FBEEE74FF4FA5003F03CFD8B
S31500001C80B8F1010883D14FF0FF34C4E700231A46A8
S31500001C90194602F0E9FB0023D7F8A40D1A461946A7
S31500001CA002F0E2FBEEE6354B202293E80300C5F88E
S31500001CB0000CA5F8041C4846314605F0EBFE4846E4
S31500001CC005F0B2FF284B1B8829F8003043E76B6903
S31500001CD0002BA0D000262A4B012100934FF4805000
S31500001CE03246CDE90166203303F000F8C7F8CC0D83
S31500001CF038B36B69012B8ED9224C324601214FF441
S31500001D008050CDE9016604F12003009402F0EEFF55
S31500001D104FF47A74A96903231B4A019600940A4872
S31500001D20FEF7B6FF334632463146D7F8A80D02F025
S31500001D309BFB334632463146D7F8A40D02F094FB9E
S31500001D4089E70D4C67E700BF900A0020D890000095
S31500001D50E8910000F4910000F8910000FC91000069
S31500001D6090160020009200003091000014920000AE
S31500001D706C1C00202728002074110100E09100004F
S31500001D80602800209438002034910000089200005A
S31500001D902DE9F04F41F2340B42F6FC54784E85B0F3
S31500001DA00BFB006B5BF8044014F0010403D12046E2
S31500001DB005B0BDE8F08F06F5805A07468846DAF882
S31500001DC0A80D42F210711546994602F089FD0128C8
S31500001DD0044640F0CC8042F6F853F2685BF80330D4
S31500001DE0022A009225D0002B00F0BA804FF47A73B5
S31500001DF003FB09F3634A4146A2FB032302469B0900
S31500001E00D6F8D80BFEF798FE0390039F012F5ED0FD
S31500001E1000240121D6F8D80B03F028F80023DAF8BD
S31500001E20A80D1A46194602F01FFB204605B0BDE86C
S31500001E30F08F002B00F0948042F6F0535BF80330ED
S31500001E40042B40F08D80D6F8FC3BBB421CD000230F
S31500001E50DAF8A80D19461A4602F006FB03213046A9
S31500001E60FEF7A2FD0190002840F081803846FFF77A
S31500001E702FFB8346019BDAF8A40D1A46194602F099
S31500001E80F3FABBF1000F75D14FF47A7341F2340BBC
S31500001E9041F6CC5003FB09F33A4A0BFB076BA2FB56
S31500001EA00323414601225BF800009B09FEF744FE2E
S31500001EB0012881462DD0002441F2340241F6CC534C
S31500001EC002FB07670121F85802F0D0FFA6E7002DB4
S31500001ED09ED0B5F101099CD0002406E0039BA542E3
S31500001EE01F4495D0B5EB070911D04946D6F8D80B53
S31500001EF002F0BCFF0A234A46D6F8D80B08EB0701C6
S31500001F00FEF71AFE0390039B0134002BE6D13C46F4
S31500001F107FE7002DCFD06A1ECED00BF5EE5B009783
S31500001F20002417460BF10C0B05E0A542814415D0A1
S31500001F30B5EB09070FD03946DBF8000002F096FF33
S31500001F400A233A46DBF8000008EB0901FEF7F4FD28
S31500001F5001340028E9D14C46009FADE7009FAAE76F
S31500001F600023DAF8A80D1A46194602F07DFA4FF05A
S31500001F70FF341CE730460099FEF742FDF7E700BF45
S31500001F80900A0020D34D621000BEFEE71EF0040F3B
S31500001F900CBFEFF30880EFF3098001490847000002
S31500001FA0312000000F4B1968EFF309821EF0100F65
S31500001FB008BF22ED108A22E9F04FEFF30B8342F8B7
S31500001FC0043D0A604FF0100080F31188BFF34F8F75
S31500001FD0BFF36F8F03F0D4FB4FF0000080F311883E
S31500001FE000F002B8FC3A0120074801680A6802CAF4
S31500001FF081F30B88B2E8F04F1EF0100F08BFB2EC69
S31500002000108A82F309887047FC3A012010B5EFF375
S315000020101184102383F3118803F0A2FB18B14FF04B
S315000020208052024B5A6084F3118810BD00ED00E027
S3150000203008B5836913F8023C022B02D0032B04D89F
S3150000204008BDBDE80840FFF7CFBF4FF47E71024BD5
S31500002050024A034801F0B8FD4C920000E0A20000DD
S315000020606092000070B44FF080756FF00204094E64
S31500002070283122F0010240F80C6C40F8045C40F86C
S31500002080244C40F8203C40F8082C70BC40F8481D11
S31500002090704700BF891F000008B5EFF311811023B8
S315000020A083F311880A4A13680133012B136000D0A9
S315000020B008BD084A084B11605B68C3F30803002B90
S315000020C0F6D040F2A441054B054A064801F07CFDD6
S315000020D0B4390020B039002000ED00E088920000FD
S315000020E0CCA2000060920000094A08B513683BB113
S315000020F0013B13601BB9074B1B6883F3118808BDAE
S3150000210040F2AD41044B054A054801F05DFD00BFB4
S31500002110B4390020B0390020D0920000B8A20000E7
S315000021206092000080B3194B9A8990B2120409D4C8
S31500002130BFF34F8F30BFBFF36F8F62B6BFF36F8FA2
S3150000214072B670474AF202514FF0000CB3F8FE2304
S31500002150A3F8FE1392B242F42542A3F80CC0A3F8EA
S31500002160FE23BFF34F8F30BFBFF36F8F62B6BFF34F
S315000021706F8F72B6B3F8FE23A3F8FE1392B242F441
S3150000218025429881A3F8FE23704700BF00E0014076
S3150000219008B572B603F0D4F90120FFF7C3FF62B6A3
S315000021A0BDE8084003F0D4B90D4B0E4A1B68A2FBEC
S315000021B003239B09013BB3F1807F00D370474FF0A7
S315000021C0E0224FF0F00C0020072110B4064C5361BA
S315000021D084F823C05DF8044B90611161704700BF1D
S315000021E0A83B0020D34D621000ED00E0F02208B5B8
S315000021F00B4B83F82220FFF7D7FF0A4A536B43F0B5
S315000022004043536362B6BFF36F8FEFF3148C2CF029
S31500002210040C8CF31488BFF36F8F02DF00BEFDE75A
S3150000222000ED00E000EF00E008B5EFF30383103B9C
S315000022301A0604D50E4BDB685B0511D408BD03F006
S31500002240FF0202F1604303F5614393F800331B0973
S31500002250F0D140F20F61074B074A084801F0B4FC81
S3150000226040F22161064B044A044801F0ADFC00BF70
S3150000227000ED00E0E492000098A2000060920000E9
S315000022801C9300002DE9F043002783B005460C207F
S31500002290894616469846009701F05EFE04460028D9
S315000022A03DD04FF0FF3347608760304F036068468C
S315000022B0FEF766FB3B68012B0AD96FF00C06204639
S315000022C001F0E4FE002430462C6003B0BDE8F08344
S315000022D00098FF28F1D004220121FFF77FFA10B100
S315000022E04FF0FF36EBE73B683BB34FF47A7C0A9F2F
S315000022F0009A1F4B22600CFB08F20CFB07FCA3FBA9
S315000023000272A3FB0C7392099B09484601A96260FD
S31500002310A360FFF74BF8F8B16FF0C706CFE7684642
S31500002320FEF72EFB114B1B68012B09D96FF00C062B
S3150000233030462C6003B0BDE8F08301233B60D4E750
S31500002340009B2C60FF2B0CBF6FF00C066FF0020693
S31500002350304603B0BDE8F08301993246009809BAC9
S31500002360FFF790F906460028BAD1ACE7B839002045
S31500002370D34D621010B50446A0B0802200216846F5
S3150000238005F08CFDACB1621C13D02068431C09D04B
S31500002390802269466368FFF7FBFC00282068F7DCAB
S315000023A0FFF7E0F8204601F071FE034A1368013B8F
S315000023B0136020B010BD00BFB839002070B108B559
S315000023C003460068B0F1FF3F05D05B68FFF7E0FC0D
S315000023D040EAE07008BD6FF0030008BD6FF003002F
S315000023E0704700BF70B108B503460068B0F1FF3F03
S315000023F005D09B68FFF79CFA40EAE07008BD6FF0D5
S31500002400030008BD6FF00300704700BFF8B5C3694D
S315000024101546DA6804460E466AB18378916803F079
S315000024200303013B25FA03F310688F683246002147
S315000024309BB2B84710B90020C4E90565F8BD00BFD6
S31500002440F8B50446236A10469A780D4602F07B02D8
S315000024509A7022785ABBE16994F802C00E690CF0B2
S315000024600301401A2944C4E903104EB378B100228F
S31500002470A378B76803F00303013B20FA03F39BB28A
S315000024803068BE682261B04780B9236A227899789D
S3150000249041F08001997042B994F802C00CF0030C27
S315000024A0BCF1020F15D02A78DA700020F8BDC4E915
S315000024B00310E1690E6996B129460028E7D0D6E7F0
S315000024C09A780CF0030C42F08002BCF1020F9A706D
S315000024D0E9D12A88002042F47E42DA81E6E79A783A
S315000024E0002042F080029A70E0E700BF8446002098
S315000024F0CCE90A32CCF82410704700BF012310B58E
S31500002500C4690A7894F800C003FA0CF313F0060FB6
S3150000251001D013071ED402F05C0E0022036A93F862
S3150000252002C00CF00B049C70C26010468A784C788E
S315000025305A701A780CF07B0C64F301021A70CA7890
S315000025409A74DA7902F0A30242EA0E02DA7183F88B
S3150000255002C010BD032010BD03460020DB69DA6807
S3150000256082420CBF4FF0FF324FF480324A601B6943
S3150000257083420CBF4FF0FF334FF480330B6070473C
S3150000258038B5044688070D4631D5D4E90732917827
S31500002590186901F07B01917000282DD082680068CF
S315000025A01369984723783BB1226A938A43F0040360
S315000025B09382938A5907FCD400232361B0B9EA07B2
S315000025C04FF0000012D50022E369D868A26118B165
S315000025D0826800681369984723783BB1226A938A18
S315000025E043F002039382938A9B07FCD438BDEA0723
S315000025F04FF00600E7D438BD21780029D5D12161F6
S31500002600DDE700BF30B500220D46D0E90613DB68D2
S3150000261085B0296082617BB19A680446186813699F
S31500002620984750B9E3696946DB689A681868D369C0
S31500002630984710B9039B2B60002005B030BD00BF42
S3150000264010B5002204460123006A62608270E269C6
S315000026502E4992F90520500902F01F0203FA02F2F0
S31500002660203041F82020BFF34F8FBFF36F8FE26910
S3150000267092F90B20500902F01F0203FA02F22030F1
S3150000268041F82020BFF34F8FBFF36F8FE26992F9B5
S315000026900720500902F01F0203FA02F2203041F827
S315000026A02020BFF34F8FBFF36F8FE26992F90920A5
S315000026B0500902F01F02934000F1200241F8223037
S315000026C0BFF34F8FBFF36F8FE369DA6822B1936868
S315000026D010681B6A9847E3691B691BB19A681868FA
S315000026E0136A9847EFF31081012383F310884FF0A4
S315000026F00043E069064A04785068E34003435360A8
S31500002700536881F31088002010BD00BF00E100E08F
S3150000271000400840F0B5846A85B005460F469446E9
S315000027206E46B4B194E80F0086E80F00EB692046C8
S315000027301B7884F804C02360EB6AC4E902736B6AF1
S315000027409847AC6A1CB196E80F0084E80F0005B004
S31500002750F0BD3446EAE700BF01232DE9F041044607
S3150000276008780D46834013F0060F05D0CB695B68E9
S315000027701B78190700F1458240F2F9330121002642
S31500002780C3400B401B0123706B6900F58002636236
S3150000279002F58C52AB691202C4E90752C4E90A6316
S315000027A06B78A778B34214BF0B46022363F3010785
S315000027B0A77095F90B00704A430900F01F072033F4
S315000027C001FA07F795F80AC042F82370BFF34F8F56
S315000027D0BFF36F8F694B00F1C00753F827E066F32C
S315000027E0104E43F827E053F82770654F4FEA0C1C4C
S315000027F002EB000E5FFA8CFC8EF800C347F820400F
S3150000280095F9050095F804C04FEA501E00F01F0820
S315000028100EF1200E01FA08F842F82E80BFF34F8F12
S31500002820BFF36F8F00F1C00E53F82E8066F3104889
S3150000283043F82E8053F82EE04FEA0C1C02EB000EF4
S315000028405FFA8CFC8EF800C347F8204095F9070024
S3150000285095F806C04FEA501E00F01F080EF1200E34
S3150000286001FA08F842F82E80BFF34F8FBFF36F8F3F
S3150000287000F1C00E53F82E8066F3104843F82E8000
S3150000288053F82EE04FEA0C1C02EB000E5FFA8CFCAC
S315000028908EF800C347F8204095F9090095F808C05E
S315000028A04FEA501E00F01F080EF1200E01FA08F143
S315000028B042F82E10BFF34F8FBFF36F8F00F1C001A8
S315000028C053F821E066F3104E43F821E053F8213027
S315000028D04FEA0C13DBB2024482F80033EB6847F888
S315000028E02040F3B14FF400205968E7690A68106088
S315000028F094F800C0206A461DBCF1000F00F07881F4
S3150000290011305060787830B90B3656600126D07891
S3150000291066F30510D0709A681868126890470646E4
S3150000292038BB2B69002B2DD04FF000605968E76942
S315000029300A68106094F800C0206AC61CBCF1000F3B
S3150000294040F0588130469060787830B90B36966002
S315000029500126D07866F30510D0709A681868126858
S315000029609047064670B1EB681BB19A681868136AFF
S3150000297098473046BDE8F08100E100E00060004085
S315000029801C3A0020EFF31080012383F310884FF0E8
S315000029900041A24B2E785A68F14022EA01025A60A1
S315000029A05B6880F31088002240F2F931236AE069FF
S315000029B09A701A715A729A72DA725A832A7821FABE
S315000029C002F2D20744BF4022DA7406221A7722782E
S315000029D07AB1C168013A002900F017810126120375
S315000029E091B2314341F006029A829A8A92B291429A
S315000029F0FBD1EA78A978D20042EA01126978032964
S31500002A0000F0E98000290CBFE226F226E969D2B27D
S31500002A101A709E710A7B0026082A0EBF0A225200EF
S31500002A2002F002025A734A788D78D2016D0105F0E0
S31500002A3020051E72D2B22A430D78AE1E012E40F238
S31500002A40CE80D2B2DA714A68967857785E701E7870
S31500002A5067F301061E70D67812789E74DE7902F04E
S31500002A605C0206F0A3063243DA7100262661A661EF
S31500002A70E660666190F90570694B07F1C00253F88C
S31500002A80220066F3104043F8220053F82220BFF3D9
S31500002A905F8F01207A09920007F01F0702F160425A
S31500002AA002F5614200FA07F7C2F880711760E26921
S31500002AB092F90B7007F1C00253F822C066F3104C6E
S31500002AC043F822C053F82220BFF35F8F7A099200A1
S31500002AD007F01F0702F1604200FA07F702F56142AC
S31500002AE0C2F880711760E26992F9077007F1C002B7
S31500002AF053F822C066F3104C43F822C053F8222044
S31500002B00BFF35F8F7A09920007F01F0702F1604258
S31500002B1000FA07F702F56142C2F880711760E269B0
S31500002B2092F9092002F1C00753F827C066F3104C4A
S31500002B3043F827C053F82730BFF35F8F53099B0034
S31500002B4002F01F0203F1604300FA02F203F561434B
S31500002B50C3F880211A60226A05F0030545F0700566
S31500002B604B8995704FF6FF72934223812DD0EFF378
S31500002B70108180F310882B4A13681BB92A48C3704A
S31500002B804023C37013680133136081F310882189D1
S31500002B9026480B0A1B0153FA81F150F8213023F025
S31500002BA0011323F4404343F0040340F82130EFF3CC
S31500002BB01081012383F31088136813B11368013B56
S31500002BC013601368C3B181F310880026184B304692
S31500002BD06360BDE8F081F22642F0400216E7FF2668
S31500002BE0022D08BF42F01002D2B25E70DA713CE7E5
S31500002BF0304686E60F30A6E680200B4AD370D070AA
S31500002C00E1E703263046BDE8F081C1690E7A164039
S31500002C10360206F4706646F00106E0E6004008401B
S31500002C2000600040183A0020000D084000080840E7
S31500002C30554943532DE9F04F4FF0800CFF279A4634
S31500002C40904683F803C09F708FB06E4E6E4D059010
S31500002C509AF80000336A2A6820F004006B4C8AF860
S31500002C600000C3F302608240C3F30233DA40A0459A
S31500002C70049266DC0025664BCDE90A150193A2FB9A
S31500002C8003030993130A08900293CDF83480EBB23C
S31500002C90002400930C9502E001340D2C4AD05D4BC4
S31500002CA0009A1F5DC7F34009C7F3800849EA080385
S31500002CB09342F1D1584B33F81460059B03FB06F69B
S31500002CC0049BB3FBF6F2531EFF2B0393E4D8DDE916
S31500002CD0080102FB06FB1D465A464FEAEB7303F05A
S31500002CE0B1FF0A9A002A39D1A0F5C330A0380028CE
S31500002CF0019BB8BF40428342CEDD039BC7F300026F
S31500002D008AF802309AF80030C7F3C10762F38613D7
S31500002D1069F3041368F3C3038AF800309AF80130A4
S31500002D20013467F301038AF801300A9B0D2C0190E8
S31500002D300B93B4D10C9D45B9019B0D9A0125934285
S31500002D40A5DC00200FB0BDE8F08FDDF83480019BD4
S31500002D504345F6DD03200FB0BDE8F08FCDE90698B8
S31500002D60DDE9088903940B9F5C46DDF804B006E0B4
S31500002D70224640464946E317013D03F063FF029BA6
S31500002D80B4FBF3F3D9B21B0636D501FB00F00028DD
S31500002D90B8BFFF300312A3F5C333A03B002BB8BF67
S31500002DA05B429B451DDD1B4A03980F46105C9B4604
S31500002DB001469AF80030069AC0F3000060F38613C5
S31500002DC062F304139AF80100079AC1F3C10161F393
S31500002DD0010062F3C3038AF802508AF801008AF8F8
S31500002DE000309AF80030A41B43F004038AF8003040
S31500002DF08AF80370002DBBD1039CCDF804B00B9765
S31500002E004AE700BF00E00140A83B00209F86010082
S31500002E10A086010034A3000018A30000F0B5EFF36C
S31500002E200383103B3C4A5BB203F1C00152F8210018
S31500002E3020F4803042F8210052F82120374A52F817
S31500002E402300C3691B699BB1036903B1F0BD046A22
S31500002E500021A378426A03F07F0343F00403A370C2
S31500002E60C160002AF2D0BDE8F0408022FFF752BCD4
S31500002E700369046A002BEBD005782DB3E18AC1F310
S31500002E800421A94241D290F802E0254F0EF0030634
S31500002E90CEF3010E0CE092F800C084F80FC00131A9
S31500002EA0A3EB0E037244A942C0E903231FD2F3B178
S31500002EB0022EC268EFD1B2F800C04CEA070C1FFA26
S31500002EC08CFCA4F80EC0EAE790F802E0C2680EF0A7
S31500002ED00301022914D01178E1700EF0030EA3EB62
S31500002EE00E037244C0E90323002BAFD1AFE722796A
S31500002EF002F07D0242F002022271002BA6D1A6E763
S31500002F00118841F47E41E181E7E7237903F07D03EF
S31500002F1043F002032371F0BD006000401C3A00201C
S31500002F2000FEFFFF10B582B0EFF30383103B5C4A4F
S31500002F305BB203F1C00152F8210020F4803042F860
S31500002F40210052F82120574A52F82340E369DB68F2
S31500002F5013B1A369002B48D14FF6FF7322899A4219
S31500002F6074D12078236AA8B9A27802F00302022A53
S31500002F7013D05979A369C9B20191ABB9636A23B178
S31500002F8020460422FFF7C6FB207838B3236ADA8A84
S31500002F90D2067DD0DA8AD1067AD0198AA369C1F31E
S31500002FA008010191002BE9D0A27801A902F00302E1
S31500002FB0606904F0AFFCD4E90521A37803F00303AC
S31500002FC01A44C91AC4E9052129B9636A1BB1012249
S31500002FD02046FFF79FFB20780028D7D14FF6FF72D7
S31500002FE0238993420ED102B010BD0021636AC4E961
S31500002FF00511002BF7D00122204602B0BDE8104093
S31500003000FFF788BB1A0A2849120152FA83F351F8CE
S31500003010232022F0011222F4404242F0040241F839
S315000030202320EFF31082012383F310881F4B1968C6
S3150000303011B11968013919601B681BB980201C4938
S31500003040CB70C87082F3108802B010BDEFF3108108
S31500003050012383F31088154B1A681AB91448C270F5
S315000030604022C2701A6801321A6081F310882289E0
S315000030700D49130A1B0153FA82F251F8223023F04C
S31500003080011323F4404343F0050341F8223068E777
S31500003090BE221A714FF6FF7223899342A3D0B1E77D
S315000030A0006000401C3A002000080840183A002042
S315000030B0000D084010B5EFF303830E4A103B5CB2D7
S315000030C052F82400D0E90821937803F07B0393702B
S315000030D019B102220021FFF71DFB074A04F1C003C4
S315000030E052F8231021F4803142F8231052F823308D
S315000030F010BD00BF1C3A00200060004010B5EFF381
S3150000310003831C4A103B5CB252F82400037843B98F
S31500003110837803F00303022B03D0036A5979C9B2FB
S3150000312003E0036A198AC1F3080193F804C01CF08E
S31500003130100F0CF0380206D093F81CC01CF0010FDB
S3150000314008BF42F0400293F804C00CF0C70C83F8A5
S3150000315004C0436A0BB1FFF7DDFA074A04F1C00366
S3150000316052F8231021F4803142F8231052F823300C
S3150000317010BD00BF1C3A002000600040002203463C
S3150000318010461A60704700BF0B0A10B41B01064CAC
S3150000319053FA81F154F821300020C3F340035DF85F
S315000031A0044B1370704700BF00080840090A490124
S315000031B001F1804101F500214B6800201380704722
S315000031C0090A490123EA020C01F180411A4001F57E
S315000031D0002142EA0C4200208A6070470120CBB2EF
S315000031E0984080B202B900040B0A5B0103F18043E8
S315000031F003F5002398600020704700BF090A4901C3
S3150000320001F1804101F5002110B40C6802EA030CBB
S315000032104CEA040C62EA030202EA0C0200205DF8A2
S31500003220044B0A60704700BF090A490101F1804159
S3150000323001F500214B680020C3F30F43138070474C
S31500003240012310B44FEA112C4FEA4C1C0CF1804CB0
S315000032500CF5002CDCF80440C9B28B4099B203EAA5
S3150000326014435B1AB3FA83F35B0900205DF8044B41
S3150000327013707047090A490123EA020C01F18041E3
S315000032801A4001F5002142EA0C420020CA6070474C
S3150000329001200B0A5B0103F1804303F50023C9B249
S315000032A010B400FA01F1DC68012A4FEA01400DBFB3
S315000032B084438C4304430C430020DC605DF8044BDC
S315000032C0704700BF2DE9F84F0388DBB180464FF009
S315000032D000094FF0010BDFF884A000241E4D4FEAD1
S315000032E0C907D8F8043035F8022BD91989889142D4
S315000032F00AD00134032CF4D1B8F8003009F10109E1
S315000033004B45EAD8BDE8F88FDB590BFA04F603F013
S31500003310B853B3F1807FF6B29AF8BB340ED033427D
S31500003320E7D0012000F024FD9AF8BB34012023EAFF
S3150000333006038AF8BB3400F0EBFCDAE73342D8D157
S31500003340012000F015FD9AF8BB34012033438AF8BA
S31500003350BB3400F0DDFCCCE744A3000000E00140F4
S31500003360F8B50446FFF7AEFFEFF31082012383F3AF
S315000033701088234F3B681BB92249CB704023CB7082
S315000033803B6801333B6082F3108823882BB3616866
S315000033901D4C01EBC30E06E01B01083113448E459C
S315000033A044F8230019D008688A88C5034FEA122317
S315000033B0D2B2F1D502EB031C54F82C601B01083184
S315000033C020F4803526F4803613448E4544F82C606C
S315000033D044F82C5044F82300E5D1EFF31082012382
S315000033E083F310883B6813B13B68013B3B603B6845
S315000033F01BB980200349CB70C87082F31088F8BDD2
S31500003400183A0020000D08400008084008B5034B94
S3150000341003600846FFF7A4FF002008BD54524F5032
S3150000342008B50846FFF79CFF002008BD70B50126C9
S3150000343086B001AB03A80C4615460493ADF80C60A4
S31500003440ADF808100192FFF73DFFEFF3108286F307
S3150000345010881D490B681BB940261C48C370C670EE
S315000034600B6801330B6082F31088EA034FEA1423DA
S31500003470E4B219D41B01164A234442F82350EFF351
S315000034801082012383F310880B6813B10B68013B8C
S315000034900B600B681BB980200C49CB70C87082F397
S315000034A01088002006B070BD094A04EB031052F8DC
S315000034B020601B0126F4803642F8206025F4803611
S315000034C042F82060D7E700BF183A0020000D0840F8
S315000034D00008084030B482B0019190F904100092BF
S315000034E01A4D1B4A01F1C00C52F8210055F82C2048
S315000034F0184C22F0807241F4004145F82C20E289F4
S3150000350092B29142FBD008222274019A0AB1019A22
S315000035104260009A0AB1009A8260C27802F0C00145
S31500003520802910D03F2A98BFC38118210020094B5B
S31500003530064A197452F82C3043F0807342F82C3046
S3150000354002B030BC70478381EFE700BF00600040E7
S3150000355000000020005400400620704706207047F7
S31500003560034693F904300549C03351F8232000205F
S3150000357042F0807241F82320704700BF006000408F
S31500003580034693F904300549C03351F8232000203F
S3150000359022F0807241F82320704700BF006000408F
S315000035A0002390F90400144A52F82020C1E90033A0
S315000035B0D3783F2B0ED910B44FF48074D08903F022
S315000035C0C003C0B2802BC1E902400BD000205DF8D9
S315000035D0044B70474FF48030D3899BB2C1E9020394
S315000035E0002070474FF4803093895DF8044B9BB2FE
S315000035F0C1E9000300207047000000200620704744
S31500003600062070470346002230B593F904C0074CE4
S315000036100CF1C00E54F82E10054D21F0807144F8BF
S315000036202E10104645F82C201A6030BD0060004070
S315000036300000002010B590F904E0184A0EF1C00C05
S3150000364052F82C30164C23F0807342F82C304EF48E
S315000036500042E3899BB29A42FBD00B46DA781846C1
S315000036603F2A05D9DA89D2B202EB022292B2DA8176
S31500003670827810333F2AF1D808221820084B1A7492
S31500003680084A42F82E10054A187452F82C300020C9
S3150000369043F0807342F82C3010BD00BF006000403C
S315000036A00054004000000020264AF8B5137804466E
S315000036B00D4633B36B6893F9000000283EDB224EBB
S315000036C056F82030002B3BD120712D68ADB12B462A
S315000036D0DA7819463F2A05D9DA89D2B202EB0222F4
S315000036E092B2DA818A7810333F2AF1D80822174B32
S315000036F01A74182246F820501A74154B00202360BD
S31500003700F8BD01261670EFF3108086F31088114A73
S31500003710116821F480011160126880F310880A4F45
S3150000372019464FF4C072384604F0B8FB074B5F6188
S315000037301E736B6893F900000028C0DA0B20F8BDF1
S315000037400820F8BDBC3900200000002000540040CD
S31500003750004354440040084030B4057B84689DB162
S3150000376004F10C02107800F001001378C3F3400353
S315000037708342FAD11378C3F340030B713DB123683A
S31500003780002030BC0B60704704F10802EAE723888A
S31500003790002030BC9BB20B60704700BF30B4057B85
S315000037A0846895B104F10C02117801F001011378D7
S315000037B0C3F340038B42FAD143681978012907D035
S315000037C030BCF12300201370704704F10802EBE7C8
S315000037D00169187C084B43F8201001392DB1F123FB
S315000037E02160002030BC13707047F12389B221801C
S315000037F0002030BC13707047C03900200023F0B49D
S31500003800037341600A7C0446120202F1804202F50B
S3150000381068228260EFF31085012383F31088087C09
S3150000382003287AD8C0F103008340DB434248C668C8
S315000038300C3033400360036885F31088002313724D
S31500003840137AC3F340009B07FAD4267B9072A768CD
S315000038500D7AC869002E5DD007F10C02C37890F886
S3150000386000C003F007030079BCF1000F49D1002D19
S315000038705BD110710020907153704B68957062682F
S315000038802361107C2D4A42F82030013B002E35D0B2
S315000038903B6091F91230002B26DB4A7C03F1604035
S315000038A01201D2B200F5614080F800232448254A6F
S315000038B040F8234003F1C00052F8205025F480352B
S315000038C042F8205052F82020BFF35F8F01205A099A
S315000038D0920003F01F0302F1604202F5614200FA12
S315000038E003F3C2F8803113600020D1E90552164B6C
S315000038F06561E2612360A061F0BC70479BB23B80CA
S31500003900C7E7BCF1500F06BF002543F050034CEA51
S315000039100303AEE707F10802A0E7C0F113008340F6
S315000039200548DB430669103083E785F0020543EA64
S315000039300513DBB265469CE700400840C03900200D
S315000039401C3A002000600040544741002DE9F04138
S3150000395084B0EFF30383103B214A5BB203F1C0014D
S3150000396052F8210020F4803042F8210052F821203C
S315000039701C4A52F82340237BA5686BB30C3562685A
S315000039802B781278DBB2012A04D1F42203F0F0037B
S315000039902A702B70D4F81480B8F1000F15D0A669E0
S315000039A001AFDEB196E8070087E807009B0644BF33
S315000039B000233371E36930463360C047A3691BB106
S315000039C097E8070083E807002B78DBB203F00F03C4
S315000039D02B7004B0BDE8F0810835D0E73E46E5E738
S315000039E0006000401C3A0020064B074993F8260069
S315000039F01A6A51F82030C2F302620449D3400B60C0
S31500003A00704700BF00E0014020020020A83B0020D4
S31500003A10704700BFF8B54AF2035001234549464AAC
S31500003A20A1F8FE03A2F80431B2F804319BB2002BD0
S31500003A30FAD101204FF400454FF0090C3F4CDFF856
S31500003A4018E13F4EC4F804E0DFF810E13949C4F844
S31500003A500CE03C4FA2F800013B4AB0603060626166
S31500003A60276091F82620A5602561086A54F822206F
S31500003A70364EC0F30260C240326081F8133481F8DA
S31500003A80A2C091F880341BB991F8813499074CD0C3
S31500003A90284D95F88034002B3CD00022254B83F826
S31500003AA0812483F880240023224981F8323091F85A
S31500003AB03C301A07FBD543F2021000231D4A088545
S31500003AC081F82A3092F83C309B06FBD5032005236B
S31500003AD019494FF0F10C81F81C011D49116282F859
S31500003AE0263092F82630156A54F82300C5F302648E
S31500003AF00123E0403060F0244FF42540154981F859
S31500003B000CC00B720C7382F8303082F85230A2F877
S31500003B10FE03F8BD0121C82085F8801400F05CF88A
S31500003B2095F88034012BFBD1B7E74FF47A70FFF795
S31500003B306FFFB8E700E0014000C00140200200200E
S31500003B4000700040002D310100C2EB0BA83B0020A5
S31500003B50211201200020004000127A0000366E017A
S31500003B6038B50025164C0121C82084F8285000F0ED
S31500003B7033F884F8245094F82430002BFBD194F8C1
S31500003B8024300F4A43F0020384F8243092F824309C
S31500003B90C3F340019B07F9D4094882F8221090F834
S31500003BA0223003F0FF04002BF9D1012000F0E0F8E9
S31500003BB0044B012083F8BB44BDE8384000F0A8B8A8
S31500003BC00030084000E0014000BEFEE7A0F1010021
S31500003BD00028FBD1704700BF4FF47A7310B400FB86
S31500003BE001F1114C114A2468B2FBF4F2A1FB030463
S31500003BF03CB9B0FBF2F0800860B15DF8044BFFF70A
S31500003C00E5BF9200B1FBF2F1A1FB03132BB9084605
S31500003C100028F2D15DF8044B70474FF0FF3C5DF889
S31500003C20044B6046FFF7D2BFA83B002000CA9A3B70
S31500003C3070B500240B4B0C4EB3F82021B3F840515D
S31500003C40ADB2154025FA04F3DB0704D556F8243047
S31500003C50E0B203B198470134102CF3D1014BA3F81D
S31500003C60305170BD00600040D839002030B50320C7
S31500003C7085B000F07DF86FF0FF054FF0FF31204C66
S31500003C80002322464FF0010E1E488564CDE901113E
S31500003C90039104F1C00532F8020F590960B104A876
S31500003CA000EB810151F80C0C03F01F0C0EFA0CFC12
S31500003CB020EA0C0041F80C0C954203F10103EAD10D
S31500003CC00199114B0F4A03201167C3F8801202991C
S31500003CD05167C3F8841203999167C3F8881200F0FC
S31500003CE017F80023094834F8022F03F1C001013305
S31500003CF00AB140F82120A542F5D105B030BD00BF7C
S31500003D00DAA000000080004000E100E00060004012
S31500003D10EFF31081012383F31088124B33F8102040
S31500003D2092B22AB133F81020013A92B223F8102049
S31500003D3033F810309BB293B90B4A10B4B2F8FE3385
S31500003D400A4C9BB234F8100043F4254323EA0003DF
S31500003D50A2F8FE3381F310885DF8044B704781F3B7
S31500003D60108870479C3B002000E00140ACA3000097
S31500003D7030B4EFF31081012383F310880E4A32F832
S31500003D8010309BB26BB90D4C0D4DB4F8FE3335F8BF
S31500003D9010C09BB243EA0C0343F425439BB2A4F83C
S31500003DA0FE3332F8103001339BB222F8103081F323
S31500003DB0108830BC704700BF9C3B002000E00140EB
S31500003DC0ACA300000C4A08B50346106840B10333A3
S31500003DD00A4923F0030303448B4205D8136008BD48
S31500003DE0074908461160F2E704F01AF80C22034668
S31500003DF04FF0FF301A6008BDA43B0020905101200F
S31500003E00083E012000BE704708B500F003F8FCF735
S31500003E105FFCFEE74FF4700270B52B4B2B4CC3F8DA
S31500003E20882000209C60FCF713FAFFF7F3FD0120C1
S31500003E30FCF70EFA2368A3F59C53083B83F30A8824
S31500003E402348244A0021121A04F028F82248234A5B
S31500003E502349121A03F05EFD224D234B5B1B002BF8
S31500003E6007DD00249E1055F8043B01349847A6420E
S31500003E70F9DCFFF7B9FDFFF773FE0320FFF778FFC4
S31500003E8000234FF6FF70194903F1080201330C2B8A
S31500003E9021F81200F8D100240320FFF739FF032090
S31500003EA0FFF766FF124B03205C609C60DC601C61C0
S31500003EB0FFF72EFF0220FCF7CBF9FFF7D7FE2046CF
S31500003EC0BDE8704000F016B800ED00E0000000000C
S31500003ED040020020043E0120800100202002002034
S31500003EE028A90000180200201C020020000D08402E
S31500003EF000000E40704700BF10B4154B1A461B68F1
S31500003F008342FBD35468416802EB040C604513D02E
S31500003F104418A34206D00360824218BF10605DF8C1
S31500003F20044B70470B4C2468A342F4D0D3E9003409
S31500003F30214403604160EFE72144501883425160F9
S31500003F40EDD1044800688342E9D01046EEE700BF91
S31500003F50C03B0020BC3B0020F8B5044601F0F0FA57
S31500003F603F480368002B55D0631E0A334DD814F022
S31500003F70070304F1080140D1002946DB394F3E68AA
S31500003F808E4242D3384B9C461C6803E0236823B11B
S31500003F90A4461C4662688A42F8D30368A34234D01A
S31500003FA02368DCF80050CCF80030531A102B05F1CA
S31500003FB0080507D9601842074CD143606160FFF7D6
S31500003FC09BFF62680020294BB61A196842F000422E
S31500003FD08E42274938BF1E600B686260013320603D
S31500003FE00B603E6001F0B4FA6B0711D04FF4977185
S31500003FF0204B214A2148FFF7E7FDA3F109028A4237
S3150000400003D31034E11A0029B8DC01F0A1FA002527
S315000040102846F8BD1A4A510718D0073222F007027F
S315000040201146184B9B1A00250B44083B23F0070347
S315000040300D4E9A1AC6E900150360C3E90055C1E999
S3150000404000320A49074B0A601A608DE711464FF69F
S31500004050E853E8E7EE210C4B074A0848FFF7B4FDA2
S31500004060BC3B0020B83B0020C03B0020B43B0020F6
S31500004070B03B0020BC930000C0A300007C9300006E
S31500004080C83B0020B03901204893000008B338B57A
S3150000409050F8043C0446002BA0F1080521DA50F83C
S315000040A0082CBAB923F0004340F8043C01F048FA62
S315000040B00F4A54F8043C116828460B441360FFF776
S315000040C01BFF0C4A136801331360BDE8384001F04A
S315000040D03FBA70474FF4A171074B084A0848FFF7EB
S315000040E073FD40F24111074B044A0548FFF76CFD8A
S315000040F0B83B0020AC3B00206C940000B4A3000049
S315000041007C930000F893000038B518B1A1FB00239A
S31500004110002553B901FB00F42046FFF71DFF0546B5
S3150000412018B12246002103F0B9FE284638BD00BF6B
S315000041304FF0FF31002200F10803C0E90131C0E968
S3150000414003330260704700BF00230361704700BF5E
S3150000415030B40D686B1C10D000F108031C465B6878
S315000041601A68AA42FAD902684B60013299608C60DB
S315000041706160086130BC0260704704696368F2E7F9
S31500004180036910B4D0E901125C688A6051600021AD
S31500004190844208BF5A601A680161013A1A601868B9
S315000041A05DF8044B704700BF70B51646026C0446B6
S315000041B0856B2AB9066801354EB31046A56370BDF6
S315000041C08EB9406803F0A6FB6368216CA2680B44B5
S315000041D09342636028BF236805F1010528BF636029
S315000041E00020A56370BDC06803F094FB226CE368F1
S315000041F051429B1A2268E360934202D2A3680B44A1
S31500004200E360022E08D001350020A56370BD8068EA
S3150000421001F080FCA660D1E7012D38BF0125DFE75C
S3150000422070B50546FDF738FF95F845305CB2002CB1
S3150000423014DD05F1240603E0631EDAB25CB26AB14E
S315000042406B6A5BB1304601F039FB0028F4D001F00F
S31500004250FDFB631EDAB25CB2002AF1D1FF2385F8BA
S315000042604530FDF741FFFDF717FF95F844305CB286
S31500004270002C14DD05F1100603E0631EDAB25CB211
S315000042806AB12B695BB1304601F018FB0028F4D007
S3150000429001F0DCFB631EDAB25CB2002AF1D1FF2327
S315000042A085F84430BDE87040FDF71EBF70B50028A4
S315000042B048D0C56B0446002D3DD0026CA2FB0525F7
S315000042C0002D38D10E46FDF7E7FED4E90F30FF2169
S315000042D000FB03F32268181A626013440244A563C4
S315000042E0C4E9023284F8441084F84510BEB9236943
S315000042F01BB9FDF7F9FE012070BD04F1100001F0B5
S31500004300DDFA0028F5D04FF08052124B5A60BFF309
S315000043104F8FBFF36F8FFDF7E7FE012070BD04F1ED
S315000043201000FFF705FF04F12400FFF701FFFDF77A
S31500004330DBFE012070BD40F26311074B074A0848B7
S31500004340FFF742FC4FF49771064B044A0448FFF707
S315000043503BFC00BF00ED00E0D0940000B8A40000D4
S315000043609C940000C894000070B582B033B3064632
S31500004370E8B10D461C4692B1C9B148230193019B91
S31500004380482B22D101212046C4E90F65226084F81A
S315000043904610019BFFF78AFF204602B070BD31B977
S315000043A048230193019B482B0FD12246EAE74FF49D
S315000043B0D071094B094A0A48FFF706FC40F277110B
S315000043C0084B064A0648FFF7FFFB40F28911064BE9
S315000043D0024A0348FFF7F8FB209500009CA4000062
S315000043E09C940000F49400000495000030B583B05E
S315000043F0C0B188420D4615D314460AB3482301932B
S31500004400019B482B15D1012100232260D063204651
S3150000441084F846102364019AFFF748FF2046A563F7
S3150000442003B030BD40F24731094B0A4A0A48FFF74C
S31500004430CBFB40F28911094B094A0748FFF7C4FB39
S3150000444040F27711074B064A0348FFF7BDFB00BF52
S315000044502C95000078A400009C94000004950000B0
S315000044609CA40000F49400002DE9F04184B0019270
S31500004470002800F0AF8004460F461E46002900F0D3
S315000044808B80022E03D1E36B012B40F09C8001F060
S31500004490E9FA002867D0FDF7FFFDA26BE36B9A42AD
S315000044A053D3022E51D00020DFF8448105460DE09B
S315000044B0FDF71AFE2046FFF7B3FE01F049F8FDF7B7
S315000044C0EBFDA26BE36B01209A423ED3019B002BCE
S315000044D06DD0B0B3FDF708FE01F032F8FDF7DCFD54
S315000044E094F84430FF2B08BF84F8445094F84530C4
S315000044F0FF2B08BF84F84550FDF7F6FD02A801A979
S3150000450001F05CFA002858D1FDF7C6FDA26BE36BFB
S315000045109A42CDD1FDF7E8FD019904F1100001F0B2
S3150000452079F92046FFF77CFE01F012F80028C6D183
S315000045304FF08053C8F80430BFF34F8FBFF36F8F2F
S31500004540BDE702A801F02EFAC4E7324639462046F6
S31500004550FFF72AFE636A83B9A8B9FDF7C5FD0120F6
S3150000456004B0BDE8F081019B002B94D040F282316B
S315000045701C4B1D4A1D48FFF727FB04F1240001F0E0
S315000045809DF90028E9D04FF08052194B5A60BFF3CD
S315000045904F8FBFF36F8FE0E7036C002B3FF471AFD3
S315000045A040F27E31134B104A1048FFF70DFBFDF722
S315000045B09BFD002004B0BDE8F0812046FFF730FEE9
S315000045C000F0C6FFF5E740F27F310B4B064A07487D
S315000045D0FFF7FAFA40F27D31084B034A0348FFF72A
S315000045E0F3FA00BFDC95000064A400009C94000070
S315000045F000ED00E0349500008C950000C8940000A2
S3150000460030B583B0002936D048230193019B482B4F
S3150000461038D1002501230C46C1E90F35096081F820
S315000046204630019AFDF738FDD4E90F31FF2001FB32
S3150000463003F32268591A626013440A44C4E9023239
S31500004640A56384F8440084F8450004F11000FFF7E0
S315000046506FFD04F12400FFF76BFDFDF745FD2B46CA
S315000046602A4629462046A5602560E560FFF7FCFE40
S31500004670204603B030BD40F27711064B064A074884
S31500004680FFF7A2FA40F28911054B034A0348FFF7E8
S315000046909BFA00BFF49400009CA400009C940000C8
S315000046A004950000F8B500283DD0036C0446002BA5
S315000046B040D103680D4603B3FDF7B6FDEFF311864F
S315000046C0102383F31188A36BE26B9A4211D994F8F5
S315000046D045200133FF2AA36357B218D1636A03B397
S315000046E004F1240001F0EAF8D8B1D5B101232B601A
S315000046F017E0002086F31188F8BD8368002BDBD015
S3150000470040F20351124B134A1348FFF75DFA01F0CA
S3150000471021F8874205D27F2F13D001377FB284F864
S3150000472045700120E6E740F2FA410C4B094A0A4877
S31500004730FFF74AFA40F2FE41094B064A0648FFF7E0
S3150000474043FA40F28251074B024A0348FFF73CFA0C
S315000047507096000050A400009C940000C8940000CD
S315000047605496000030960000F0B585B001920028FE
S3150000477000F0A38004460E4600296ED001F072F9BF
S31500004780002857D0FDF788FCA56B002D6FD1019B43
S31500004790002B35D002A801F005F92F46FDF7A4FC41
S315000047A000F0CEFEFDF778FC94F84430FF2B08BFEE
S315000047B084F8447094F84530FF2B08BF84F84570A0
S315000047C0FDF792FC01A902A801F0F8F8E8B9FDF797
S315000047D063FCA36B33BBFDF787FC019904F124004E
S315000047E001F018F82046FFF71BFD00F0B1FE58B3A4
S315000047F0FDF752FCA56B002D39D1019B002BCDD1C5
S31500004800FDF772FC002005B0F0BD2046FFF708FD5D
S3150000481000F09EFEFDF740FCA36B002BF0D0FDF7E9
S3150000482063FCE5E7FDF760FC2046FFF7F9FC00F0C6
S315000048308FFEDDE7019B002BA4D040F2A551224B51
S31500004840224A2348FFF7C0F94FF08052214B5A60A5
S31500004850BFF34F8FBFF36F8FCAE7036C002B8DD06A
S315000048604FF4B4611C4B194A1948FFF7ADF9226C95
S315000048705AB1E168A36811449942E16028BF2168F2
S31500004880304628BFE16003F045F8013DA563236982
S3150000489023B9FDF729FC012005B0F0BD04F1100095
S315000048A001F00CF80028F4D04FF08052094B5A6002
S315000048B0BFF34F8FBFF36F8FEBE740F29C51074B6F
S315000048C0024A0348FFF780F9DC95000040A4000087
S315000048D09C94000000ED00E0E0960000D4960000F5
S315000048E0F0B585B00191002800F0BA80066C044648
S315000048F0002E40F0AE8001F0B5F80546002855D0F0
S315000049003546FDF7C9FBA36B0027002B41D1019B60
S31500004910002B7FD0002D63D0FDF7E6FB00F010FEE4
S31500004920FDF7BAFB94F84430FF2B08BF84F84470B7
S3150000493094F84530FF2B08BF84F84570FDF7D4FB8B
S3150000494001A902A801F03AF800283AD1FDF7A4FB24
S31500004950A36B002B4BD1FDF7C7FB2368002B5CD064
S31500004960019904F1240000F055FF2046FFF758FC9A
S3150000497000F0EEFD38B94FF080523D4B5A60BFF360
S315000049804F8FBFF36F8FFDF787FBA36B0125002BBE
S31500004990BDD02268013BA363002A56D02369002BB1
S315000049A044D1FDF7A1FB012005B0F0BD019B0646F1
S315000049B0002BA6D040F237612E4B2F4A2F48FFF727
S315000049C003F92046FFF72CFC00F0C2FDFDF764FB5F
S315000049D0A36B4BB9FDF788FB8EB9002005B0F0BD7F
S315000049E002A800F0DFFF97E7FDF77EFBCBE7FDF7B8
S315000049F07BFB2046FFF714FC00F0AAFDC3E7FDF79A
S31500004A004BFB616A19B1236B1968C1F10501A068F6
S31500004A1001F0D4F8FDF768FBDFE7FDF73DFBA06882
S31500004A2001F030F80646FDF75FFB99E704F1100048
S31500004A3000F044FF0028B4D04FF080520C4B5A606F
S31500004A40BFF34F8FBFF36F8FABE701F011F9A06093
S31500004A50A4E740F232610A4B074A0848FFF7B4F868
S31500004A6040F22E61074B044A0448FFF7ADF800BF39
S31500004A7000ED00E0DC9500002CA400009C940000F2
S31500004A8054960000D496000010B538B10446FDF7E0
S31500004A9003FBA46BFDF728FB204610BD40F623015F
S31500004AA0024B034A0348FFF78FF800BF94940000B7
S31500004AB014A400009C94000008B1806B704708B5F0
S31500004AC040F64501024B034A0348FFF77DF800BF55
S31500004AD0C8940000F4A300009C94000010B5D8B15F
S31500004AE00023114C54F83320D900904206D00133EC
S31500004AF00A2BF7D190F8463053B110BD002300229F
S31500004B000A4C2144C1E9002390F84630002BF4D129
S31500004B10BDE81040FFF7BABA4FF40561044B054AE9
S31500004B200548FFF751F800BFB4390120B03901201C
S31500004B30C8940000E4A300009C94000070B500B384
S31500004B40D9B10024124D23462A4604E001330A2B2C
S31500004B5002F108020ED0566886420FD0002CF5D11D
S31500004B6055F833600133002E08BF14460A2B02F1B4
S31500004B700802F0D10CB1C4E9001070BD05EBC30406
S31500004B80F9E740F61531034B034A0448FFF71CF8D2
S31500004B90B039012094940000D0A300009C9400003A
S31500004BA070B504460E461546FDF776FA94F844307D
S31500004BB0FF2B04BF002384F8443094F84530FF2BC4
S31500004BC004BF002384F84530FDF78EFAA36B23B1AA
S31500004BD02046BDE87040FFF723BB04F124002A46B7
S31500004BE0314600F035FE2046BDE87040FFF718BBA1
S31500004BF02DE9F0415AB3144682681E46D51AA542DD
S31500004C0028BF25462B449A42804619D380692A46F6
S31500004C1030440F4602F07EFEAC4209D9D8F808307F
S31500004C20621B9A421AD8D8F81800791902F072FE57
S31500004C30D8F80820A019824298BF801ABDE8F081F2
S31500004C4040F20B51094B0A4A0A48FEF7BDFF40F2F3
S31500004C500351094B064A0748FEF7B6FF40F21351C7
S31500004C60064B034A0348FEF7AFFF00BF88970000D4
S31500004C70E8A40000549700003C970000BC97000091
S31500004C80F0B51646027F1C46D20705460F46436816
S31500004C9083B007D5089A0196944211D20024204683
S31500004CA003B0F0BDB44228BF3446002CF7D02246EC
S31500004CB039462846FFF79CFF6860204603B0F0BDE2
S31500004CC004220DEB0201FFF793FF34460346ECE79F
S31500004CD008B540F27C51024B024A0348FEF774FFC6
S31500004CE0F49700008CA50000549700002DE9F043CE
S31500004CF083B00A9C63B3002C48D0814207463ED855
S31500004D00012938BF0121002A0CBF4FF002094FF0DC
S31500004D10030904280E462BD91D4620230193DDF8EE
S31500004D20048098451DD102465521284603F0B6F861
S31500004D30854214D142460021204603F0AFF82046B2
S31500004D40C4E90276A56184F81C9003B0BDE8F0833F
S31500004D504FF4CD71114B124A1248FEF735FFFFF79B
S31500004D60B7FF4FF4DE71104B0D4A0E48FEF72CFFCD
S31500004D704FF4DA710D4B0A4A0A48FEF725FF4FF445
S31500004D80CE710B4B064A0748FEF71EFF40F29B11F9
S31500004D90084B034A0348FEF717FF00BFA49800001C
S31500004DA068A5000054970000D89800003C980000C1
S31500004DB07C980000C098000008B560B1037F9B078F
S31500004DC003D4BDE80840FFF761B92022BDE80840DA
S31500004DD0002103F063B840F2FD11024B024A03487A
S31500004DE0FEF7F2FE7490000054A5000054970000F0
S31500004DF02DE9F84350B30446FDF74EF9206928B172
S31500004E000025FDF771F92846BDE8F88365692DB1DF
S31500004E100546FDF769F92846BDE8F883A669D4E991
S31500004E20027955213A46304694F81C8003F036F84C
S31500004E30864212D129462022204603F02FF801256A
S31500004E40C4E90279A66184F81C80DAE74FF4097197
S31500004E50034B044A0448FEF7B7FEFFF739FF00BFCD
S31500004E607490000040A500005497000008B550B1AA
S31500004E70012938BF0121034682688A428ABF012080
S31500004E800020D96008BD40F25921024B024A03486E
S31500004E90FEF79AFE7490000020A5000054970000CB
S31500004EA038B568B1856803680168446802689A4243
S31500004EB0F9D168180138001B854298BF401B38BDE0
S31500004EC040F27721024B034A0348FEF77DFE00BFFE
S31500004ED07490000000A50000549700002DE9F041F1
S31500004EE082B0002939D0044600283DD01F46037FF2
S31500004EF00D46DB0754BF904602F104081646FFF73D
S31500004F00CFFF2946034632462046CDF80080FFF7FC
S31500004F10B7FE0546E8B1A368626821681A44521ACA
S31500004F20934298BFD21AE368934212D8EFF31188DE
S31500004F30102383F3118823694BB100262069334679
S31500004F40324631460197009600F08EFF266188F3BF
S31500004F501188284602B0BDE8F08140F22A31064B9E
S31500004F60064A0748FEF730FE40F22B31054B034A4E
S31500004F700348FEF729FE00BF30990000CCA40000CC
S31500004F8054970000749000002DE9F0410446FDF7A7
S31500004F9083F8394A394E1368013313603368002B9E
S31500004FA03DD0374FE36A3A68002A31D0354D36494D
S31500004FB036480A6804F1040C01320A6002689A4213
S31500004FC038BF036003EB830305EB830041689B0056
S31500004FD0EA58D1F808E0A160C4F80CE00132CEF836
S31500004FE004C0C1F808C06061EA50FDF77DF83B686F
S31500004FF063B13268E36AD26A9A4207D24FF08052AE
S31500005000234B5A60BFF34F8FBFF36F8FBDE8F0811C
S3150000501032681C4DD26A9A4298BF3460C7E7346042
S315000050201368012B03D0E36A164D154FBFE7154DE4
S315000050302F4605F1640838461437FFF779F84745D7
S31500005040F9D1DFF86880134F4046FFF771F838460C
S31500005050FFF76EF81048FFF76BF81048FFF768F88F
S315000050600F48FFF765F80F4BC3F800800E4B1F6023
S31500005070E36A034F9BE700BF243A0120FC3A012074
S31500005080183A0120983A0120083A01201C3A0120DA
S3150000509000ED00E0703A0120543A0120403A012028
S315000050A0283A01206C3A0120683A0120843A01200E
S315000050B0F8B50446214B224E1D6830680F46043071
S315000050C0FFF75EF8631C17D033682D195D600BD2AD
S315000050D01C4B186831680431FFF73AF81A4B1A6806
S315000050E0AA4200D91D60F8BD184B18683168BDE8A2
S315000050F0F8400431FFF72CB86FB933686A1E5A605E
S31500005100002DF1D10F4B186831680431FFF720F8F4
S315000051100D4B1B68F8BD0E4B31685A6837688A60BC
S315000051203068316835681C68043001341C60946846
S315000051300431FC60606091606B61F8BD203A01202B
S31500005140FC3A01206C3A0120043A0120683A012019
S31500005150283A01202DE9F04702F18042DDE9098471
S31500005160266B013A06EB820607469946DDF820A033
S3150000517026F0070679B101F1FF3C01F10F0504F1B4
S31500005180330E1CF9011F0EF8011F09B1AC45F8D109
S31500005190002384F84330BAF1040F1DD8201DC4F84B
S315000051A02CA0C4F844A0FEF7CFFF04F11800FEF7C8
S315000051B0CBFFCAF10503A3613A464B463046216B45
S315000051C024616462FCF74EFF2060B8F1000F01D045
S315000051D0C8F80040BDE8F08740F29631024B034A1A
S315000051E00348FEF7F1FC00BFC899000024A70000A1
S315000051F09C9900004FF0805880B5204C204E214DE0
S31500005200DFF890A0DFF8909023682BB3FCF744FFFB
S31500005210F368DF68381DFEF7B3FF2B68013B2B6090
S315000052202368013B2360FCF75FFF97F8653053B1B5
S31500005230012B1ED0022BE7D040F6D971124B134A30
S315000052401348FEF7C1FC386BFEF720FF3846FEF721
S315000052501DFF2368002BD9D1DAF80030012B05D9C0
S31500005260C9F80480BFF34F8FBFF36F8FFCF790FF31
S31500005270CAE73846FEF70AFFC6E700BF3C3A0120F8
S31500005280403A0120243A0120DC99000014A70000CE
S315000052909C990000983A012000ED00E02DE9F04FBE
S315000052A04F4B83B01A6802F1010CC3F800C0BCF181
S315000052B0000F6CD04B4A13689C455FD3DFF834E18E
S315000052C0DEF800301868002878D00020DFF83C911E
S315000052D080468346444F019245E05A69D3E902105D
S315000052E08860416051681E1DB142116808BF506058
S315000052F00139C3F8148011609A6A72B1D3E90710B4
S3150000530088604160516803F11804A142116808BF22
S3150000531050600139C3F828801160D9F80010DA6AA4
S315000053208A4202EB820107EB8100456888BFC9F813
S31500005330002057F82140D5F808A09D60C3F80CA0BE
S315000053400134CAF80460AE605861284B47F8214022
S315000053501968DEF80030C96A1B688A4288BF4FF0B8
S31500005360010B002B28D0DEF80030DB68DB685968BB
S315000053708C45B2D2019A5846116000E000201C4BC1
S315000053801B68002B18BF012003B0BDE8F08F194B36
S315000053901A681268E2B9184A18681168196017493C
S315000053A010600A6801320A601A68126852B94FF032
S315000053B0FF330C4A13607EE75846019A4FF0FF33DD
S315000053C01360DCE71B68074ADB681B68136072E73B
S315000053D040F6F4210A4B0B4A0B48FEF7F5FB00BFDB
S315000053E0203A0120043A0120983A0120FC3A012093
S315000053F0103A01206C3A0120683A01200C3A01204B
S31500005400109A0000D0A600009C9900001C3A0120CA
S315000054102DE9F04387B0DDE90F84B8F1000F26D0FF
S31500005420002C32D01F46682305939146059A9A426E
S3150000543024D105460E4620460021059B02F02EFD8E
S3150000544028460E9DC4F8308000950225029484F803
S31500005450655004AD3B464A4631460195FFF77AFE54
S315000054602046FFF791FD049807B0BDE8F08340F2AF
S315000054704321094B094A0A48FEF7A6FB4FF413716C
S31500005480084B064A0648FEF79FFB4FF41171064B80
S31500005490024A0348FEF798FB889A00003CA70000E2
S315000054A09C990000C49A0000A89A000030B5002418
S315000054B089B007AA06A905A8CDE90544FBF72AF98C
S315000054C0DDE905231549CDE9013215482346079A3A
S315000054D00094FFF79DFF28B100F048FF012805D092
S315000054E0013013D00F4B1B6809B030BD80F3108814
S315000054F04FF0FF350C490D4A0D4B0D6010601C60D6
