S01A00006D6963726F726F735F7465737462656E63682E737265637D
S3150000000010B90020A93B0000D5390000A53B00002F
S31500000010A53B0000A53B0000A53B0000A53B00005A
S31500000020000000000000000000000000BD200000ED
S31500000030A53B000000000000D52000003D21000087
S3150000004095370000B12D0000D12C0000292F0000AB
S31500000050652F000000000000000000000000000006
S31500000060000000000000000000000000000000008A
S31500000070000000000000000000000000000000007A
S31500000080000000000000000000000000000000006A
S31500000090000000000000000000000000000000005A
S315000000A0000000000000000000000000000000004A
S315000000B0000000000000000000000000000000003A
S315000000C0000000000000000000000000000000002A
S315000000D0000000000000000000000000000000001A
S315000000E0000000000000000000000000000000000A
S315000000F000000000000000000000000000000000FA
S3150000010000000000000000000000000000000000E9
S3150000011000000000000000000000000000000000D9
S3150000012000000000000000000000000000000000C9
S3150000013000000000000000000000000000000000B9
S3150000014000000000000000000000000000000000A9
S315000001500000000000000000000000000000000099
S315000001600000000000000000000000000000000089
S315000001700000000000000000000000000000000079
S315000001800000000000000000000000000000000069
S315000001900000000000000000000000000000000059
S315000001A00000000000000000000000000000000049
S315000001B00000000000000000000000000000000039
S315000001C0FFFFFFFFFFFFFFFFFFFFFFFFFFFFFFFF39
S315000001D0FFFFFFFFFFFFFFFFFFFFFFFFFFFFFFFF29
S315000001E0FFFFFFFFFFFFFFFFFFFFFFFFFFFFFFFF19
S315000001F0FFFFFFFFFFFFFFFFFFFFFFFFFFFFFFFF09
S3150000020010B5054C237833B9044B13B1044800E00C
S3150000021000BF0123237010BDE00200200000000093
S31500000220F83A010008B5034B1BB10349034800E047
S3150000023000BF08BD00000000E4020020F83A0100FB
S31500000240022800D07047024B0248596803F032B8C2
S31500000250E00B01002C05002030B59FB025220021BF
S3150000026014A80FF0B8F9244B00249C4603F120058E
S315000002700323224A8DF85130214B0DF1300ECDE982
S31500000280032303AB06931F4BCDF814E001931E4BDB
S31500000290CDE912440093BCE80F00AEE80F0003CD91
S315000002A0DCF80030CDF856102988CEF80030174A11
S315000002B0174BCDF85200ADF85A10204605A9ADF8F7
S315000002C0704011941794189419941A941B9406F07C
S315000002D05BF907A806F00CF80E4A0F4B07A8CDE904
S315000002E007230E4A0E4BCDE9092306F011F800F05C
S315000002F025F81FB030BD00BF700B0100000022B909
S31500000300C0A8015D010600004D050000C104000003
S315000003103505000025030000290300002D03000019
S31500000320310300000FF020B90FF026B90FF0BEBA66
S315000003300B46012103FB00F00FF0C0B800B59DB0DD
S3150000034005A806F003F8002205AB11460AA805F039
S3150000035005FF0F4A0F490AAB03A805F051FF06F047
S315000003608DFD0D4B024603A901A805F085FF00236C
S31500000370029302A9002201A805F0CCFE029B4FF4CD
S315000003807A7101336420029303F0F0FAF1E700BFBB
S31500000390CC110100B00B0100C00B0100044AD2E9E8
S315000003A00031013341F10001C2E90031704700BF5D
S315000003B010030020FFFFFFFF2DE9F0433A4E0D46E4
S315000003C0337883B0002B35D0384B394F5E68394CC3
S315000003D06946394803F030F9D4E90002D7E9003715
S315000003E00099711A354ED6E9004604FB02F200FB6D
S315000003F00622A3FB0136A4FB004001FB07661C197D
S31500000400024446EB0206204621A3D3E900233146E7
S315000004100EF086FE03462B60DB176B6031461CA38D
S31500000420D3E9002320460EF07BFE0020AA6003B02D
S31500000430BDE8F0834FF00109DFF870801E484146A1
S3150000044003F00CF91C4803F0E9F898F80800184F77
S3150000045009FA00F00EF098FB0FA3D3E900230EF083
S3150000046027FD0FA3D3E900230EF0F8FB0EF070FE74
S3150000047086F80090D8F804603860A6FB000306FBF7
S3150000048001330C4C796020606360A1E7AFF3008014
S3150000049000CA9A3B000000000000000084D7874194
S315000004A00000000065CDCD4118030020880C010036
S315000004B0080300200003002074050020100300201C
S315000004C038B5D0F88C32D3E9004504F122000FF09C
S315000004D0A6FA0346204684F842300FF0A0FA84F8C4
S315000004E0200000F0B3FA08B1002038BD204600F025
S315000004F0BFFA0028F8D10D4C237823B900F090FA02
S315000005000128F1D1207006220121022000F072F9A3
S315000005100346074A01331060E6D00822294600F058
S31500000520E7F9B0FA80F0400938BD00BF1E0300208D
S315000005302805002008B5044B186800F015FA00F0ED
S315000005408FFA012008BD00BF28050020F8B5144623
S315000005500E460D4F0D491D460222002338680C80B9
S3150000056000F0EEF9022803D001232B700020F8BD1D
S31500000570002322463146386800F0E2F90028F3DB12
S3150000058000232B70F8BD00BF280500201C030020A7
S3150000059038B590F806520446DDB1012D18D1B0F8F1
S315000005A00412B0F802221548521A002300682144AA
S315000005B000F0B4F9B4F80422B4F80232104480B260
S315000005C0834208BF0223A4F8040208BF84F8063257
S315000005D038BD0A492B460868022204F5007100F06E
S315000005E09DF90128F4DD0123B4F8002284F80632CF
S315000005F0A4F80452A4F8022238BD00BF2805002042
S315000006002DE9F04F4FF47A788A461C46DFF8809041
S315000006101D4E1E4F85B001E0AC422DDD002508FBC6
S3150000062004F2A7FB0212920903AB29460392D9F8FA
S3150000063000002A46009500F0B1F905F06DFC8346EE
S315000006403046FFF7A5FF05F067FC96F80632A0EBEB
S315000006500B00022BA4EB0004DED1B6F802420E9B7F
S315000006605046224608491D700EF08EFF204686F839
S31500000670065205B0BDE8F08F2C46012320460E9A9F
S31500000680137005B0BDE8F08F20030020D34D621033
S3150000069028050020704700BFFFF7FCBF00BE70476B
S315000006A038B5164C4FF0FF31206803F0B1FF012832
S315000006B003D000212068FFF7F1FF114B1A7802B131
S315000006C038BD01220F4D1A70FFF7E6FF2B68013B7C
S315000006D02B60002BF4D00023206819461A4603F03D
S315000006E0F7FC0128F2D000212068FFF7D7FF2B681E
S315000006F0013B2B60002BEED138BD00BF94050020D6
S3150000070090050020E005002038B500230B4D0C4C69
S3150000071001214FF480700B4A2B60237003F092FC8A
S31500000720094B186028B100F039F804F0C1FC00202C
S3150000073038BD0146FFF7B2FFF5E700BFE005002030
S31500000740900500209805002094050020802330B4F1
S31500000750034D044C05600C60136030BC704700BF4D
S31500000760E4090020E4050020802330B4034D044C46
S3150000077005600C60136030BC704700BF4C0A002057
S31500000780E407002000B583B00190FFF789FF0198C8
S3150000079003B05DF804EBFFF75FBD00BF30B5012481
S315000007A00D480E4A03680E4D85B01919CDE901258D
S315000007B00C4B016040F2E2420B490C48009404F0F5
S315000007C03BFC0B4B186008B105B030BD014605B0C7
S315000007D0BDE83040FFF762BFE005002010B90020F9
S315000007E0B80A0020C40C0100B00C01008507000007
S315000007F0B40A00202DE9F04F002683B002280196A6
S3150000080059D1012951D1062A5BD1314F4EF66021CB
S31500000810386803F0FDFE0128044605D04FF0FF3589
S31500000820284603B0BDE8F08FDFF8BC8001A800F0D1
S31500000830F5F9D8F80030012B0BD900234FF0FF351E
S315000008401A461946386803F043FC284603B0BDE84B
S31500000850F08FDDF80490B9F1FF0FEED0DFF88CB021
S3150000086009EB89030BEBC3052822314628464FEADC
S31500000870C30A0EF0B0FE31464846042201F062F883
S315000008800028DAD142F21073019AC5E906334BF813
S315000008900A20D8F800200AB9C8F8004000233868B2
S315000008A01A46194603F014FCBAE79A21094B0A4A7C
S315000008B00A4803F053F89921094B074A074803F001
S315000008C04DF89B21074B044A044803F047F800BF44
S315000008D0940B002064100100881001002C10010008
S315000008E01810010074100100900B0020200B00204E
S315000008F00068421C0DD069B14A88496852BA08B5E9
S3150000090092B209BA00F086FF003818BF01204042B3
S3150000091008BD70474FF0FF30704700BF8446BCF1FA
S31500000920FF3F09D041B1DCF80000CCF8143018B90B
S31500000930DCF81C3001F0C6BA4FF0FF30704700BF3C
S31500000940B0F1FF3F0CD030B431B11D46836905616B
S31500000950006830BC01F098B84FF0FF3030BC7047EB
S315000009604FF0FF30704700BF08B5431E03330DD864
S31500000970006800280ADC00F0BDFE50B9064A13687C
S3150000098013B1013B136008BD184608BD6FF0150092
S3150000099008BD4FF0FF3008BD900B0020002170B558
S315000009A01E46431E82B0033301910FD8054601A9A6
S315000009B00068144600F046F958BB092C0AD8DFE84F
S315000009C004F0161F090909090505050D6FF0150044
S315000009D002B070BD6FF06C0002B070BD019B042BBD
S315000009E01AD101230020C5E9063302B070BD336871
S315000009F02046002B08BF4FF0FF33EB6102B070BDFD
S31500000A0000203368834208BF4FF0FF33AB6102B06A
S31500000A1070BD4FF0FF30DBE76FF07E00D8E700BF18
S31500000A2008B52822002106480EF0D5FD054901200B
S31500000A3003F01AFC044B1860003818BF012008BDEB
S31500000A40200B0020480B0020940B002008B503481B
S31500000A5000F060FB003818BF012008BD580C0100EB
S31500000A6008B500F0ABFD003818BF012008BD00BF77
S31500000A70C0B190F820300246A3B110B590F84240BC
S31500000A8074B190F8211005290AD8202B08D8202CFB
S31500000A9006D8223201F09AF8003818BF012010BD9E
S31500000AA0012010BD0120704793422DE9F84328BF6D
S31500000AB013461C461BB30568836890465E1BA64218
S31500000AC028BF2646B24207461CD3AA19934220D312
S31500000AD0894681693246484629440EF055FDB4429E
S31500000AE007D9A0451CD3B96909EB0600A21B0EF075
S31500000AF04BFDBB682544AB4298BFED1A3D602046CE
S31500000B00BDE8F88340F6BF71094B0A4A0A4802F06D
S31500000B1025FF4FF47C61094B064A074802F01EFF89
S31500000B2040F6C871064B034A034802F017FF00BFA0
S31500000B3098100100E0120100B4100100F01001004D
S31500000B40281101000B4B70B51E689D680A4C2B6A74
S31500000B502189002230469847192004F099FB304637
S31500000B602B6A218901229847BDE87040012004F0D4
S31500000B708FBB00BFE00B01009C0B002070B5244C1E
S31500000B80D4F8A40D20B103F059FE0023C4F8A43D07
S31500000B90D4F8A80D20B103F051FE0023C4F8A83DF7
S31500000BA01C4DD5F8D80B20B103F06EFF0023C5F815
S31500000BB0D83BD4F8C40D20B103F040FE0023C4F89E
S31500000BC0C43DD4F8C80D20B103F038FE0023C4F8A4
S31500000BD0C83DD4F8CC0D20B103F056FF0023C4F86D
S31500000BE0CC3DD4F8BC3D0C4A18684168914202D10C
S31500000BF09B68DB699847D4F8C03D074A1868416886
S31500000C00914200D070BD9B68BDE87040DB69184713
S31500000C109C1B00209C0B002055494353074B5A69E7
S31500000C2022B103F50053D3F8F83D23B1FF22044B5C
S31500000C300260184670470360184670479C0B0020F8
S31500000C4074110100034600B541F2340E42F6F05C21
S31500000C50044A00200EFB032353F80C300B605DF8AA
S31500000C6004FB00BF9C0B002070B511F001060C467A
S31500000C70054603D1A3070ED4002070BD00F58053AE
S31500000C8042F21071D3F8A40D03F0C2FC0128F1D092
S31500000C904FF0FF3070BD05F5805542F21071D5F862
S31500000CA0A80D03F0B5FC0128E6D0002EF0D00023F5
S31500000CB0D5F8A40D1A46194603F00AFAE8E700BF6C
S31500000CC08A0770B50C46054602D4E3070BD470BDFF
S31500000CD0002300F580521946D2F8A80D1A4603F0F3
S31500000CE0F7F9E307F3D5002305F580501A46BDE86A
S31500000CF070401946D0F8A40D03F0EAB9002230B5C9
S31500000D00344C83B004F58053D3F8C03D019223B12F
S31500000D105B6802681B789A421AD00379042B1ED0AE
S31500000D20802B13D1002303F5EE6304EB8304606884
S31500000D3003F072FD002847D0019B3BB14FF0805273
S31500000D40254B5A60BFF34F8FBFF36F8F03B030BD93
S31500000D500379042B0DD0802BF8D10123E3E741F270
S31500000D60340542F6F852D4F8FC3B05FB03439B5886
S31500000D705BB985680122D4F8D80B01AB0DF10301EC
S31500000D808DF8035003F0F2FED6E7E368012BF0D0AE
S31500000D9041F6CC52D4F8FC3B816805FB03438DF841
S31500000DA0031098580DF10301012201AB03F0DEFE9A
S31500000DB00128C1D042F6F452D4F8FC3B05FB0344AB
S31500000DC0A3580133A350B7E7606801A903F0F6FA08
S31500000DD0B2E700BF9C0B002000ED00E02DE9F043D8
S31500000DE085B0002900F087800446002800F08A803C
S31500000DF0007F0E4610F001001746994614BF4FF0CB
S31500000E000408D4F80C80002B40D1A36865682268DA
S31500000E101D44AD1AAB4298BFED1A28B9D5B90025C5
S31500000E20284605B0BDE8F0834545F8D9B8F1000F6E
S31500000E3010D02B464246204603A9A5EB0805D4F858
S31500000E400080FFF731FE039B9F4236BF00271F46F7
S31500000E50C4F800802B463A4631462046FFF724FE6A
S31500000E6005460028DBD004F069F9636943B1002622
S31500000E706069334632463146009604F0DDFC666111
S31500000E8004F064F9284605B0BDE8F08301F09EF948
S31500000E90A368656822681D44AD1AAB4298BFED1A77
S31500000EA0A84522D30021084604F0F8FD2569002D47
S31500000EB02FD104F05FFB206101F0B0F92B462A46E2
S31500000EC029462846CDF8009004F060FC2561A36809
S31500000ED065682268207F1D44AD1AAB4200F0010010
S31500000EE098BFED1A00289FD198E701F097F9237F64
S31500000EF0DB0793D59AE741F22601094B094A0A48CE
S31500000F0002F02CFD41F22701084B064A064802F082
S31500000F1025FD41F24B01064B024A034802F01EFD35
S31500000F203C110100F8120100B41001004811010043
S31500000F30581101002DE9F04F2DED048B4FF47A7412
S31500000F400A2689B09246169A04FB03F302FB04F4C0
S31500000F506D4D0096A5FB0323A5FB04249B0909EE12
S31500000F60103AA3099DF85C6008EE903A00F58E539E
S31500000F701C3305964FF00009064608EE103A00F5B8
S31500000F80ED58049108F10C0840F6B832002118EE2D
S31500000F90100AC8F80090C8F80490C8F80890A8F895
S31500000FA00C900EF018FBBAF1000F00F0A280049B23
S31500000FB006EB830404F58054D4F8C40D03F012FC48
S31500000FC0002840F0968050460EF029FDD4F8BC3D2E
S31500000FD002469D6818685146AB68984703900028FA
S31500000FE040F08780D4F8C40D169903F011FB012850
S31500000FF002467ED118EE903AD6F8D80B0DF11F01B5
S31500001000FFF7ECFE0128044673D19DF81F3006F564
S31500001010805282F8DC3182F8AC3D06F58E5540F6FA
S31500001020B731D6F8D80B1D35029203F085FD19EEBF
S31500001030103A294640F6B732D6F8D80BFFF7CEFE5F
S3150000104007462146D6F8D80B019703F075FD3B46B7
S31500001050002F50D006F5ED570D3705EB030B08E0D2
S3150000106041F6AC52287801355D4504F101049854E7
S3150000107010D00B2C06EB0403F2D90C22394640465D
S315000010800EF08FFA41F6AB532978013532195D45DA
S31500001090D154EED1029BDFF878B0D3F8945D059B6E
S315000010A005EB43035BF82310084602910EF0B7FCEC
S315000010B0019F02460137B8421BD804F5ED540C34A3
S315000010C0241A3444204602990EF0C4FC98B10E3519
S315000010D05BF82510084601910EF0A1FC0199024625
S315000010E020460EF0B7FC60B1009B013B00937FF4F5
S315000010F04BAF064B0393039809B0BDEC048BBDE8D8
S31500001100F08F07230393F6E7D34D621074110100A5
S31500001110181301002DE9F0478246DFF87C804FF472
S315000011203852002140468EB00EF055FADAF80030FB
S31500001130C8F804A0C8F80C3083B300264FF00309A2
S31500001140134D144C0AF10C0706E0002103F060FA77
S31500001150D8F80C30B34221D90022012057F8041BDD
S315000011602B46CDF8009044F8081C1146064402F0C0
S315000011700FFF483544F8040B0028E6D1FFF7FEFCC4
S3150000118054F8040C0028E0D109200EB0BDE8F08721
S315000011902C3A0020602900209C0B0020002241F2FE
S315000011A08833BAF80800DAF80410C04DA8F8080029
S315000011B0C8E90512C8F81030FFF7C4FCD5F8A40D2D
S315000011C008B103F03BFB0120B94903F04DF8C5F81F
S315000011D0A40D002800F05281D5F8A80D08B103F03F
S315000011E02DFB0120B34903F03FF8C5F8A80D0028F0
S315000011F000F04C81B04B00220093012140F6B8303C
S31500001200A3F6BC3303F0DAFBC8F8D80B002800F0CD
S3150000121045810DF108094E464FF47A7004F038F80E
S31500001220D5F8BC7D06AC7B68DFF8D8A2DB69186808
S3150000123059689A68DB680FC67E684FF6FF77306894
S315000012407168B268F3680FC430697169B269F3698D
S315000012500FC4534642F2283200214FF4E13001F028
S315000012606FFC0022D5F8BC3D8DF814209A681868EA
S31500001270CDF80CA01368CDF8349006A9ADF812701D
S3150000128098470446002840F0F3804FF4C87664205F
S3150000129003F0FEFFD8F8181001940A23C5F8944D00
S315000012A0864A87480096C8F8FC4BFFF743FE01467E
S315000012B0002840F0DD80834C4FF4805220460EF02B
S315000012C08AF920460EF0ABFB03467F4A7F49106839
S315000012D01679E05023440A2209681E7120460EF052
S315000012E0A6FB20460EF09BFB0346794A117910684F
S315000012F0E218E0501171D5F8BC2D5268D2695189B7
S31500001300B94203D1127B082A40F0FE80714A0433A9
S315000013101088E118E05293788B7000264FF4C87459
S315000013200A23CDE90046674AD8F818106448FFF743
S3150000133001FE002840F09C80D5F8BC3D9A681868EC
S31500001340D3699847002840F09380642003F0A0FFFB
S31500001350D5F8BC3D9A68D3E9000112689047064665
S31500001360002840F085804FF47A7003F091FF0A233D
S31500001370524AD8F81810CDE900465148FFF7DAFD71
S315000013800A23CDE90046544AD8F818104C48FFF70E
S31500001390D1FD00286CD10126C82701900323C5F88A
S315000013A0946D4E4AD8F8181045480097FFF7C2FDCD
S315000013B000285DD1D8F80C30022B00F0AD8041F248
S315000013C08833C8E90560C8F81C00C8F81030002644
S315000013D0C8244FF4FA5501460323414ACDE9004695
S315000013E03748FFF7A7FD6423CDE900563D4AD8F8F4
S315000013F018103348FFF79EFD002839D1CDE900507B
S315000014002346394AD8F818102D48FFF793FD78BBC4
S31500001410CDE900402346354AD8F818102848FFF78A
S3150000142089FD28BB4FF47A7501902346304AD8F8D7
S31500001430181023480095FFF77DFDC8B9CDE9004097
S3150000144003232C4AD8F818101D48FFF773FD78B906
S31500001450CDE900500323284AD8F818101848FFF79A
S3150000146069FD28B9254BC8F8FC0BC8F800308CE696
S31500001470FFF784FB22480EB0BDE8F087FFF77EFB3E
S31500001480D5F8A43D002B3FF47FAEA5E6FFF776FB2B
S31500001490D5F8A83D002B3FF477AEABE6FFF76EFB21
S315000014A0D8F8D83B002BE5D0B3E600BF9C1B002044
S315000014B09C390020E4390020781700201012010022
S315000014C09C0B00208C29002014120100A40100208E
S315000014D01C12010090110100A41101000812010064
S315000014E0AC110100B8110100C4110100D0110100B6
S315000014F0E0110100E8110100F411010049574957B4
S3150000150074110100980B0020264A04331088E11854
S31500001510E05293788B7000E74FF4FA67019003234B
S31500001520214AD8F8181021480097FFF703FD002834
S315000015309ED1D5F8C03DC8F818609A68D3E9000175
S3150000154012689047002893D1CDE900700323184A0A
S31500001550D8F818101548FFF7EDFC00288AD1CDE918
S3150000156000400323134AD8F818101048FFF7E2FC8E
S3150000157000287FF47DAF00254FF4FA640323CDE9FC
S3150000158000450D4AD8F818100848FFF7D3FC002884
S315000015907FF46EAF0123C8F81C00C8F8183018464F
S315000015A015E700BF94110100981101009C0B002063
S315000015B008120100A4110100FC110100F0B5224D32
S315000015C083B003212846FFF74FFB002838D1EB688C
S315000015D00446012B28601FD000274FF47A76032398
S315000015E0CDE90067A969194A1748FFF7A3FC20BB94
S315000015F00023174D1A461946D5F8A80D02F068FDC6
S315000016000023D5F8A40D1A46194602F061FDFFF72E
S31500001610B5FA204603B0F0BD05F50053D3F8F03D0A
S31500001620042BD9D14FF47A76019003232846094A30
S31500001630A9690096FFF77EFCCEE7FFF783FAD7E7A6
S31500001640054C204603B0F0BD9C0B0020E0110100C4
S315000016509C1B002024120100741101002DE9F043A7
S31500001660224D83B0EB68022B2CD1D5F8FC3B044607
S3150000167083422CD04FF00A09DFF8748005F54066E6
S3150000168005F580572246414630460EF05BF94FF489
S315000016907A630022A969CDE9003214480323324651
S315000016A0FFF748FCE0B997F8DD310D2B1BD197F811
S315000016B0DC31302B0FD0342B04D1B9F10109E1D143
S315000016C0042001E04FF0FF3003B0BDE8F0830020B6
S315000016D003B0BDE8F083C5F8FC4B03B0BDE8F0836A
S315000016E06FF00100F0E76FF00200EDE79C0B0020C1
S315000016F02812010041F2340342F6F8522DE9F04176
S315000017003F4C82B003FB00439B58012B04D00326B9
S31500001710304602B0BDE8F081054603212046FFF7BA
S31500001720A3FA0646002838D1E368022B4CD0012BD9
S3150000173038D000274FF47A763148A1690323CDE9E2
S315000017400067304A00F58058FFF7F4FB06463B4633
S315000017503A463946D8F8A80D02F0BAFC3B463A4656
S315000017603946D8F8A40D02F0B3FCB6B941F23400FC
S3150000177042F6F85742F6F05142F6FC52E36800FB97
S315000017800544022BE6516650A650C1D141F6CC5312
S31500001790E05803F095F90128BAD01B4E304602B046
S315000017A0BDE8F0811948D0F8F03D042BC1D10027DF
S315000017B04FF47A76A1690323CDE90067144AA0F5B0
S315000017C00050FFF7B7FBB4E7D4F8FC3BAB42B0D010
S315000017D02846FFF743FF08B9E368A8E704F58054F5
S315000017E0334632463146D4F8A80D02F071FC334632
S315000017F032463146D4F8A40D02F06AFCCDE700BFAC
S315000018009C0B00203C120100741101009C2B00204F
S31500001810241201002DE9F041444C80460F4684B065
S31500001820032120461546FFF71FFA002872D141F220
S31500001830340342F6F85203FB08439B580646002B36
S3150000184053D0E368022B4BD040F2DC5200213848DB
S315000018500DF0C1FE0295FBB2364A354D0193C7F332
S31500001860072307CA009303C5C7F3074332492A7003
S3150000187028463A0E0EF066F8012343F69822CDE983
S315000018800023A5F608400323A169A5F10802FFF786
S3150000189051FB20B1C0B2072801D001283FD141F247
S315000018A0340E42F6F0574FF0040C42F6FC52032178
S315000018B000230EFB0844214D44F807C0D5F8A80DB7
S315000018C0A1501A46194602F003FC0023D5F8A40DD0
S315000018D01A46194602F0FCFB304604B0BDE8F0811A
S315000018E04046FFF7BBFE0028AED004F580543346D1
S315000018F032463146D4F8A80D02F0EAFB33463246AA
S3150000190031460F4ED4F8A40D02F0E2FB304604B087
S31500001910BDE8F0810A4E304604B0BDE8F08105F519
S315000019207E750023D5F8A80D054ECAE79C0B00204E
S315000019309C17002048120100541201009C1B002035
S31500001940741101002DE9F0434A4C0746894683B0DD
S31500001950032120469046FFF787F9002871D141F20E
S31500001960340642F6F85306FB0746F3580546012BA4
S3150000197057D0E368022B4FD04346C8264FF00008E5
S315000019804A463D493D480DF0DDFF3C4AA169032327
S31500001990CDE90068A2F54060FFF7CCFA0646E8B14B
S315000019A0C3B2072B52D141F2340342F6F852012159
S315000019B003FB0744A1500023314C1A461946D4F8BC
S315000019C0A80D02F085FB0023D4F8A40D1A4619468B
S315000019D002F07EFB284603B0BDE8F08341F2340CEA
S315000019E0012342F6F85041F6CC5242F6F0510CFB78
S315000019F007442350A05863500028DCD003F060F859
S31500001A000128D8D01E4C334632463146D4F8A80DAC
S31500001A1002F05EFB33460EE03846FFF71FFE002855
S31500001A20AAD004F580542B462A462946D4F8A80D98
S31500001A3002F04EFB2B461A461946D4F8A40D02F0C6
S31500001A4047FB104D284603B0BDE8F08305460C4C15
S31500001A50434642464146D4F8A80D02F039FB4346B8
S31500001A6042464146D4F8A40D02F032FB284603B0A4
S31500001A70BDE8F0839C0B0020641201009C17002037
S31500001A809C1B0020741101002DE9F84F41F2340A25
S31500001A9042F6FC5C4B4D0AFB005A5AF80C4014F017
S31500001AA0020402D12046BDE8F88F05F58059834629
S31500001AB08846D9F8A40D42F2107116461F4602F068
S31500001AC0A7FD01287BD142F6F8535AF80330002BC4
S31500001AD039D042F6F0535AF80330042B33D1EB6871
S31500001AE0022B46D03446002E39D04FF47A7303FBCE
S31500001AF007F7354B0024A3FB073740F28C5ABF0982
S31500001B000CE0EB69394603F5EE6305EB8303586891
S31500001B1002F07EFD002846D0A64220D9A6EB040B93
S31500001B20D34528BFD346EB6908EB040103F26E7375
S31500001B3005EB83035B685C449A68186893685A46A9
S31500001B4098470028DDD000234FF0FF341A46194687
S31500001B50D9F8A40D02F0BCFA2046BDE8F88F0023A0
S31500001B60D9F8A40D1A46194602F0B2FA2046BDE885
S31500001B70F88FD5F8FC3B5B45B4D042F21071D9F82A
S31500001B80A80D02F045FD0128DDD15846FFF766FD98
S31500001B90002304461A461946D9F8A80D02F098FA09
S31500001BA0002C9FD0CFE74FF0FF3403460246014694
S31500001BB0D9F8A40D02F08CFA2046BDE8F88F4FF054
S31500001BC0FF346FE79C0B0020D34D62102DE9F04FD8
S31500001BD00E4697B02C21804614460DF001FF20B921
S31500001BE02C2120460DF0FCFE20B10324204617B020
S31500001BF0BDE8F08FA14D03212846FFF735F8814651
S31500001C00A0B905F58057D7F898ADBAF1000F12D0F4
S31500001C10034602460146D7F8A80D02F059FA4B468C
S31500001C201A461946D7F8A40D02F052FA944C2046EB
S31500001C3017B0BDE8F08F05F5406940F2DC52514619
S31500001C4048460DF0C8FC4FF4C873CDF804A00093C5
S31500001C50284603238B4AA969FFF76CF9002840F050
S31500001C609280002E00F0D880B31E012B00F28B80EC
S31500001C704B46854A07CA03C341461A704846202286
S31500001C800DF0D5FE48460DF0CAFE804B022E1B888D
S31500001C9029F800300CBF7E4B7E4B013019889B78AB
S31500001CA009EB000229F8001093707B480DF0B7FE8F
S31500001CB003462146794C20222068247949F80300FE
S31500001CC04B441C7174480DF0B2FE73480DF0A7FE2C
S31500001CD0734B1B8829F80030002644F620646E4AB0
S31500001CE0A9690323CDE90046A2F54060FFF722F972
S31500001CF0002840F0A5804FF00508DFF8C4B1DFF8F2
S31500001D007CA164230022CDE9003250465A46A969D7
S31500001D10FFF710F90446002845D115AB099314AB1B
S31500001D20089313AB079311AB059310AB04930FAB5A
S31500001D3003930DAB01930DF148090CAB0EAE009366
S31500001D4058495948CDF8189002960BAB0AAA0DF0DF
S31500001D5019FE0C2827D1DDE90A130C9A0B4313430D
S31500001D600D9A13431FD04846504B0BAA03F8011B8C
S31500001D7056F8041BD97050F8041BB145D97127D009
S31500001D8052F8041BF2E70023D7F8A80D3C4C1A467C
S31500001D90194602F09DF90023D7F8A40D1A461946F4
S31500001DA002F096F922E74FF4FA5003F071FAB8F10F
S31500001DB00108A6D14FF0FF34D7F8985D45BB2B46F6
S31500001DC02A462946D7F8A80D02F082F92B4627E7BE
S31500001DD0EB68022BF0D16B69002BEDD0344B00225F
S31500001DE0009301214FF48050203302F0E7FDC7F83D
S31500001DF0CC0D00283FD06B69012BDDD92D4C00227C
S31500001E0001214FF4805004F12003009402F0D6FD26
S31500001E100023D7F8A80DBAE7274B202293E8030042
S31500001E20C5F8000CA5F8041C484641460DF0FFFD18
S31500001E3048460DF0F4FD1A4B1B8829F800304BE795
S31500001E404FF47A7CA9690323CDF800C01B4A01969A
S31500001E500A48FFF76FF8334632463146D7F8A80DE1
S31500001E6002F036F9334632463146D7F8A40D044C13
S31500001E7002F02EF9BAE6024C9EE700BF9C0B00204A
S31500001E8074110100A41101007C12010088120100E6
S31500001E908C120100901201009C1700209412010080
S31500001EA0DC110100A8120100781D00203429002051
S31500001EB06C290020A039002074120100E0110100F5
S31500001EC09C1201002DE9F04F41F2340B42F6FC540E
S31500001ED0774E85B00BFB006B5BF8044014F00104F1
S31500001EE003D1204605B0BDE8F08F06F5805A0746B7
S31500001EF08846DAF8A80D42F210711546994602F0A6
S31500001F0087FB0128044640F0A280F3680193022B68
S31500001F1042F6F8535BF8033025D0002B00F0BE8064
S31500001F204FF47A7303FB09F3624A4146A2FB03238B
S31500001F3002469B09D6F8D80BFEF750FF0390039F85
S31500001F40012F5FD000240121D6F8D80B02F0F4FD52
S31500001F500023DAF8A80D1A46194602F0B9F8204609
S31500001F6005B0BDE8F08F002B00F0988042F6F053E4
S31500001F705BF80330042B40F09180D6F8FC3BBB4263
S31500001F801CD00023DAF8A80D19461A4602F0A0F86C
S31500001F9003213046FEF768FE8346002857D13846AF
S31500001FA0FFF75CFB84465B465A465946E346DAF839
S31500001FB0A40D02F08DF8BBF1000F44D14FF47A73F3
S31500001FC041F2340B41F6CC5003FB09F3394A0BFBC3
S31500001FD0076BA2FB0323414601225BF800009B0925
S31500001FE0FEF7FCFE0128814634D04FF0FF3441F263
S31500001FF0340041F6CC5300FB07660121F05802F08D
S315000020009BFDA5E7002D9DD06A1E9CD0002405E00F
S31500002010039BA5421F4495D0EA1B12D01146D6F861
S31500002020D80B019202F088FD0A23019AD6F8D80B44
S3150000203008EB0701FEF7D2FE0390039B0134002B49
S31500002040E6D13C467FE730460199FEF739FE4FF070
S31500002050FF3446E705B36A1EC9D00BF5EE5B0024D4
S315000020600BF10C0B05E0A542814415D0B5EB090236
S3150000207010D01146DBF80000019202F05DFD0A2344
S31500002080019ADBF8000008EB09010134FEF7A6FE11
S315000020900028E8D14C46AAE70024A8E70023DAF88E
S315000020A0A80D1A4619464FF0FF3402F011F818E74A
S315000020B09C0B0020D34D621000BEFEE71EF0040FFD
S315000020C00CBFEFF30880EFF30980014908470000D1
S315000020D0612100000F4B1968EFF309821EF0100F03
S315000020E008BF22ED108A22E9F04FEFF30B8342F886
S315000020F0043D0A604FF0100080F31188BFF34F8F44
S31500002100BFF36F8F03F002F94FF0000080F31188E0
S3150000211000F002B81C3D0020074801680A6802CAA0
S3150000212081F30B88B2E8F04F1EF0100F08BFB2EC37
S31500002130108A82F3098870471C3D002010B5EFF322
S315000021401184102383F3118803F0D0F818B14FF0EF
S315000021508052024B5A6084F3118810BD00ED00E0F6
S3150000216008B5836913F8023C022B02D0032B04D86E
S3150000217008BDBDE80840FFF7CFBF40F20541024B5E
S31500002180024A034801F0EAFBDC1301009C1401003B
S31500002190F013010070B440F8203C4FF080756FF0EA
S315000021A002040346084E283122F0010240F80C6C66
S315000021B040F8045C40F8244C40F8082C43F8481DCD
S315000021C0184670BC704700BFB920000008B5EFF391
S315000021D01181102383F311880A4A13680133012BF6
S315000021E0136000D008BD084A084B11605B68C3F352
S315000021F00803002BF6D040F2F641054B054A064887
S3150000220001F0ACFBC03A0020BC3A002000ED00E033
S315000022101814010088140100F0130100094A08B5DA
S3150000222013683BB1013B13601BB9074B1B6883F373
S31500002230118808BD40F2FF41044B054A054801F0EC
S315000022408DFB00BFC03A0020BC3A0020601401009C
S3150000225074140100F013010000B3194A00B5938904
S3150000226018B2002899B21ADBBFF34F8F30BFBFF305
S315000022706F8F62B6BFF36F8F72B600280CDA4AF220
S3150000228002500F4AB2F8FE33A2F8FE039BB243F4A3
S3150000229025439181A2F8FE335DF804FB70474AF2AC
S315000022A0025E4FF0000CB2F8FE33A2F8FEE39BB2DA
S315000022B043F42543A2F80CC0A2F8FE33D4E700BFCE
S315000022C000E0014008B572B602F038FF0120FFF7C2
S315000022D0C3FF62B6BDE8084002F038BF0D4B0E4A98
S315000022E01B68A2FB03239B09013BB3F1807F0FD23E
S315000022F04FF0E0224FF0F00C0020072110B4074CFD
S31500002300536184F823C05DF8044B906111617047F6
S31500002310704700BFB03C0020D34D621000ED00E0D6
S31500002320F02208B50B4B83F82220FFF7D7FF0A4AA5
S31500002330536B43F04043536362B6BFF36F8FEFF3C3
S31500002340148C2CF0040C8CF31488BFF36F8F02DF0F
S3150000235000BEFDE700ED00E000EF00E0EFF30383D1
S31500002360103B5BB2002B05DB03F1604303F56143D1
S3150000237093F80033704700BFF8B5C3691546DA68AD
S3150000238004460E466AB18378916803F00303013B65
S3150000239025FA03F310688F68324600219BB2B847CE
S315000023A010B90020C4E90565F8BD00BF036A70B521
S315000023B00D469978044601F07B019970017841B386
S315000023C00261C269C5601069002841D0226982B1E4
S315000023D0A378816803F00303013B22FA03F300228A
S315000023E08E680068E1689BB22261B04780B9236AB3
S315000023F021789A7842F080029A7039BB94F802C02C
S315000024000CF0030CBCF1020F1AD000202A78DA7007
S3150000241070BD90F802C0C0690CF0030E0069A2EB13
S315000024200E02226105EB0E02E2600028CED19A78F8
S315000024300CF0030C42F08002BCF1020F9A70E4D15A
S315000024402A88002042F47E42DA8170BD002070BDE9
S315000024509A7842F080029A7070BD00BF84460020D0
S31500002460CCE90A32CCF82410704700BF70B5864616
S315000024700024DEF820304D7893F802C00A780CF07C
S315000024800B069E70CEF80C4020468C7802F05C025B
S315000024905C7093F800E00CF07B0C65F3010E83F89A
S315000024A000E0C9789974D97901F0A3010A43DA7179
S315000024B083F802C070BD00BF4FF0FF32C369D86811
S315000024C0C1E9002210B14FF480324A601B6913B192
S315000024D04FF480330B600020704700BF38B50446C8
S315000024E088070D461AD5D4E907129378086903F0D0
S315000024F07B039370002829D0836800681B6998477E
S3150000250023783BB1226A938A43F004039382938A29
S315000025105907FCD40023236108B138BD0620EA0719
S31500002520FBD50023E269D068A36118B1836800680F
S315000025301B6998472378002BEFD0226A938A43F0D1
S3150000254002039382938A9B07FCD438BD2378002B21
S31500002550D9D118462361E2E730B500220D46D0E90D
S315000025600613DB680446296085B0826173B19A68F8
S31500002570186813699847A0B9E3696946DB689A68E1
S315000025801868D369984760B9039B2B6023783BB1E1
S31500002590226A938A43F002039382938A9B07FCD4B0
S315000025A0002005B030BD00BF10B50022044601234F
S315000025B0006A62608270E2692E4992F9052050092C
S315000025C002F01F0203FA02F2203041F82020BFF386
S315000025D04F8FBFF36F8FE26992F90B20500902F01B
S315000025E01F0203FA02F2203041F82020BFF34F8F7A
S315000025F0BFF36F8FE26992F90720500902F01F02BC
S3150000260003FA02F2203041F82020BFF34F8FBFF3C8
S315000026106F8FE26992F90920500902F01F02934078
S3150000262000F1200241F82230BFF34F8FBFF36F8FC6
S31500002630E369DA6822B1936810681B6A9847E36910
S315000026401B691BB19A681868136A9847EFF31081E3
S31500002650012383F310884FF00043E069064A0478AB
S315000026605068E34003435360536881F310880020A9
S3150000267010BD00BF00E100E000400840F0B5846AEC
S3150000268085B005460F4694466E46B4B194E80F00F1
S3150000269086E80F00EB6920461B7884F804C02360A7
S315000026A0EB6AC4E902736B6A9847AC6A1CB196E898
S315000026B00F0084E80F0005B0F0BD3446EAE700BF1E
S315000026C08C46516830B4029C0D6880B91C609CF839
S315000026D0010038B94FF0010CE8780B346CF30510A3
S315000026E0E8701C60936810681B6830BC184704F1DA
S315000026F00C001860EBE700BF40F2F9332DE9F04714
S315000027000D4609780446CB4013F0010301F580021B
S3150000271018BF102302F58C52120202620122002118
S3150000272003708378686962F30103AA696062C4E989
S315000027300A12E561A3706B7882B023B90222A378EE
S3150000274062F30103A370012195F90B00574B42096F
S3150000275000F01F06203201FA06F695F80AC043F883
S315000027602260BFF34F8FBFF36F8F514A00F1C0064F
S3150000277052F826704FEA0C1C6FF3104742F8267089
S315000027804C4E1F185FFA8CFC87F800C346F82040B1
S3150000279095F9050095F804C0470900F01F0E20378B
S315000027A001FA0EFE43F827E0BFF34F8FBFF36F8F9A
S315000027B000F1C00752F827E04FEA0C1C6FF3104EE9
S315000027C042F827E05FFA8CFC1F1887F800C346F82A
S315000027D0204095F9070095F806C0470900F01F0E3E
S315000027E0203701FA0EFE43F827E0BFF34F8FBFF301
S315000027F06F8F00F1C00752F827E04FEA0C1C6FF309
S31500002800104E42F827E05FFA8CFC1F1887F800C3C9
S3150000281046F8204095F9090095F808C0470900F0E8
S315000028201F0E203701FA0EF143F82710BFF34F8F22
S31500002830BFF36F8F00F1C0074FEA0C1152F827C0A3
S31500002840C9B203446FF3104C42F827C083F8001353
S31500002850EA6846F8204072B14FF400265368216AB0
S315000028601B68481DE16943F8046B00902078FFF768
S3150000287027FF0646B0B92A69F2B14FF000665368E1
S31500002880216A1B68C81CE16943F8086B0090207830
S31500002890FFF716FF064678B1EB681BB19A68186811
S315000028A0136A9847304602B0BDE8F08700E100E0C1
S315000028B000600040243B0020EFF31080012383F3E7
S315000028C010884FF00041984B2E785A68F14022EA62
S315000028D001025A605B6880F31088002240F2F931E9
S315000028E0236AE0699A701A715A729A72DA725A8376
S315000028F02A7821FA02F2D20744BF4022DA7406226D
S315000029001A7722787AB1C168013A002900F003816A
S315000029100126120391B2314341F006029A829A8A45
S3150000292092B29142FBD1EA78A978D20042EA01122A
S315000029306978032900F0DD80002914BFF221E22125
S31500002940EE69D2B21A709971327B0025082A0EBF41
S315000029500A22520002F002025A737278B1781D728E
S315000029603578D201490101F02001D2B20A43A91EED
S31500002970012940F2C280D2B2DA7172689178577832
S315000029805970197867F301011970D1781278997422
S31500002990D97902F05C0201F0A3010A43DA7100273B
S315000029A04FF0010CC4E90377C4E905774FF6FF7EC3
S315000029B090F905805D4A08F1C0094FEA581152F8AE
S315000029C029A0890008F01F0801F160410CFA08F8F7
S315000029D001F5614167F3104A42F829A0C1F88081E8
S315000029E0C1F8008090F90B8005F0030508F1C009D5
S315000029F04FEA581152F829A0890008F01F0801F182
S31500002A0060410CFA08F801F5614167F3104A42F893
S31500002A1029A0C1F88081C1F8008090F9078045F0AF
S31500002A20700508F1C0094FEA581152F829A089002B
S31500002A3008F01F0801F160410CFA08F801F5614140
S31500002A4067F3104A42F829A0C1F88081C1F80080D6
S31500002A5090F9091001F1C00052F8208067F3104880
S31500002A6042F820804A097089920001F01F0102F1A4
S31500002A7060420CFA01F102F561427045C2F880111C
S31500002A8011609D7020812DD0EFF310818CF310889A
S31500002A90274A13681BB92748C3704023C3701368BD
S31500002AA00133136081F31088218923480B0A1B0127
S31500002AB053FA81F150F8213023F0011323F44043F7
S31500002AC043F0040340F82130EFF31081012383F330
S31500002AD01088136813B11368013B13601368ABB118
S31500002AE081F3108800263046144B636002B0BDE8BF
S31500002AF0F087F22142F0400222E7FF21022D08BFB3
S31500002B0042F01002D2B25970DA7148E78020094AC1
S31500002B10D370D070E4E7C169097A1140090201F463
S31500002B20706141F00106F4E6004008400060004094
S31500002B30203B0020000D084000080840554943533B
S31500002B402DE9F04F4FF0FF0C4FF0800E1E468BB074
S31500002B5083F803E083F802C0584F594D019131784C
S31500002B603B6A00246FF3820109922A683170C3F32D
S31500002B7002618A40C3F3023322FA03F30022089467
S31500002B80504C0693A3FB04BA1B0A009407900292CA
S31500002B900593099B009A93426EDA00279DF8203030
S31500002BA00393494B039ADD5DC5F34003C5F38005E6
S31500002BB004932B43934256D1444B33F81780079B1B
S31500002BC003FB08F8069BB3FBF8F2541EFF2C4AD809
S31500002BD002FB08F91DE0059BB9FBF3F37F2B42D9F5
S31500002BE003FB00F00028B8BFFF300012A0F5C33089
S31500002BF0A0380028009AB8BF4042824240DC029BBF
S31500002C00A9EB0809F370337843F00403337054B327
S31500002C10013C4A46584651464FEAE9730CF030FAF1
S31500002C20019A002AD7D1A0F5C333A03B002B009A06
S31500002C30B8BF5B429A4216DD0093234BB470DA5D4F
S31500002C403378C2F3000161F386130499C2F3C1021B
S31500002C5061F3041365F3C3033370737862F30103FE
S31500002C607370019B029301370D2F9AD1089BF3B124
S31500002C70009B099A93421DDC00200BB0BDE8F08F43
S31500002C800293114B049AD95D33780090C1F300008A
S31500002C9060F386137078C1F3C10162F3041361F324
S31500002CA0010065F3C303B47070703370A7E70123A6
S31500002CB008936EE703200BB0BDE8F08F00E00140FB
S31500002CC0B03C0020A0860100B0140100C014010031
S31500002CD0F0B5EFF30383103B5BB2324A03F1C00158
S31500002CE052F82100304C6FF3104042F8210054F89E
S31500002CF02300C3691B6913B1036913B1F0BD0369EE
S31500002D006BB90021046A8022A37803F07F0343F0A5
S31500002D100403A370C160BDE8F040FFF7AFBC0578BF
S31500002D204DB3066AF18AC1F30421A9421ED2847802
S31500002D30C26804F0030E74461C4F0BE092F800C004
S31500002D4086F80FC001311B1B2244A942C0E90323A8
S31500002D500CD25BB1BEF1020FF0D1B2F800C04CEA62
S31500002D60070C1FFA8CFCA6F80EC0EBE732796FF35E
S31500002D70C7123271C1E7827802F003010229C168E5
S31500002D8009D0046A0D78E57002F003029B1A0A4422
S31500002D90C0E90323B1E70C88056A44F47E44EC815C
S31500002DA0F2E700BF00600040243B002000FEFFFF6A
S31500002DB010B582B0EFF30383103B5BB2554A03F1C3
S31500002DC0C00152F82100544C6FF3104042F8210024
S31500002DD054F82340E369DB681BB1A369002B40F07C
S31500002DE08E804FF6FF7322899A4264D12278236A35
S31500002DF0E2B1DA8AD00610D01B8AC3F30803019326
S31500002E00A369EBB9042220460199FFF737FC227823
S31500002E102AB1236AD98AC906EAD1BE221A714FF6A7
S31500002E20FF722389934222D102B010BDA27802F02C
S31500002E300302022AE0D05B790193A369002BE1D05B
S31500002E40A27801A902F0030260690CF09DFBD4E9A7
S31500002E500521A37803F003031A44C91AC4E905211E
S31500002E600029D4D101222046FFF708FCCFE71A0A31
S31500002E702A49120152FA83F351F8232022F0011253
S31500002E8022F4404242F0040241F82320EFF310827C
S31500002E90012383F31088224B196811B1196801398F
S31500002EA019601B681BB980201E49CB70C87082F35D
S31500002EB0108802B010BDEFF31081012383F3108850
S31500002EC0174B1A681AB91748C2704022C2701A689E
S31500002ED001321A6081F3108822891049130A1B01F6
S31500002EE053FA82F251F8223023F0011323F44043BF
S31500002EF043F0050341F822302278236A78E700215F
S31500002F0001222046C4E9051102B0BDE81040FFF7D2
S31500002F10B5BB00BF00600040243B0020000808400D
S31500002F20203B0020000D084010B5EFF303840B4B47
S31500002F30103C64B253F824000222016AC0348B7834
S31500002F4003F07B038B700021FFF798FB044B53F8CB
S31500002F5024206FF3104243F8242010BD243B0020A8
S31500002F600060004010B5EFF30384194B103C64B2C7
S31500002F7053F82400037843B9837803F00303022B44
S31500002F8003D0036A5979C9B203E0036A198AC1F307
S31500002F90080193F804C01CF0100F0CF0380206D09C
S31500002FA093F81CC01CF0010F08BF42F0400293F8D2
S31500002FB004C0C0340CF0C70C83F804C0FFF75EFBF6
S31500002FC0044B53F824206FF3104243F8242010BD1D
S31500002FD0243B0020006000400022034610461A6091
S31500002FE0704700BF0B0A10B41B01064C53FA81F15F
S31500002FF054F821300020C3F340035DF8044B1370EE
S31500003000704700BF00080840090A490101F18041E4
S3150000301001F500214B68002013807047090A490119
S3150000302023EA020C01F180411A4001F5002142EA2F
S315000030300C4200208A6070470123C8B283404AB917
S315000030401A040B0A5B0103F1804303F500230020F9
S315000030509A6070479AB2F4E7090A490101F1804182
S3150000306001F5002110B40C6802EA030C4CEA040CCA
S3150000307062EA030202EA0C0200205DF8044B0A60D1
S31500003080704700BF090A490101F1804101F500219D
S315000030904B680020C3F30F4313807047012310B41D
S315000030A04FEA112C4FEA4C1C0CF1804C0CF5002C0D
S315000030B0DCF80440C9B203FA01F18BB201EA14410B
S315000030C0C91AB1FA81F1490900205DF8044B117063
S315000030D0704700BF090A490123EA020C01F1804149
S315000030E01A4001F5002142EA0C420020CA607047EE
S315000030F0014B00201A707047000D0840012A14D0B9
S315000031004FF480300B0A5B0103F1804303F5002383
S3150000311010B4CAB2DC6800FA02F22243120C12049E
S3150000312000205DF8044BDA6070470B0A5B0103F17F
S31500003130804303F50023D868C9B28A40024392B29D
S315000031400020DA60704700BF38B50488002C4CD0E8
S315000031500021436840F20245043303EBC40040F209
S31500003160034C40F2044E0C460FE062452FD153F853
S31500003170042C02F0B852B2F1807F14BF41F0020174
S3150000318044F002040833834210D01A88AA42ECD1D4
S3150000319053F8042C083302F0B852B2F1807F14BF02
S315000031A041F0010144F001048342EED1C943CDB29E
S315000031B0012000F0ABFC0E4B012093F8BB24144316
S315000031C02C4083F8BB44BDE8384000F06FBC724524
S315000031D0D8D153F8042C02F0B852B2F1807F0CBF5C
S315000031E044F0040441F00401CCE7FF25E0E700BF0A
S315000031F000E00140F8B50446FFF7A6FFEFF31082A2
S31500003200012383F31088284E33681BB92749CB70F6
S315000032104023CB7033680133336082F310882388F0
S315000032207BB3626803F1FF3E1FFA8EFE02F10801CE
S315000032301F4C01EBCE0E08E0D2B21B0113448E45A3
S315000032400A4644F823001CD008311068928810F40E
S31500003250803F4FEA1223EFD0130AD2B202EB031CCF
S3150000326054F82C701B01134420F480356FF310477B
S315000032708E4544F82C700A4644F82C5044F8230036
S31500003280E2D1EFF31082012383F31088336813B180
S315000032903368013B336033681BB980200349CB7028
S315000032A0C87082F31088F8BD203B0020000D08404E
S315000032B00008084008B5034B03600846FFF79AFF6D
S315000032C0002008BD54524F5008B50846FFF792FF3C
S315000032D0002008BD70B5012684B002AB68460C46D6
S315000032E015460193ADF80060ADF80C100292FFF799
S315000032F02BFFEFF3108286F310881D490B681BB96C
S3150000330040261C48C370C6700B6801330B6082F3FD
S315000033101088EA034FEA1423E4B219D41B01164AB3
S31500003320234442F82350EFF31082012383F31088DD
S315000033300B6813B10B68013B0B600B681BB980204F
S315000033400C49CB70C87082F31088002004B070BDA1
S31500003350094A04EB031052F820601B016FF3104674
S3150000336042F8206025F4803642F82060D7E700BF97
S31500003370203B0020000D08400008084030B490F9BA
S315000033800400204D82B0019100F1C00C009255F866
S315000033902C201D4C6FF3186245F82C2055F82C1084
S315000033A0C1F3080141F40041E28992B28A42FBD09E
S315000033B008222274019A1AB3144A019C52F820106A
S315000033C04C60009919B152F82010009C8C6052F89C
S315000033D02010CA7802F0C002802A0FD002B9CB8131
S315000033E018210020084B074A197452F82C3043F074
S315000033F0807342F82C3002B030BC70478B81EFE707
S31500003400024ADEE700600040005400400000002051
S315000034100620704706207047034693F90430054995
S31500003420C03351F82320002042F0807241F8232057
S31500003430704700BF00600040034693F90430054A18
S31500003440C03352F8231000206FF3186142F823109E
S31500003450704700BF0060004010B40024154B90F97F
S31500003460042053F82220D378C1E9004413F0C003A6
S315000034700BD04FF48074D089802BC0B2C1E90240D2
S315000034800DD000205DF8044B70474FF48030D3898F
S315000034905DF8044B9BB2C1E90203002070474FF46C
S315000034A0803093895DF8044B9BB2C1E9000300208C
S315000034B0704700BF000000200346002270B493F955
S315000034C00410084C01F1C00C54F82C50064E6FF352
S315000034D0186544F82C50104646F821201A6070BC36
S315000034E0704700BF0060004000000020274AF8B582
S315000034F0137804460D464BB36B6893F900C0BCF1D4
S31500003500000F41DB224E56F82C300BB10820F8BDD7
S3150000351084F804C02D682B46DA78194612F0C00FDD
S3150000352004D0DA89D2B242EA0222DA818A781033EA
S3150000353012F0C002F0D1104608221821154B1A7459
S31500003540154A46F82C5019702260F8BD01261670EF
S31500003550EFF3108086F31088104A116821F4800179
S315000035601160126880F31088094F19464FF4C07233
S3150000357038460CF030F8074B5F611E736B6893F9A1
S3150000358000C0BCF1000FBDDA0B20F8BDC43A002024
S31500003590000000200054004000435444004008400E
S315000035A010B590F904E01A4B0EF1C00C53F82C201C
S315000035B0184C6FF3186243F82C2053F82C20C2F3F2
S315000035C0080242F40042E3899BB29342FBD00B46C9
S315000035D0DA78184612F0C00F04D0DA89D2B242EA7D
S315000035E00222DA818078103310F0C000F0D1082270
S315000035F01824084B1A74084A42F82E10044A1C7004
S3150000360052F82C3043F0807342F82C3010BD00BFC6
S315000036100060004000540040000000208268117ADB
S3150000362001F00101137AC3F340039942FAD1F12361
S3150000363000201372704700BF8268107A00F0010004
S31500003640137AC3F340039842FAD1137A0020C3F3E6
S3150000365040030B7113889BB20B607047F0B50B7C6F
S31500003660416003F5800303F568631B028360EFF393
S315000036701085012383F310880A7C032A6CD8C2F1D3
S3150000368003029340DB433C4C3C4AE468234013600E
S31500003690136885F31088002382681372137AC3F3C4
S315000036A0400C9B07FAD4CC6982F80AC0E3782678E6
S315000036B00D7A247903F00703002E46D1002D53D14D
S315000036C0002614734C68D0F804E004F1FF3C9673AE
S315000036D053729572C4609EF81030294F1FFA8CFC05
S315000036E0A2F800C047F8234091F91230B34222DB1A
S315000036F001244A7C03F160451201224FD2B205F53E
S31500003700614585F80023204D47F823005A0903F147
S31500003710C00703F01F0304FA03F3920055F827408D
S3150000372002F1604202F5614266F3104445F8274013
S31500003730C2F8803113600023D1E90541134A0461C0
S315000037408161026043611846F0BD502E06BF654692
S3150000375043F050033343B3E7C2F11302064C9340E0
S31500003760DB430B4A246991E785F0020543EA05131A
S31500003770DBB23546A4E700BF004008400C400840D5
S31500003780C83A0020243B0020006000405447410016
S3150000379010400840F0B585B0EFF30383103B214A93
S315000037A05BB203F1C00152F821001F4C6FF31040C9
S315000037B042F8210054F82350D5E901120878137A0B
S315000037C00128DBB20CD1F427EC6803F0F003177282
S315000037D01372097C154E601E80B246F82140108097
S315000037E02F69B7B16C6901AECCB194E8070086E8E1
S315000037F007009B0644BF00232371AB692046236064
S31500003800B8476B691BB196E8070083E80700AA680A
S31500003810137ADBB203F00F03137205B0F0BD344622
S31500003820E7E700BF00600040243B0020C83A0020C4
S31500003830064B074993F826001A6A51F82030C2F35E
S3150000384002620449D3400B60704700BF00E00140AC
S31500003850C4020020B03C00204AF20350012335493F
S31500003860354AF0B5A1F8FE03A2F80431B2F80431E6
S315000038709BB2002BFAD101244FF400454FF0090EFC
S315000038802E48DFF8D0C02E4EC0F804C0DFF8C8C0FE
S315000038902849C0F80CC02B4FA2F800412A4AB46050
S315000038A034604261076091F82620856005610C6AE4
S315000038B050F82220C4F3026C244C22FA0CF2226047
S315000038C081F8133481F8A2E091F880241AB181F8C6
S315000038D0813481F880340023164981F8323091F81A
S315000038E03C301A07FBD543F202150023114A0D8519
S315000038F081F82A3092F83C309B06FBD5032505213A
S315000039000D4B83F81C51124B82F82610136292F865
S315000039102630116A50F82330C1F30261CB40236090
S3150000392001204FF4254382F8300082F85200A2F8B5
S31500003930FE33F0BD00E0014000C00140C40200209B
S3150000394000700040002D310100C2EB0BB03C00209E
S315000039502112012000127A0000366E0100BEFEE739
S31500003960A0F101000028FBD1704700BF10B54FF44D
S315000039707A72164C164B24684FF0000EB3FBF4FC1B
S315000039804FF0FF3300FB01F1A1FB020483427EEB03
S31500003990040407D3B0FBFCF0800880B1BDE81040FA
S315000039A0FFF7DEBF4FEA8C0CB1FBFCF1A1FB021264
S315000039B08B427EEB020203D308460028EED110BDEF
S315000039C01846BDE81040FFF7CBBF00BFB03C002053
S315000039D000CA9A3B70B500240A4B0B4EB3F840510F
S315000039E0ADB225FA04F3DB07E0B203D556F824306E
S315000039F003B198470134102CF3D1024BA3F8305190
S31500003A0070BD00BF00600040E03A002030B56FF0A6
S31500003A10FF0585B0032000F079F84FF0FF311F4C09
S31500003A201F482246856400230125CDE90111039133
S31500003A3004F1C00E32F8020F590960B104A800EB78
S31500003A40810151F80C0C03F01F0C05FA0CFC20EA5E
S31500003A500C0041F80C0C724503F10103EAD10199FF
S31500003A60104B0F4A03201167C3F880120299516761
S31500003A70C3F8841203999167C3F8881200F016F808
S31500003A800023094803F1C00234F8021F0133602BFA
S31500003A9040F82210F6D105B030BD00BF560F010028
S31500003AA00080004000E100E000600040EFF310817C
S31500003AB0012383F31088124B33F8102092B22AB1F7
S31500003AC033F81020013A92B223F8102033F8103060
S31500003AD09BB293B90B4A10B4B2F8FE330A4C9BB2B0
S31500003AE034F8100043F4254323EA0003A2F8FE331A
S31500003AF081F310885DF8044B704781F31088704796
S31500003B00A43C002000E001405C15010030B4EFF356
S31500003B101081012383F310880E4A32F810309BB2CD
S31500003B206BB90D4C0D4DB4F8FE3335F810C09BB291
S31500003B3043EA0C0343F425439BB2A4F8FE3332F860
S31500003B40103001339BB222F8103081F3108830BC5C
S31500003B50704700BFA43C002000E001405C15010056
S31500003B600D4908B50A6803464AB103330B4823F0EA
S31500003B7003031344834206D810460B6008BD084869
S31500003B8002460860F1E70BF0A1FC0C234FF0FF3270
S31500003B900360104608BD00BFAC3C002088A500208D
S31500003BA00092002000BE704708B500F003F8FCF74D
S31500003BB0ABFDFEE74FF47001234B244A70B500209D
S31500003BC0C3F888109A60FCF73BFBFFF745FE01201F
S31500003BD0FCF736FB1E4B83F30A881E481E4A00215B
S31500003BE0121A0BF0F8FC1D481D4A1E49121A0BF05A
S31500003BF0CBFC1D4D1D4B5B1B002B07DD00249E10CF
S31500003C0055F8043B01349847A642F9DCFFF710FE4D
S31500003C100320FFF77BFF00234FF6FF70144903F1E3
S31500003C2008020133092B21F81200F8D10320FFF70F
S31500003C303DFF0220FCF704FBFFF7E8FEBDE87040FD
S31500003C40002000F017B800BF00ED00E00000000003
S31500003C5088A50020E0020020FC91002080010020C1
S31500003C60C4020020043B0100B8020020C00200206C
S31500003C70000D0840704700BF10B4164B1A461B686B
S31500003C808342FBD3516802EB010C60450BD04168BF
S31500003C9000EB010C63450ED0904203605DF8044BC7
S31500003CA018BF1060704744681046214400EB010CB1
S31500003CB063455160F0D1084C2468A342ECD0D3E9A7
S31500003CC0003490422144C0E900315DF8044B18BF2E
S31500003CD010607047C43C0020B43C002018B3194A59
S31500003CE038B5126850F8043C04461342A0F10805A2
S31500003CF021D050F8081CB9B923EA020340F8043C65
S31500003D0001F01CFA104A54F8043C116828460B448A
S31500003D101360FFF7B1FF0D4A136801331360BDE866
S31500003D20384001F013BA704740F22311084B094A94
S31500003D300948FFF713FE4FF49171084B054A0648F0
S31500003D40FFF70CFEB83C0020BC3C0020C03C002025
S31500003D504C16010074160100981501001816010092
S31500003D604FF0FF31002200F10803C0E90131C0E93C
S31500003D7003330260704700BF00230361704700BF32
S31500003D80436810B49C6802688C609C6801324B6082
S31500003D90616099605DF8044B08610260704700BF7E
S31500003DA030B40D686B1C10D000F108031C465B682C
S31500003DB01A68AA42FAD902684B60013299608C608F
S31500003DC06160086130BC0260704704696368F2E7AD
S31500003DD0036910B4D0E901125C688A605160002161
S31500003DE0844208BF5A601A680161013A1A6018686D
S31500003DF05DF8044B704700BF70B51546026C04466B
S31500003E00866B2AB905684DB300200136A66370BDDE
S31500003E107DB940680BF0B8FB6368226C1344A26856
S31500003E2063609342F0D32368013628466360A66335
S31500003E3070BDC0680BF0A8FB226CE36851429B1A68
S31500003E402268E360934202D2A3680B44E360022D2A
S31500003E50DAD1012E38BF01260020D7E7806801F0AD
S31500003E60E5FB0136A560D1E770B50546FEF7AEF96C
S31500003E7095F845305CB2002C14DD05F1240603E00C
S31500003E80631EDAB25CB26AB16B6A5BB1304601F0AE
S31500003E90C7FA0028F4D001F067FB631EDAB25CB201
S31500003EA0002AF1D1FF2385F84530FEF7B7F9FEF772
S31500003EB08DF995F844305CB2002C14DD05F110063E
S31500003EC003E0631EDAB25CB26AB12B695BB13046BD
S31500003ED001F0A6FA0028F4D001F046FB631EDAB220
S31500003EE05CB2002AF1D1FF2385F84430BDE870406A
S31500003EF0FEF794B938B500283AD004460D46FEF7C9
S31500003F0065F9D4E90F3000FB03F32268181A13444D
S31500003F100021A360FF2362600244A163E26084F88B
S31500003F20443084F84530BDB923691BB9FEF776F9EC
S31500003F30012038BD04F1100001F072FA0028F5D016
S31500003F404FF080520E4B5A60BFF34F8FBFF36F8F07
S31500003F50FEF764F9012038BD04F11000FFF700FFF9
S31500003F6004F12400FFF7FCFEFEF758F9012038BDE6
S31500003F7040F20D11034B044A0448FFF7EFFC00BF63
S31500003F8000ED00E0801601009C1A01008816010071
S31500003F9030B583B058B31C4613B30D46A2B1002901
S31500003FA033D048230193019B482B27D10123019944
S31500003FB084F84630E0630121204622602564FFF73D
S31500003FC099FF204603B030BD31BB48230193019BC6
S31500003FD0482B13D101232246019984F84630E9E79C
S31500003FE04FF4A671104B114A1148FFF7B7FC4FF476
S31500003FF0A471104B0D4A0E48FFF7B0FC40F2591160
S315000040000D4B0A4A0A48FFF7A9FC4FF4A8710B4B5F
S31500004010064A0748FFF7A2FC40F25111084B034A33
S315000040200348FFF79BFC00BFE0160100801A010061
S3150000403088160100BC160100801701000017010058
S315000040404017010030B583B0C0B188420D462AD36F
S3150000405014460AB348230193019B482B15D101212D
S3150000406000232260D063204684F846102364019A18
S31500004070FFF740FF2046A56303B030BD4FF434710F
S315000040800C4B0D4A0D48FFF769FC40F259110C4BD9
S315000040900C4A0A48FFF762FC4FF4A6710A4B094A1C
S315000040A00648FFF75BFC40F2D121084B024A034861
S315000040B0FFF754FC9C1701005C1A010088160100EA
S315000040C080170100801A0100E0160100AC170100FC
S315000040D02DE9F04784B00192002800F0A88004463C
S315000040E089461F46002900F08880022F03D1E36B22
S315000040F0012B40F0A38001F043FA0546002851D079
S3150000410000254FF00008DFF850A107E0FEF786F81B
S315000041102046FFF7A9FE01F019F80125FEF756F82B
S31500004120A36BE06B83424BD3022F49D0019E002E36
S315000041306ED0002D40D0FEF771F800F0FFFFFEF7BD
S3150000414045F894F84430FF2B08BF84F8448094F86F
S315000041504530FF2B08BF84F84580FEF75FF802A8BC
S3150000416001A901F0B7F9002858D1FEF72FF8A26B84
S31500004170E36B9A42CAD1FEF751F8019904F1100097
S3150000418001F00CF92046FFF76FFE00F0DFFF002874
S31500004190C3D14FF08053CAF80430BFF34F8FBFF33B
S315000041A06F8FBAE7019B002BABD040F21131274B42
S315000041B0274A2848FFF7D2FB02A801F07FF9BAE7A1
S315000041C03A4649462046FFF717FE636A33B958B99F
S315000041D0FEF724F8012004B0BDE8F08704F12400BE
S315000041E001F01EF90028F3D04FF080521A4B5A60A6
S315000041F0BFF34F8FBFF36F8FEAE7036C002B3FF4DB
S3150000420074AF40F20D31154B114A1248FFF7A6FB69
S31500004210FEF704F8304604B0BDE8F0872046FFF705
S3150000422023FE00F093FF002004B0BDE8F0874FF4B2
S3150000423043710B4B064A0748FFF790FB40F20E31DD
S31500004240084B034A0348FFF789FB00BF74180100B7
S31500004250481A01008816010000ED00E0CC170100A5
S31500004260801601002418010030B583B0E1B148235F
S315000042700193019B482B1ED10C46002501212046A7
S3150000428084F84610E16324602564019BFFF732FE43
S315000042902B462A4629462046A5602560E560FFF79D
S315000042A017FF204603B030BD4FF4A671054B064AF2
S315000042B00648FFF753FB40F25911054B024A0348E3
S315000042C0FFF74CFBE0160100801A0100881601007A
S315000042D0801701002DE9F04100284ED004460E4615
S315000042E017461D4661B3022D02D1E36B012B4BD15C
S315000042F0FEF734F8EFF31188102383F31188A26BCD
S31500004300E36B9A4206D3022D04D0002088F311886D
S31500004310BDE8F0812A4694F84550314620466DB2F4
S31500004320A36BFFF769FD6B1C14D07F2D33D00135CD
S315000043306DB2012084F8455088F31188BDE8F081FC
S31500004340036C002BCFD040F2E131164B164A1748CA
S31500004350FFF704FB636A23B9012088F31188BDE8DF
S31500004360F08104F1240001F05BF80028F4D0002F5E
S31500004370F2D0012318463B60C8E74FF478710C4B26
S31500004380094A0A48FFF7EAFA40F2E231094B064ABF
S315000043900648FFF7E3FA40F26B41074B024A03482F
S315000043A0FFF7DCFACC1701002C1A01008816010071
S315000043B08016010024180100C818010070B50028F5
S315000043C049D0036C0446002B3ED103680D46FBB171
S315000043D0FDF7C4FFEFF31186102383F31188A36B57
S315000043E0E26B9A4210D994F845200133FF2AA36361
S315000043F053B217D07F2B35D001335BB2012084F83E
S31500004400453086F3118870BD002086F3118870BD93
S315000044108368002BDCD040F29441164B164A1748AD
S31500004420FFF79CFA636A1BB9012086F3118870BDF9
S3150000443004F1240000F0F4FF0028F5D0002DF3D09D
S31500004440012318462B60E0E740F28F410C4B0A4AE5
S315000044500A48FFF783FA40F28B410A4B064A07489F
S31500004460FFF77CFA40F21351074B034A0348FFF764
S3150000447075FA00BF04190100181A01008816010018
S31500004480E818010080160100C81801002DE9F04364
S3150000449085B00192002800F0A88004460E46002947
S315000044A072D001F06DF800285BD0FDF78FFEA56B8A
S315000044B0002D73D1019B002B38D002A800F0FEFF1F
S315000044C02F46DFF8449104F12408FDF7A7FE00F01B
S315000044D035FEFDF77BFE94F84430FF2B08BF84F8C9
S315000044E0447094F84530FF2B08BF84F84570FDF7FB
S315000044F095FE01A902A800F0EDFFE8B9FDF766FEFA
S31500004500A36B33BBFDF78AFE4046019900F046FFD8
S315000045102046FFF7A9FC00F019FE60B3FDF756FE32
S31500004520A56B002D3AD1019B002BCED1FDF776FE6F
S31500004530002005B0BDE8F0832046FFF795FC00F0AB
S3150000454005FEFDF743FEA36B002BEFD0FDF766FEDD
S31500004550E4E7FDF763FE2046FFF786FC00F0F6FD74
S31500004560DCE7019B002BA0D04FF4A761224B234A26
S315000045702348FFF7F3F94FF08053C9F80430BFF32F
S315000045804F8FBFF36F8FC9E7036C002B89D040F2C2
S3150000459033511C4B194A1A48FFF7E0F9226C5AB1FD
S315000045A0E168A36811449942E16028BF216830465A
S315000045B028BFE1600AF0E8FF013DA56323692BB936
S315000045C0FDF72CFE012005B0BDE8F08304F11000D4
S315000045D000F026FF0028F3D04FF080520A4B5A60B5
S315000045E0BFF34F8FBFF36F8FEAE740F22F51074BB0
S315000045F0024A0348FFF7B2F974180100081A0100CD
S31500004600881601007419010000ED00E06819010028
S315000046102DE9F04184B00191002800F0CE80066CAF
S315000046200446002E40F0C28000F0AAFF054600288E
S315000046305AD03546FDF7CAFDA36B0027DFF89881EF
S31500004640002B42D1019B002B00F09480002D62D0FC
S31500004650FDF7E4FD00F072FDFDF7B8FD94F8443077
S31500004660FF2B08BF84F8447094F84530FF2B08BF31
S3150000467084F84570FDF7D2FD02A801A900F02AFFD3
S3150000468000283CD1FDF7A2FDA36B002B47D1FDF717
S31500004690C5FD2368002B64D0019904F1240000F0C5
S315000046A07DFE2046FFF7E0FB00F050FD38B94FF0E5
S315000046B08053C8F80430BFF34F8FBFF36F8FFDF7F9
S315000046C085FDA36B0125002BBCD02268013BA363AB
S315000046D0002A67D02369002B55D10126FDF79EFDE0
S315000046E0304604B0BDE8F081019B0646002BA1D000
S315000046F040F2CA51344B354A3548FFF72FF9204668
S31500004700FFF7B2FB00F022FDFDF760FDA36B73B16E
S31500004710FDF784FDD3E702A800F0D0FE98E7FDF789
S315000047207DFD2046FFF7A0FB00F010FDC7E7FDF773
S3150000473075FD1EB9304604B0BDE8F081FDF746FDB3
S31500004740616A49B9A06800F0BDFF0026FDF766FD65
S31500004750304604B0BDE8F081236B1968C1F105014C
S31500004760F0E7FDF733FDA06800F01AFF0646FDF7F7
S3150000477055FD91E7002EE9D04FF4C261154B134A5F
S315000047801348FFF7EBF804F1100000F049FE00288B
S31500004790A3D04FF08052104B5A60BFF34F8FBFF338
S315000047A06F8F9AE700F0E6FFA06093E740F2C551ED
S315000047B00A4B064A0648FFF7D1F840F2C151084BAA
S315000047C0024A0348FFF7CAF874180100F81A0100F4
S315000047D088160100D019010000ED00E0E81801007C
S315000047E06819010010B582B048B10446FDF7EEFC29
S315000047F0A06B0190FDF712FD019802B010BD40F2CA
S31500004800C171024B024A0348FFF7A8F8001A0100DB
S31500004810E01A01008816010008B1806B704708B5E0
S3150000482040F2E371024B034A0348FFF797F800BFD3
S3150000483080160100C01A01008816010010B5C8B123
S315000048400023104C04EBC3025168884206D00133A2
S315000048500A2BF7D190F8463043B110BD002144F839
S315000048603310516090F84630002BF6D1BDE8104069
S31500004870FFF734BA40F2EE71034B044A0448FFF7DF
S315000048806DF800BFCC3C002080160100B01A010074
S3150000489088160100002310B4084C54F833202AB1BE
S315000048A001330A2BF9D15DF8044B704704EBC302C0
S315000048B044F8331050605DF8044B7047CC3C002040
S315000048C070B504460E461546FDF780FC94F8443054
S315000048D0FF2B04BF002384F8443094F84530FF2BA7
S315000048E004BF002384F84530FDF798FCA36B23B181
S315000048F02046BDE87040FFF7B7BA04F124002A4607
S31500004900314600F069FD2046BDE87040FFF7ACBABD
S315000049102DE9F0415AB34568836816465F1B9742F6
S3150000492028BF1746EA199342044619D380693A46C6
S31500004930284488460AF028FEBE4208D9A368F21B1E
S315000049409A421BD8A06908EB07010AF01DFEA3686E
S315000049503544AB4298BFED1A30466560BDE8F0813C
S3150000496040F27B41094B0A4A0A48FEF7F7FF40F23C
S315000049707141094B064A0748FEF7F0FF40F28341B2
S31500004980064B034A0348FEF7E9FF00BF601B010020
S31500004990E41D0100241B01000C1B0100981B0100F3
S315000049A008B540F2FA41024B024A0348FEF7D6FF29
S315000049B0D01B0100A81D0100241B01002DE9F043B6
S315000049C083B00A9C63B3002C48D0814207463ED888
S315000049D0012938BF0121002A14BF4FF003094FF007
S315000049E0020904280E462BD91D4620230193DDF823
S315000049F0048098451DD10246552128460AF0EBFD54
S31500004A00854214D14246002120460AF0E4FD2046A4
S31500004A10C4E90276A56184F81C9003B0BDE8F08372
S31500004A2040F23111114B124A1248FEF797FFFFF779
S31500004A30B7FF40F25311104B0D4A0E48FEF78EFF9A
S31500004A4040F24B110D4B0A4A0A48FEF787FF40F227
S31500004A5033110B4B064A0748FEF780FF4FF4997156
S31500004A60084B034A0348FEF779FF00BF801C01008C
S31500004A70841D0100241B0100B41C0100181C010048
S31500004A80581C01009C1C010008B560B1037F9B0700
S31500004A9003D4BDE80840FFF721B92022BDE808404D
S31500004AA000210AF098BD40F27711024B024A0348F2
S31500004AB0FEF754FF48110100701D0100241B010080
S31500004AC02DE9F04383B038B30446FDF77FFB206938
S31500004AD038B100200190FDF7A1FB019803B0BDE8B5
S31500004AE0F0836569002DF5D1D4E90279A6693A46C5
S31500004AF05521304694F81C800AF06DFD864212D18D
S31500004B002946202220460AF066FD0120C4E90279E2
S31500004B10A66184F81C80DDE740F29D11034B044A30
S31500004B200448FEF71BFFFFF73BFF00BF48110100DB
S31500004B305C1D0100241B010008B550B1012938BFD6
S31500004B400121034682688A422ABF01200020D960DB
S31500004B5008BD40F2CB11024B024A0348FEF7FEFEA7
S31500004B60481101003C1D0100241B0100F0B585B071
S31500004B70002950D00446002854D00D461E46A16890
S31500004B80037F006867680844013813F00103A0EB4F
S31500004B9007000CBF944602F1040C814298BF401AEC
S31500004BA0039268B353BB824228BF0246039229464A
S31500004BB02046FFF7ADFE054618B3A2686368216874
S31500004BC013445B1A9A4298BF9B1AE2689A4218D815
S31500004BD0EFF31187102383F3118823694BB1206902
S31500004BE001960026334632463146009600F0B0FE66
S31500004BF0266187F31188284605B0F0BD844503D9A0
S31500004C000025284605B0F0BD0422204603A9FFF77B
S31500004C107FFE039ACBE740F29221064B064A0748ED
S31500004C20FEF79CFE40F29321054B034A0348FEF72C
S31500004C3095FE00BFD81C0100C81D0100241B010001
S31500004C40481101002DE9F8430446FDF7BFFA334A3F
S31500004C50334D1368013313602B68002B2FD0314E70
S31500004C60336823B3E36A304F304931480A6801326A
S31500004C700A600268211D9A4238BF036003EB830372
S31500004C8007EB8300FFF77CF8FDF7C8FA336863B1DA
S31500004C902A68E36AD26A9A4207D24FF08052254BBD
S31500004CA05A60BFF34F8FBFF36F8FBDE8F8832A6852
S31500004CB0E36AD26A1C4F9A4298BF2C60D4E72C60F4
S31500004CC01368012B03D0E36A174F164ECCE7164F35
S31500004CD03E4607F1640830461436FFF741F8B04502
S31500004CE0F9D1DFF86890DFF868804846FFF738F8B2
S31500004CF04046FFF735F81048FFF732F80F48FFF740
S31500004D002FF80F48FFF72CF80E4B064EC3F800900D
S31500004D100D4BC3F80080E36AA6E700BF8C3D002078
S31500004D201C3D0020E83D0020283D0020983D002045
S31500004D309C3D002000ED00E0D43D0020003E002018
S31500004D40EC3D0020203D0020243D0020A03D002019
S31500004D50B43D0020F8B50546154B164E1C68306864
S31500004D600F460430FFF734F86B1C17D0336864190C
S31500004D705C6007D3104B18683168BDE8F840043111
S31500004D80FFF70EB80D4B186831680431FFF708F8C5
S31500004D900B4B1A68A24288BF1C60F8BD002FE5D0F5
S31500004DA0316808480431BDE8F840FEF7E9BF00BFA6
S31500004DB0143E00201C3D0020243D0020203D002004
S31500004DC0C83D0020EC3D00202DE9F04182B002F103
S31500004DD08045DDE90964276B013D07EB850702463F
S31500004DE027F0070700293AD001F1FF3C01F10F0532
S31500004DF004F1330E1CF9011F0EF8011F09B1AC4571
S31500004E00F8D1002184F84310CDE90023089B002542
S31500004E10042B28BF04239846C4E91135E362201DFC
S31500004E20FEF7AAFF04F11800FEF7A6FFDDE900234E
S31500004E30C8F10501A1613846216B24616462E5640D
S31500004E4025656565A565E565256684F86450FDF705
S31500004E50A1F9206006B1346002B0BDE8F08184F8A3
S31500004E603410D1E74FF0805880B5204C204E214DAC
S31500004E70DFF890A0DFF8909023682BB3FDF7A6F932
S31500004E80F368DF68381DFEF7A3FF2B68013B2B6034
S31500004E902368013B2360FDF7C1F997F8653053B1EC
S31500004EA0012B1ED0022BE7D040F69171124B134A0C
S31500004EB01348FEF753FD386BFEF710FF3846FEF732
S31500004EC00DFF2368002BD9D1DAF80030012B05D964
S31500004ED0C9F80480BFF34F8FBFF36F8FFDF7F2F968
S31500004EE0CAE73846FEF7FAFEC6E700BF903D002047
S31500004EF0003E00208C3D0020381E0100B02101003C
S31500004F00041E0100283D002000ED00E02DE9F04FD1
S31500004F103D4B83B01E6801361E60002E49D0DFF877
S31500004F2008B1DBF800309E4239D3384F3B681D6824
S31500004F30002D55D00025DFF8F480DFF8F4A0DFF867
S31500004F40F49023E0211D08460191FEF741FFA36A74
S31500004F50019923B104F11800FEF73AFF0199D8F838
S31500004F600030E06A984288BFC8F8000000EB800075
S31500004F700AEB8000FEF704FFD9F800203B68E16ADF
S31500004F80D26A1B68914228BF01254BB33B68DB6898
S31500004F90DC6863689E42D5D2CBF8003000E000257D
S31500004FA01B4B1B68002B0CBF2846012003B0BDE835
S31500004FB0F08F164B1A681268FAB9164A1868116803
S31500004FC01960154910600A6801320A601A68126889
S31500004FD05AB94FF0FF33DFF850B0CBF80030A0E7F6
S31500004FE04FF0FF33CBF80030DAE71B68DFF838B054
S31500004FF0DB681B68CBF8003093E740F6C321074B0C
S31500005000074A0848FEF7AAFC143E0020203D00206F
S31500005010183E0020243D0020CC3D00206C1E0100DF
S3150000502050210100041E0100C83D00209C3D0020C7
S31500005030283D00201C3D002070B586B0DDE90B54EC
S31500005040BDB124B368260596059E682E18D1256342
S315000050500A9D02940095059D022584F8655004ADCD
S315000050600195FFF7B1FE2046FFF7ECFD049806B068
S3150000507070BD4FF41271094B094A0A48FEF76EFCDF
S3150000508040F25121084B064A0648FEF767FC40F2FB
S315000050904921064B024A0348FEF760FCE41E010064
S315000050A0D4210100041E0100201F0100041F01007D
S315000050B030B5002489B007AA06A905A8CDE905449C
S315000050C0FBF744FBDDE905012346CDE90110079A0C
S315000050D0114912480094FFF7AFFF78B100F03CFD8C
S315000050E001280FD180F310884FF0FF350C490D4A87
S315000050F00D4B0D6010601C60FDF712F90B4B1B6821
S3150000510009B030BD0130F9D140F63D01084B094ADE
S315000051100948FEF723FC00BF581F0100654E00003A
S31500005120C83D0020E83D0020143E0020A8010020D4
S31500005130601F010090210100041E0100024A13684D
S3150000514001331360704700BF943D00202DE9F04FF6
S31500005150414C83B02368002B77D0FDF737F82368DE
S31500005160013B23602368002B5FD13C4B1B68002B5F
S315000051705BD03B4D2B68002B64D03A4EDFF808819C
S31500005180394FDFF80891EB68D3F80CB00BF1040A3D
S315000051900BF11800FEF71CFE5046FEF719FEDBF871
S315000051A02C0033685146984288BF306000EB80007F
S315000051B008EB8000FEF7E4FD3B68DBF82C20DB6A99
S315000051C09A4224BF0123C9F800302B68002BDAD19C
S315000051D0264B1A681268002A2FD01A68244BD26808
S315000051E012681A60234E356895B1012706E0FFF76D
S315000051F08DFE08B1C9F80070013D08D02368002B68
S31500005200F5D03368013D03F101033360F6D1356013
S31500005210D9F800304BB14FF08052174B5A60BFF3AC
S315000052204F8FBFF36F8F012000E000200190FCF745
S31500005230F5FF019803B0BDE8F08F4FF0FF320C4B3D
S315000052401A60CFE7DFF84490CCE74FF40B610B4BC5
S315000052500B4A0C48FEF782FB943D00208C3D002053
S31500005260D43D00209C3D00201C3D0020203D002018
S31500005270C83D0020D03D002000ED00E0741F010075
S3150000528080210100041E0100283D0020183E002058
S3150000529008B550B10D4B196881B91A6801321A6008
S315000052A0FFF758FDFFF752FF38B94FF08052084B11
S315000052B05A60BFF34F8FBFF36F8F08BD40F2465160
S315000052C0044B054A0548FEF749FB00BF943D002004
S315000052D000ED00E03C1F0100A4210100041E0100B6
S315000052E0014B1868704700BF143E0020054B1B6831
S315000052F00BB9FFF70BBE044A002013680133136095
S31500005300704700BF943D0020D03D00201B4B1B681A
S315000053101BB101221A4B1A607047194A10B5194C75
S3150000532013602368184903EB830292008A58980099
S3150000533042B9E3B1013B03EB830251F82220980006
S31500005340002AF6D0184401EB800C6146DCF80420F4
S31500005350083152688A42CCF8042008BF5268D168E6
S3150000536008BFCCF80420094A1160236010BD40F63E
S31500005370FE31074B074A0848FEF7F0FA943D002035
S31500005380183E00209C3D0020283D00201C3D0020AA
S315000053908C1F01003C210100041E010010B558B10C
S315000053A00C46094B19681831FEF7FAFC2046BDE891
S315000053B010400121FFF7CEBC40F61841034B044ACA
S315000053C00448FEF7CBFA00BF1C3D00209C1F0100DD
S315000053D024210100041E010038B588B114460D468B
S315000053E00B4B19681831FEF7CBFC002C214608BF81
S315000053F02846BDE8384018BF4FF0FF30FFF7AABC7B
S3150000540040F64741034B044A0448FEF7A7FA00BF9B
S315000054101C3D00209C1F010004210100041E010008
S3150000542030B5C36883B0DC68002C2ED004F11805B3
S315000054302846FEF7CDFC184B1B687BB1294617485A
S31500005440FEF79EFC164BE26A1B68DB6A9A4219D984
S3150000545001231846134A136003B030BD211D0846C8
S315000054600191FEF7B5FC104AE36A10680199834280
S315000054700E4888BF136003EB830300EB8300FEF73F
S315000054807FFCDFE7002003B030BD40F67741084BD4
S31500005490084A0948FEF762FA943D0020D43D0020F0
S315000054A01C3D0020183E00209C3D0020283D002089
S315000054B0A81F0100E8200100041E0100034A044B56
S315000054C012681B68C0E90023704700BFCC3D00206E
S315000054D0143E0020F0B583B058B30D4681B30446A0
S315000054E0FCF774FE2B681A4A581C11681FD0D4E9C1
S315000054F00060DFF870C0DCF80070BE420AD0884257
