S01A00006D6963726F726F735F7465737462656E63682E737265637D
S3150000000020620120053D0000313B0000013D00005B
S31500000010013D0000013D0000013D0000013D0000E2
S31500000020000000000000000000000000791F000032
S31500000030013D000000000000911F0000F91F0000B4
S31500000040913800005D2E0000652D0000E52F0000B0
S315000000502D3000000000000000000000000000003D
S31500000060000000000000000000000000000000008A
S31500000070000000000000000000000000000000007A
S31500000080000000000000000000000000000000006A
S31500000090000000000000000000000000000000005A
S315000000A0000000000000000000000000000000004A
S315000000B0000000000000000000000000000000003A
S315000000C0000000000000000000000000000000002A
S315000000D0000000000000000000000000000000001A
S315000000E0000000000000000000000000000000000A
S315000000F000000000000000000000000000000000FA
S3150000010000000000000000000000000000000000E9
S3150000011000000000000000000000000000000000D9
S3150000012000000000000000000000000000000000C9
S3150000013000000000000000000000000000000000B9
S3150000014000000000000000000000000000000000A9
S315000001500000000000000000000000000000000099
S315000001600000000000000000000000000000000089
S315000001700000000000000000000000000000000079
S315000001800000000000000000000000000000000069
S315000001900000000000000000000000000000000059
S315000001A00000000000000000000000000000000049
S315000001B00000000000000000000000000000000039
S315000001C0FFFFFFFFFFFFFFFFFFFFFFFFFFFFFFFF39
S315000001D0FFFFFFFFFFFFFFFFFFFFFFFFFFFFFFFF29
S315000001E0FFFFFFFFFFFFFFFFFFFFFFFFFFFFFFFF19
S315000001F0FFFFFFFFFFFFFFFFFFFFFFFFFFFFFFFF09
S3150000020010B5054C237833B9044B13B1044800E00C
S3150000021000BF0123237010BD48020020000000002B
S31500000220A8A8000008B5034B1BB10349034800E02A
S3150000023000BF08BD000000004C020020A8A8000076
S31500000240022800D07047024B0248596803F09EB856
S3150000025050900000D802002070B5A0B025220021E1
S315000002602B4C16A806F0C3FE0FCC0DF1380CACE8EB
S315000002700F00234603218DF8591053F8101B002256
S31500000280CCF8001042F2B82C03CB1B88214EADF8F7
S315000002906230214D0EAB0893303409ABCDE9142200
S315000002A0ADF87820139219921A921B921C921D9205
S315000002B00B92CDF85A00CDF85E1094E8030083E85F
S315000002C003000C92154B08A910460196144A009596
S315000002D0ADF834C006F044F803A806F013F8114B45
S315000002E01149124ACDE90313114B03A8CDE90523A1
S315000002F006F018F818B100F067F820B070BD392183
S315000003000C4806F073FF00F05FF820B070BD00BF28
S31500000310F08F000031060000850500005105000041
S31500000320F10400008D03000089030000950300001E
S31500000330A1030000C88F000070B50C46064605F004
S315000003407FF8D4B1204603F079FD054620B11EB1F1
S3150000035056F8042C002A03DB05F07AF8284670BD0F
S3150000036022F00042083AA24228BF2246314606F051
S3150000037017FE304603F006FEEEE72546304603F04C
S3150000038001FE284670BD00BF03F058BD08B103F05A
S31500000390F9BD704708B1FFF7CFBF084603F04EBD61
S315000003A038B505460C4605FB04F405F049F8204629
S315000003B003F044FD054618B12246002106F017FE5B
S315000003C005F046F8284638BD704700BF044AD2E912
S315000003D00031013341F10001C2E90031704700BF2D
S315000003E078020020FFFFFFFF2DE9F0433A4E0D464D
S315000003F0337883B0002B35D0384B394F5E68394C93
S315000004006946394803F092F9D4E90002D7E9003782
S315000004100099711A354ED6E9004604FB02F200FB3C
S315000004200622A3FB0136A4FB004001FB07661C194C
S31500000430024446EB0206204621A3D3E900233146B7
S3150000044006F0C2FB03462B60DB176B6031461CA32C
S31500000450D3E90023204606F0B7FB0020AA6003B0CC
S31500000460BDE8F0834FF00109DFF870801E48414671
S3150000047003F06EF91C4803F03DF998F80800184F90
S3150000048009FA00F006F0D4F80FA3D3E9002306F02A
S3150000049063FA0FA3D3E9002306F034F906F0ACFBA8
S315000004A086F80090D8F804603860A6FB000306FBC7
S315000004B001330C4C796020606360A1E7AFF30080E4
S315000004C000CA9A3B000000000000000084D7874164
S315000004D00000000065CDCD4180020020FC900000A8
S315000004E0700200206802002020030020780200200D
S315000004F030B5D0F8C85083B02C6804F1220006F05D
S3150000050043FF0346204684F8423006F03DFF84F858
S31500000510200000F069F910B1002003B030BD0122BF
S31500000520094B20461A7000F071F90028F4D16424B2
S31500000530AA8A0A23291D0094044801F07BFEB0FA1A
S3150000054080F0400903B030BDD0020020D402002064
S3150000055038B50A4B0A4D186801F004FF2C7814B917
S315000005600124204638BD00F049F910B9287020460C
S3150000057038BD2C7884F00104204638BDD402002012
S31500000580D0020020F8B514460E460C4F0C49022244
S3150000059038680C801D4601F01DFF022803D0012398
S315000005A02B700020F8BD22463146386801F012FF54
S315000005B00028F4DB00232B70F8BD00BFD402002016
S315000005C08402002038B590F846500446D5B1012D76
S315000005D017D1B0F84410B0F84220144B521A1868DC
S315000005E0214401F0E3FEB4F84420B4F8423010444C
S315000005F080B2834208BF0223A4F8440008BF84F8EF
S31500000600463038BD094B0222186804F13F0101F05B
S31500000610CDFE0128F5DD0123B4F83F2084F84630ED
S31500000620A4F84450A4F8422038BD00BFD4020020EC
S31500000630F8B50F461D46134E01E0012D1CDD05F0F1
S315000006403DFE04463046FFF7BDFF05F037FE96F83F
S315000006504630001B022BA5EB0005EED10025B6F8AF
S315000006604240069B3846224606491D7006F098FC15
S31500000670204686F84650F8BD01230024069A2046F7
S315000006801370F8BD88020020704700BFFFF7FCBF5B
S3150000069000BE704738B5164C4FF0FF31206804F0A5
S315000006A097F8012803D000212068FFF7F1FF114BCE
S315000006B01A7802B138BD01220F4D1A70FFF7E6FF16
S315000006C02B68013B2B60002BF4D0002320681946D1
S315000006D01A4603F035FE0128F2D000212068FFF704
S315000006E0D7FF2B68013B2B60002BEED138BD00BF36
S315000006F0400300203C0300208C03002038B5002373
S315000007000B4D0C4C01214FF480700B4A2B6023706B
S3150000071003F0D8FD094B186028B100F039F804F051
S3150000072049FE002038BD0146FFF7B2FFF5E700BFDE
S315000007308C0300203C0300204403002040030020DB
S31500000740802330B4034D044C05600C60136030BC4C
S31500000750704700BF9007002090030020802330B42C
S31500000760034D044C05600C60136030BC704700BF3D
S31500000770F80700209005002000B583B00190FFF730
S3150000078089FF019803B05DF804EBFFF765BD00BF74
S3150000079030B501240D480E4A03680E4D85B019196F
S315000007A0CDE901250C4B016040F2E2420B490C48B1
S315000007B0009404F0C3FD0B4B186008B105B030BDC2
S315000007C0014605B0BDE83040FFF762BF8C0300204C
S315000007D02062012064080020389100002491000066
S315000007E0790700006008002008B5034800F04EFBBA
S315000007F0003818BF012008BDCC90000008B500F0F5
S315000008009DFD003818BF012008BD00BFC0B190F89B
S3150000081020300246A3B110B590F8424074B190F86A
S31500000820211005290AD8202B08D8202C06D82232D8
S3150000083001F026F9003818BF012010BD012010BDB7
S315000008400120704793422DE9F84328BF13461C4602
S315000008501BB30568836890465E1BA64228BF2646E2
S31500000860B24207461CD3AA19934220D3894681690E
S3150000087032464846294406F093FBB44207D9A045C0
S315000008801CD3B96909EB0600A21B06F089FBBB68FD
S315000008902544AB4298BFED1A3D602046BDE8F8837B
S315000008A041F25701094B0A4A0A4803F005F941F299
S315000008B05801094B064A074803F0FEF84FF48351E6
S315000008C0064B034A034803F0F7F800BF8C94000078
S315000008D014970000A8940000E49400001C95000002
S315000008E00B4B70B51E689D680A4CEB692189002286
S315000008F030469847192004F07FFE3046EB6921897F
S3150000090001229847BDE87040012004F075BE00BF83
S3150000091050900000D008002070B5244CD4F8A40DE7
S3150000092020B104F06BF80023C4F8A43DD4F8A80D58
S3150000093020B104F063F80023C4F8A83D1C4DD5F897
S31500000940D80B20B104F0D0F90023C5F8D83BD4F871
S31500000950C40D20B104F052F80023C4F8C43DD4F805
S31500000960C80D20B104F04AF80023C4F8C83DD4F8F5
S31500000970CC0D20B104F0B8F90023C4F8CC3DD4F86E
S31500000980BC3D0C4A18684168914202D19B68DB69FC
S315000009909847D4F8C03D074A18684168914200D08C
S315000009A070BD9B68BDE87040DB691847D018002011
S315000009B0D008002055494353074B5A6922B103F525
S315000009C00053D3F8F83D23B1FF22044B02601846CA
S315000009D07047036018467047D00800207411010064
S315000009E070B511F001060C46054603D1A3070ED4D7
S315000009F0002070BD00F5805342F21071D3F8A40DAB
S31500000A0003F0E6FE0128F1D04FF0FF3070BD05F58A
S31500000A10805542F21071D5F8A80D03F0D9FE0128D1
S31500000A20E6D0002EF0D00023D5F8A40D1A461946BC
S31500000A3003F086FCE8E700BF8A0770B50C4605465A
S31500000A4002D4E3070BD470BD002300F5805219468B
S31500000A50D2F8A80D1A4603F073FCE307F3D500237A
S31500000A6005F580501A46BDE870401946D0F8A40D29
S31500000A7003F066BC002230B5344C83B004F58053D5
S31500000A80D3F8C03D019223B15B6802681B789A4295
S31500000A901AD00379042B1ED0802B13D1002303F523
S31500000AA0EE6304EB8304606803F096FF002847D0EA
S31500000AB0019B3BB14FF08052254B5A60BFF34F8FDD
S31500000AC0BFF36F8F03B030BD0379042B0DD0802B9D
S31500000AD0F8D10123E3E741F2340542F6F852D4F89F
S31500000AE0FC3B05FB03439B585BB985680122D4F8A0
S31500000AF0D80B01AB0DF103018DF8035004F084F916
S31500000B00D6E7E368012BF0D041F6CC52D4F8FC3B93
S31500000B10816805FB03438DF8031098580DF1030116
S31500000B20012201AB04F070F90128C1D042F6F4525B
S31500000B30D4F8FC3B05FB0344A3580133A350B7E7A5
S31500000B40606801A903F01AFDB2E700BFD0080020D3
S31500000B5000ED00E02DE9F04385B0002900F0878024
S31500000B600446002800F08A80007F0E4610F001003F
S31500000B701746994614BF4FF00408D4F80C80002B92
S31500000B8040D1A368656822681D44AD1AAB4298BF80
S31500000B90ED1A28B9D5B90025284605B0BDE8F08379
S31500000BA04545F8D9B8F1000F10D02B4642462046ED
S31500000BB003A9A5EB0805D4F80080FFF743FE039BC5
S31500000BC09F4236BF00271F46C4F800802B463A4690
S31500000BD031462046FFF736FE05460028DBD004F0F6
S31500000BE02FFC636943B100266069334632463146BD
S31500000BF0009605F01DF8666104F02AFC284605B04B
S31500000C00BDE8F08301F040FAA368656822681D44D8
S31500000C10AD1AAB4298BFED1AA84522D3002108466B
S31500000C2005F066F92569002D2FD104F08DFE2061AF
S31500000C3001F052FA2B462A4629462846CDF800905E
S31500000C4004F0A0FF2561A36865682268207F1D4423
S31500000C50AD1AAB4200F0010098BFED1A00289FD1F3
S31500000C6098E701F039FA237FDB0793D59AE741F23B
S31500000C70BE01094B094A0A4802F01EFF41F2BF01B4
S31500000C80084B064A064802F017FF41F2E301064BFD
S31500000C90024A034802F010FF309500002C9700002E
S31500000CA0A89400003C9500004C9500002DE9F04FFB
S31500000CB02DED048B4FF47A740A2689B09246169A63
S31500000CC004FB03F302FB04F46D4D0096A5FB03231E
S31500000CD0A5FB04249B0909EE103AA3099DF85C6064
S31500000CE008EE903A00F58E531C3305964FF0000936
S31500000CF0064608EE103A00F5ED58049108F10C0886
S31500000D0040F6B832002118EE100AC8F80090C8F86C
S31500000D100490C8F80890A8F80C9006F068F9BAF1A3
S31500000D20000F00F0A280049B06EB830404F58054B8
S31500000D30D4F8C40D03F036FE002840F096805046E5
S31500000D4006F022FBD4F8BC3D02469D681868514661
S31500000D50AB6898470390002840F08780D4F8C40D0C
S31500000D60169903F035FD012802467ED118EE903A19
S31500000D70D6F8D80B0DF11F01FFF7ECFE012804464B
S31500000D8073D19DF81F3006F5805282F8DC3182F867
S31500000D90AC3D06F58E5540F6B731D6F8D80B1D3565
S31500000DA0029203F0F9FF19EE103A294640F6B732DF
S31500000DB0D6F8D80BFFF7CEFE07462146D6F8D80B55
S31500000DC0019703F0E9FF3B46002F50D006F5ED579B
S31500000DD00D3705EB030B08E041F6AC5228780135D8
S31500000DE05D4504F10104985410D00B2C06EB040366
S31500000DF0F2D90C223946404606F0DFF841F6AB53ED
S31500000E002978013532195D45D154EED1029BDFF8C0
S31500000E1078B0D3F8945D059B05EB43035BF823108C
S31500000E200846029106F0B0FA019F02460137B84221
S31500000E301BD804F5ED540C34241A34442046029988
S31500000E4006F0BDFA98B10E355BF8251008460191FB
S31500000E5006F09AFA01990246204606F0B0FA60B109
S31500000E60009B013B00937FF44BAF064B0393039823
S31500000E7009B0BDEC048BBDE8F08F07230393F6E7BA
S31500000E80D34D6210741101004C9700002DE9F04F0C
S31500000E908246DFF87C804FF438520021404691B0FC
S31500000EA006F0A5F8DAF80030C8F804A0C8F80C3047
S31500000EB083B300264FF00309134D144C0AF10C07B7
S31500000EC006E0002103F084FCD8F80C30B34221D9A7
S31500000ED00022012057F8041B2B46CDF8009044F859
S31500000EE0081C1146064403F0A7F9483544F8040BDC
S31500000EF00028E6D1FFF710FD54F8040C0028E0D1D5
S31500000F00092011B0BDE8F08F60370020942600203C
S31500000F10D0080020002241F28833BAF80800DAF837
S31500000F200410C24DA8F80800C8E90512C8F8103028
S31500000F30FFF7D6FCD5F8A40D08B103F05FFD01203C
S31500000F40BB4903F0C9FAC5F8A40D002800F0568184
S31500000F50D5F8A80D08B103F051FD0120B54903F0FD
S31500000F60BBFAC5F8A80D002800F05081B24B00224C
S31500000F700093012140F6B830A3F6BC3303F04EFED1
S31500000F80C8F8D80B002800F049810DF10C0A564626
S31500000F904FF47A7004F030FBD5F8BC9D08ACD9F854
S31500000FA00430DFF8E0B2DF6938687968BA68FB6850
S31500000FB00FC638694FF6FF773060D9F8046030689D
S31500000FC07168B268F3680FC430697169B269F36910
S31500000FD00FC45B4642F2283200214FF4E13001F0A3
S31500000FE0F9FD00238DF81830D9F80830D9F800003B
S31500000FF01B68CDF810B0CDF83CA008A9ADF8167066
S3150000100098470446002840F0F3804FF4C8766420E1
S3150000101004F0F2FAD8F8181001940A23C5F8944D92
S31500001020864A87480096C8F8FC4BFFF73FFE014604
S31500001030002840F0DD80834C4FF48052204605F0B6
S31500001040D6FF204606F0A0F903467F4A7F4910687E
S315000010501679E05023440A2209681E71204606F0DC
S315000010609BF9204606F090F90346794A11791068F3
S31500001070E218E0501171D5F8BC2D5268D269518939
S31500001080B94203D1127B082A40F0FE80714A04332C
S315000010901088E118E05293788B7000264FF4C874DC
S315000010A00A23CDE90046674AD8F818106448FFF7C6
S315000010B0FDFD002840F09C80D5F8BC3D9A68186874
S315000010C0D3699847002840F09380642004F094FA8E
S315000010D0D5F8BC3D9A68D3E90001126890470646E8
S315000010E0002840F085804FF47A7004F085FA0A23D0
S315000010F0524AD8F81810CDE900465148FFF7D6FDF8
S315000011000A23CDE90046544AD8F818104C48FFF790
S31500001110CDFD00286CD10126C82701900323C5F810
S31500001120946D4E4AD8F8181045480097FFF7BEFD53
S3150000113000285DD1D8F80C30022B00F0AD8041F2CA
S315000011408833C8E90560C8F81C00C8F810300026C6
S31500001150C8244FF4FA5501460323414ACDE9004617
S315000011603748FFF7A3FD6423CDE900563D4AD8F87A
S3150000117018103348FFF79AFD002839D1CDE9005001
S315000011802346394AD8F818102D48FFF78FFD78BB4B
S31500001190CDE900402346354AD8F818102848FFF70D
S315000011A085FD28BB4FF47A7501902346304AD8F85E
S315000011B0181023480095FFF779FDC8B9CDE900401E
S315000011C003232C4AD8F818101D48FFF76FFD78B98D
S315000011D0CDE900500323284AD8F818101848FFF71D
S315000011E065FD28B9254BC8F8FC0BC8F8003088E621
S315000011F0FFF792FB224811B0BDE8F08FFFF78CFB9A
S31500001200D5F8A43D002B3FF47BAEA1E6FFF784FBA7
S31500001210D5F8A83D002B3FF473AEA7E6FFF77CFB9D
S31500001220D8F8D83B002BE5D0AFE600BFD018002099
S31500001230D036002018370020AC1400200496000099
S31500001240D0080020C026002008960000A401002037
S31500001250109600008495000098950000FC9500000B
S31500001260A0950000AC950000B8950000C49500005C
S31500001270D4950000DC950000E895000049574957D1
S3150000128074110100CC080020264A04331088E118A6
S31500001290E05293788B7000E74FF4FA6701900323CE
S315000012A0214AD8F8181021480097FFF7FFFC0028BC
S315000012B09ED1D5F8C03DC8F818609A68D3E90001F8
S315000012C012689047002893D1CDE900700323184A8D
S315000012D0D8F818101548FFF7E9FC00288AD1CDE99F
S315000012E000400323134AD8F818101048FFF7DEFC15
S315000012F000287FF47DAF00254FF4FA640323CDE97F
S3150000130000450D4AD8F818100848FFF7CFFC00280A
S315000013107FF46EAF0123C8F81C00C8F818301846D1
S3150000132015E700BF889500008C950000D0080020C6
S31500001330FC95000098950000F0950000F0B5224D50
S3150000134083B003212846FFF74BFB002838D1EB6812
S315000013500446012B28601FD000274FF47A7603231A
S31500001360CDE90067A969194A1748FFF79FFC20BB1A
S315000013700023174D1A461946D5F8A80D02F0E0FFCE
S315000013800023D5F8A40D1A46194602F0D9FFFFF737
S31500001390C3FA204603B0F0BD05F50053D3F8F03D7F
S315000013A0042BD9D14FF47A76019003232846094AB3
S315000013B0A9690096FFF77AFCCEE7FFF791FAD7E71F
S315000013C0054C204603B0F0BDD0080020D49500009F
S315000013D0D01800201896000074110100F0B53D4C9D
S315000013E005460E468BB003212046FFF7F9FA002882
S315000013F059D1394A04F5406C07460FCAACE80700D4
S315000014002A468CF800306046344905F01FFFE36831
S31500001410012B05D104F50053D3F8F03D042B46D03B
S31500001420002740F6B8352E4AA1694FF49673CDE9E8
S315000014300057A2F54060FFF739FC044690B100233F
S31500001440284D294CD5F8A80D1A46194602F078FF02
S315000014500023D5F8A40D1A46194602F071FF20465E
S315000014600BB0F0BD09AA08ABCDE9013207AA00927C
S315000014701E491F4806AB05AA05F008FF0528DED160
S31500001480059B012BDBD106AA711EF31C52F8040B37
S31500001490FF28D4D801F8010F9942F7D1114D002346
S315000014A0D5F8A80DD0E7104C20460BB0F0BD04F5DA
S315000014B080543B463A463946D4F8A80D02F040FF20
S315000014C0D4F8A40D3B463A46394602F039FF064C9D
S315000014D0C5E700BFD00800201C9600002C9600002F
S315000014E0D0140020D018002074110100309600009E
S315000014F0AC1A00202DE9F043224D83B0EB68022B95
S315000015002CD1D5F8FC3B044683422CD04FF00A0977
S31500001510DFF8748005F5406605F58057224641469A
S31500001520304605F093FE4FF47A630022A969CDE9AF
S315000015300032144803233246FFF7B8FBE0B997F8A8
S31500001540DD310D2B1BD197F8DC31302B0FD0342B2E
S3150000155004D1B9F10109E1D1042001E04FF0FF30D7
S3150000156003B0BDE8F083002003B0BDE8F083C5F802
S31500001570FC4B03B0BDE8F0836FF00100F0E76FF0BD
S315000015800200EDE7D00800204496000041F2340343
S3150000159042F6F8522DE9F0413F4C82B003FB00437E
S315000015A09B58012B04D00326304602B0BDE8F081DB
S315000015B0054603212046FFF713FA0646002838D1D0
S315000015C0E368022B4CD0012B38D000274FF47A76F3
S315000015D03148A1690323CDE90067304A00F58058F8
S315000015E0FFF764FB06463B463A463946D8F8A80D4F
S315000015F002F0A6FE3B463A463946D8F8A40D02F05C
S315000016009FFEB6B941F2340042F6F85742F6F05161
S3150000161042F6FC52E36800FB0544022BE651665095
S31500001620A650C1D141F6CC53E05803F079FB01280E
S31500001630BAD01B4E304602B0BDE8F0811948D0F84A
S31500001640F03D042BC1D100274FF47A76A16903231C
S31500001650CDE90067144AA0F50050FFF727FBB4E771
S31500001660D4F8FC3BAB42B0D02846FFF743FF08B99D
S31500001670E368A8E704F58054334632463146D4F889
S31500001680A80D02F05DFE334632463146D4F8A40D6D
S3150000169002F056FECDE700BFD008002058960000A5
S315000016A074110100D0280020189600002DE9F041A1
S315000016B0444C80460F4684B0032120461546FFF76A
S315000016C08FF9002872D141F2340342F6F85203FB37
S315000016D008439B580646002B53D0E368022B4BD099
S315000016E040F2DC520021384805F081FC0295FBB23D
S315000016F0364A354D0193C7F3072307CA009303C53E
S31500001700C7F3074332492A7028463A0E05F09EFD74
S31500001710012343F69822CDE90023A5F608400323CA
S31500001720A169A5F10802FFF7C1FA20B1C0B20728E6
S3150000173001D001283FD141F2340E42F6F0574FF066
S31500001740040C42F6FC52032100230EFB0844214DF3
S3150000175044F807C0D5F8A80DA1501A46194602F05C
S31500001760EFFD0023D5F8A40D1A46194602F0E8FD50
S31500001770304604B0BDE8F0814046FFF7BBFE0028C6
S31500001780AED004F58054334632463146D4F8A80D1F
S3150000179002F0D6FD3346324631460F4ED4F8A40D3C
S315000017A002F0CEFD304604B0BDE8F0810A4E304668
S315000017B004B0BDE8F08105F57E750023D5F8A80DC7
S315000017C0054ECAE7D0080020D01400208C960000F1
S315000017D070960000D0180020741101002DE9F04128
S315000017E0514D06460F4682B003212846FFF7F8F80A
S315000017F0002868D141F2340342F6F85203FB06533F
S315000018009B580446012B68D0EB68022B60D0012F51
S315000018104FF000084FF0C80794BF002201220423AE
S315000018204249434805F012FD414AA9690323CDE91F
S315000018300078A2F54060FFF739FA0746E8B1C3B26F
S31500001840072B5CD141F2340142F6F853012201FB29
S315000018500655EA500023374D1A461946D5F8A80D05
S3150000186002F06EFD0023D5F8A40D1A46194602F0C3
S3150000187067FD204602B0BDE8F08141F23403012243
S3150000188042F6F05041F6CC5142F6F85C03FB0655A1
S315000018902A50685845F80C200028DBD003F040FA9F
S315000018A00128D7D0234C3B463A463946D4F8A80DF2
S315000018B002F046FDD4F8A40D3B463A46394602F0FE
S315000018C03FFD1D4CD5E71C4C204602B0BDE8F0811B
S315000018D03046FFF70FFE002899D005F580552346C0
S315000018E022462146D5F8A80D02F02AFD23462246B7
S315000018F02146D5F8A40D02F023FD0F4CB9E70446A6
S315000019000C4D434642464146D5F8A80D02F018FD57
S31500001910434642464146D5F8A40D02F011FD204645
S3150000192002B0BDE8F08100BFD00800209896000004
S31500001930D0140020D0180020741101002DE9F84FB2
S3150000194041F2340A42F6FC5C4B4D0AFB005A5AF847
S315000019500C4014F0020402D12046BDE8F88F05F5CC
S31500001960805983468846D9F8A40D42F2107116466E
S315000019701F4602F02DFF01287BD142F6F8535AF894
S315000019800330002B39D042F6F0535AF80330042BBB
S3150000199033D1EB68022B46D03446002E39D04FF4B3
S315000019A07A7303FB07F7354B0024A3FB073740F296
S315000019B08C5ABF090CE0EB69394603F5EE6305EB7B
S315000019C08303586802F004FF002846D0A64220D9B7
S315000019D0A6EB040BD34528BFD346EB6908EB0401FD
S315000019E003F26E7305EB83035B685C449A681868C0
S315000019F093685A4698470028DDD000234FF0FF34FD
S31500001A001A461946D9F8A40D02F09AFC2046BDE8FC
S31500001A10F88F0023D9F8A40D1A46194602F090FC57
S31500001A202046BDE8F88FD5F8FC3B5B45B4D042F2C2
S31500001A301071D9F8A80D02F0CBFE0128DDD1584669
S31500001A40FFF758FD002304461A461946D9F8A80D93
S31500001A5002F076FC002C9FD0CFE74FF0FF34034610
S31500001A6002460146D9F8A40D02F06AFC2046BDE8FC
S31500001A70F88F4FF0FF346FE7D0080020D34D621087
S31500001A802DE9F04F0E4697B02C218046144605F0FE
S31500001A906EFC20B92C21204605F069FC20B10324F8
S31500001AA0204617B0BDE8F08FA44D03212846FEF767
S31500001AB097FF8146A0B905F58057D7F898ADBAF1DA
S31500001AC0000F12D0034602460146D7F8A80D02F0D1
S31500001AD037FC4B461A461946D7F8A40D02F030FCDF
S31500001AE0974C204617B0BDE8F08F05F5406940F2E7
S31500001AF0DC525146484605F07AFA4FF4C873CDF8E1
S31500001B0004A00093284603238E4AA969FFF7CEF85E
S31500001B10002840F09980002E00F0DF80B31E012BD4
S31500001B2000F292804B46884A07CA03C341461A70A0
S31500001B304846202205F030FC484605F025FC834B3C
S31500001B40022E1B8829F800300CBF814B814B0130D7
S31500001B5019889B7809EB000229F8001093707E48DB
S31500001B6005F012FC034621467C4C2022206824798D
S31500001B7049F803004B441C71774805F00DFC764884
S31500001B8005F002FC764B1B8829F80030002644F647
S31500001B902064714AA969A2F54060CDE90046032395
S31500001BA0FFF784F8044640F2DC5231466A4805F0F5
S31500001BB01EFA002C40F0A5804FF00508DFF8C0B1F2
S31500001BC0DFF878A164230022CDE9003250465A4658
S31500001BD0A969FFF76BF80446002845D115AB0993B0
S31500001BE014AB089313AB079311AB059310AB049397
S31500001BF00FAB03930DAB01930DF148090CAB0EAE81
S31500001C00009358495848CDF8189002960BAB0AAA8B
S31500001C1005F03CFB0C2827D1DDE90A130C9A0B438F
S31500001C2013430D9A13431FD04846504B0BAA03F893
S31500001C30011B56F8041BD97050F8041BB145D97125
S31500001C4027D052F8041BF2E70023D7F8A80D3C4C26
S31500001C501A46194602F074FB0023D7F8A40D1A465B
S31500001C60194602F06DFB1BE74FF4FA5003F0C4FC73
S31500001C70B8F10108A6D14FF0FF34D7F8985D45BBFF
S31500001C802B462A462946D7F8A80D02F059FB2B46C3
S31500001C9020E7EB68022BF0D16B69002BEDD0344BBB
S31500001CA00022009301214FF48050203302F0B6FF4A
S31500001CB0C7F8CC0D00283FD06B69012BDDD92D4C20
S31500001CC0002201214FF4805004F12003009402F019
S31500001CD0A5FF0023D7F8A80DBAE7274B202293E8E3
S31500001CE00300C5F8000CA5F8041C4846414605F05B
S31500001CF053FB484605F048FB194B1B8829F8003072
S31500001D0044E74FF47A7CA9690323CDF800C01B4A47
S31500001D1001960A48FEF7CAFF334632463146D7F8DF
S31500001D20A80D02F00DFB334632463146D7F8A40D16
S31500001D30034C02F005FBB3E6014C9EE7D0080020F9
S31500001D407411010098950000B0960000BC96000042
S31500001D50C0960000C4960000D0140020C89600006B
S31500001D60D0950000DC960000AC1A00206826002002
S31500001D70A0260020D4360020A8960000D4950000A6
S31500001D80D09600002DE9F04F41F2340B42F6FC5498
S31500001D90764E85B00BFB006B5BF8044014F0010433
S31500001DA003D1204605B0BDE8F08F06F5805A0746F8
S31500001DB08846DAF8A80D42F210711546994602F0E7
S31500001DC007FD0128044640F0A180F3680193022B29
S31500001DD042F6F8535BF8033025D0002B00F0BC80A8
S31500001DE04FF47A7303FB09F3614A4146A2FB0323CE
S31500001DF002469B09D6F8D80BFEF7ACFE0390039F6C
S31500001E00012F5ED000240121D6F8D80B02F0C4FFC2
S31500001E100023DAF8A80D1A46194602F091FA204670
S31500001E2005B0BDE8F08F002B00F0968042F6F05327
S31500001E305BF80330042B40F08F80D6F8FC3BBB42A6
S31500001E401CD00023DAF8A80D19461A4602F078FAD3
S31500001E5003213046FEF7C4FD8346002856D1384696
S31500001E60FFF748FB84465B465A465946E346DAF88E
S31500001E70A40D02F065FABBF1000F43D14FF47A735B
S31500001E8041F2340B41F6CC5003FB09F3384A0BFB05
S31500001E90076BA2FB0323414601225BF800009B0966
S31500001EA0FEF758FE0128814633D0002441F2340063
S31500001EB041F6CC5300FB07660121F05802F06CFF97
S31500001EC0A6E7002D9ED06A1E9DD0002405E0039B48
S31500001ED0A5421F4496D0EA1B12D01146D6F8D80B5D
S31500001EE0019202F059FF0A23019AD6F8D80B08EBA3
S31500001EF00701FEF72FFE0390039B0134002BE6D16A
S31500001F003C4680E730460199FEF796FD4FF0FF34D8
S31500001F1047E7002DC9D06A1EC8D00BF5EE5B00243A
S31500001F200BF10C0B05E0A5428144BED0B5EB0902CE
S31500001F3010D01146DBF80000019202F02DFF0A23B3
S31500001F40019ADBF8000008EB09010134FEF702FEF6
S31500001F500028E8D14C46A9E70023DAF8A80D1A466E
S31500001F6019464FF0FF3402F0EBF91AE7D0080020CB
S31500001F70D34D621000BEFEE71EF0040F0CBFEFF358
S31500001F800880EFF309800149084700001D20000082
S31500001F900F4B1968EFF309821EF0100F08BF22EDF0
S31500001FA0108A22E9F04FEFF30B8342F8043D0A60F2
S31500001FB04FF0100080F31188BFF34F8FBFF36F8F80
S31500001FC003F058FB4FF0000080F3118800F002B8D0
S31500001FD044380120074801680A6802CA81F30B8861
S31500001FE0B2E8F04F1EF0100F08BFB2EC108A82F371
S31500001FF0098870474438012010B5EFF31184102387
S3150000200083F3118803F026FB18B14FF08052024B80
S315000020105A6084F3118810BD00ED00E008B58369AD
S3150000202013F8023C022B02D0032B04D808BDBDE8EE
S315000020300840FFF7CFBF40F20541024B024A034872
S3150000204001F03AFD10980000D09800002498000096
S3150000205070B440F8203C4FF080756FF002040346E0
S31500002060084E283122F0010240F80C6C40F8045C5E
S3150000207040F8244C40F8082C43F8481D184670BC1C
S31500002080704700BF751F000008B5EFF311811023DC
S3150000209083F311880A4A13680133012B136000D0B9
S315000020A008BD084A084B11605B68C3F30803002BA0
S315000020B0F6D040F2F641054B054A064801F0FCFC15
S315000020C0F4370020F037002000ED00E04C980000C7
S315000020D0BC98000024980000094A08B513683BB173
S315000020E0013B13601BB9074B1B6883F3118808BDBE
S315000020F040F2FF41044B054A054801F0DDFC00BFF4
S31500002100F4370020F037002094980000A8980000CB
S315000021102498000000B3194A00B5938918B2002824
S3150000212099B21ADBBFF34F8F30BFBFF36F8F62B622
S31500002130BFF36F8F72B600280CDA4AF202500F4ACC
S31500002140B2F8FE33A2F8FE039BB243F42543918115
S31500002150A2F8FE335DF804FB70474AF2025E4FF0C8
S31500002160000CB2F8FE33A2F8FEE39BB243F425431B
S31500002170A2F80CC0A2F8FE33D4E700BF00E001408D
S3150000218008B572B603F05CF90120FFF7C3FF62B62B
S31500002190BDE8084003F05CB90D4B0E4A1B68A2FB74
S315000021A003239B09013BB3F1807F0FD24FF0E0225E
S315000021B04FF0F00C0020072110B4074C536184F84F
S315000021C023C05DF8044B906111617047704700BFF2
S315000021D0E8390020D34D621000ED00E0F02208B58A
S315000021E00B4B83F82220FFF7D7FF0A4A536B43F0C5
S315000021F04043536362B6BFF36F8FEFF3148C2CF03A
S31500002200040C8CF31488BFF36F8F02DF00BEFDE76A
S3150000221000ED00E000EF00E0EFF30383103B5BB25C
S31500002220002B05DB03F1604303F5614393F80033AC
S31500002230704700BF2DE9F0474FF0000882B0064610
S315000022400C20894617461C46CDF8008001F0F6FDA5
S31500002250054600285AD0C0F80480C0F808804FF020
S31500002260FF38DFF8F8A06846C5F80080FEF7A4FB43
S31500002270DAF80030012B58D80098FF2855D00422F0
S315000022800121FFF7ABFA002851D1DAF8003013B973
S315000022900123CAF800304FF47A7E0EFB04F2DFF811
S315000022A0C0C0009B48462B60ACFB023292090EFB75
S315000022B002F2ACFB02320A9B92090EFB03F36A6040
S315000022C0ACFB03239B090EFB03F3ACFB03239B0927
S315000022D001A9AB60FFF782F890BB9DF805309DF829
S315000022E004101B0403EB01639DF807103A460B44E8
S315000022F09DF80610009803EB0121FFF7D7F948BBBC
S3150000230080464046356002B0BDE8F0876846FEF775
S3150000231053FB124B1B68012B15D8009BFF2B0CBFE0
S315000023206FF00C086FF00B08EBE76FF00C0828460F
S3150000233001F028FE00254046356002B0BDE8F08772
S315000023406FF0C708F3E76FF00C084046356002B03F
S31500002350BDE8F0874FF0FF38E9E700BFF837002007
S31500002360D34D621010B500210446A0B07C2201A80E
S31500002370009104F03CFEACB1621C13D02068431CF3
S3150000238009D0802269466368FFF7FCFC00282068B4
S31500002390F7DCFFF7FBF8204601F0F4FD024A13686C
S315000023A0013B136020B010BDF837002070B108B5AE
S315000023B003460068B0F1FF3F05D05B68FFF7E2FC1B
S315000023C040EAE07008BD6FF0150008BD6FF015001B
S315000023D0704700BF70B108B503460068B0F1FF3F13
S315000023E005D09B68FFF7AAFA40EAE07008BD6FF0D7
S315000023F0150008BD6FF01500704700BFF8B5C3693A
S315000024001546DA6804460E466AB18378916803F089
S315000024100303013B25FA03F310688F683246002157
S315000024209BB2B84710B90020C4E90565F8BD00BFE6
S31500002430036A70B50D469978044601F07B019970E0
S31500002440017841B30261C269C5601069002841D0B4
S31500002450226982B1A378816803F00303013B22FA63
S3150000246003F300228E680068E1689BB22261B047E0
S3150000247080B9236A21789A7842F080029A7039BB33
S3150000248094F802C00CF0030CBCF1020F1AD0002025
S315000024902A78DA7070BD90F802C0C0690CF0030E9D
S315000024A00069A2EB0E02226105EB0E02E260002833
S315000024B0CED19A780CF0030C42F08002BCF1020FE8
S315000024C09A70E4D12A88002042F47E42DA8170BDF7
S315000024D0002070BD9A7842F080029A7070BD00BFED
S315000024E084460020CCE90A32CCF82410704700BF9D
S315000024F070B586460024DEF820304D7893F802C089
S315000025000A780CF00B069E70CEF80C4020468C78AC
S3150000251002F05C025C7093F800E00CF07B0C65F353
S31500002520010E83F800E0C9789974D97901F0A30106
S315000025300A43DA7183F802C070BD00BF4FF0FF3264
S31500002540C369D868C1E9002210B14FF480324A60ED
S315000025501B6913B14FF480330B600020704700BF36
S3150000256038B5044688070D461AD5D4E9071293787C
S31500002570086903F07B039370002829D083680068FC
S315000025801B69984723783BB1226A938A43F0040378
S315000025909382938A5907FCD40023236108B138BD7E
S315000025A00620EA07FBD50023E269D068A36118B1CB
S315000025B0836800681B6998472378002BEFD0226A4E
S315000025C0938A43F002039382938A9B07FCD438BD17
S315000025D02378002BD9D118462361E2E730B50022D3
S315000025E004460D46D0E90613D86885B02960A26175
S315000025F070B1826800681369984748B9E36969460B
S31500002600DB689A681868D369984708B9039B2B60FA
S3150000261005B030BD10B5002204460123006A626091
S315000026208270E2692E4992F90520500902F01F02D4
S3150000263003FA02F2203041F82020BFF34F8FBFF398
S315000026406F8FE26992F90B20500902F01F0203FA1C
S3150000265002F2203041F82020BFF34F8FBFF36F8F77
S31500002660E26992F90720500902F01F0203FA02F20A
S31500002670203041F82020BFF34F8FBFF36F8FE26900
S3150000268092F90920500902F01F02934000F120023E
S3150000269041F82230BFF34F8FBFF36F8FE369DA68DB
S315000026A022B1936810681B6A9847E3691B691BB1DE
S315000026B09A681868136A9847EFF31081012383F329
S315000026C010884FF00043E069064A04785068E340FA
S315000026D003435360536881F31088002010BD00BF88
S315000026E000E100E000400840F0B5846A85B0054688
S315000026F00F4694466E46B4B194E80F0086E80F0084
S31500002700EB6920461B7884F804C02360EB6AC4E9B1
S3150000271002736B6A9847AC6A1CB196E80F0084E8AE
S315000027200F0005B0F0BD3446EAE700BF8C4651689D
S3150000273030B4029C0D6880B91C609CF8010038B961
S315000027404FF0010CE8780B346CF30510E8701C6050
S31500002750936810681B6830BC184704F10C001860B9
S31500002760EBE700BF40F2F933F0B50D4609780446B1
S31500002770CB4013F0010301F5800218BF102302F5C8
S315000027808C5212020262012200210370837868696A
S3150000279062F30103AA696062C4E90A12E561A370E3
S315000027A06B7883B023B90222A37862F30103A37086
S315000027B0012195F90B005B4A430900F01F062033FF
S315000027C001FA06F695F80AC042F82360BFF34F8F68
S315000027D0BFF36F8F544B00F1C00653F826706FF3AA
S315000027E0104743F8267053F82660504E4FEA0C1CEB
S315000027F017185FFA8CFC87F800C346F8204095F955
S31500002800050095F804C0470900F01F0E203701FAAD
S315000028100EFE42F827E0BFF34F8FBFF36F8F00F134
S31500002820C00753F827E06FF3104E43F827E053F83C
S3150000283027704FEA0C1C17185FFA8CFC87F800C348
S3150000284046F8204095F9070095F806C0470900F0BC
S315000028501F0E203701FA0EFE42F827E0BFF34F8F16
S31500002860BFF36F8F00F1C00753F827E06FF3104EE8
S3150000287043F827E053F827704FEA0C1C17185FFA45
S315000028808CFC87F800C346F8204095F9090095F8B6
S3150000289008C0470900F01F0E203701FA0EF142F872
S315000028A02710BFF34F8FBFF36F8F00F1C00153F8AE
S315000028B021706FF3104743F8217053F821304FEA27
S315000028C00C130244DBB282F80033EA6846F8204073
S315000028D072B14FF400265368216A1B68481DE169EE
S315000028E043F8046B00902078FFF720FF0646B0B946
S315000028F02A69EAB14FF000665368216A1B68C81C52
S31500002900E16943F8086B00902078FFF70FFF064651
S3150000291070B1EB681BB19A681868136A984730461D
S3150000292003B0F0BD00E100E0006000405C3800202C
S31500002930EFF31080012383F310884FF000419F4B83
S315000029402E785A68F14022EA01025A605B6880F3E9
S315000029501088002240F2F931236AE0699A701A71F0
S315000029605A729A72DA725A832A7821FA02F2D207D6
S3150000297044BF4022DA7406221A7722787AB1C168F7
S31500002980013A002900F010810126120391B2314369
S3150000299041F006029A829A8A92B29142FBD1EA7873
S315000029A0A978D20042EA01126978032900F0EA8088
S315000029B0002914BFF226E226E969D2B21A709E7186
S315000029C00A7B0026082A0EBF0A22520002F00202E3
S315000029D05A734A788D78D2016D0105F020051E7272
S315000029E0D2B22A430D78AE1E012E40F2CF80D2B26B
S315000029F0DA714A68967857785E701E7867F3010632
S31500002A001E70D67812789E74DE7902F05C0206F0AB
S31500002A10A3063243DA7100262661A661E660666186
S31500002A2090F90570664B07F1C00253F8220066F371
S31500002A30104043F8220053F82220BFF35F8F012095
S31500002A407A09920007F01F0702F1604202F561421F
S31500002A5000FA07F7C2F880711760E26992F90B7005
S31500002A6007F1C00253F822C066F3104C43F822C0A7
S31500002A7053F82220BFF35F8F7A09920007F01F07F1
S31500002A8002F1604200FA07F702F56142C2F880716E
S31500002A901760E26992F907C00CF1C00253F8227080
S31500002AA066F3104743F8227053F82220BFF35F8F76
S31500002AB04FEA5C1292000CF01F0C02F1604200FA21
S31500002AC00CF702F56142C2F880711760E26992F96B
S31500002AD0092002F1C00753F827C066F3104C43F8EB
S31500002AE027C053F82730BFF35F8F53099B0002F0CE
S31500002AF01F0203F1604300FA02F203F56143C3F8D3
S31500002B0080211A60226A05F0030545F070054B899D
S31500002B1095704FF6FF72934223812DD0EFF310810B
S31500002B2080F31088274A13681BB92748C3704023CF
S31500002B30C37013680133136081F310882189234819
S31500002B400B0A1B0153FA81F150F8213023F00113CF
S31500002B5023F4404343F0040340F82130EFF310819F
S31500002B60012383F31088136813B11368013B1360C4
S31500002B701368A3B181F3108800263046144B6360B6
S31500002B8003B0F0BDF22642F0400215E7FF26022D03
S31500002B9008BF42F01002D2B25E70DA713BE78020C5
S31500002BA0094AD370D070E5E7C169097A1140090274
S31500002BB001F4706141F00106E7E600BF00400840FD
S31500002BC00060004058380020000D0840000808400A
S31500002BD0554943532DE9F04F4FF0FF0C4FF0800E4F
S31500002BE01E468BB083F803E083F802C0584F594D58
S31500002BF0019131783B6A00246FF3820109922A68B9
S31500002C003170C3F302618A40C3F3023322FA03F33D
S31500002C1000220894504C0693A3FB04BA1B0A0094A6
S31500002C20079002920593099B009A93426EDA002759
S31500002C309DF820300393494B039ADD5DC5F34003AD
S31500002C40C5F3800504932B43934256D1444B33F886
S31500002C501780079B03FB08F8069BB3FBF8F2541E8C
S31500002C60FF2C4AD802FB08F91DE0059BB9FBF3F3DC
S31500002C707F2B42D903FB00F00028B8BFFF300012BB
S31500002C80A0F5C330A0380028009AB8BF404282425F
S31500002C9040DC029BA9EB0809F370337843F0040388
S31500002CA0337054B3013C4A46584651464FEAE973DD
S31500002CB003F03AFF019A002AD7D1A0F5C333A03B0F
S31500002CC0002B009AB8BF5B429A4216DD0093234B55
S31500002CD0B470DA5D3378C2F3000161F386130499A8
S31500002CE0C2F3C10261F3041365F3C303337073784F
S31500002CF062F301037370019B029301370D2F9AD182
S31500002D00089BF3B1009B099A93421DDC00200BB08F
S31500002D10BDE8F08F0293114B049AD95D3378009089
S31500002D20C1F3000060F386137078C1F3C10162F34A
S31500002D30041361F3010065F3C303B470707033705C
S31500002D40A7E7012308936EE703200BB0BDE8F08FD9
S31500002D5000E00140E8390020A0860100E498000068
S31500002D60F4980000F0B5EFF30383103B384A5BB2EA
S31500002D7003F1C00152F821006FF3104042F8210020
S31500002D8052F82120334A52F82300C3691B6913B154
S31500002D90036913B1F0BD036983B9D0E908240021A2
S31500002DA0937803F07F0343F004039370C160002C13
S31500002DB0F0D0BDE8F0408022FFF796BC047874B3EB
S31500002DC0056AE98AC1F30421A1421FD290F802C024
S31500002DD0C2680CF00306B4461F4F0CE092F800E000
S31500002DE085F80FE00131A3EB0C036244A142C0E970
S31500002DF003230BD253B1022EF0D1B2F800E04EEA13
S31500002E00070E1FFA8EFEA5F80EE0EBE72A7902F010
S31500002E107D0242F002022A71002BBBD1BDE7827807
S31500002E2002F003010229C1680BD0046A0D78E5702F
S31500002E3002F003029B1A0A44C0E90323002BA9D11E
S31500002E40ABE70C88056A44F47E44EC81F0E700BFEA
S31500002E50006000405C38002000FEFFFF10B582B025
S31500002E60EFF30383103B5A4A5BB203F1C00152F8F9
S31500002E7021006FF3104042F8210052F82120554AF4
S31500002E8052F82340E369DB6813B1A369002B49D1EB
S31500002E904FF6FF7322899A4275D12278236AF2B1DE
S31500002EA0D98AC80612D01B8AC3F308030193A36903
S31500002EB0FBB9636A2BB1042220460199FFF714FC83
S31500002EC022782AB1236AD98AC906E8D1BE221A71A4
S31500002ED04FF6FF722389934231D102B010BDA1781B
S31500002EE001F003010229DED05B790193A369002B6F
S31500002EF0DFD0A27801A902F00302606904F050F85D
S31500002F00D4E90521A37803F003031A44C91AC4E9D6
S31500002F10052129B9636A1BB101222046FFF7E4FBAC
S31500002F202278CEE70021636AC4E90511002BD4D0CC
S31500002F300122204602B0BDE81040FFF7D5BB1A0AB1
S31500002F402549120152FA83F351F8232022F0011287
S31500002F5022F4404242F0040241F82320EFF31082AB
S31500002F60012383F310881D4B196811B119680139C3
S31500002F7019601B681BB980201949CB70C87082F391
S31500002F80108802B010BDEFF31081012383F310887F
S31500002F90124B1A681AB91248C2704022C2701A68D7
S31500002FA001321A6081F3108822890B49130A1B012A
S31500002FB053FA82F251F8223023F0011323F44043EE
S31500002FC043F0050341F822302278236A67E700BF01
S31500002FD0006000405C380020000808405838002097
S31500002FE0000D084010B5EFF303830E4A103B5CB2A8
S31500002FF052F82400D0E90821937803F07B039370FC
S3150000300019B102220021FFF76FFB074A04F1C00342
S3150000301052F823106FF3104142F8231052F8233070
S3150000302010BD00BF5C3800200060004010B5EFF313
S3150000303003831C4A103B5CB252F82400037843B960
S31500003040837803F00303022B03D0036A5979C9B2CC
S3150000305003E0036A198AC1F3080193F804C01CF05F
S31500003060100F0CF0380206D093F81CC01CF0010FAC
S3150000307008BF42F0400293F804C00CF0C70C83F876
S3150000308004C0436A0BB1FFF72FFB074A04F1C003E4
S3150000309052F823106FF3104142F8231052F82330F0
S315000030A010BD00BF5C3800200060004000220346CF
S315000030B010461A60704700BF0B0A10B41B01064C7D
S315000030C053FA81F154F821300020C3F340035DF830
S315000030D0044B1370704700BF00080840090A4901F5
S315000030E001F1804101F500214B68002013807047F3
S315000030F0090A490123EA020C01F180411A4001F54F
S31500003100002142EA0C4200208A6070470123C8B2BF
S3150000311083404AB91A040B0A5B0103F1804303F5A5
S31500003120002300209A6070479AB2F4E7090A490121
S3150000313001F1804101F5002110B40C6802EA030C8C
S315000031404CEA040C62EA030202EA0C0200205DF873
S31500003150044B0A60704700BF090A490101F180412A
S3150000316001F500214B680020C3F30F43138070471D
S31500003170012310B44FEA112C4FEA4C1C0CF1804C81
S315000031800CF5002CDCF80440C9B203FA01F18BB24D
S3150000319001EA1441C91AB1FA81F1490900205DF822
S315000031A0044B1170704700BF090A490123EA020C5B
S315000031B001F180411A4001F5002142EA0C4200204B
S315000031C0CA607047012A14D04FF480300B0A5B01A5
S315000031D003F1804303F5002310B4CAB2DC6800FA99
S315000031E002F22243120C120400205DF8044BDA604E
S315000031F070470B0A5B0103F1804303F50023D8688F
S31500003200C9B28A40024392B20020DA60704700BF1A
S315000032102DE9F84F0388002B3DD007464FF00008F4
S31500003220DFF8A4A040F202427B684FEAC8055919AC
S315000032308988002491424FF00109224E09D00134B9
S31500003240032C23D07B6836F8022B591989889142C2
S31500003250F5D15B5909FA04F203F0B853B3F1807F54
S315000032605FFA82FB19D09AF8BB341A42E7D00120E4
S3150000327000F0FAFC9AF8BB34012023EA0B0B8AF81B
S31500003280BBB4013400F0C0FC032CDBD13B8808F151
S3150000329001084345C6D8BDE8F88F9AF8BB2409FA59
S315000032A004F313425FFA83FBC9D1012000F0DCFC72
S315000032B09AF8BB3401204BEA030B8AF8BBB400F042
S315000032C0A3FCBCE76A99000000E00140F8B504469B
S315000032D0FFF79EFFEFF31082012383F31088284E39
S315000032E033681BB92749CB704023CB703368013351
S315000032F0336082F3108823887BB3626803F1FF3E54
S315000033001FFA8EFE02F108011F4C01EBCE0E08E0FB
S31500003310D2B21B0113448E450A4644F823001CD042
S3150000332008311068928810F4803F4FEA1223EFD0DC
S31500003330130AD2B202EB031C54F82C701B0113447F
S3150000334020F480356FF310478E4544F82C700A46FA
S3150000335044F82C5044F82300E2D1EFF31082012305
S3150000336083F31088336813B13368013B33603368E5
S315000033701BB980200349CB70C87082F31088F8BD52
S3150000338058380020000D08400008084008B5034BD7
S3150000339003600846FFF79AFF002008BD54524F50BD
S315000033A008B50846FFF792FF002008BD70B5012654
S315000033B084B002AB68460C4615460193ADF8006032
S315000033C0ADF80C100292FFF723FFEFF3108286F39D
S315000033D010881D490B681BB940261C48C370C6706F
S315000033E00B6801330B6082F31088EA034FEA14235B
S315000033F0E4B219D41B01164A234442F82350EFF3D2
S315000034001082012383F310880B6813B10B68013B0C
S315000034100B600B681BB980200C49CB70C87082F317
S315000034201088002004B070BD094A04EB031052F85E
S3150000343020601B016FF3104642F8206025F48036A9
S3150000344042F82060D7E700BF58380020000D08403A
S315000034500008084030B490F90400204D82B0019174
S3150000346000F1C00C009255F82C201D4C6FF3186229
S3150000347045F82C2055F82C10C1F3080141F4004101
S31500003480E28992B28A42FBD008222274019A1AB3C8
S31500003490144A019C52F820104C60009919B152F858
S315000034A02010009C8C6052F82010CA7802F0C002EE
S315000034B0802A0FD002B9CB8118210020084B074A79
S315000034C0197452F82C3043F0807342F82C3002B055
S315000034D030BC70478B81EFE7024ADEE700600040B0
S315000034E00054004000000020062070470620704768
S315000034F0034693F904300549C03351F823200020D0
S3150000350042F0807241F82320704700BF00600040FF
S31500003510034693F90430054AC03352F823100020BD
S315000035206FF3186142F82310704700BF0060004037
S3150000353010B40024154B90F9042053F82220D378B8
S31500003540C1E9004413F0C0030BD04FF48074D08956
S31500003550802BC0B2C1E902400DD000205DF8044BBB
S3150000356070474FF48030D3895DF8044B9BB2C1E9B4
S315000035700203002070474FF4803093895DF8044BB6
S315000035809BB2C1E900030020704700BF0000002085
S315000035900346002270B493F90410084C01F1C00CE4
S315000035A054F82C50064E6FF3186544F82C5010460C
S315000035B046F821201A6070BC704700BF00600040CA
S315000035C000000020274AF8B5137804460D464BB391
S315000035D06B6893F900C0BCF1000F41DB224E56F830
S315000035E02C300BB10820F8BD84F804C02D682B469A
S315000035F0DA78194612F0C00F04D0DA89D2B242EA5C
S315000036000222DA818A78103312F0C002F0D1104615
S3150000361008221821154B1A74154A46F82C501974AD
S315000036202260F8BD01261670EFF3108086F310882D
S31500003630104A116821F480011160126880F3108825
S31500003640094F19464FF4C072384603F0D0FC074BB9
S315000036505F611E736B6893F900C0BCF1000FBDDAA1
S315000036600B20F8BDFC37002000000020005400406D
S31500003670004354440040084010B590F904E01A4B4A
S315000036800EF1C00C53F82C20184C6FF3186243F857
S315000036902C2053F82C20C2F3080242F40042E3899E
S315000036A09BB29342FBD00B46DA78184612F0C00F55
S315000036B004D0DA89D2B242EA0222DA818078103363
S315000036C010F0C000F0D108221824084B1A74084ADA
S315000036D042F82E10044A1C7452F82C3043F08073C2
S315000036E042F82C3010BD00BF00600040005400407E
S315000036F0000000208268117A01F00101137AC3F3F9
S3150000370040039942FAD143681978012908D1C16862
S3150000371093F810C004484B1E9BB240F82C1013803F
S31500003720F123002013727047003800208268107A57
S3150000373000F00100137AC3F340039842FAD1137ADA
S315000037400020C3F340030B7113889BB20B607047D4
S31500003750F0B50A7C416002F5800202F56862120249
S315000037608260EFF31086012383F3108891F810C06E
S31500003770BCF1030F71D8CCF1030C03FA0CF3DB4355
S315000037803E4CE5680C342B402360236886F3108892
S3150000379000231372137AC3F3400C9B07FAD4CC6947
S315000037A082F80AC0E278267883680D7A247902F0D6
S315000037B00702002E4AD1002D58D100261C734C68F2
S315000037C0D0F804E004F1FF3C9E731FFA8CFC5A7299
S315000037D09D72C4609EF81020A3F800C091F91230C3
S315000037E0274FB34247F8224026DB4A7C03F1604468
S315000037F01201244DD2B204F5614484F80023224A12
S3150000380003F1C00445F8230052F8245066F310452E
S3150000381042F8245052F82420BFF35F8F01245A093E
S31500003820920003F01F0302F1604202F5614204FABE
S3150000383003F3C2F8803113600023D1E90541134A2E
S3150000384004618161026043611846F0BD502E06BFD7
S31500003850654642F050023243AFE7084CCCF1130CF8
S3150000386003FA0CF32569DB4310348CE785F0020577
S3150000387042EA0512D2B235469FE700BF0040084033
S31500003880003800205C3800200060004054474100AA
S315000038902DE9F04184B0EFF30383103B1F4A5BB27E
S315000038A003F1C00152F821006FF3104042F82100E5
S315000038B052F821201A4A52F82340D4E901261278F8
S315000038C0337A012ADBB204D1F42203F0F003327218
S315000038D03372D4F81080B8F1000F15D0656901AFC6
S315000038E0CDB195E8070087E807009B0644BF002393
S315000038F02B71A36928462B60C04763691BB197E803
S31500003900070083E80700337ADBB203F00F03337254
S3150000391004B0BDE8F0813D46E7E700BF0060004027
S315000039205C380020064B074993F826001A6A51F8BE
S315000039302030C2F302620449D3400B60704700BFD7
S3150000394000E001402C020020E8390020F8B54AF2D8
S31500003950035001233749384AA1F8FE03A2F804317F
S31500003960B2F804319BB2002BFAD101214FF4004585
S315000039704FF0090C314CDFF8DCE0314EC4F804E0BE
S31500003980DFF8D4E02B48C4F80CE02E4FA2F8001163
S315000039902D4AB16031606261276090F82620A560EB
S315000039A02561056A54F82220C5F30265EA40274DD1
S315000039B02A6080F8133480F8A2C090F8803493B35C
S315000039C000231C4981F8813481F8803481F8323033
S315000039D091F83C301A07FBD543F202100023154A32
S315000039E0088581F82A3092F83C309B06FBD50320E7
S315000039F00523114981F81C0115490120116282F83D
S31500003A00263092F82630116A54F82330C1F3026149
S31500003A10CB402B604FF4254382F8300082F85200E9
S31500003A20A2F8FE33F8BD80F8801440F2C44000F0DE
S31500003A304BF8C5E700E0014000C001402C02002021
S31500003A4000700040002D310100C2EB0BE839002068
S31500003A502112012000127A0000366E0138B50025C9
S31500003A60134C0121C82084F8285000F02DF884F862
S31500003A70245094F82430002BFBD194F824300C4ABF
S31500003A8043F0020384F8243092F82430C3F3400450
S31500003A909B07F9D4012082F8224000F0E5F8054B97
S31500003AA0012083F8BB44BDE8384000F0ADB800BF44
S31500003AB00030084000E0014000BEFEE7A0F1010032
S31500003AC00028FBD1704700BF10B54FF47A72164C30
S31500003AD0164B24684FF0000EB3FBF4FC4FF0FF3397
S31500003AE000FB01F1A1FB020483427EEB040407D331
S31500003AF0B0FBFCF0800880B1BDE81040FFF7DEBFE8
S31500003B004FEA8C0CB1FBFCF1A1FB02128B427EEB5F
S31500003B10020203D308460028EED110BD1846BDE8C0
S31500003B201040FFF7CBBF00BFE839002000CA9A3B20
S31500003B3070B500240A4B0B4EB3F84051ADB225FACE
S31500003B4004F3DB07E0B203D556F8243003B19847F7
S31500003B500134102CF3D1024BA3F8305170BD00BFD5
S31500003B60006000401838002030B56FF0FF0585B0C2
S31500003B70032000F079F84FF0FF311F4C1F48224612
S31500003B80856400230125CDE90111039104F1C00EDE
S31500003B9032F8020F590960B104A800EB810151F80F
S31500003BA00C0C03F01F0C05FA0CFC20EA0C0041F883
S31500003BB00C0C724503F10103EAD10199104B0F4A2F
S31500003BC003201167C3F8801202995167C3F8841263
S31500003BD003999167C3F8881200F016F80023094884
S31500003BE003F1C00234F8021F0133602B40F82210A3
S31500003BF0F6D105B030BD00BFCA930000008000407A
S31500003C0000E100E000600040EFF31081012383F340
S31500003C101088124B33F8102092B22AB133F81020D4
S31500003C20013A92B223F8102033F810309BB293B9C0
S31500003C300B4A10B4B2F8FE330A4C9BB234F81000AB
S31500003C4043F4254323EA0003A2F8FE3381F31088E8
S31500003C505DF8044B704781F310887047DC3900200B
S31500003C6000E001409499000030B4EFF31081012385
S31500003C7083F310880E4A32F810309BB26BB90D4CA4
S31500003C800D4DB4F8FE3335F810C09BB243EA0C0371
S31500003C9043F425439BB2A4F8FE3332F810300133C7
S31500003CA09BB222F8103081F3108830BC704700BFF9
S31500003CB0DC39002000E00140949900000D4908B568
S31500003CC00A6803464AB103330B4823F0030313443F
S31500003CD0834206D810460B6008BD084802460860B5
S31500003CE0F1E703F047F90C234FF0FF32036010466B
S31500003CF008BD00BFE4390020984E0120103B01208A
S31500003D0000BE704708B500F003F8FCF7F7FCFEE7C5
S31500003D104FF4700270B5254B254CC3F8882000205F
S31500003D209C60FCF78DFAFFF711FE0120FCF788FA7C
S31500003D302368A3F59C53083B83F30A881D481E4A53
S31500003D400021121A03F053F91C481D4A1D49121A84
S31500003D5003F026F91C4D1D4B5B1B002B07DD0024D1
S31500003D609E1055F8043B01349847A642F9DCFFF74C
S31500003D70D9FDFFF773FE0320FFF776FF00234FF60A
S31500003D80FF70134903F108020133092B21F81200D1
S31500003D90F8D10320FFF738FF0220FCF751FAFFF7AE
S31500003DA0E3FEBDE87040002000F014B800ED00E02E
S31500003DB000000000480200200C3B0120800100208A
S31500003DC02C020020B4A800002402002028020020B3
S31500003DD0000D0840704700BF10B4164B1A461B680A
S31500003DE08342FBD3516802EB010C60450BD041685E
S31500003DF000EB010C63450ED0904203605DF8044B66
S31500003E0018BF1060704744681046214400EB010C4F
S31500003E1063455160F0D1084C2468A342ECD0D3E945
S31500003E20003490422144C0E900315DF8044B18BFCC
S31500003E3010607047EC370120EC3900202DE9F04185
S31500003E40044601F0FDFA43480368002B59D0424B63
S31500003E501E68344248D1631E0A3345D804F108016E
S31500003E60640747D1DFF81481D8F800708F423BD33E
S31500003E703A4B9C461C6803E0236823B1A4461C46C3
S31500003E8062688A42F8D30368A3422DD02368DCF81F
S31500003E900050CCF80030531A102B05F1080507D94D
S31500003EA0601842074FD143606160FFF795FF626873
S31500003EB02B4BBF1A196832438F424FF000016260E4
S31500003EC0284A38BF1F601368216001331360C8F8A1
S31500003ED0007001F0BDFA6B0709D04FF48871224BD0
S31500003EE0224A2348FFF7E8FD01F0B2FA00252846EA
S31500003EF0BDE8F08121F0070308338B42F4D9194657
S31500003F00B0E71C4B5D0718D11D461B4A00214FF038
S31500003F100047083A22F00702104ED31AC6E90051AC
S31500003F200260C2E90011C5E900230D4A3E4613604E
S31500003F30124A1360084B1F608BE7073323F0070311
S31500003F401D460D4AE2E7CF210D4B084A0848FFF708
S31500003F50B3FD00BFEC390020D8370120EC37012033
S31500003F60E0370120E4370120109A0000B49A0000DF
S31500003F70D0990000F0390020D8370120DC37012025
S31500003F809C99000018B3194A38B5126850F8043CD9
S31500003F9004461342A0F1080521D050F8081CB9B90F
S31500003FA023EA020340F8043C01F04AFA104A54F8A6
S31500003FB0043C116828460B441360FFF70DFF0D4AB9
S31500003FC0136801331360BDE8384001F041BA704709
S31500003FD040F22511084B094A0948FFF76DFD4FF4D9
S31500003FE09271084B054A0648FFF766FDD83701204F
S31500003FF0DC370120E8370120809A0000A89A0000EB
S31500004000D09900004C9A00004FF0FF31002200F1D9
S315000040100803C0E90131C0E903330260704700BFFD
S3150000402000230361704700BF30B40D686B1C10D0CD
S3150000403000F108031C465B681A68AA42FAD90268AE
S315000040404B60013299608C606160086130BC02602F
S31500004050704704696368F2E7036910B4D0E9011296
S315000040605C688A6051600021844208BF5A601A6801
S315000040700161013A1A6018685DF8044B704700BF89
S3150000408070B51546026C0446866B2AB905684DB3B1
S3150000409000200136A66370BD7DB9406802F080FF3E
S315000040A06368226C1344A26863609342F0D323686A
S315000040B0013628466360A66370BDC06802F070FFD3
S315000040C0226CE36851429B1A2268E360934202D253
S315000040D0A3680B44E360022DDAD1012E38BF012616
S315000040E00020D7E7806801F08FFC0136A560D1E794
S315000040F070B50546FDF7C8FF95F845305CB2002C53
S3150000410014DD05F1240603E0631EDAB25CB26AB17F
S315000041106B6A5BB1304601F045FB0028F4D001F034
S315000041200DFC631EDAB25CB2002AF1D1FF2385F8DA
S315000041304530FDF7D1FFFDF7A7FF95F844305CB297
S31500004140002C14DD05F1100603E0631EDAB25CB242
S315000041506AB12B695BB1304601F024FB0028F4D02C
S3150000416001F0ECFB631EDAB25CB2002AF1D1FF2348
S3150000417085F84430BDE87040FDF7AEBF70B5002845
S3150000418048D0C36B0446002B3DD0056CA5FB033518
S31500004190002D38D10E46FDF777FFD4E90F30A56321
S315000041A0FF2500FB03F32268181A626013440244D9
S315000041B084F84450C4E9023284F84550BEB92369F4
S315000041C01BB9FDF789FF012070BD04F1100001F055
S315000041D0E9FA0028F5D04FF08052124B5A60BFF32F
S315000041E04F8FBFF36F8FFDF777FF012070BD04F18E
S315000041F01000FFF709FF04F12400FFF705FFFDF7A4
S315000042006BFF012070BD40F24511074B074A084875
S31500004210FFF752FC4FF48871064B044A0448FFF737
S315000042204BFC00BF00ED00E0009B0000389E000044
S31500004230CC9A0000F89A000030B583B053B310B39F
S315000042400D461C469AB1F1B148230193019B482BB8
S3150000425027D10123019984F84630E06301212046E5
S3150000426022602564FFF78AFF204603B030BD51B9AE
S3150000427048230193019B482B13D101232246019920
S3150000428084F84630E9E74FF4C171094B094A0A48F8
S31500004290FFF712FC40F25911084B064A0648FFF791
S315000042A00BFC40F26B11064B024A0348FFF704FC75
S315000042B0509B00001C9E0000CC9A0000249B00002E
S315000042C0349B000030B583B0C0B188420D4615D38B
S315000042D014460AB348230193019B482B15D10121AB
S315000042E000232260D063204684F846102364019A96
S315000042F0FFF744FF2046A56303B030BD4FF43E717F
S31500004300094B0A4A0A48FFF7D7FB40F26B11094BE3
S31500004310094A0748FFF7D0FB40F25911074B064AF6
S315000043200348FFF7C9FB00BF5C9B0000E49D00004B
S31500004330CC9A0000349B00001C9E0000249B0000C9
S315000043402DE9F04784B00192002800F0A8800446C9
S3150000435089461F46002900F08880022F03D1E36BAF
S31500004360012B40F0A38001F0F5FA0546002851D054
S3150000437000254FF00008DFF850A107E0FDF7ACFE7E
S315000043802046FFF7B5FE01F063F80125FDF77CFE38
S31500004390A36BE06B83424BD3022F49D0019E002EC4
S315000043A06ED0002D40D0FDF797FE01F049F8FDF7DD
S315000043B06BFE94F84430FF2B08BF84F8448094F8D1
S315000043C04530FF2B08BF84F84580FDF785FE02A81F
S315000043D001A901F069FA002858D1FDF755FEA26B34
S315000043E0E36B9A42CAD1FDF777FE019904F11000FA
S315000043F001F088F92046FFF77BFE01F029F8002836
S31500004400C3D14FF08053CAF80430BFF34F8FBFF3C8
S315000044106F8FBAE7019B002BABD040F23331274BAD
S31500004420274A2848FFF748FB02A801F031FABAE705
S315000044303A4649462046FFF723FE636A33B958B920
S31500004440FDF74AFE012004B0BDE8F08704F1240020
S3150000445001F0A8F90028F3D04FF080521A4B5A60A9
S31500004460BFF34F8FBFF36F8FEAE7036C002B3FF468
S3150000447074AF40F22F31154B114A1248FFF71CFB5F
S31500004480FDF72AFE304604B0BDE8F0872046FFF768
S315000044902FFE00F0DDFF002004B0BDE8F08740F2FB
S315000044A02E310B4B064A0748FFF706FB4FF44C71BB
S315000044B0084B034A0348FFF7FFFA00BF0C9C0000B5
S315000044C0D09D0000CC9A000000ED00E0649B000047
S315000044D0F89A0000BC9B000030B583B0002936D0A6
S315000044E048230193019B482B38D1002501230C4614
S315000044F00D64096081F84630CB63019AFDF7C4FD6F
S31500004500D4E90F3101FB03F32268591A1344A3605F
S31500004510FF2362600A44E260A56304F1100084F898
S31500004520443084F84530FFF76FFD04F12400FFF7AF
S315000045306BFDFDF7D1FD2B462A4629462046A56090
S315000045402560E560FFF7FCFE204603B030BD40F273
S315000045505911064B064A0748FFF7AEFA40F26B11AF
S31500004560054B034A0348FFF7A7FA00BF249B000048
S315000045701C9E0000CC9A0000349B000070B50028F9
S3150000458049D0036C0446002B3ED103680D46FBB1AF
S31500004590FDF742FEEFF31186102383F31188A36B18
S315000045A0E26B9A4210D994F845200133FF2AA3639F
S315000045B053B217D07F2B35D001335BB2012084F87C
S315000045C0453086F3118870BD002086F3118870BDD2
S315000045D08368002BDCD040F2B641164B164A1748CA
S315000045E0FFF76AFA636A1BB9012086F3118870BD6A
S315000045F004F1240001F0D6F80028F5D0002DF3D000
S31500004600012318462B60E0E740F2B1410C4B0A4A01
S315000046100A48FFF751FA40F2AD410A4B064A0748ED
S31500004620FFF74AFA40F23551074B034A0348FFF7B2
S3150000463043FA00BF9C9C0000BC9D0000CC9A000081
S31500004640809C0000F89A0000609C00002DE9F04371
S3150000465085B00192002800F0A88004460E46002985
S3150000466072D001F077F900285BD0FDF70DFDA56B40
S31500004670002D73D1019B002B38D002A801F008F958
S315000046802F46DFF8449104F12408FDF725FD00F0DC
S31500004690D7FEFDF7F9FC94F84430FF2B08BF84F8E9
S315000046A0447094F84530FF2B08BF84F84570FDF739
S315000046B013FD01A902A801F0F7F8E8B9FDF7E4FC3B
S315000046C0A36B33BBFDF708FD4046019901F01AF8CC
S315000046D02046FFF70DFD00F0BBFE60B3FDF7D4FCEE
S315000046E0A56B002D3AD1019B002BCED1FDF7F4FC32
S315000046F0002005B0BDE8F0832046FFF7F9FC00F086
S31500004700A7FEFDF7C1FCA36B002BEFD0FDF7E4FC81
S31500004710E4E7FDF7E1FC2046FFF7EAFC00F098FE2F
S31500004720DCE7019B002BA0D040F25A51224B234AD2
S315000047302348FFF7C1F94FF08053C9F80430BFF39F
S315000047404F8FBFF36F8FC9E7036C002B89D040F200
S3150000475055511C4B194A1A48FFF7AEF9226C5AB14B
S31500004760E168A36811449942E16028BF2168304698
S3150000477028BFE16002F014FC013DA56323692BB953
S31500004780FDF7AAFC012005B0BDE8F08304F1100096
S3150000479001F008F80028F3D04FF080520A4B5A6017
S315000047A0BFF34F8FBFF36F8FEAE740F25151074BCC
S315000047B0024A0348FFF780F90C9C0000AC9D0000FC
S315000047C0CC9A00000C9D000000ED00E0009D00006A
S315000047D02DE9F04184B00191002800F0CE80066CEE
S315000047E00446002E40F0C28001F0B4F805460028C9
S315000047F05AD03546FDF748FCA36B0027DFF89881B1
S31500004800002B42D1019B002B00F09480002D62D03A
S31500004810FDF762FC00F014FEFDF736FC94F8443018
S31500004820FF2B08BF84F8447094F84530FF2B08BF6F
S3150000483084F84570FDF750FC02A801A901F034F890
S3150000484000283CD1FDF720FCA36B002B47D1FDF7D8
S3150000485043FC2368002B64D0019904F1240000F086
S3150000486051FF2046FFF744FC00F0F2FD38B94FF047
S315000048708053C8F80430BFF34F8FBFF36F8FFDF737
S3150000488003FCA36B0125002BBCD02268013BA3636C
S31500004890002A67D02369002B55D10126FDF71CFCA1
S315000048A0304604B0BDE8F081019B0646002BA1D03E
S315000048B040F2EC51344B354A3548FFF7FDF82046B7
S315000048C0FFF716FC00F0C4FDFDF7DEFBA36B73B12A
S315000048D0FDF702FCD3E702A800F0DAFF98E7FDF740
S315000048E0FBFB2046FFF704FC00F0B2FDC7E7FDF72F
S315000048F0F3FB1EB9304604B0BDE8F081FDF7C4FBFA
S31500004900616A49B9A06801F0D5F80026FDF7E4FB15
S31500004910304604B0BDE8F081236B1968C1F105018A
S31500004920F0E7FDF7B1FBA06801F024F80646FDF7B5
S31500004930D3FB91E7002EE9D040F23261154B134AC2
S315000049401348FFF7B9F804F1100000F02BFF002818
S31500004950A3D04FF08052104B5A60BFF34F8FBFF376
S315000049606F8F9AE701F002F9A06093E740F2E751F2
S315000049700A4B064A0648FFF79FF840F2E351084BF8
S31500004980024A0348FFF798F80C9C0000989D000027
S31500004990CC9A0000689D000000ED00E0809C0000BD
S315000049A0009D000010B582B048B10446FDF76CFBCF
S315000049B0A06B0190FDF790FB019802B010BD40F28C
S315000049C0E371024B024A0348FFF776F8C49A0000E7
S315000049D07C9E0000CC9A000008B1806B704708B539
S315000049E040F60501024B034A0348FFF765F800BF8E
S315000049F0F89A00005C9E0000CC9A000010B5C8B181
S31500004A000023104C04EBC3025168884206D00133E0
S31500004A100A2BF7D190F8463043B110BD002144F877
S31500004A203310516090F84630002BF6D1BDE81040A7
S31500004A30FFF7A8BA4FF40161034B044A0448FFF795
S31500004A403BF800BFF4370120F89A00004C9E0000A6
S31500004A50CC9A000038B530B379B100252B46154CF9
S31500004A6004EBC30252684FEAC30C824213D02DB145
S31500004A7001330A2BF4D1C5E9001038BD54F83320B0
S31500004A8072B101330A2BF8D004EBC30252684FEA25
S31500004A90C30C9042F2D104EB0C05C5E90010ECE71B
S31500004AA004EB0C05E4E740F6C821034B034A04482F
S31500004AB0FFF702F8F4370120C49A0000089E0000B0
S31500004AC0CC9A000070B504460E461546FDF7DCFA92
S31500004AD094F84430FF2B04BF002384F8443094F844
S31500004AE04530FF2B04BF002384F84530FDF7F4FA68
S31500004AF0A36B23B12046BDE87040FFF7F9BA04F175
S31500004B0024002A46314600F01BFE2046BDE87040D0
S31500004B10FFF7EEBA2DE9F0415AB3144682681E46F5
S31500004B20D51AA54228BF25462B449A42804619D35A
S31500004B3080692A4630440F4602F032FAAC4209D95F
S31500004B40D8F80830621B9A421AD8D8F81800791992
S31500004B5002F026FAD8F80820A019824298BF801AD7
S31500004B60BDE8F08140F28441094B0A4A0A48FEF743
S31500004B70A3FF40F27C41094B064A0748FEF79CFF1B
S31500004B8040F28C41064B034A0348FEF795FF00BFEF
S31500004B90E09E000080A10000AC9E0000949E0000F4
S31500004BA0149F000030B590F81CC083B01CF0010FB4
S31500004BB00D4604464168019206D0069A934213D2E6
S31500004BC00022104603B030BD9A4228BF1A46019211
S31500004BD0002AF6D00B4620462946FFF79BFF019A8E
S31500004BE06060104603B030BD04220B460DEB020197
S31500004BF0FFF790FF019A0146002AE2D0EAE700BFDC
S31500004C0008B540F2F341024B024A0348FEF754FF4F
S31500004C104C9F000044A10000AC9E00002DE9F0432B
S31500004C2083B00A9C63B3002C48D0814207463ED825
S31500004C30012938BF0121002A14BF4FF003094FF0A4
S31500004C40020904280E462BD91D4620230193DDF8C0
S31500004C50048098451DD102465521284602F0C7F921
S31500004C60854214D142460021204602F0C0F9204672
S31500004C70C4E90276A56184F81C9003B0BDE8F08310
S31500004C8040F23F11114B124A1248FEF715FFFFF78B
S31500004C90B7FF40F26111104B0D4A0E48FEF70CFFAC
S31500004CA040F259110D4B0A4A0A48FEF705FF40F239
S31500004CB041110B4B064A0748FEF7FEFE4FF4A07162
S31500004CC0084B034A0348FEF7F7FE00BFFC9F0000AF
S31500004CD020A10000AC9E000030A00000949F0000C0
S31500004CE0D49F000018A0000008B560B1037F9B07A1
S31500004CF003D4BDE80840FFF745B92022BDE80840C7
S31500004D00002102F074B940F28511024B024A0348B1
S31500004D10FEF7D2FE3C9500000CA10000AC9E000000
S31500004D202DE9F04383B038B30446FDF7ADF92069A9
S31500004D3038B100200190FDF7CFF9019803B0BDE826
S31500004D40F0836569002DF5D1D4E90279A6693A4662
S31500004D505521304694F81C8002F049F9864212D15A
S31500004D6029462022204602F042F90120C4E90279B0
S31500004D70A66184F81C80DDE740F2AB11034B044AC0
S31500004D800448FEF799FEFFF73BFF00BF3C95000085
S31500004D90F8A00000AC9E000008B550B1012938BF4C
S31500004DA00121034682688A428ABF01200020D96019
S31500004DB008BD40F2D911024B024A0348FEF77CFEB9
S31500004DC03C950000D8A00000AC9E000038B568B144
S31500004DD0856803680468416802689A42F9D1681ECA
S31500004DE02044401A854298BF401B38BD40F2F71157
S31500004DF0024B034A0348FEF75FFE00BF3C950000E6
S31500004E00B8A00000AC9E00002DE9F04182B0002958
S31500004E1039D0044600283DD01F46037F0D46DB07E8
S31500004E2054BF904602F104081646FFF7CFFF294605
S31500004E30034632462046CDF80080FFF7B3FE05460E
S31500004E40E8B1A368626821681A44521A934298BF6F
S31500004E50D21AE368934212D8EFF31188102383F332
S31500004E60118823694BB10026206933463246314604
S31500004E700197009600F07CFF266188F3118828468A
S31500004E8002B0BDE8F08140F2AA21064B064A074867
S31500004E90FEF712FE40F2AB21054B034A0348FEF72C
S31500004EA00BFE00BF54A0000064A10000AC9E0000F1
S31500004EB03C9500002DE9F8430446FDF7E5F83B4A2A
S31500004EC03B4E1368013313603368002B3FD0394FD4
S31500004ED03B68002B33D0E36A374D384938480A68B7
S31500004EE004F1040E01320A6002689A4238BF036078
S31500004EF003EB830305EB830042689B009168A26085
S31500004F00E160E95801F1010C9168C1F804E0C2F8CA
S31500004F1008E0606145F803C0FDF7DEF83B6863B161
S31500004F203268E36AD26A9A4207D24FF08052254B22
S31500004F305A60BFF34F8FBFF36F8FBDE8F8833268B7
S31500004F40E36AD26A1C4D9A4298BF3460C5E7346062
S31500004F501368012B03D0E36A174D164FBDE7164DB4
S31500004F602F4605F1640838461437FFF74DF8B84563
S31500004F70F9D1DFF86890DFF868804846FFF744F813
S31500004F804046FFF741F81048FFF73EF80F48FFF795
S31500004F903BF80F48FFF738F80E4B064FC3F8009062
S31500004FA00D4BC3F80080E36A97E700BFB4380120D1
S31500004FB0443801201039012050380120C038012022
S31500004FC0C438012000ED00E0FC380120283901201A
S31500004FD014390120483801204C380120C8380120F6
S31500004FE0DC380120F8B505461B4B1C4E1C683068A2
S31500004FF00F460430FFF730F86B1C17D0336864197E
S315000050005C6007D3164B18683168BDE8F840043178
S31500005010FFF70AB8134B186831680431FFF704F834
S31500005020114B1A68A24288BF1C60F8BD002FE5D05C
S315000050300E4B30685A68316882609068C860316883
S315000050409068043141603068346819680430013171
S31500005050906019606361F8BD3C3901204438012035
S315000050604C38012048380120F0380120143901203D
S315000050702DE9F04702F18042DDE90974256B013A1A
S3150000508005EB820281469A46089E22F00708A1B3E4
S3150000509001F1FF3C01F10F0504F1330E1CF9011F6C
S315000050A00EF8011F09B1AC45F8D1002384F843304E
S315000050B0042E25D80025E6626664201DA564FEF749
S315000050C0AFFFC6F1050604F11800FEF7A9FF534627
S315000050D04A464046216BA66124616462E564256503
S315000050E06565A565E565256684F86450FCF7B0FF3F
S315000050F0206007B13C60BDE8F08784F83410D7E73C
S3150000510040F29731024B034A0348FEF7D5FC00BF35
S31500005110CCA100007CA50000A0A100004FF08058A3
S3150000512080B5204C204E214DDFF890A0DFF89090FE
S3150000513023682BB3FCF7A8FFF368DF68381DFEF77A
S315000051408BFF2B68013B2B602368013B2360FCF738
S31500005150C3FF97F8653053B1012B1ED0022BE7D061
S3150000516040F69C71124B134A1348FEF7A5FC386BA8
S31500005170FEF708FF3846FEF705FF2368002BD9D156
S31500005180DAF80030012B05D9C9F80480BFF34F8F38
S31500005190BFF36F8FFCF7F4FFCAE73846FEF7F2FE5F
S315000051A0C6E700BFB838012028390120B4380120ED
S315000051B0E0A1000058A50000A0A100005038012081
S315000051C000ED00E02DE9F04F504B83B01E6801362C
S315000051D01E60002E6FD04E4B0193019B1B689E42B2
S315000051E060D34C4F3B68186800287BD00020B2463D
S315000051F086468146DFF83C81474DDFF83CB147E003
S315000052005A69D3E902148C6061605168181D8142A5
S31500005210116808BF54600139C3F814E011609A6A36
S315000052207AB1D3E90741A1601E6A5168746003F13F
S315000052301804A142116808BF56600139C3F828E076
S315000052401160DA6AD8F8001002EB820405EB840CD0
S315000052508A42DCF8041088BFC8F800208E6899607E
S31500005260DE6055F82460013600968E6870608860AE
S31500005270C3F814C0009B45F82430DBF800103B68E7
S31500005280C96A1B688A4228BF4FF00109002B28D043
S315000052903B68DB68DB685A689245B1D2019B484699
S315000052A01A6000E000201D4B1B68002B18BF012070
S315000052B003B0BDE8F08F174B1A681268F2B9184AA6
S315000052C0186811681960174910600A6801320A6087
S315000052D01A6812685AB94FF0FF330D4A01921360EB
S315000052E07BE748464FF0FF33019A1360DBE71B6804
S315000052F0074ADB6801921B6813606EE740F6C72118
S31500005300094B0A4A0A48FEF7D7FB00BF3C39012081
S31500005310F03801204838012050380120403901205A
S315000053204C380120F438012014A20000F8A4000033
S31500005330A0A10000C43801204438012070B586B011
S31500005340DDE90B54BDB124B368260596059E682E8B
S3150000535018D125630A9D02940095059D022584F8BF
S31500005360655004AD0195FFF783FE2046FFF7A2FDC9
S31500005370049806B070BD40F24A21094B094A0A4812
S31500005380FEF79AFB40F25321084B064A0648FEF701
S3150000539093FB40F24B21064B024A0348FEF78CFB77
S315000053A08CA2000094A50000A0A10000C8A20000E5
S315000053B0ACA2000030B5002489B007AA06A905A84A
S315000053C0CDE90544FBF7BCF9DDE905012346CDE946
S315000053D00110079A114912480094FFF7AFFF78B100
S315000053E000F036FF01280FD180F310884FF0FF350B
S315000053F00C490D4A0D4B0D6010601C60FCF7EEFE6B
S315000054000B4B1B6809B030BD0130F9D14FF4046174
S31500005410084B094A0948FEF74FFB00BF00A30000EE
S315000054201D510000F0380120103901203C390120BF
S31500005430A801002008A3000038A50000A0A10000D4
S31500005440024A136801331360704700BFBC3801205D
S315000054502DE9F04F5A4F83B03B68002B00F0A8802F
S31500005460FCF712FE3B68013B3B60D7F800E0BEF15B
S31500005470000F40F08D80534B1B68002B00F0888096
S31500005480DFF864C1DCF80030002B00F08E80DFF816
S315000054905CB1CDF804E0DE46DFF854814A4EDFF811
S315000054A05491DCF80C30DB689A6AD3E90701816015
S315000054B04860506803F11804A04208BF5160019982
S315000054C099621168013911605A69D3E9021088603E
S315000054D04160516803F1040A5145116808BF5060E4
S315000054E001391160DA6AD8F8001002EB820006EB87
S315000054F0800B8A42DBF8041088BFC8F800208C684D
