:10000000A0800020E5560000FD540000E1560000ED
:10001000E1560000E1560000E1560000E156000004
:10002000000000000000000000000000E156000099
:10003000E156000000000000E1560000E15600001B
:100040009D1B0000C51B0000FD1B0000211C0000C3
:10005000451C00006D1C0000911C0000FD4D0000BF
:100060006D4D00008D4E0000CD4E0000315200005D
:100070000000000000000000000000000000000080
:100080000000000000000000000000000000000070
:100090000000000000000000000000000000000060
:1000A0000000000000000000000000000000000050
:1000B0000000000000000000000000000000000040
:1000C0000000000000000000000000000000000030
:1000D0000000000000000000000000000000000020
:1000E0000000000000000000000000000000000010
:1000F0000000000000000000000000000000000000
:1001000000000000000000000000000000000000EF
:1001100000000000000000000000000000000000DF
:1001200000000000000000000000000000000000CF
:1001300000000000000000000000000000000000BF
:1001400000000000000000000000000000000000AF
:10015000000000000000000000000000000000009F
:10016000000000000000000000000000000000008F
:10017000000000000000000000000000000000007F
:10018000000000000000000000000000000000006F
:10019000000000000000000000000000000000005F
:1001A000000000000000000000000000000000004F
:1001B000000000000000000000000000000000003F
:1001C00010B5054C237833B9044B13B1044800E053
:1001D00000BF0123237010BDD802002000000000E2
:1001E0002C33010008B5034B1BB10349034800E061
:1001F00000BF08BD00000000DC0200202C3301001D
:1002000000B589B0204B0193204B0093204B214A2D
:100210000021012006F0CCFB03A806F073F81E4B6A
:1002200003931E4B04931E4B05931E4B069303A88A
:1002300006F076F810B3EFF31081012383F31088F2
:10024000194B1B6823B9194B0022DA704022DA706F
:10025000154A13680133136081F31088144B5B68EF
:100260001B881A0A120152FA83F3124A052142F836
:10027000231000F05DF809B05DF804FB2F210E4853
:100280000FF042FFD7E700BF7B0600006D060000BD
:100290005D06000045060000D9020000E1020000F2
:1002A000E9020000F10200009C0D0020000D084052
:1002B000481C01000008084044180100022800D032
:1002C000704708B50249034804F0D8FE08BD00BFD6
:1002D000FC1801000805002008B50FF01DFE08BD40
:1002E00008B50FF021FE08BD08B50FF093FF08BD5B
:1002F00038B501FB00F420460FF00EFE05462246FD
:1003000000210FF040FE284638BDFFFF10B5054C18
:1003100000222146044805F0A1FB23680133236035
:1003200010BD00BFF0040020F4040020FFFFFFFF19
:1003300000B5BFB039A806F013F839AB002211465A
:1003400026A805F0FDFE26AB1B4A1C4924A805F093
:1003500039FF06F0EDFE0246194B24A9194805F0B5
:100360006DFF194B009312A3D3E9002326A923A8FC
:1003700005F090FF02A805F0C5FC39AB012228A9C1
:1003800002A805F0C9FC23A902A805F039FD0F4B0E
:1003900000221A600E4A002302A805F059FD4FF40E
:1003A0007A710A2005F05EF8F4E700BFAFF3008031
:1003B00080F0FA0200000000B82C01006C18010067
:1003C0007C180100F40400200D030000F00400205C
:1003D00080969800044A13685168013341F1000186
:1003E00013605160704700BF08030020FFFFFFFF4C
:1003F0002DE9F04383B08846414B1B78002B46D053
:100400006946404804F058FE3F4B5B68009A9B1ACF
:100410003E4A14685268A3FB044503FB025532A30D
:10042000D3E90023204629460FF0C4FA0646C71731
:100430002DA3D3E90023204629460FF0BBFA9146AD
:10044000334B1C685B68334A1168526804FB02F244
:1004500001FB0323A4FB01451D4423A3D3E900238F
:10046000204629460FF0A6FA361847EBE077C8E990
:1004700000671DA3D3E90023204629460FF09AFA0E
:100480004A44C8F80820002003B0BDE8F0831E4DA0
:100490001C4C2946204604F053FE204604F003FE7F
:1004A000287A012404FA00F00EF0AAFE10A3D3E982
:1004B00000230FF039F810A3D3E900230EF00AFF50
:1004C0000FF0B0FA0B46114A106051606A68A0FB49
:1004D000020102FB03110F4BC3E90001084B1C7022
:1004E0008EE700BFAFF3008000CA9A3B0000000017
:1004F0000000000084D767410000000065CDCD41B9
:100500001003002064050020D4180100000300201F
:1005100008030020F80200202DE9F04F85B0834643
:1005200001921E4600238DF80F30012806D00228C4
:100530000AD005F03FF9074689460FE03D4B1B788E
:100540003D4804F059FBF4E73A4B1B78019A3A48CE
:1005500004F022FBEDE7BBF1010F67D0B6F1FF3FDE
:1005600009D005F027F9C41B61EB0905F317B44264
:1005700075EB030351DA0DF10F012F4804F0C0F9B8
:10058000804600284CD19DF80F30033B072BE5D85F
:1005900001A252F823F000BF570500005D050000DE
:1005A0005D0500005D050000C70500005D05000059
:1005B000B905000057050000BBF1020FCED11E4B5C
:1005C000D3F808802EE0DFF878A051461A4804F0EE
:1005D0008FF9BAF8003003F47F43B3F5005F0CD015
:1005E000B3F5045F11D0B3F5085FB7D1002112480D
:1005F00004F07EFB0028B1D014E007220F490E481A
:1006000004F02AFB0028A9D00CE007220B490A4875
:1006100004F048FB0028A1D004E04FF0000801E0FE
:100620004FF00008404605B0BDE8F08FDDF80480CB
:10063000F8E700BF1103002010050020F804002097
:100640000005002008B50349034804F081F90120A2
:1006500008BD00BFA81801001005002008B5024819
:1006600004F002FA012008BD1005002008B54FF083
:10067000FF330120FFF750FF08BD08B50220FFF748
:100680004BFF08BD08B5FFF7BBFD002008BDFFFF0D
:100690001D4B1B88012B00D0704700B58BB0C36881
:1006A00002699B1A0393837F8DF80630022B0ED0CC
:1006B00082238DF80730838C042B1AD0052B1DD094
:1006C000032B08D040F2DC53ADF8083006E080235D
:1006D0008DF80730EFE70023ADF8083090F82030B0
:1006E0008DF8043001A9092002F028F80BB05DF85C
:1006F00004FB40F2DE53ADF80830EFE740F2DF5381
:10070000ADF80830EAE700BF74090020164B1B88DB
:10071000012B00D0704700B58BB0837F8DF8063079
:10072000012B04D0C3B982238DF8073002E0802367
:100730008DF80730838C012B12D040F2DC53ADF8DA
:10074000083090F820308DF8043001A90A2001F01B
:10075000F5FF0BB05DF804FB81238DF80730E9E766
:100760000023ADF80830ECE77409002010B504460A
:1007700069B900F065FD10F4807F02D04FF48070FD
:1007800010BD204600F090FD00F07F00F8E700F07B
:10079000CFFD204600F0E4FD10F4807F08D0204615
:1007A00000F026FE800A013080B2800180B2E7E7C7
:1007B000204600F033FEC0F30A00E1E72DE9F041E6
:1007C00005460C4690F820309FB2454A32F8133067
:1007D0009BB2022B5DD000262146284600F092FBFA
:1007E0002146284600F0D8FB2146284600F02AFC86
:1007F0002146284601F07EFF2146284600F098FD5C
:10080000701E80B201284ED93E4604EB8403642258
:1008100002FB07F202EB4303324A1344598828468D
:1008200000F0BAFD012F4CD02E4F4FEA840804EBA4
:100830008403642202FB06F606EB43033B44D9889B
:10084000284600F007FEA04406EB480637443989E5
:10085000284600F017FE0021284600F069FD2146D9
:10086000284600F0B7FE2146284601F02EFF21461B
:10087000284600F051FE2146284600F019FC21468A
:10088000284600F039FC2146284600F059FCBDE816
:10089000F081154B002243F8212002F0CDFC0646E2
:1008A00095F8207098E70F4904EB8403642202FB5B
:1008B00007F202EB43030B445A8842F480625A80E9
:1008C000A2E704EB8402642303FB07F303EB420774
:1008D000044B1F44B988284600F076FDA4E700BF0A
:1008E00028030020D40500208405002070B50646AA
:1008F0000D46012200F0DEFE002401E00134A4B226
:100900004FF6FF739C4209D02946304600F0D2FDD5
:1009100010F0200FF2D14FF6FE74EFE770BD02B178
:10092000704738B5054643EA010448F22F0344F402
:100930000042002100F07EFA0021284600F074FAFF
:1009400000F02F039C42F7D138BD70B5054616461E
:10095000FFF7E5FF00240AE0284600F0F3F82846F8
:1009600000F076F90A2001F00DF90134A4B2632CED
:1009700007D83146284600F089FA10F4005FEBD022
:1009800070BDFF20FCE770B504460D46164600F02A
:10099000F9FE32462946204600F014FF294620463B
:1009A00000F0B0FE70BD38B504460D4600F0CAFE3A
:1009B0002946204600F0E6FE38BDFFFF38B5044664
:1009C0000D4690F820202B4B33F812309BB2022BAF
:1009D0004AD02946204601F08DFE2946204600F0E7
:1009E00091FA2946204600F0D7FA2946204600F021
:1009F00029FB00231A4619462046FFF790FF294697
:100A0000204600F095FC0021204600F0C5FC0021A6
:100A1000204600F0D9FC0021204600F01BFD0021FB
:100A2000204600F02FFD0021204600F081FC2946E1
:100A3000204600F0CFFD2946204601F046FE29461B
:100A4000204600F069FD29462046FFF7ACFF294605
:100A5000204600F02DFB2946204600F04DFB29469C
:100A6000204600F06DFB38BD034B002243F82120E7
:100A7000AFE700BF280300208405002090F8202065
:100A8000104B33F812309BB2022B18D101290AD037
:100A900002290ED009B100207047012A01D00A486E
:100AA00070470A487047012A01D009487047094831
:100AB0007047012A01D00848704708487047002055
:100AC000704700BF2803002020000940201011407B
:100AD00028000940281011402C0009402C1011401A
:100AE00090F82020104B33F812309BB2022B18D113
:100AF00001290AD002290ED009B100207047012A2D
:100B000001D00A4870470A487047012A01D00948B5
:100B1000704709487047012A01D0084870470848C3
:100B200070470020704700BF2803002022000940C2
:100B3000221011402A0009402A1011402E000940BD
:100B40002E10114090F82020084B33F812309BB241
:100B5000022B01D0002070471AB9054B188880B2CB
:100B60007047044B188880B2704700BF28030020EC
:100B70000000094000101140012800D07047034ACE
:100B800013889BB243F480731380F7E70010114081
:100B900090F82020084B33F812309BB2022B00D083
:100BA0007047012AFCD1054A13889BB223F4807355
:100BB0009BB21380F4E700BF28030020001011400F
:100BC00090F82020074B33F812309BB2022B00D054
:100BD0007047012AFCD1044A13889BB243F080037A
:100BE0001380F5E7280300200010114090F8202022
:100BF000084B33F812309BB2022B00D07047012A09
:100C0000FCD1054AB2F840319BB21943A2F8401119
:100C1000F4E700BF280300200010114090F82020C6
:100C2000094B33F812309BB2022B00D07047012AD7
:100C3000FCD1064AB2F840311BB223EA010189B265
:100C4000A2F84011F2E700BF280300200010114075
:100C500090F82020084B33F812309BB2022B01D0C1
:100C6000002070471AB9054B988880B27047044B32
:100C7000988880B2704700BF280300200000094018
:100C80000010114090F82020084B33F812309BB22E
:100C9000022B01D0002070471AB9054B188980B289
:100CA0007047044B188980B2704700BF28030020AA
:100CB000000009400010114090F82020054B33F847
:100CC00012309BB2022B00D07047002AFCD0024B9E
:100CD0009981F9E7280300200010114090F82020A6
:100CE000084B33F812309BB2022B01D00020704722
:100CF00031B9012A01D000207047034B5869704771
:100D000000207047280300200010114090F82000B8
:100D1000064B33F810309BB2022B00D070470029ED
:100D2000FCD10128FAD1024B5A61F7E728030020D1
:100D30000010114090F820200A4B33F812309BB27B
:100D4000022B01D00020704749B9012A03D0064B7D
:100D5000988A80B27047054BD88A80B270470020CD
:100D6000704700BF28030020000009400010114018
:100D700090F82000124B33F810309BB2022B05D0B4
:100D8000012911D0022912D059B170470128F7D199
:100D900001290FD0022910D00029F6D1094BDA829F
:100DA0007047094B9A827047074B1A837047064B6E
:100DB0009A837047034B5A837047024BDA83E4E708
:100DC00028030020001011400000094090F8200086
:100DD000124B33F810309BB2022B05D0012911D0F1
:100DE000022912D059B170470128F7D101290FD03B
:100DF000022910D00029F6D1094BDA757047094B4A
:100E00001A757047074B1A767047064B1A7770476A
:100E1000034BDA767047024BDA77E4E728030020C9
:100E2000001011400000094008B5FFF727FE0088B8
:100E300080B208BD38B515461C46FFF71FFE018875
:100E400089B221EA040104EA05030B43038038BD9B
:100E500038B504461546FFF711FE94F820200A4BDA
:100E600033F812309BB2022B00D038BD03889BB2FE
:100E700023F440639BB20380002DF6D0028892B227
:100E800015430580F1E700BF2803002008B5FFF7F0
:100E900027FE008880B208BD08B5FFF721FE038851
:100EA0006FEA43436FEA53439BB2038008BD08B522
:100EB000FFF716FE4FF48043038008BD90F8202012
:100EC0000D4B33F812309BB2022B00D070474AB959
:100ED0000A48C38E1BB2012202FA01F1194389B2FA
:100EE000C18670470648C38E1BB2012202FA01F187
:100EF000194389B2C186E9E72803002000000940B0
:100F00000010114090F820200E4B33F812309BB2A5
:100F1000022B00D0704752B90B48C38E1BB201227E
:100F200002FA01F123EA010189B2C186704707483C
:100F3000C38E1BB2012202FA01F123EA010189B238
:100F4000C186E7E728030020000009400010114097
:100F500090F820200D4B33F812309BB2022B00D0BA
:100F600070474AB90A48038F1BB2012202FA01F105
:100F7000194389B2018770470648038F1BB20122CB
:100F800002FA01F1194389B20187E9E72803002039
:100F9000000009400010114090F820200E4B33F85B
:100FA00012309BB2022B00D0704752B90B48038F0E
:100FB0001BB2012202FA01F123EA010189B2018781
:100FC00070470748038F1BB2012202FA01F123EA9E
:100FD000010189B20187E7E72803002000000940EA
:100FE0000010114090F82020124B33F812309BB2C1
:100FF000022B00D0704762B90F4B23F811200F4825
:10100000438F1BB2012202FA01F1194389B24187D1
:10101000704701F10A02084B002023F8120008482B
:10102000438F1BB2012202FA01F1194389B24187B1
:10103000E0E700BF280300209C06002000000940D4
:101040000010114090F820200E4B33F812309BB264
:10105000022B00D0704752B90B48438F1BB20122BC
:1010600002FA01F123EA010189B24187704707487A
:10107000438F1BB2012202FA01F123EA010189B276
:101080004187E7E7280300200000094000101140D5
:1010900020B9054BB3F8400080B27047034BB3F85A
:1010A000400080B2704700BF0000094000101140AE
:1010B00090F820200D4B33F812309BB2022B00D059
:1010C00070474AB9012303FA01F1C943C1F3090189
:1010D000074BA3F846107047012303FA01F1C943F7
:1010E000C1F30901034BA3F84610E9E728030020E8
:1010F000000009400010114090F820200D4B33F8FB
:1011000012309BB2022B00D070474AB9012303FA78
:1011100001F1C943C1F30901074BA3F84810704717
:10112000012303FA01F1C943C1F30901034BA3F8F9
:101130004810E9E728030020000009400010114092
:1011400090F820200D4B33F812309BB2022B00D0C8
:1011500070474AB9012303FA01F1C943C1F30901F8
:10116000074BA3F84A107047012303FA01F1C94362
:10117000C1F30901034BA3F84A10E9E72803002053
:10118000000009400010114090F82020094B33F86E
:1011900012309BB2022B01D00020704722B9064BBF
:1011A000B3F84C0080B27047044BB3F84C0080B2E7
:1011B000704700BF280300200000094000101140C4
:1011C00020B9054BB3F8540080B27047034BB3F815
:1011D000540080B2704700BF000009400010114069
:1011E00020B9054BB3F8560080B27047034BB3F8F3
:1011F000560080B2704700BF000009400010114047
:1012000020B9054BB3F8580080B27047034BB3F8D0
:10121000580080B2704700BF000009400010114024
:1012200020B9054BB3F85A0080B27047034BB3F8AE
:101230005A0080B2704700BF000009400010114002
:1012400090F82020094B33F812309BB2022B01D0CA
:101250000020704722B9064BB3F85C0080B270479B
:10126000044BB3F85C0080B2704700BF2803002035
:10127000000009400010114090F82020074B33F87F
:1012800012309BB2022B00D070471AB9044BA3F85E
:101290005C107047034BA3F85C10F5E728030020AF
:1012A000000009400010114090F82020094B33F84D
:1012B00012309BB2022B01D00020704722B9064B9E
:1012C000B3F85E0080B27047044BB3F85E0080B2A2
:1012D000704700BF280300200000094000101140A3
:1012E00090F82020074B33F812309BB2022B00D02D
:1012F00070471AB9044BA3F85E107047034BA3F86C
:101300005E10F5E72803002000000940001011409E
:1013100020B9054BB3F8600080B27047034BB3F8B7
:10132000600080B2704700BF00000940001011400B
:1013300090F82020074B33F812309BB2022B00D0DC
:1013400070471AB9044BA3F864107047034BA3F815
:101350006410F5E728030020000009400010114048
:1013600090F82020094B33F812309BB2022B01D0A9
:101370000020704722B9064BB3F8680080B270476E
:10138000044BB3F8680080B2704700BF2803002008
:10139000000009400010114090F82020074B33F85E
:1013A00012309BB2022B00D070471AB9044BA3F83D
:1013B00068107047034BA3F86810F5E72803002076
:1013C000000009400010114090F82020064B33F82F
:1013D00012309BB2022B00D07047012AFCD1034B84
:1013E000A3F86A10F8E700BF28030020001011409E
:1013F00090F82020074B33F812309BB2022B01D01B
:101400000020704722B1044BB3F86A0080B27047E5
:1014100000207047280300200010114090F8202081
:10142000094B33F812309BB2022B01D000207047D9
:1014300022B9064BB3F86C0080B27047044BB3F886
:101440006C0080B2704700BF2803002000000940F4
:101450000010114090F82020074B33F812309BB257
:10146000022B00D070471AB9044BA3F86C107047D8
:10147000034BA3F86C10F5E7280300200000094097
:101480000010114090F82020074B33F812309BB227
:10149000022B00D070471AB9044BA3F86E107047A6
:1014A000034BA3F86E10F5E7280300200000094065
:1014B0000010114082B00023ADF8063090F82020D3
:1014C000104B33F812309BB2022B04D0BDF806004B
:1014D00080B202B0704752B939B10B4B03EB4101F6
:1014E0000B889BB2ADF80630F0E70849F8E739B150
:1014F000074B03EB41010B889BB2ADF80630E5E7E3
:101500000449F8E7280300206E0009406000094004
:101510006E1011406010114090F820200A4B33F8F3
:1015200012309BB2022B00D0704742B9074B03EB3D
:1015300041010B889BB243F400530B80F4E7044B4A
:1015400003EB4101F5E700BF280300206E000940CE
:101550006E10114090F820200C4B33F812309BB2E3
:10156000022B00D0704742B9094A32F811309BB2C1
:1015700043F4007322F811307047064A32F81130F4
:101580009BB243F4007322F81130EBE728030020EC
:101590006E0009406E10114090F820200A4B33F87D
:1015A00012309BB2022B00D070474AB9074B03EBB5
:1015B00041010B889BB223F400739BB20B80F3E7CD
:1015C000034B03EB4101F4E7280300206E000940C0
:1015D0006E10114090F82020164B33F812309BB259
:1015E000022B00D0704792B941B9134AB2F860306B
:1015F0009BB243F48073A2F8603070470F4A32F810
:1016000011309BB243F4807322F81130704741B916
:101610000B4AB2F860309BB243F48073A2F860309A
:101620007047084A32F811309BB243F4807322F8B5
:101630001130D7E728030020000009406E00094060
:10164000001011406E10114090F82000144B33F838
:1016500010309BB2022B00D0704780B969B1114B9A
:1016600003EB41010B889BB223F003039BB20B8079
:101670000B889BB21A430A8070470B49F2E769B1A5
:101680000A4B03EB41010B889BB223F003039BB28F
:101690000B800B889BB21A430A80DDE70449F2E70E
:1016A000280300206E000940600009406E101140C0
:1016B0006010114090F820000D4B33F810309BB2B1
:1016C000022B00D0704750B971B10A4B03EB4101B6
:1016D0000B881BB223EA020292B20A80F2E729B118
:1016E000054B03EB4101F3E70449F1E70449EFE758
:1016F000280300206E0009406E1011406000094070
:101700006010114090F820200B4B33F812309BB240
:10171000022B00D070474AB90139084B03EB810115
:101720000B889BB243F400730B80F3E70139044B41
:1017300003EB8101F4E700BF28030020900009407B
:101740009010114090F820200B4B33F812309BB2D0
:10175000022B00D0704752B90139084B03EB8101CD
:101760000B889BB223F400739BB20B80F2E7013924
:10177000034B03EB8101F3E72803002090000940AD
:101780009010114090F820200B4B33F812309BB290
:10179000022B00D070474AB90139084B03EB810195
:1017A0000B889BB243F480730B80F3E70139044B41
:1017B00003EB8101F4E700BF2803002090000940FB
:1017C0009010114090F82000094B33F810309BB274
:1017D000022B00D0704728B90139064B03EB810179
:1017E0000A80F7E70139044B03EB8101F8E700BFFA
:1017F00028030020920009409210114090F8202008
:10180000084B33F812309BB2022B01D000207047F6
:10181000012A01D000207047034BB3F8400180B289
:10182000704700BF2803002000101140012800D09D
:101830007047044AB2F802319BB243F48043A2F8E5
:101840000231F5E700101140012800D07047054A29
:10185000B2F802319BB223F480439BB2A2F802316A
:10186000F4E700BF0010114008B5044B1B889BB281
:10187000012B00D108BD01F085FCFBE72803002007
:1018800008B5044B5B889BB2012B00D108BD01F069
:1018900079FCFBE72803002008B500F019FD08BD1E
:1018A00090B9164B1B6813F4006F21D0EFF3108131
:1018B000012383F31088114B1A6822F400621A6026
:1018C0001B6881F3108870470C4B1B6813F4805F12
:1018D00011D0EFF31081012383F31088074B1A68AE
:1018E00022F480521A601B6881F310880020704730
:1018F00040F2DD50704740F2DD5070470440084030
:10190000002855D15E4B1B6813F4006F40F0A9808E
:101910005C4B00221A818021A3F86010A3F870208C
:10192000A3F87220A3F87420A3F87620A3F87820F7
:10193000A3F87A20A3F87C20A3F87E20A3F88020C7
:10194000DA861A875A871A865A86198889B221F048
:10195000100189B21980198889B221F0200189B259
:101960001980198889B221F0010189B2198019887A
:1019700089B221F0400189B21980A3F84620A3F86A
:101980004820A3F84A20A3F53F43FC3B1B6813F40F
:10199000006F69D1EFF31081012383F31088384B76
:1019A0001A6842F400621A601B6881F3108870475D
:1019B00001285CD1324B1B6813F4805F5AD1324B43
:1019C00000221A818021A3F86010A3F87020A3F8E8
:1019D0007220A3F87420A3F87620A3F87820A3F847
:1019E0007A20A3F87C20A3F87E20A3F88020DA8652
:1019F0001A875A871A865A86198889B221F01001E7
:101A000089B21980198889B221F0200189B2198020
:101A1000198889B221F0010189B21980198889B227
:101A200021F0400189B21980A3F84620A3F848208C
:101A3000A3F84A20A3F50C23A3F6FC731B6813F448
:101A4000805F1AD1EFF31081012383F310880C4BD0
:101A50001A6842F480521A601B6881F310880020D3
:101A6000704740F2DC5070474FF4BC60704740F262
:101A7000E250704740F2DC5070474FF4BC60704752
:101A8000044008400000094000101140F0B4054631
:101A9000002846D1364BD3F800246FF30412C3F864
:101AA000002491F90D30087D0001C0B2314AD418EC
:101AB00084F80003304F47F82310304E03F1C00084
:101AC00056F820406FF3104446F8204003F01F04FE
:101AD0005B09012000FA04F403F1600C42F82C4089
:101AE00042F8234091F90C30CC7C2401E4B202EBA3
:101AF000030C8CF8004347F8231003F1C00456F898
:101B000024706FF3104746F8247003F01F045B093C
:101B1000A04003F1600442F8240042F82300184B6F
:101B20001960012D01D0F0BC704791F91030CA7DC9
:101B30001201D2B20F48C41884F800230E4A42F8AA
:101B400023100E4A03F1C00452F824506FF31045DD
:101B500042F8245003F01F045B090122A24003F164
:101B6000600440F8242040F82320054B1960DAE790
:101B70000000094000E100E0A00D002000600040EE
:101B80008005002008B5012103F06CFC08BD08B5F4
:101B90004FF47A7103F066FC08BDFFFF08B5EFF360
:101BA0000383C3F30803103B5BB2054AC03352F80A
:101BB00023106FF3104142F82310FFF755FE08BDC4
:101BC0000060004008B5EFF30383C3F30803103B44
:101BD0005BB2084A03F1C00152F821006FF31040D4
:101BE00042F82100044A52F823309878FFF754FE57
:101BF00008BD00BF00600040A00D0020EFF303838C
:101C0000C3F30803103B5BB2044AC03352F82310FD
:101C10006FF3104142F82310704700BF006000408E
:101C2000EFF30383C3F30803103B5BB2044AC033F2
:101C300052F823106FF3104142F82310704700BF91
:101C40000060004008B5EFF30383C3F30803103BC3
:101C50005BB2054AC03352F823106FF3104142F8CB
:101C60002310FFF70DFE08BD00600040EFF3038373
:101C7000C3F30803103B5BB2044AC03352F823108D
:101C80006FF3104142F82310704700BF006000401E
:101C9000EFF30383C3F30803103B5BB2044AC03382
:101CA00052F823106FF3104142F82310704700BF21
:101CB000006000402DE9F84306460F461546012A0C
:101CC00034D09D4BB3F8402092B2B3F846801FFA4F
:101CD00088F8B3F848E01FFA8EFEB3F84AC01FFA3E
:101CE0008CFC1C8E1FFA84F9D98E89B2188F80B2B1
:101CF0005B8F9BB2002434803C8002EA090408EA2E
:101D000001010EEA00000CEA030312F47F4F0BD02E
:101D100014F4804F2BD0012D23D0874B4BF6FF724C
:101D2000A3F8402012233380BDE8F883834CB4F835
:101D3000402092B2B4F846801FFA88F8B4F848E020
:101D40001FFA8EFEB4F84AC01FFA8CFCB4F830902B
:101D50001FFA89F9E18E89B2208F80B2638F9BB21E
:101D6000C8E7764B4BF6FF72A3F84020DAE714F48D
:101D7000004F0CD114F4005F1FD0012D17D06E4B13
:101D80004DF6FF72A3F8402013233380CCE7012DDA
:101D900007D0694B47F6FF72A3F840201123338028
:101DA000C2E7664B47F6FF72A3F84020F6E7634BA5
:101DB0004DF6FF72A3F84020E6E714F4805F10D0E0
:101DC000012D08D05C4B4EF6FF71A3F84010142390
:101DD00033803A80A8E7594B4EF6FF71A3F84010C4
:101DE000F5E714F4807213D011F0010F10D0012D1B
:101DF00008D0514B40F2FE32A3F846200123338035
:101E00003B8091E74D4B40F2FE32A3F84620F5E7C8
:101E100014F4806C14D013F0010F11D0012D09D0EF
:101E2000454B40F2FE32A3F84A20022333800123BF
:101E30003B8079E7414B40F2FE32A3F84A20F4E7B9
:101E400014F4007E14D010F0010F11D0012D09D030
:101E5000394B40F2FE32A3F848200323338001239C
:101E60003B8061E7354B40F2FE32A3F84820F4E7AF
:101E700014F4006F0CD192B3012D29D0CB43C3F3DE
:101E800009032D4AA2F846300123338039804BE7FD
:101E90002846FFF7FDF83880012D13D0264B4FF26E
:101EA000FF72A3F84020152333803B7803F007032B
:101EB000062B7FF439AF284600F01CFA002333804C
:101EC0003B8031E71D4B4FF2FF72A3F84020EAE759
:101ED000CB43C3F30903194AA2F84630D4E7BCF157
:101EE000000F12D0012D09D0DA43C2F309021249C2
:101EF000A1F84A20022232803B8015E7DA43C2F380
:101F000009020E49A1F84A20F4E7BEF1000F3FF4A0
:101F10000BAF012D09D0C343C3F30903064AA2F84E
:101F20004830032333803880FEE6C343C3F30903FC
:101F3000024AA2F84830F4E70000094000101140BE
:101F400010B5044600F0D6F92046FFF739F9094BE1
:101F500018802046FFF744F9074B18802046FFF70A
:101F60004FF9064B18802046FFF75AF9044B1880AA
:101F700010BD00BF92090020F20600209009002049
:101F8000F006002008B590F82000FFF781F800F077
:101F90007000302801D0002008BD0120FCE7FFFFC1
:101FA00010B504460E4B1B8803F47F43B3F5407F06
:101FB00006D010D8B3F5807F02D0B3F5007F0DD1E5
:101FC00000212046FEF778FE054B1988090A2046B5
:101FD000FEF772FE02E0B3F5806FF1D010BD00BFD6
:101FE0009609002010B5044690F8200000F070F922
:101FF00094F8200000F056F910BD08B50B460222F7
:1020000001461846FFF720FB08BD08B50222002153
:10201000FFF71AFB08BD2DE9F04180460F46144634
:102020001E4693F82030FBB9450845B134F8022B21
:1020300039463046FEF79CFE013DADB2F5E718F09B
:10204000010F28D0002239463046FEF701FF14F870
:10205000012B39463046FEF7B9FE4FF4806239460F
:102060003046FEF7F5FE16E0850845B154F8042B1E
:1020700039463046FEF74AFE013DADB2F5E718F0AD
:10208000020F0BD118F0010F15D14FF40062394641
:102090003046FEF7DDFE2046BDE8F0814FF4806259
:1020A00039463046FEF7D4FE34F8022B3946304626
:1020B000FEF75EFEE6E7002239463046FEF7C8FE30
:1020C00014F8012B39463046FEF780FEDDE72DE996
:1020D000F0410646884614461F4693F82030BBB9A7
:1020E000450845B141463846FEF724FE24F8020B68
:1020F000013DADB2F5E716F0010F02D12046BDE873
:10210000F08141463846FEF715FE04F8010BF5E76D
:10211000850845B141463846FEF7E0FD44F8040B1A
:10212000013DADB2F5E706F00303032E00D91E46CC
:10213000002EE3D041463846FEF7D0FD034604F8B2
:10214000013B1B0A013EB6B2002EF8D1D6E7FFFFD5
:10215000F8B504460E46154601461046FEF7C6FB86
:1021600021462846FEF7CEFE21462846FEF714FFFC
:1021700021462846FEF766FF21462846FEF713FC57
:1021800000212846FEF750FE00F00F00844226D0C2
:102190002146284600F099FA21462846FFF7BCF967
:1021A000124B53F82430CBB1114A52F824201A6153
:1021B0000E4F57F824309E8457F824602146284655
:1021C000FFF778F9F08457F82400436813B1002230
:1021D00011469847054B002243F82420F8BD002300
:1021E0001A4619462846FEF79AFBD1E784050020D7
:1021F000C406002008B5064B1B8803B908BDFFF7CD
:1022000015FB6420FFF7BEFC014B00221A80F5E7A6
:102210001203002008B5034B01221A80FFF714FBBC
:1022200008BD00BF1203002030B9074A13889BB2D3
:1022300043F0100313807047044A13889BB243F0A5
:1022400010031380704700BF0000094000101140C8
:1022500038B9084A13889BB223F010039BB213804D
:102260007047054A13889BB223F010039BB213807A
:10227000704700BF000009400010114030B9074A04
:10228000138E9BB243F4804313867047044A138E27
:102290009BB243F480431386704700BF000009409F
:1022A0000010114038B9084A138E9BB223F48043C2
:1022B0009BB213867047054A138E9BB223F480436A
:1022C0009BB21386704700BF000009400010114008
:1022D00028B9064B4BF6FF72A3F840207047044B19
:1022E0004BF6FF72A3F84020704700BF0000094082
:1022F0000010114028B9064B4FF6F772A3F84020A2
:102300007047044B4FF6F772A3F84020704700BFA8
:10231000000009400010114040B9094AB2F860308D
:102320009BB243F00403A2F860307047054AB2F84C
:1023300060309BB243F00403A2F86030704700BFE6
:10234000000009400010114010BB304A13889BB2B6
:1023500043F4806313802D4B1B8813F4806FFAD0F5
:102360002A4B0522C3F8F0201A8892B222F02002EC
:1023700092B21A801A8892B242F001021A804FF487
:1023800080621A841A859A854FF41D421A86704716
:1023900010B50120FFF7F6FB1D4CE38F9BB223F035
:1023A00001039BB2E3870120FFF7F1FBE38F9BB2B0
:1023B00023F002039BB2E38723889BB223F0200320
:1023C0009BB2238023889BB243F001032380B4F89F
:1023D00002319BB243F48043A4F802310C4BDB88FA
:1023E00013F0010FFAD00A4B40F607725A80DA8FC9
:1023F00092B242F48072DA874FF400621A841A852E
:102400009A854FF41D421A8610BD00BF0000094096
:1024100000101140D0B91B4AB2F860309BB223F0D3
:1024200003039BB2A2F8603039B9B2F860309BB2B6
:1024300043F00103A2F860307047124AB2F86030EE
:102440009BB243F00203A2F8603070470E4AB2F824
:1024500060309BB223F003039BB2A2F8603039B91D
:10246000B2F860309BB243F00103A2F860307047CD
:10247000054AB2F860309BB243F00203A2F8603024
:10248000704700BF000009400010114010B58EB029
:10249000144602780C4B33F812309BB2022B02D058
:1024A00000200EB010BD094B1B88012B0AD08DF8FF
:1024B0002020074B01221A806A46204600F028FAA5
:1024C0000020EEE7D520ECE728030020F4060020EA
:1024D0009409002010B598B00446104623788DF872
:1024E00024301C4A32F813309BB2022B02D0002059
:1024F00018B010BD59B1184B1B88012B27D0174BB2
:1025000001221A8001AA00F0C3F90020F0E7002898
:10251000F1D1A388BBB901A800F0E4F812AB21699E
:10252000E06883E8030023788DF83C3000241194A0
:10253000ADF840408C238DF83F300FA9082000F003
:10254000FDF82046D4E701A8FFF75FFDE6E7D520B8
:10255000CEE700BF28030020F406002094090020E5
:10256000C378052B06D85B00DBB20B44DBB2024A12
:10257000D05C7047002070472C1C010070B50446E9
:102580000D4616460021FFF7EBFF0346E0780528CD
:1025900001D9002070BDC3EBC300094A02EBC000A3
:1025A000C660217880F82010C38385600661E478D6
:1025B000044951F83410416000F096FCEAE700BF8E
:1025C000F00900207C01002070B504460D46164637
:1025D0000121FFF7C5FFE278052A2ED80346C0EB9C
:1025E000C000174A02EBC000062B18D085600661B8
:1025F00025781349C3EBC30201EBC20282F82050D5
:10260000D383E278520001320E4C54F82220C3EBFF
:10261000C30301EBC3035A6000F066FC70BD2A7867
:10262000094E32726A787272C3EBC302044901EB3D
:10263000C20296600A211161DAE70020EEE700BFCE
:10264000F00900207C010020DC010020092900D9CC
:10265000704708B5FEF77CFC08BD092901D90020A8
:10266000704708B5FEF726FF00F0030008BD0929F2
:102670000DD810B5044621B9FEF716FEC0F30A00C6
:1026800010BDFEF755FE2046FEF7C8FEF6E7002017
:102690007047092901D90020704710B50446FEF79C
:1026A00047FE2046FEF75CFE00F0100010BD092931
:1026B00001D90020704710B50446FEF739FE2046C8
:1026C000FEF74EFE00F4404010BD092900D97047C6
:1026D00038B505460C46FEF73DFF21462846FEF775
:1026E0005BFF38BD092900D9704708B50122FEF704
:1026F000ABFF08BD092900D9704738B505460C461F
:10270000FEF7F4F8022221462846FEF7D3FF38BD33
:1027100008B5FEF7B7FA00F007000138032809D81A
:10272000DFE800F0040A0206C02008BD4020FCE7F4
:102730000020FAE70020F8E78020F6E7F0B40C4F1D
:102740003E78BB19987006EBC60407EB84040C3482
:102750000D460FCD0FC40FCD0FC42B68236001367B
:10276000F6B23E70092E01D900223A70F0BC7047D3
:10277000280C002008B500F03BFA08BD38B5054626
:1027800090F82000FEF7F8F901212846FEF72EFA0E
:102790000520FFF7FCF9002404E00120FFF7F7F91A
:1027A0000134A4B2B4F5167F16D22846FEF750FACB
:1027B00010F0030FF1D10B20FFF7E9F90B34A4B2AD
:1027C0002846FEF745FA10F0030FE6D1012128460E
:1027D000FEF724FA012004E001212846FEF71EFA44
:1027E000002038BD38B504460621FEF7FFF92A203F
:1027F000FFF7CDF92046FFF701F8054606212046F0
:10280000FEF70CFA1620FFF7C2F915F4807F01D00D
:10281000012038BD0020FCE738B504461821FEF73A
:10282000E5F92A20FFF7B3F92046FEF7E7FF054652
:1028300018212046FEF7F2F915F4007F01D001209F
:1028400038BD0020FCE7FFFF10B58AB00446FFF753
:1028500095FF2046FFF7C6FF20B90C4B00221A80D7
:102860000AB010BD2046FFF7D7FF58B1074B022230
:102870001A8094F820308DF8043001A90B20FFF75E
:102880005DFFEDE7014B01221A80F2E7EC06002024
:1028900038B514461B4B01221A801B4B18601B4B8A
:1028A00019602023002211462046FEF738F8002147
:1028B0002046FEF7FCFA00212046FEF741FC2246A6
:1028C0000021084600F0FAFC0546012804D0022841
:1028D0000BD050B1284638BD00212046FFF7B6FE88
:1028E00000212046FFF7FEFEF4E700212046FEF718
:1028F00079FB00212046FFF7A9FE00212046FFF7C3
:10290000F1FEE7E7F4060020C4060020AC05002035
:1029100010B514460E4B01221A800E4B18600E4B58
:10292000196000231A4619462046FDF7F8FF0021DA
:102930002046FEF7BCFA00212046FEF7BFFA002130
:102940002046FFF783FE00212046FFF7CBFE10BD97
:10295000F4060020C4060020AC05002070B5064631
:102960000C4600251A4B1D801A4B1D802946204617
:10297000FEF768FB29462046FEF7C4FA29462046A2
:10298000FEF70AFB94F82030012B10D04FF4806240
:1029900000212046FEF75CFA072E0FD0052E0DD041
:1029A000082E0FD094F82000FFF7B6FC09E04FF492
:1029B000006229462046FEF74BFAEDE72046FFF776
:1029C00024FB70BD00212046FDF790FFF9E700BF12
:1029D000F406002094090020704770477047FFFFFD
:1029E00010B58EB092788DF82020431E142B0FD88E
:1029F000DFE803F00B10140E0E0E0E0E0E0E0E0E70
:102A00000E0E0E0E23180E344900684600F060FBCF
:102A10000EB010BD684600F091FBF9E7684600F083
:102A200085FBF5E7474B5B6A1BB100221146684600
:102A300098476846FFF7D6FAEAE71046FEF79CF893
:102A40009DF8200001F0A6F8402803D0684601F068
:102A50002DF8DDE7684601F01BF8D9E701F07001B9
:102A600040290CD005D81029D2D1684600F0F0FFDB
:102A7000CEE7602903D0702901D05029C8D168461B
:102A800001F052F8C4E711F0070414D12E4B1B8853
:102A9000012B0CD02D4B1B8813F0600F3CD1062C62
:102AA00035D8DFE804F0121B271F2B232F006846C0
:102AB000FFF776FAEEE7012C03D0032C01D0052CAA
:102AC000E8D11046FFF73CFAE4E70023204A1380E0
:102AD000204A1380684601F0D9FC99E7684601F066
:102AE000EFFC95E7684601F013FD91E7684601F0B9
:102AF0001FFD8DE7684601F07BFD89E7684601F020
:102B0000D9FD85E769460720FFF728FF80E769467A
:102B10000720FFF723FF7BE70F4A13800F4B1B882B
:102B200053800F4B1B8893800E4B1B88D380054B23
:102B3000DB6A002B3FF46CAF6A4621460648984793
:102B400066E700BF4009002018030020920900201A
:102B5000F406002094090020F8060020F206002068
:102B600090090020F006002000B58BB0064B012232
:102B70001A8090F820308DF8043001A90320FFF767
:102B8000DDFD0BB05DF804FB740900200A4B1B88C7
:102B9000012B00D0704700B58BB0074B00221A8084
:102BA00090F820308DF8043001A90620FFF7C6FD0B
:102BB0000BB05DF804FB00BF7409002000B58BB0BA
:102BC00090F820308DF8043001A90420FFF7B6FDFD
:102BD0000BB05DF804FB00B58BB090F820308DF899
:102BE000043001A90520FFF7A9FD0BB05DF804FB37
:102BF000104B93F8502093F851309A4200D170470F
:102C000010B50C4C04EBC3014A68498834F8330012
:102C1000FFF7E6FE94F851200132D2B2064BA3FB37
:102C20000213DB0803EB83035900521A84F8512086
:102C300010BD00BF9C090020CDCCCCCC38B50446DB
:102C4000C58B0D4B43F82500FFF79CF9012806D0F2
:102C5000224607212846FFF77BFA002038BD294687
:102C60002046FFF716FD18B9284600F0A7FBF4E749
:102C7000284600F0EBFAF0E7840500200023FE2B45
:102C800006D8044A002122F8131001339BB2F6E75C
:102C9000704700BF4007002008B50023034A138097
:102CA000034A1380FFF7EAFF08BD00BF14030020AA
:102CB0001603002008B5024B1880FFF7DFFF08BDA0
:102CC0001403002000230F2B0AD8064AFF2122F804
:102CD000131003F1100022F8101001339BB2F2E739
:102CE000704700BF00070020014B9B6818797047B0
:102CF0004009002030B405460F4B99680A7893B21A
:102D00000A448C78C97844EA0124002005E0D07890
:102D10000BE011780B449BB20A44A3420AD25178CB
:102D20000429F6D19178A942F1D011780B449BB2D5
:102D30000A44F2E730BC7047400900202DE9F04317
:102D4000264B9B681A7894B2DD789E7806EB0526B0
:102D5000B6B213444FF0000EF04677460AE09A7878
:102D6000824214D02A7942441FFA82F81B781C440C
:102D7000E4B22B44B4422FD21D465A78042AEED036
:102D8000052A0AD01B781C44A4B22B44F2E7DA7857
:102D90008A42E7D193F804E0E8E7774514D293F844
:102DA00002C093F90220002A13DB4FF000090CF057
:102DB0000F0C08EB0702D2B20CEB091CDFF82090D5
:102DC00029F81C200137BFB21B781C44A4B22B4445
:102DD000D0E74FF00109EAE7BDE8F08340090020A1
:102DE00000070020064B188840B1064B9B68DB7932
:102DF00013F0200F01D1002070470120704700BF61
:102E00001403002040090020034B9B68D87910F080
:102E1000400000D00120704740090020092800D957
:102E2000704738B50446154600F01AFB032805D84C
:102E300003281DD8DFE800F00A100F16FF2817D16D
:102E40002A4607212046FFF783F904E02A4603219A
:102E5000204600F079FB38BD2A460421204600F0C8
:102E600073FBF8E72A4605212046FFF771F9F2E7E0
:102E70002A4607212046FFF76BF9ECE7092800D91D
:102E8000704770B504460E46154601461046FEF7DB
:102E900039F82A463146204600F010FA022813D0AD
:102EA0000AD8012819D821462846FEF79BF8214662
:102EB0002846FFF7CBFB0FE0FF280ED12A4607215B
:102EC0002046FFF745F907E021462846FDF7F6FFC3
:102ED00021462846FFF7BAFB70BD2A460721204647
:102EE000FFF736F9F8E7FFFFC18BA9B110B504462B
:102EF0000B4B53F8213023B1FFF7D9FBB0F5404F0E
:102F00000CD12046FFF73EF8012801D0FF2010BD6C
:102F10002046FFF793FEFAE7FF207047D520F6E73B
:102F20008405002002680E4B1A6042685A6082686D
:102F30009A60C268DA6002691A6142695A618269FC
:102F40009A61C269DA61026A1A62426A5A62826AE4
:102F50009A62C26ADA6290F8302083F830207047B3
:102F600040090020084B00221A605A609A60DA601B
:102F70001A61064A5A619A61DA611A625A629A6261
:102F8000034ADA62704700BF40090020D9290000D7
:102F9000DB29000000B58FB04B681A680192DA682F
:102FA00002925A68E2B103924B689A6804921A69D5
:102FB00005921B7D8DF834300B4B06930B4B07931A
:102FC0000B4B08930B4B09930B4B0A930B4B0B9337
:102FD0000B4B0C9301A8FFF7A5FF0FB05DF804FBA6
:102FE0009B680393E0E700BF55300000692B0000A9
:102FF0008D2B0000BD2B0000D72B0000DD29000029
:10300000854800002DE9F0470546164698460478A5
:1030100000274FF0FF0905E0052B0DD015F80A1029
:103020000C44A4B2B44212D2A2462B195B78042BF2
:10303000F2D1621DAF5CEFE73A46414605EB0A006C
:1030400000F070FC0028E9D04FF00009E6E74846A0
:10305000BDE8F087F0B58BB005460F46002211465B
:10306000FFF794FDC02F23D0184B9C680CB10223AE
:103070006370164BDB680BB107225A702CB3E378F0
:10308000A67806EB0326B6B295F8200000F066FBA2
:103090002B46324639462046FFF7B4FF95F82030DC
:1030A0008DF8043001A90120FFF748FB0BB0F0BDFB
:1030B000064BDC689B680BB107225A70034BDB6838
:1030C000002BDBD002225A70D8E7FEE7400900202F
:1030D00010B5044611F0010F25D002460021084624
:1030E00000F0BEF9032815D008D801280DD9022810
:1030F0001BD100212046FFF7F5FA16E0FF2814D176
:1031000021460720FFF72AFC0FE000212046FDF7AB
:10311000F9FE0AE000212046FDF7C9FE2146052000
:10312000FFF71CFC01E000F04FFA10BD11F0010F99
:1031300000D0704708B500F079FA08BD10B5044614
:1031400011F0010F1AD002460021084600F0B6F82F
:1031500002280ED006D8012812D800212046FDF7FB
:1031600071FF0DE0FF280BD121460720FFF7F6FB8A
:1031700006E000212046FFF7B5FA01E000F084FAEE
:1031800010BDFFFF38B5EFF30383C3F30803103B13
:103190005BB20F4A52F82350A878FFF72BF80D4C7A
:1031A00094F8500004EBC0004560AA78811CFEF73B
:1031B00081FD94F850200132D2B2074BA3FB0213D9
:1031C000DB0803EB83035900521A84F8502038BD02
:1031D000A00D00209C090020CDCCCCCC30B4C5087B
:1031E00005F0100500F00F000543012001E001305B
:1031F00080B209281BD891F8204000EB800364229C
:1032000002FB04F202EB43030A4AD35A012BEED12C
:1032100000EB8002642303FB04F303EB4204054B41
:103220001C44638803F01F039D42E0D100E0FF20AF
:1032300030BC7047D40500200020704708B5FDF76A
:1032400081FC10F0800000D0012008BD092800D9C1
:10325000704770B50446164B53F820502E6901464E
:103260002846FDF743FB134B43F82460AA68124B32
:1032700043F8242021462846FDF762FF21462846D0
:10328000FDF716FF21462846FFF7D6FF014640B955
:103290002A462046FFF7F2FD21462846FFF722FA8C
:1032A00070BD2A4607212046FEF752FFF8E700BF0F
:1032B00084050020C4060020AC0500202DE9F84F4D
:1032C000092875D804460F46154601B928B30023CE
:1032D0003A4621462846FDF738FB0646FF2E4CD0DD
:1032E00021462846FDF742FA804621462846FFF748
:1032F000BEF9304B53F82430C246434515D81FFA67
:1033000083F8B8F1000F3BD0B8FBF0F600FB168055
:1033100086B2BEBB54B9022608E020230022014633
:103320002846FDF712FB0646D8E702262146284626
:10333000FFF793F9814621462846FDF7D7FADFF8D3
:1033400078B02B465BF8242039464046FEF763FEF2
:103350004BF82400174B53F82400824514D8A0EBF7
:103360000800144B43F8240021462846FDF7E8FEE8
:1033700009F00309B9F1010F15D03046BDE8F88F07
:103380000126D3E70126D1E7002243F8242039465D
:103390002846FDF77BFD10F4004FE5D1394628465D
:1033A000FDF77AFDE0E721462846FFF79BF9E4E7C1
:1033B000FF26E2E7C4060020AC050020092800D95A
:1033C000704770B50446234B53F820502E690146D0
:1033D0002846FDF78BFA204B43F82460AA681F4B60
:1033E00043F8242021462846FFF726FF024658BB13
:1033F000002321462846FDF792FA21462846FFF78A
:1034000036F95EB1B6FBF0F300FB13639BB9B6FB74
:10341000F0F292B221462846FDF7B5FA2146284639
:10342000FFF760F921462846FDF748FD214628466A
:10343000FFF70CF970BDB6FBF0F2013292B22146F3
:103440002846FDF7A0FAE9E72A4607212046FEF7BD
:103450007FFEEFE784050020C4060020AC050020B5
:103460002DE9F843092869D8044688461546002303
:103470000A4601462846FDF768FA0746FF2830D07D
:10348000C0F30B0921462846FFF7F1F806462C4BFE
:1034900053F824304B450DD34B4525D0B9F1000FDF
:1034A00030D00227B9FBF6F006FB1096B6B27EBB11
:1034B0004E4609E021462846FDF718FA204B33F81E
:1034C000246043F824900327B9F1000F2AD1414624
:1034D0002846FDF7ECFC1A4B53F82400801B43F8F8
:1034E00024003846BDE8F8832CB9B9FBF0F006FBA0
:1034F0001096B6B29EB121462846FDF7F7F94E4622
:103500000027E1E721462846FDF7F0F90127C9E742
:1035100021462846FDF7EAF94E460127D4E74E46F4
:103520000227D1E7DFF81C902B4659F824204146AA
:103530003046FEF7CCFD49F82400CCE7FF27D0E762
:10354000C4060020AC050020092800D97047F8B552
:1035500004460E46154601461046FDF7C7F92146BA
:103560002846FDF7CFFC21462846FDF715FD2146EC
:103570002846FDF767FD21462846FDF714FA104B53
:1035800053F82430D3B10F4A52F824201A610C4F5B
:1035900057F824309E8457F8246021462846FDF7CA
:1035A00089FFF08457F82430DC8357F824004368FF
:1035B000002211469847002347F82430F8BD00BF89
:1035C00084050020C4060020F8B506460D460124F7
:1035D00006E0324639462046FFF750FC0134A4B2DB
:1035E000092C1FD80123A3402B42F7D02146304697
:1035F000FDF7A6FD0C4B53F82430002BEED02146EE
:103600003046FFF719FE07460028E7D1214630462D
:10361000FFF73FF81028DCD0324639462046FFF746
:10362000FDFBDBE7F8BD00BF8405002070B5064652
:103630000D46012406E0324605212046FEF788FDAE
:103640000134A4B2092C1BD80123A3402B42F7D08C
:103650000C4B53F82430002BF2D021463046FFF7B4
:1036600026F8B0F5404FEBD13046FDF78DFD10F454
:10367000004FE0D1324607212046FEF769FDDFE723
:1036800070BD00BF84050020F8B506460D46012434
:1036900016E021463046FDF70DFF10F4804F32D181
:1036A00096F8203003EB830304EB43070121294BF9
:1036B00023F8171032462046FFF746FF0134A4B224
:1036C000052C25D80123A3402B42F7D0224B53F8D9
:1036D0002430002BF2D096F8203003EB830304EB68
:1036E00043031C4A32F81330012BE7D02146304601
:1036F000FEF7B3FF10F0020FCBD032460621204672
:10370000FEF726FDDAE721463046FDF76BFCD5E7EC
:10371000062406E0324601212046FFF715FF01345A
:10372000A4B2092C15D80123A3402B42F7D00A4B91
:1037300053F82430002BF2D021463046FEF78DFF9F
:1037400010F0020FE6D0324606212046FEF700FDBB
:10375000E5E7F8BD9C060020840500200123092B25
:1037600030D870B40FE0184D04EB8401642202FBE2
:1037700000F202EB410129440026CE800E81013384
:10378000DBB2092B1CD81C4603EB8302642101FB2E
:1037900000F101EB42020C498A5A012AEFD10D4691
:1037A00003EB8302642101FB00F101EB4202AE183E
:1037B0000021A95271800128D5D10021B180D2E722
:1037C00070BC7047704700BFD405002070B5054637
:1037D000012413E000231A4619462846FDF79FF8F6
:1037E00024E00023012219462846FDF798F825E039
:1037F00031462846FCF7E2FF0134E4B2092C2CD80C
:1038000095F8201004EB8403642202FB01F202EB22
:103810004303124AD35A012BEED100212846FDF76B
:1038200003FBA6B200F00F00B042D3D0012128461E
:10383000FDF7FAFA00F00F008642D2D002212846A6
:10384000FDF7F2FA00F00F008642D1D100230222E8
:1038500019462846FDF763F8CAE770BDD405002075
:1038600038B50546012405E021462846FDF7A6F8AF
:103870000134E4B2092C0DD895F8201004EB840330
:10388000642202FB01F202EB4303034AD35A012BE9
:10389000EED1E9E738BD00BFD405002070B404467E
:1038A0000A2B04D00020022B1ED070BC70470228C7
:1038B00001D00020F7E749B992F82000124D6426A4
:1038C00006FB0050408958B10846ECE792F820000A
:1038D0000D4D642606FB0050808A18B10020E2E7F7
:1038E0000120E0E72046DEE7032CDED10029DCD111
:1038F00092F82030044A642101FB03239B8F002BA4
:10390000D3D10620D1E700BFD4050020012804D080
:10391000022805D147F64840704747F608407047EF
:1039200000207047F8B54378052B40F089800446A5
:103930000E46C37803F00303022B03D0032B67D09A
:1039400000257EE090F90230002B57DB13460A4633
:1039500001210220FFF7A2FF05464FF48540002D0C
:103960006FD096F8201005EB8503642202FB01F26C
:1039700002EB4303354AD35A012B64D094F802C0BA
:103980000CF00F0C4CEA000C2379647943EA042410
:10399000104605EB850E642303FB01F202EB4E019A
:1039A0000122425296F8201003FB01F101EB4E0276
:1039B0000244A2F802C096F8201003FB01F101EBCB
:1039C0004E020244D48096F8202003FB02F202EB60
:1039D0004E03034400221A8196F82040012C30D176
:1039E000A8B2FFF793FF05EB8507642303FB04F4FC
:1039F00004EB4707154B1F44B88022E013460A46E4
:103A000000210220FFF74AFF054644F21020A6E7F6
:103A100090F90230002B09DB13460A4601210320EE
:103A2000FFF73CFF05464FF4004098E713460A466F
:103A300000210320FFF732FF054648F210008EE711
:103A400000252846F8BD0025FBE700BFD40500206F
:103A500010B5044600F0C1F8FFF71EF92046FEF746
:103A600057FE094B5B6923B10146084A128820467C
:103A7000984700212046FDF7FFFB034B1B68D979CF
:103A80002046FDF72DFC10BD40090020EC0600206B
:103A900010B504460A20FEF77AF82046FEF7D4FE59
:103AA00094F82000FEF7C0FB10BDFFFF38B50546B7
:103AB000FDF76EF895F82000FEF7CAFB0023164AC2
:103AC0001380164A138001240AE02A460821204662
:103AD000FEF73EFB21462846FCF770FF0134A4B2F6
:103AE000092C0DD895F8201004EB8403642202FB06
:103AF00001F202EB43030A4AD35A012BEED1E4E769
:103B0000084BDB691BB1002211462846984795F8FF
:103B10002000FEF77FFB38BD1403002016030020B1
:103B2000D40500204009002038B5044690F8200054
:103B3000FEF7A4FB94F82000FDF7AAFA05462046FC
:103B4000FDF786F815F0400F03D000F003000128C0
:103B500008D094F82000FEF7BBFB94F82000FEF795
:103B6000A1FB38BD94F82000FEF754FB00F036F8B6
:103B7000044B1B6A002BF4D000220349098820461D
:103B80009847EEE7400900201603002008B5FEF72D
:103B90003CFA08BD70B506463046FDF779FA054691
:103BA0000A20FDF7EFFF3046FDF772FA04460A20BF
:103BB000FDF7E8FF3046FDF76BFA85EA040313F0E2
:103BC000800FE9D1444014F0800FE5D115F0800F4B
:103BD00001D0402070BD4320FCE770477047FFFFD5
:103BE00070B505460E4600230F2B0AD82E4A002139
:103BF00022F8131003F1100022F8101001339BB2C9
:103C0000F2E70023FE2B06D8284A002422F81340AE
:103C100001339BB2F6E70024254B1C80254B1C800A
:103C2000254B1C80254B1C80254B1C80254B1C8064
:103C3000254B1C80254B1C80254B1C605C60254B54
:103C40001C603422214624480CF09DF9234608E0EC
:103C50000022224941F82320214941F82320013341
:103C60009BB2092BF4D9002305E01E4A1A440E2109
:103C7000917001339BB2092BF7D9002308E0002291
:103C8000194921F81320194941F8232001339BB227
:103C9000092BF4D90023164A1380164A13803146A3
:103CA0002846FFF777F970BD000700204007002085
:103CB0009609002092090020F206002090090020B9
:103CC000F0060020F406002094090020740900206A
:103CD000F80600208C09002040090020AC050020D7
:103CE000C4060020280C002078090020840500204C
:103CF0001403002016030020064B9B6A43B110B545
:103D0000054A14880022054931F81410984710BD5F
:103D1000704700BF400900209009002040070020A4
:103D200070B50446084B1E88084D2888FEF7C2FF70
:103D30002B88B34207D0064B9B6923B1002202496E
:103D400009882046984770BD14030020F206002021
:103D50004009002008B5FEF758F908BD08B5FEF780
:103D600054F908BD08B50D4B1B8813F01F0F09D17E
:103D70000B4B1B8833B90B4B1B881BB90A4B1B8899
:103D8000012B02D0FEF741F908BD084B1B7808490A
:103D90000B7002460120FEF77BFDF5E7920900203B
:103DA000F206002090090020F006002014030020F5
:103DB0002003002008B5104B1B8803F01F03012BC4
:103DC00006D10E4B1B881BB90D4B1B88012B02D053
:103DD000FEF71BF908BD0B4B1B88FE2B09D80A4ABE
:103DE00012F8133009490B7002460120FEF750FD0E
:103DF000F0E7FEF70AF9EDE792090020F20600204D
:103E0000F006002090090020400700202403002035
:103E100010B50446414B1B881BB9414B1B88022B34
:103E200003D02046FEF7F1F810BD3E4B00221A7079
:103E30005A703D4B1B8803F01F03012B1ED0022B31
:103E400034D013B1FEF7E1F8EEE7384B1B8893B995
:103E5000FEF7DAFF334B1870354B1B88012B05D06A
:103E6000224630490220FEF713FDDDE740F0020054
:103E70002C4B1870F4E7FEF7C8F8D5E7FEF782F888
:103E8000012803D02046FEF7C0F8CDE7FEF72CFF4F
:103E9000264B1B88984205D9224622490220FEF76C
:103EA000F7FCC1E72046FEF7B0F8BDE71F4B1B88C3
:103EB00013F00F0F0FD190F82000FDF729FA10F042
:103EC000020F02D0174B01221A7022461549022018
:103ED000FEF7DEFCA8E7FEF755F8012803D02046E0
:103EE000FEF793F8A0E72146104B1888FFF776F904
:103EF0000146FF280ED02046FEF7AFFB10F0020F60
:103F000002D0084B01221A70224606490220FEF711
:103F1000BFFC89E72046FEF778F885E7F206002027
:103F2000F00600201C0300209209002090090020C8
:103F30001603002038B50446694B1B8813F01F0296
:103F400040F0B680674B1B88DDB21B0A013B072B94
:103F500000F2AB80DFE803F0041D405B5E617EA6EB
:103F6000614B1B888BB985B9604B19680B789AB285
:103F70005F480088824203D92246FEF789FCAEE002
:103F800022461846FEF784FCA9E02046FEF73DF8DD
:103F9000A5E0554B1B8803B91DB12046FEF735F847
:103FA0009DE0FEF7B5FBC0280ED0504B9968CA784B
:103FB0008B7803EB02239BB24D4A1088984206D2BD
:103FC0002246FEF765FC8AE0484BD968EFE72246B7
:103FD0001846FEF75DFC82E0444B93F83030AB426C
:103FE00012D9424B1B6953F825100B789AB24048FE
:103FF0000088904203D22246FEF74AFC6FE0224638
:104000001846FEF745FC6AE0FDF7FFFF67E0FDF7A5
:10401000FCFF64E0FDF7F9FF61E0FFF70FF901280D
:1040200014D1314B1B888BB985B9304B59680B784B
:104030009AB22F480088824203D92246FEF728FC14
:104040004DE022461846FEF723FC48E02046FDF7E7
:10405000DCFF44E0FFF7F2F8012803D1224B1B8874
:1040600003B91DB12046FDF7D0FF38E02046FEF72A
:104070004FFBC0280ED01D4BD968CA788B7803EB54
:1040800002239BB21A4A1088984206D22246FEF7B3
:10409000FFFB24E0154B9968EFE722461846FEF730
:1040A000F7FB1CE0FDF7B1FF19E0FDF7AEFF16E0EE
:1040B000012A12D10F4A13800A4B1B8853800A4BE6
:1040C0001B8893800A4B1B88D380084BDB6A33B173
:1040D000024600210748984701E0FDF796FF38BDEA
:1040E00092090020F20600209009002040090020DB
:1040F000F0060020F806002008B50E4B1B8813F0D0
:104100001F0F13D10C4B1B886BB90C4B1B8853B979
:104110000B4B1B887F2B03D80021FEF7E3FA04E04A
:10412000FDF773FF01E0FDF770FF08BDFDF76DFFC0
:10413000FBE700BF9209002090090020F006002054
:10414000F206002038B504463E4B1B88002B76D182
:104150003D4B1B8803F01F03012B1FD0022B20D0E7
:1041600013B1FDF752FF6CE0384B1B88012B02D1D5
:10417000374B1B881BB12046FDF747FF61E0FEF778
:1041800031FE012803D02046FDF73FFF59E0002112
:10419000304B19802046FEF7A5FA52E0FDF735FFB7
:1041A0004FE02B4B188800F00F02284B1B88002B88
:1041B00041D142B900212046FEF79CFA0021204659
:1041C000FEF790FA3DE02146FFF708F80546FF2884
:1041D00020D001462046FEF740FA01281ED029468D
:1041E0002046FEF787FA29462046FDF7F3F900211D
:1041F0002046FEF777FA184B33F81530012B20D103
:104200000021154B23F81510144B1B680A46204655
:10421000984716E02046FDF7F8FE12E029462046B2
:10422000FCF764FB29462046FDF7D4F929462046D1
:10423000FEF758FADBE72046FDF7E7FE01E0FDF761
:10424000E4FE38BDF006002092090020F2060020AE
:104250009009002016030020780900208C09002016
:1042600010B50446394B1B88002B6CD1384B1B888A
:1042700003F01F03012B41D0022B42D013B1FDF7F5
:10428000C4FE62E0334B1B88012B04D0022B18D0F4
:10429000FFF77CFC59E0304B1B887BB9FEF7A2FD91
:1042A000012803D02046FDF7B0FE4EE02B4B012243
:1042B0001A8000212046FEF715FA46E0FDF7A5FE1C
:1042C00043E0FEF725FAC02814D1234B1B88A3F541
:1042D000804212F4004F03D12046FDF796FE34E0F1
:1042E0001F4A012111801F4A138000212046FEF73A
:1042F000F9F92AE02046FDF788FE26E0FDF785FE65
:1043000023E0154B188800F00F02124B1B88B3B93D
:1043100022B900212046FEF7E5F916E02146FEF716
:104320005DFFFF2807D02146FDF767FE00212046EC
:10433000FEF7D8F909E02046FDF767FE05E02046C4
:10434000FDF763FE01E0FDF760FE10BDF006002002
:1043500092090020F2060020900900201603002098
:10436000180300209609002070B504461D4B1B88D9
:1043700013F01F0F32D11C4B9B685A791B4B1B88C3
:104380009A4200D02BB91A4B1B8813B9194B1D88C0
:104390001DB12046FDF739FE70BD00212046FEF715
:1043A000A1F9124B1B88002BF6D0134A12889342B6
:1043B000F2D0FEF787FCFEF797FC0646B54206D220
:1043C00000212846FEF7BAFC0135ADB2F6E72046DB
:1043D000FFF746FA2046FFF7F9F9DDE7FDF715FE8E
:1043E000DAE700BF9209002040090020F206002011
:1043F00090090020F00600201403002070B5044648
:10440000FDF7C0FD012805D11B4B1B8803F01F03DE
:10441000012B03D02046FDF7F8FD70BDFEF764FCCC
:10442000164B1B88984202D3154A12881AB12046AF
:10443000FDF7EBFDF1E71846FEF75CFC114B1B881E
:10444000984214D30D4E3288DBB20F4D25F812304E
:1044500000212046FEF746F9FEF734FC308835F897
:104460001010FEF76BFC2046FFF7B0F9D5E72046A9
:10447000FDF7CBFDD1E700BF920900209009002095
:10448000F0060020F20600204007002008B50A4B85
:1044900000221A80094B1B8803F47F43B3F5106F89
:1044A00003D0B3F5306F03D008BDFFF739FCFBE74D
:1044B000FFF722FCF8E700BF9409002092090020D2
:1044C00008B5124B1B8803F47F43B3F5006F13D07C
:1044D00008D9B3F5206F12D0B3F5406F12D1FFF7B2
:1044E00039FC08E02BB1B3F5C06F0BD1FFF722FD0B
:1044F00001E0FFF78DFC08BDFFF734FCFBE7FFF799
:1045000059FCF8E7FDF781FDF5E700BF92090020AF
:1045100008B5064B1B8803F47F43B3F5E06F02D068
:10452000FDF773FD08BDFFF719FCFBE792090020BA
:1045300030B58BB00446294B1B8803F47F43B3F599
:10454000A06F1ED008D9B3F5106F1DD0B3F5306F32
:104550001DD1FFF753FF0AE0B3F5807F05D0B3F517
:10456000407F14D1FFF77CFE01E0FFF7EBFD1C4B11
:104570001B88012B0FD021460020FEF7EFF90BB06E
:1045800030BDFFF7B9FDF2E7FFF7EEFEEFE720469B
:10459000FDF73BFDEBE7114B1B88ADF81030114BDD
:1045A0001B88ADF81230104B1B88ADF814300F4B40
:1045B0001B88ADF8163000250395ADF808508C2304
:1045C0008DF8073094F820308DF8043001A90820C8
:1045D000FEF7B4F8024B1D80CDE700BF9209002022
:1045E00094090020F206002090090020F006002027
:1045F00030B58BB004462A4B1B8803F47F43B3F5D8
:10460000006F1FD009D9B3F5206F1FD0B3F5406FED
:1046100020D10021FEF766F80AE033B1B3F5C06F90
:1046200018D10021FEF75EF802E00021FEF75AF8EB
:104630001C4B1B88012B11D021460020FEF78EF960
:104640000BB030BD0021FEF74DF8F1E70021FEF779
:1046500049F8EDE72046FDF7D8FCE9E7104B1B8849
:10466000ADF81030104B1B88ADF812300F4B1B8883
:10467000ADF814300E4B1B88ADF8163000250395AD
:10468000ADF808508C238DF8073094F820308DF861
:10469000043001A90820FEF751F8024B1D80CBE73A
:1046A0009209002094090020F206002090090020C1
:1046B000F006002030B58BB004461C4B1B8803F479
:1046C0007F43B3F5E06F0BD0FDF79FFC184B1B88C1
:1046D000012B09D021460020FEF740F90BB030BD78
:1046E0000021FDF7FFFFF1E7104B1B88ADF81030FC
:1046F000104B1B88ADF812300F4B1B88ADF81430EF
:104700000E4B1B88ADF8163000250395ADF8085008
:104710008C238DF8073094F820308DF8043001A9EF
:104720000820FEF70BF8024B1D80D3E7920900200A
:1047300094090020F206002090090020F0060020D5
:1047400000B58BB0024691F820308DF8043004ABF0
:104750000068516803C300230393ADF808308C232D
:104760008DF8073001A90720FDF7E8FF0BB05DF8D1
:1047700004FB10B58AB002460C468C238DF8073036
:1047800004AB0068516803C394F820308DF80430FE
:1047900000230393ADF8083001A90720FDF7CEFFF1
:1047A0000AB010BD30B58BB002460C4604AB0068B1
:1047B000516803C394F820308DF804300025039528
:1047C000ADF808508C238DF8073001A90720FDF7BC
:1047D000B5FF21462846FEF7C1F80BB030BDFFFFFC
:1047E00030B58BB002460C4604AB0068516803C379
:1047F00000212046FDF776FF94F820308DF8043034
:1048000000250395ADF808508C238DF8073001A9D9
:104810000820FDF793FF044B1D8021462846FEF734
:104820009DF80BB030BD00BF9409002030B58BB0AF
:1048300002460C4604AB0068516803C300212046C1
:10484000FDF750FF94F820308DF80430BDF8163095
:104850000A4A12689B1A03930025ADF808508C236E
:104860008DF8073001A90820FDF768FF044B1D8073
:1048700021462846FEF772F80BB030BDC406002072
:104880009409002010B50B461146048804F060041A
:10489000202C01D0402C24D1062B1ED8DFE803F0B9
:1048A000040A130D1610190000230F4A13800F4A33
:1048B000138018E0FFF744FF15E0FFF741FF12E017
:1048C000FFF770FF0FE0FFF78BFF0CE0FFF7AEFF85
:1048D00009E00720FEF742F805E00720FEF73EF862
:1048E00001E0FFF746FF10BDF40600209409002008
:1048F0000A4600F10C0303CB1060516000207047A2
:10490000F8B505460E460E230B70FDF733FF0F4B2F
:104910001A785C78A24217D01F4604EBC40403EB5C
:1049200084040C340FCC0FC50FCC0FC523682B604B
:104930007B783B449B7833707B780133DBB27B70B0
:10494000092B01D900227A700020F8BD280C002024
:1049500070B58EB08A780270CB7803F07F03C37095
:104960000B6A83613A4B9B5C012B6DD004460D466C
:104970000B78012B03D0374B022123F81210344B54
:104980001B7813B9324B5B785BB32378304A012133
:10499000D1540021304A22F8131022782F4B23F8EB
:1049A00012104FF40C722E480BF0EDFA2B78012BFD
:1049B0001ED100262B78012B10D02178264A32F800
:1049C00011309BB243F0010322F81130217832F804
:1049D00011309BB243F0020322F8113030460EB082
:1049E00070BD4FF4BA7200211E480BF0CCFACCE730
:1049F0002078FCF755FF064610B1002EEED1D9E71E
:104A000029462046FFF7ECF829462078FDF73EF8C6
:104A10002078FDF799FC6B78022B0ED02078FFF7F9
:104A2000B9F84028E9D12078FCF7A6F80A20FDF76C
:104A3000AEF82078FDF7F8FBDFE723788DF820301B
:104A40006846FCF7BDF8E9E740F2DD56C6E700BF6F
:104A50002C03002028030020200C0020240C002020
:104A6000F0090020280C002038B504460078FCF737
:104A700047FFD8B9054623780E4A0021D1540E4A83
:104A800032F813309BB2012B0AD1217800230B4A54
:104A900022F811302178084A22F81130284638BD12
:104AA000FEF760FA2078FEF759FEEEE74FF4BC659A
:104AB000F4E700BF2C03002028030020200C002076
:104AC0000278324B33F8123006238B700278304B69
:104AD00033F812309BB2002B55D030B58FB005465D
:104AE0000C468DF82020294B33F812309BB2012B55
:104AF00002D100200FB030BD00230B706846FDF7D7
:104B000007FE80281DD005D848B140281CD10023BD
:104B1000637006E0C02817D10223637001E0002310
:104B200063702878FCF7B4FA00F07000202824D0D5
:104B30000DD9302824D010D2164B1B78E3700020FA
:104B4000D8E701236370ECE700236370E9E788B1DD
:104B50001028F1D10123A370EEE7602807D002D915
:104B6000702804D0E8E7402801D05028E4D104237D
:104B7000A370E1E70623A370DEE70223A370DBE75F
:104B80000323A370D8E740F2DC50704728030020CD
:104B9000200C0020EC06002070B582B004460D46C3
:104BA00016460178134A32F8110080B202280CD060
:104BB000627801A92046FFF783FF9DF80630032B9A
:104BC00007D040F2DC5002B070BD03F07F03E37009
:104BD000EEE7324629462046FDF7D0FC20B1D52825
:104BE00004D040F2DC50EEE70020ECE740F2DD506C
:104BF000E9E700BF2803002070B582B004460D46E7
:104C000016460178134A32F8110080B202280CD0FF
:104C1000627801A92046FFF753FF9DF80630032B69
:104C200007D040F2DC5002B070BD03F07F03E370A8
:104C3000EEE7324629462046FDF7C6FC20B1D528CE
:104C400004D040F2DC50EEE70020ECE740F2DD500B
:104C5000E9E700BF28030020F0B583B004460D4605
:104C60001646427801A9FFF72BFFA8B907469DF821
:104C70000630032B04D040F2DC57384603B0F0BDB9
:104C8000324629462046FDF701FCD52807D0FF28EB
:104C9000F3D140F2DC57F0E740F2DC57EDE740F2A9
:104CA000DD57EAE7F0B583B004460D461646427874
:104CB00001A9FFF705FFA8B907469DF80630032BA9
:104CC00004D040F2DC57384603B0F0BD32462946E6
:104CD0002046FDF7FFFBD52807D0FF28F3D140F28F
:104CE000DC57F0E740F2DC57EDE740F2DD57EAE74A
:104CF00070B582B004460D46427801A9FFF7E0FE88
:104D000078B906469DF80630032B04D040F2DC56F5
:104D1000304602B070BDA9B2A1802078FDF77AFBC1
:104D2000F6E740F2DC56F3E7F0B585B005460F46EE
:104D30001646846AC4B194E80F000DF1100C0CE91A
:104D40000F00EB691B782360A7602671EB6AE360B4
:104D50006B6A20469847AC6A24B104AB13E90F0094
:104D600084E80F0005B0F0BD6C46EAE708B5EFF344
:104D70000383C3F30803103B5BB21E4A03F1C00177
:104D800052F821006FF3104042F821001A4A52F8FD
:104D90002300C3691B6913B10369EBB108BD036943
:104DA000002BF9D0837803F00303022B0DD0C268E7
:104DB000036A1278DA70837803F003030269D21A67
:104DC0000261C2681344C360E6E7C3681B88026AD5
:104DD00043F47E43D381EEE7026A937803F07F03C6
:104DE00043F0040393700021C1608022FFF79CFF11
:104DF000D4E700BF00600040A00D002010B582B0D5
:104E0000EFF30383C3F30803103B5BB21D4A03F1C6
:104E1000C00152F821006FF3104042F821001A4AF5
:104E200052F82340A37803F00303022B0BD0236A2C
:104E30005B790193A36963B9042201992046FFF7C6
:104E400073FF02B010BD236A1B8AC3F308030193EA
:104E5000F0E7A27802F0030201A960690BF06CF898
:104E6000A37803F00302636913446361A3699B1A87
:104E7000A361002BE5D1012200212046FFF754FF5A
:104E8000DFE700BF00600040A00D002010B5EFF389
:104E90000384C4F30804103C64B20A4B53F82400A2
:104EA000026A937803F07B03937002220021FFF7DC
:104EB0003BFF054BC03453F824206FF3104243F8F6
:104EC000242010BDA00D00200060004038B5EFF395
:104ED0000384C4F30804103C64B2164B53F8240056
:104EE000837803F00303022B1ED0036A5979C9B2F9
:104EF000036A1D7905F0380215F0100F05D01D7FEB
:104F000015F0010F01D142F040021D7905F0C705EF
:104F10001D71FFF709FF084BC03453F824206FF3CD
:104F2000104243F8242038BD036A198AC1F30801EE
:104F3000DEE700BFA00D00200060004010B411F4B7
:104F4000803F0ED0030A0C4A1B0153FA80F352F83B
:104F500023406FF3104442F8234021F4803442F898
:104F60002340030A1B0153FA80F0034B43F820103F
:104F70005DF8044B704700BF00080840F8B50026F4
:104F8000374632461FE001219940C9B20F43013331
:104F9000022B17D8416801EBC204A588144C34F8E1
:104FA0001340A542F3D151F8321001F0F851B1F19C
:104FB000807FE8D0B1F1106FE5D001219940C9B2EE
:104FC0000E43E4E701320388934201D90023DFE76F
:104FD000012000F039FB074A92F8BB343B43F7430A
:104FE000FFB21F4082F8BB74012000F0F9FAF8BD4F
:104FF000381C010000E0014038B50546FFF7BEFF50
:10500000EFF31081012383F310881A4B1B6823B937
:10501000194B0022DA704022DA70164A1368013305
:10502000136081F3108800242B88A3420AD96B688F
:1050300003EBC40253F834109088FFF77FFF01346C
:10504000A4B2F1E7EFF31083012282F31088094A3A
:1050500012681AB107490A68013A0A60054A1268DB
:1050600022B9054A0021D1708021D17083F31088C4
:1050700038BD00BF9C0D0020000D084008B5034B53
:1050800003600846FFF7B8FF002008BD54524F5098
:1050900081680A7A02F001020B7AC3F340039A4254
:1050A000FAD10020704710B50446FFF7F1FF10B9A0
:1050B000A368F1221A7210BD38B505460C46FFF7F9
:1050C000E7FF40B9AB681B7AC3F340032371AB68B9
:1050D0001B889BB2236038BD70B4CA6915782B4613
:1050E0001679D47804F0070435B90A7AAAB182F0A7
:1050F00002031B01002202E0502D10D00A7A234344
:1051000081680E73816800248C738168DBB24B72F6
:105110008168D3B28B7270BC70470022EFE7002227
:10512000EDE7FFFFC16043681A7C044B43F822108F
:1051300089B2013989B28368198070473003002031
:1051400070B504460D460B7C03F5800303F56863D8
:105150001B0283604160EFF31086012383F3108804
:105160000B7C032B4ED82C480168032B4CD8C3F181
:10517000030201239340DB430B4003602B7C032B92
:1051800048D8254B1B6886F31088A36800221A7242
:10519000A3681A7A12F0020FFAD100229A722946F5
:1051A0002046FFF799FF69682046FFF7BBFF95F996
:1051B0001230002B1DDB6A7C1201D2B21749C818CD
:1051C00080F80023164A42F82340164A03F1C00033
:1051D00052F820606FF3104642F8206003F01F0081
:1051E0005B090122824003F1600041F8202041F870
:1051F00023206B692361AB69A361002060610A4BC6
:10520000236070BD0948AFE7C3F113020123934047
:10521000DB43B1E7054BB5E70C40084000E100E097
:10522000A00D00200060004054474100104008409D
:1052300030B585B0EFF30383C3F30803103B5BB2D3
:10524000224A03F1C00152F821006FF3104042F8E6
:1052500021001F4A52F82340A268137ADBB21D4690
:1052600061680978012923D02369DBB1636953B3ED
:1052700093E807000DF1100C0CE9070015F0200F62
:1052800001D000221A71A2691A602269184690475B
:10529000636923B104AA12E9070083E80700A36841
:1052A0001D7AEDB2A36805F00F051D7205B030BD83
:1052B000F421117203F0F005A3681D72E168204625
:1052C000FFF730FFD0E701ABD8E700BF0060004038
:1052D000A00D0020064A92F82610064B53F8213004
:1052E000126AC2F30262D340034A1360704700BFE0
:1052F00000E00140BC0200209403002008B5084BE8
:10530000084A1A60084A5A604FF400429A600749F6
:10531000D9601A61064A5A61FFF7DCFF08BD00BF79
:10532000BC020020002D310100127A0000366E010F
:1053300000C2EB0B08B5074B032283F81C2103F5D1
:105340000053052283F82620034A1A62FFF7C2FFA2
:1053500008BD00BF00C001402114012008B53B4B2F
:105360004AF20352A3F8FE23A3F500530122A3F847
:105370000421374BB3F804319BB2002BF9D1012340
:10538000334AA2F80031A2F5A83293601360FFF708
:10539000B5FF2E4B002283F81324092283F8A220A4
:1053A00093F880342BB1294B002283F8812483F8B1
:1053B0008024264B002283F8322043F202121A8501
:1053C000224B93F83C3013F0080FF9D01F4B00220A
:1053D00083F82A201D4B93F83C3013F0200FF9D0AE
:1053E000FFF7A8FF194B012283F8302083F85220E1
:1053F00042F60272A3F84820002283F84A20134B99
:1054000093F83C3013F0400FF9D0104A92F8743002
:1054100043F0400382F874300C4B93F87430DB098E
:10542000FAD00A4B022283F86C20462283F87420BB
:10543000062283F87420054B93F87430DB09FAD107
:10544000024B4FF42542A3F8FE2308BD00E00140C3
:1054500000C0014000BEFEE7A0F101000028FBD122
:105460007047FFFF38B501FB00F11D4B1A681D485E
:10547000B0FBF2F04A01CB0E521A63F100039C001C
:1054800044EA927495006A1844F10003DC0044EA8F
:105490005274D500012C08BF002D06D2B5FBF0F0E8
:1054A000800808B1FFF7D8FF38BD8000B1FBF0F2EB
:1054B0005001D10E801A61F100018B0043EA907314
:1054C0008400A01843F10001CB0043EA5073C200EE
:1054D0001046012B08BF002AE3D34FF0FF30E1E76D
:1054E0009403002000CA9A3B08B5034B53F82030C0
:1054F00003B1984708BD00BF4803002038B50B4BE7
:10550000B3F84051ADB2002404E02046FFF7ECFFB1
:105510000134E4B20F2C05D825FA04F313F0010F7F
:10552000F6D0F2E7014BA3F8305138BD00600040DF
:1055300000B585B0032000F087F8244B6FF0FF0220
:105540009A644FF0FF33019302930393002300E02A
:1055500001335F2B14D81E4A32F81320002AF7D0EB
:105560005A0903F01F00012101FA00F004A901EB20
:10557000820252F80C1C21EA000142F80C1CE7E7F9
:1055800000230DE004AA02EB830252F80C2C11490F
:1055900041F8232003F1A0000F4941F820200133F6
:1055A000022BEFD9032000F01BF8002308E0084A83
:1055B00032F8130003F1C001084A42F82100013318
:1055C0005F2BF4D905B05DF804FB00BF00800040FC
:1055D0006C1B01007080004000E100E000600040B2
:1055E000EFF31082012383F31088144B33F810304B
:1055F0009BB23BB1114931F810309BB2013B9BB2D9
:1056000021F810300D4B33F810309BB293B910B421
:105610000B49B1F8FE339BB20A4C34F8100043F446
:10562000254323EA0003A1F8FE3382F310885DF8D6
:10563000044B704782F31088704700BF8803002036
:1056400000E00140401C010010B4EFF31081012381
:1056500083F310880E4B33F810309BB25BB90D4AC0
:10566000B2F8FE339BB20C4C34F81040234343F4A1
:105670002543A2F8FE33064A32F810309BB20133BC
:105680009BB222F8103081F310885DF8044B70470C
:105690008803002000E00140401C010008B50346DB
:1056A0000C4A12685AB10B4A1068033323F0030303
:1056B0000344094A934206D8064A136008BD054AC6
:1056C00006491160EFE70AF069FB0C2303604FF015
:1056D000FF30F3E790030020186D00209059002060
:1056E00000BE704708B500F003F8FAF7CBFFFEE7FD
:1056F00038B5244B4FF47002C3F88820224A9A60D0
:105700000020FAF7DBFDFFF729FE0120FAF7D6FDAE
:105710001E4B83F30A881E481E4A121A00210AF003
:1057200032FC1D481D4A121A1D490AF005FC1D4D88
:105730001D4BED1AAD100024AC4205DA1A4B53F89C
:10574000243098470134F7E7FFF7C4FD0320FFF743
:105750007BFF002307E003F10801144A4FF6FF70B6
:1057600022F811000133082BF5D90320FFF738FF89
:105770000220FAF7A3FDFFF7DBFE002000F018F887
:1057800038BD00BF00ED00E000000000186D0020F3
:10579000D80200209059002000000020BC02002008
:1057A00038330100B8020020B4020020000D084088
:1057B0007047FFFF10B584B069460120FAF718FE64
:1057C000DDE90002074B029CA0FB030103FB021171
:1057D00000194FF00003044A41EBE4710AF09AF813
:1057E00004B010BD00CA9A3B40420F0000B585B01E
:1057F00069460120FAF7FCFDDDE900200649A2FB1D
:10580000012301FB003302988446101843EBEC712E
:1058100005B05DF804FB00BF00CA9A3B014B186855
:10582000704700BF581C01002DE9F04F91B01A9F3E
:10583000002F3AD007F150090446484688461646DC
:105840001D4600F09BFD80B37CB3D4F800A0BAF1F4
:10585000000F04D06425284611B0BDE8F08F404603
:1058600004F0EEFD30B306B3FDB1CE460DF12C0CC5
:10587000BEE80F00ACE80F00DEF80030CCF80030D6
:1058800000F08CFE844610AB13E90700CDF820C071
:105890008DE807000C9B51460B9A08A800F0F8FE13
:1058A00050B10A2813D00125D5E70B25284611B0A1
:1058B000BDE8F08FC825CEE708A804F08DF9824630
:1058C00038B108A800F022FFBAF10A0FEBD10A257F
:1058D000C1E74046CDF824A004F0BCFD8246404616
:1058E00004F0C0FDEC468646B9E80F000DF1240B2C
:1058F000CDF814B0ACE80F00D9F800302846CCF849
:1059000000305146724608AB03F0FEFF054608A87A
:1059100000F0FCFE20B95DB1672D02D0692D5FD08B
:1059200001250998002896D07B6D396E984792E73B
:10593000404604F09FFD0028F2D009980AF0D5FCFB
:105940003B6D396E013098470999814608460791A9
:105950000AF0CBFC0799421C48460AF0EDFA2A46A9
:1059600048460AA900F098FF002837D10A9B002B6F
:1059700038D1C0203B6D396E98472060A0B34046B7
:1059800004F080FD07F16403009331463B464A462C
:10599000256801F08BF82168C5F8BC00D1F8BC007F
:1059A00088B3683101F05EF923680546F0B997F8CD
:1059B0004820184683F8B020394668220AF0BCFA1D
:1059C000D8F80020C0F8B820099810B17B6D396E66
:1059D000984748467B6D396E98473CE70125F3E7C9
:1059E00067259EE76725EFE70A25EDE7002BF5D051
:1059F000D3F8BC303BB1404604F044FD2368D3F8F3
:105A0000BC1001F031F97B6D396E20689847002396
:105A100001252360D8E700BFF0B587B06C460D4F75
:105A2000064650220C4938460AF086FA07F150051E
:105A3000684600F095FC0FCC0FC523682B6000F082
:105A400029FF39467866682230460AF075FA3046F2
:105A500007B0F0BD98030020601C0100F8B1036896
:105A600070B50446B3B11646D3F8BC2092B1D3F852
:105A7000B8000D4603F0CEFE60B12368D3F8BC0039
:105A800040B155B13246294600F0AEFF003818BF8C
:105A9000012070BD4FF4967070BD0B2070BD4FF4A7
:105AA00096707047002840D010B50378044684B043
:105AB000042B45D8DFE803F00E152B3203008B686A
:105AC000426B53F8220018B10123002084F83930CA
:105AD00004B010BD0B68426B53F822000028F3D1CC
