S00F0000746573745F63692E737265632A
S31500000000A87D002021500000494E00001D50000030
S315000000101D5000001D5000001D5000001D50000026
S315000000200000000000000000000000001D5000005D
S315000000301D500000000000001D5000001D50000073
S31500000040D14B0000151C0000451C0000791C000067
S31500000050991C00009D1C0000CD1C0000D11C000056
S31500000060000000000000000000000000000000008A
S31500000070000000000000000000000000000000007A
S31500000080000000000000000000000000000000006A
S31500000090000000000000000000000000000000005A
S315000000A0000000000000000000000000000000004A
S315000000B0000000000000000000000000000000003A
S315000000C0000000000000000000000000000000002A
S315000000D0000000000000000000000000000000001A
S315000000E0000000000000000000000000000000000A
S315000000F000000000000000000000000000000000FA
S3150000010000000000000000000000000000000000E9
S3150000011000000000000000000000000000000000D9
S3150000012000000000000000000000000000000000C9
S3150000013000000000000000000000000000000000B9
S3150000014000000000000000000000000000000000A9
S315000001500000000000000000000000000000000099
S315000001600000000000000000000000000000000089
S315000001700000000000000000000000000000000079
S315000001800000000000000000000000000000000069
S315000001900000000000000000000000000000000059
S315000001A00000000000000000000000000000000049
S315000001B00000000000000000000000000000000039
S315000001C010B5054C237833B9044B13B1044800E04D
S315000001D000BF0123237010BDD802002000000000DC
S315000001E0A42C010008B5034B1BB10349034800E0EA
S315000001F000BF08BD00000000DC020020A42C0100A6
S3150000020050B110B5054C00222146054805F0C4F84A
S3150000021023680133236010BD704700BFF00400203F
S3150000022058050020FFFFFFFF30B5374A374BAFB008
S315000002300021CDE900320120354B364A06F058F848
S3150000024009A805F0FFFC344C3449354A354B09A85A
S31500000250CDE90941CDE90B2305F002FD002845D083
S31500000260314D02A802AC05F01BFD0FCC0FC50022D4
S315000002702B462068114643F810092C4805F000FC6F
S315000002802A4B2B4A2B492C4805F03CFC06F0F0FB88
S315000002902A4B024628492A4805F070FC16A3D3E9E2
S315000002A00023284908A80091204905F093FC0EA8D0
S315000002B005F0C6F9A5F11003012211A5D5E90045FF
S315000002C021490EA805F0C8F908A90EA805F038FAC4
S315000002D000221E4B1A6022462B460EA805F058FA3D
S315000002E04FF47A71642004F081FDF4E73B2118484D
S315000002F00FF0AAFBB4E700BF00CA9A3B000000005B
S3150000030000E1F505000000002D06000021060000B2
S3150000031011060000F90500006D03000071030000DE
S315000003207503000079030000FC040020100500207E
S3150000033030260100AC110100F4040020BC110100BC
S31500000340580500200102000018050020F0040020D6
S3150000035084110100022800D070470249024804F0C7
S3150000036073BB00BF3C1201006C0500200FF074BA8D
S315000003700FF07ABA0FF0EEBB0B46012103FB00F03B
S315000003800FF0A4B9044AD2E90031013341F100016A
S31500000390C2E90031704700BF08030020FFFFFFFFDE
S315000003A02DE9F047444E8A46337882B0002B4CD074
S315000003B0424B434C5F68434D6946434804F0F6FBA5
S315000003C037A3D3E90023DFF8048100992668D8F81B
S315000003D000E06868791AA6FB01670EFB00FCD4F8FA
S315000003E00490D8F804002C6801FB097704FB00CCC4
S315000003F0AEFB04453046394665440EF07BFF28A324
S31500000400D3E900238046294620460EF073FF24A335
S31500000410D3E900234FEAE87918EB000849EBE079C5
S3150000042039463046CAE900890EF064FF2046164672
S315000004301BA3D3E9002329460EF05CFF00203244BB
S31500000440CAF8082002B0BDE8F0874FF001081B4C3F
S315000004501D48214604F004FB1B4804F099FB207A52
S31500000460184D08FA00F00EF06BFB0FA3D3E900233A
S315000004700EF0FAFC0EA3D3E900230EF0CBFB0EF030
S3150000048071FF67680E4CA7FB002307FB0133C4E925
S315000004900001C5E9002386F800808DE7AFF30080F0
S315000004A000CA9A3B000000000000000084D76741A4
S315000004B00000000065CDCD4110030020141201009C
S315000004C000030020F8020020980500200803002001
S315000004D02DE9F04F002687B0012882469846039200
S315000004E08DF8176074D0022878D004F001FE4246D9
S315000004F006468946D317CDE900233B4FDFF8ECB01B
S31500000500B8F1FF3F0AD004F0F3FDDDE90023841BB8
S3150000051061EB0905944275EB030345DA38460DF1A4
S31500000520170103F0DBFF00283ED19DF81730033B8F
S31500000530072BE5D801A252F823F000BF5D050000A5
S315000005400105000001050000010500007B05000013
S31500000550010500006B0500005D050000BAF1010F02
S31500000560CED1039807B0BDE8F08FBAF1020FC7D11C
S315000005701D4B986807B0BDE8F08F38461B4903F05D
S31500000580A5FFBBF8003003F47F43B3F5005F0FD03F
S31500000590B3F5045F14D0B3F5085FB1D10021384636
S315000005A004F076F90028ABD0002007B0BDE8F08F44
S315000005B0072238460E4904F023F90028A0D0F3E7B5
S315000005C0072238460A4904F03FF9002898D0EBE79D
S315000005D0084B05481B7804F0E9F886E7054B024806
S315000005E01B7804F0B9F880E7740500206405002044
S315000005F05C0500201103002008B50349034803F0F9
S3150000060093FF012008BD00BFE8110100740500201A
S3150000061008B5024804F010F8012008BD7405002052
S315000006204FF0FF330120FFF753BF00BF0220FFF753
S315000006304FBF00BF08B5FFF7F7FD002008BD00BF9C
S315000006401B4B1B88012B00D07047817F30B50229D8
S315000006500CBF80248224C2680569838C8BB0521B30
S31500000660042B8DF806108DF80740039211D0052B48
S3150000067018D0032B12D040F2DC53ADF8083090F8B6
S31500000680203001A909208DF8043002F00BF80BB0D8
S3150000069030BD40F2DE53ADF80830F0E70023ADF888
S315000006A00830ECE740F2DF53ADF80830E7E700BF6B
S315000006B0A8090020154B1B88012B00D0704700B5F8
S315000006C0837F8BB0012B8DF806301AD0ABB1812316
S315000006D08DF80730818C40F2DC53012908BF0023D6
S315000006E090F8202001A90A208DF80420ADF80830E2
S315000006F001F0D8FF0BB05DF804FB82238DF80730BC
S31500000700E8E780238DF80730E4E700BFA80900205A
S3150000071038B542EA010448F22F03002144F40042AE
S31500000720054600F04BFB0021284600F00DFB00F0CB
S315000007302F008442F7D138BD10B5044661B900F0E8
S31500000740F5FDC30502D54FF4807010BD204600F0BC
S3150000075021FE00F07F0010BD00F060FE204600F094
S3150000076075FE10F4807F204606D000F0B5FE800AA4
S315000007700130800180B210BD00F0C4FEC0F30A0053
S3150000078010BD00BF2DE9F047584B90F82070044685
S3150000079033F817300D469BB2022B53D000F05AFCAB
S315000007A02946204600F08EFC2946204600F0D6FC5D
S315000007B02946204601F056FF2946204600F02EFE27
S315000007C0642303FB07F2DFF82C8105EB850302EBBC
S315000007D04303434459881FFA87FA4FEA850920469E
S315000007E000F050FEBAF1010F68D0642606FB07F64A
S315000007F0A94406EB490646442046F18800F09EFED1
S315000008002046318900F0B2FE2046002100F006FEA7
S315000008102946204600F052FF2946204601F00EFFE9
S315000008202946204600F0ECFE2946204600F0C2FC90
S315000008302946204600F0DEFC29462046BDE8F04762
S3150000084000F0F8BC00222A4B43F8212002F0F8FC05
S3150000085080462946204694F8207000F0FBFB294686
S31500000860204600F02FFC2946204600F077FC08F1D0
S31500000870FF382946204601F0F5FE1FFA88F829467A
S31500000880204600F0CBFDB8F1010F1FFA87FA1FD8FA
S31500000890642303FB07F2DFF85C8005EB850302EBBC
S315000008A0430343445988204641F48061598000F04F
S315000008B0E9FDBAF1010F4FEA850996D109EB050367
S315000008C008EB43032046B3F8681000F0F3FD8CE70D
S315000008D064220A2302FB07F203FB0523DFF81480D8
S315000008E04FEA85094344598879E700BF2803002069
S315000008F0B80500200806002038B52E4B90F82020B9
S31500000900044633F812300D469BB2022B03D1002267
S31500000910294B43F821202946204601F0A3FE29460B
S31500000920204600F097FB2946204600F0CBFB2946DF
S31500000930204600F013FC002220461146FFF7E8FE91
S315000009402946204600F06AFD2046002100F09AFD67
S315000009502046002100F0AEFD2046002100F0EEFD0D
S315000009602046002100F002FE2046002100F056FD40
S315000009702946204600F0A2FE2946204601F05EFEEA
S315000009802946204600F03CFE2946204600F042FF5C
S315000009902946204600F05CFF2946204600F00AFC66
S315000009A02946204600F026FC29462046BDE8384068
S315000009B000F040BC28030020B805002070B50122D5
S315000009C006460D464FF6FF7400F0DEFE2946304619
S315000009D000F0E4FD013C10F0200FA4B200D170BD80
S315000009E0002CF3D170BD00BF70B516460546A2B106
S315000009F064240BE0284600F03DF8013C284600F050
S31500000A00BDF8A4B20A2001F0FDF854B131462846DB
S31500000A1000F054FA8304EDD570BD1A46FFF778FE50
S31500000A20E6E7FF2070BD00BF02B170471A46FFF728
S31500000A306FBE00BF30B504460D4683B0019200F08C
S31500000A4007FF29462046019A00F020FF2946204646
S31500000A5003B0BDE8304000F0BFBE00BF38B5044665
S31500000A600D4600F0D7FE29462046BDE8384000F086
S31500000A70EFBE00BF094B90F8202033F812309BB22E
S31500000A80022B01D0002070471AB9054B188880B296
S31500000A907047044B188880B2704700BF28030020B7
S31500000AA00000094000101140012805D1034A1388AF
S31500000AB09BB243F480731380704700BF001011404F
S31500000AC0094B90F8202033F812309BB2022B00D04D
S31500000AD07047012AFCD1054A138823F480731B044E
S31500000AE01B0C1380704700BF280300200010114024
S31500000AF0084B90F8202033F812309BB2022B00D01E
S31500000B007047012AFCD1044A13889BB243F0800344
S31500000B1013807047280300200010114090F8202011
S31500000B20084B33F812309BB2022B00D07047012AD3
S31500000B30FCD1054AB2F840319BB21943A2F84011E4
S31500000B40704700BF280300200010114090F82020B5
S31500000B50084B33F812309BB2022B00D07047012AA3
S31500000B60FCD1054AB2F840319BB223EA0101A2F852
S31500000B70401170472803002000101140094B90F8DF
S31500000B80202033F812309BB2022B01D00020704790
S31500000B901AB9054B988880B27047044B988880B282
S31500000BA0704700BF280300200000094000101140D4
S31500000BB0094B90F8202033F812309BB2022B01D05B
S31500000BC0002070471AB9054B188980B27047044B4C
S31500000BD0188980B2704700BF280300200000094032
S31500000BE00010114090F82020054B33F812309BB2CC
S31500000BF0022B00D07047002AFCD0024B9981704727
S31500000C00280300200010114090F82020074B33F8ED
S31500000C1012309BB2022B01D0002070470029FBD175
S31500000C20012AF9D1024B5869704700BF28030020FA
S31500000C300010114090F82000064B33F810309BB29C
S31500000C40022B00D070470029FCD1012804BF024BBB
S31500000C505A617047280300200010114090F82020A8
S31500000C60084B33F812309BB2022B01D0002070479C
S31500000C700029FBD1012A0BBF034B044BD88A988A63
S31500000C8080B2704728030020001011400000094080
S31500000C9090F82000124B33F810309BB2022B05D08F
S31500000CA0012914D002290FD059B170470128F7D174
S31500000CB0012912D002290DD00029F6D1094BDA827A
S31500000CC07047094B9A827047074B9A837047064BC9
S31500000CD01A837047034BDA83E7E7024B5A83704760
S31500000CE028030020001011400000094090F8200061
S31500000CF0124B33F810309BB2022B05D0012914D0C9
S31500000D0002290FD059B170470128F7D1012912D015
S31500000D1002290DD00029F6D1094BDA757047094B27
S31500000D201A757047074B1A777047064B1A76704745
S31500000D30034BDA77E7E7024BDA76704728030020A1
S31500000D40001011400000094090F82020144B33F8A1
S31500000D5012309BB2022B1FD1012914D0022908D1CF
S31500000D601049114B012A0CBF0A461A46108880B258
S31500000D70704789B90D490E4B012A0CBF0A461A461F
S31500000D80108880B270470B490B4B012A0CBF0A46EC
S31500000D901A46108880B2704700231B88FFDE00BF0A
S31500000DA0280300202C1011402C000940201011406F
S31500000DB020000940281011402800094010B490F87E
S31500000DC02040144830F8140080B202281FD10129AF
S31500000DD017D0022905D110481049012C08BF014639
S31500000DE005E0A1B90E480F49012C08BF0146088845
S31500000DF01A4080B220EA030313435DF8044B0B80CC
S31500000E00704709480949012C08BF0146EFE700234E
S31500000E101B88FFDE280300202C1011402C000940FF
S31500000E2020101140200009402810114028000940D8
S31500000E3010B41B4C90F8200034F810309BB2022BF3
S31500000E4004D1012926D002291ED0B9B1002134F8D7
S31500000E5010309BB2022B02D05DF8044B70470B8812
S31500000E6023F440631B041B0C0B80002AF4D00B8870
S31500000E705DF8044B9BB21A430A80704709490A4B36
S31500000E80012818BF1946E2E70849094B012818BF8F
S31500000E901946DCE70749084B012818BF1946D6E76B
S31500000EA02803002020101140200009402C1011407A
S31500000EB02C000940281011402800094090F82020F5
S31500000EC0144B33F812309BB2022B1FD1012914D0D8
S31500000ED0022908D11049114B012A0CBF0A461A46AD
S31500000EE0108880B2704789B90D490E4B012A0CBF94
S31500000EF00A461A46108880B270470B490B4B012AE6
S31500000F000CBF0A461A46108880B2704700231B8819
S31500000F10FFDE00BF280300202E1011402E000940DE
S31500000F2022101140220009402A1011402A000940CF
S31500000F3090F82020144B33F812309BB2022B20D1AC
S31500000F40012917D0022906D11049114B012A0CBFDD
S31500000F500A461A4606E0A1B90E490F4B012A0CBFF4
S31500000F600A461A4613886FEA43436FEA53439BB215
S31500000F701380704709490A4B012A0CBF0A461A46D4
S31500000F80F0E700231B88FFDE280300202E10114007
S31500000F902E00094022101140220009402A1011405B
S31500000FA02A00094090F82020154B33F812309BB2E6
S31500000FB0022B22D1012916D0022909D1114B12493F
S31500000FC0012A0CBF0A461A464FF480431380704725
S31500000FD099B90E4B0E49012A0CBF0A461A464FF420
S31500000FE08043138070470B4B0B49012A0CBF0A46FE
S31500000FF01A464FF480431380704700231B80FFDEA0
S31500001000280300202E0009402E101140220009401E
S31500001010221011402A0009402A10114090F8202081
S31500001020094B33F812309BB2022B00D070470123D4
S315000010303AB1064A03FA01F1D38E194389B2D18631
S315000010407047034AF6E700BF28030020001011404E
S315000010500000094090F82020094B33F812309BB26B
S31500001060022B00D0704701233AB1064A8B40D18E3D
S3150000107089B221EA0301D1867047034AF6E700BF29
S3150000108028030020001011400000094090F820209D
S31500001090094B33F812309BB2022B00D07047012364
S315000010A03AB1064A03FA01F1138F194389B211873F
S315000010B07047034AF6E700BF2803002000101140DE
S315000010C00000094090F82020094B33F812309BB2FB
S315000010D0022B00D0704701233AB1064A8B40118F8C
S315000010E089B221EA030111877047034AF6E700BF78
S315000010F028030020001011400000094090F820202D
S31500001100124B33F812309BB2022B00D0704730B42A
S315000011107AB1002501230E4801F10A040D4A20F890
S315000011201450508F03FA01F1014389B2518730BC44
S3150000113070470123064C084824F81120428F03FA11
S3150000114001F1114389B2418730BC70472803002062
S31500001150D0060020001011400000094090F8202021
S31500001160094B33F812309BB2022B00D07047012393
S315000011703AB1064A8B40518F89B221EA0301518761
S315000011807047034AF6E700BF28030020001011400D
S315000011900000094020B9054BB3F8400080B2704703
S315000011A0034BB3F8400080B2704700BF000009400F
S315000011B00010114090F820200B4B33F812309BB2F0
S315000011C0022B00D07047012303FA01F1C9432AB963
S315000011D0064BC1F30901A3F846107047044BC1F34F
S315000011E00901A3F8461070472803002000000940B3
S315000011F00010114090F820200B4B33F812309BB2B0
S31500001200022B00D07047012303FA01F1C9432AB922
S31500001210064BC1F30901A3F848107047044BC1F30C
S315000012200901A3F848107047280300200000094070
S315000012300010114090F820200B4B33F812309BB26F
S31500001240022B00D07047012303FA01F1C9432AB9E2
S31500001250064BC1F30901A3F84A107047044BC1F3CA
S315000012600901A3F84A10704728030020000009402E
S31500001270001011400A4B90F8202033F812309BB230
S31500001280022B01D00020704722B9064BB3F84C0060
S3150000129080B27047044BB3F84C0080B2704700BF71
S315000012A028030020000009400010114020B9054B1A
S315000012B0B3F8540080B27047034BB3F8540080B2C1
S315000012C0704700BF000009400010114020B9054BCF
S315000012D0B3F8560080B27047034BB3F8560080B29D
S315000012E0704700BF000009400010114020B9054BAF
S315000012F0B3F8580080B27047034BB3F8580080B279
S31500001300704700BF000009400010114020B9054B8E
S31500001310B3F85A0080B27047034BB3F85A0080B254
S31500001320704700BF00000940001011400A4B90F8BA
S31500001330202033F812309BB2022B01D000207047D8
S3150000134022B9064BB3F85C0080B27047044BB3F881
S315000013505C0080B2704700BF2803002000000940EF
S315000013600010114090F82020074B33F812309BB242
S31500001370022B00D070471AB9044BA3F85C107047D3
S31500001380034BA3F85C1070472803002000000940B7
S31500001390001011400A4B90F8202033F812309BB20F
S315000013A0022B01D00020704722B9064BB3F85E002D
S315000013B080B27047044BB3F85E0080B2704700BF3E
S315000013C028030020000009400010114090F820205A
S315000013D0074B33F812309BB2022B00D070471AB974
S315000013E0044BA3F85E107047034BA3F85E107047DA
S315000013F028030020000009400010114020B9054BC9
S31500001400B3F8600080B27047034BB3F8600080B257
S31500001410704700BF000009400010114090F82020DE
S31500001420074B33F812309BB2022B00D070471AB923
S31500001430044BA3F864107047034BA3F8641070477D
S315000014402803002000000940001011400A4B90F8C4
S31500001450202033F812309BB2022B01D000207047B7
S3150000146022B9064BB3F8680080B27047044BB3F854
S31500001470680080B2704700BF2803002000000940C2
S315000014800010114090F82020074B33F812309BB221
S31500001490022B00D070471AB9044BA3F868107047A6
S315000014A0034BA3F86810704728030020000009408A
S315000014B00010114090F82020054B33F812309BB2F3
S315000014C0022B04D1012A04BF024BA3F86A1070470D
S315000014D02803002000101140084B90F8200033F834
S315000014E010309BB2022B01D0002070470028FCD0A0
S315000014F0034BB3F86A0080B2704700BF2803002090
S31500001500001011400A4B90F8202033F812309BB29D
S31500001510022B01D00020704722B9064BB3F86C00AD
S3150000152080B27047044BB3F86C0080B2704700BFBE
S3150000153028030020000009400010114090F82020E8
S31500001540074B33F812309BB2022B00D070471AB902
S31500001550044BA3F86C107047034BA3F86C1070474C
S3150000156028030020000009400010114090F82020B8
S31500001570074B33F812309BB2022B00D070471AB9D2
S31500001580044BA3F86E107047034BA3F86E10704718
S3150000159028030020000009400010114010B4002468
S315000015A090F82020114B83B0ADF8064033F8123086
S315000015B09BB2022B06D0BDF8060080B203B05DF8E0
S315000015C0044B704742B161B1094B03EB41010B88F3
S315000015D09BB2ADF80630EEE729B1064B03EB4101AD
S315000015E0F5E70549F3E70549F1E700BF28030020C1
S315000015F06E1011406E0009406010114060000940F5
S3150000160090F820200A4B33F812309BB2022B00D000
S31500001610704742B1074B03EB41010B889BB243F481
S3150000162000530B807047044B03EB4101F5E700BF05
S31500001630280300206E1011406E00094090F820200B
S315000016400C4B33F812309BB2022B00D0704742B9D4
S31500001650094A32F811309BB243F4007322F8113074
S315000016607047064A32F811309BB243F4007322F8F1
S3150000167011307047280300206E0009406E1011409B
S3150000168090F820200A4B33F812309BB2022B00D080
S3150000169070474AB1074B03EB41010B8823F40073F3
S315000016A01B041B0C0B807047034B03EB4101F4E753
S315000016B0280300206E1011406E00094090F820208B
S315000016C0164B33F812309BB2022B00D070474AB942
S315000016D0D9B9134AB2F860309BB243F48073A2F8CA
S315000016E06030704741B90F4AB2F860309BB243F49C
S315000016F08073A2F8603070470B4A32F811309BB203
S3150000170043F4807322F81130E0E7084A32F81130CA
S315000017109BB243F4807322F81130704728030020EF
S3150000172000000940001011406E1011406E00094083
S3150000173090F820000F4B33F810309BB2022B00D0EC
S31500001740704770B191B10C4B03EB41010B8823F04C
S3150000175003031B041B0C0B800B889BB21A430A80E5
S31500001760704729B1054B03EB4101EFE70449EDE76B
S315000017700449EBE7280300206E1011406E00094073
S31500001780601011406000094090F820000D4B33F8BE
S3150000179010309BB2022B00D0704748B169B10A4B9A
S315000017A003EB41010B889BB223EA02020A807047D1
S315000017B029B1064B03EB4101F4E70549F2E7054978
S315000017C0F0E700BF280300206E1011406E000940AC
S315000017D0601011406000094090F820200A4B33F851
S315000017E012309BB2022B00D0704742B1074A8900E3
S315000017F00A4413889BB243F4007313807047044A6B
S3150000180089000A44F5E700BF280300208C10114028
S315000018108C00094090F820200A4B33F812309BB216
S31500001820022B00D070474AB1074A89000A44138840
S3150000183023F400731B041B0C13807047034A8900B2
S315000018400A44F4E7280300208C1011408C0009405C
S3150000185090F820200A4B33F812309BB2022B00D0AE
S31500001860704742B1074A89000A4413889BB243F481
S31500001870807313807047044A89000A44F5E700BF65
S31500001880280300208C1011408C00094090F820009D
S31500001890084B33F810309BB2022B00D0704720B1B2
S315000018A0054B89000B441A807047044B89000B4492
S315000018B0F9E700BF280300208E1011408E00094072
S315000018C0084B90F8202033F812309BB2022B01D03F
S315000018D000207047012AFBD1034BB3F8400180B2C8
S315000018E0704700BF2803002000101140012807D1CF
S315000018F0044AB2F802319BB243F48043A2F80231A3
S31500001900704700BF00101140012808D1044AB2F800
S31500001910023123F480431B041B0CA2F802317047EA
S3150000192000101140124B1A6870B911051CD5EFF35F
S315000019301081012282F310881A6822F400621A606C
S315000019401B6881F310887047D2040DD5EFF3108120
S31500001950012282F310881A6822F480521A601B68EA
S3150000196081F310880020704740F2DD50704700BFB9
S315000019700440084010B4002854D15D4C2368190572
S31500001980C3F3C02200F1A98080215A4B1A81A3F823
S315000019906010A3F87020A3F87220A3F87420A3F8AF
S315000019A07620A3F87820A3F87A20A3F87C20A3F861
S315000019B07E20A3F88020DA861A875A871A865A86E6
S315000019C0198821F010010904090C1980198821F0E1
S315000019D020010904090C1980198821F00101090464
S315000019E0090C1980198821F040010904090C198095
S315000019F0A3F84620A3F84820A3F84A202368C3F397
S31500001A00C0201B056ED4EFF31082012383F31088E8
S31500001A10236843F400632360236882F310885DF82B
S31500001A20044B7047012853D1314C2368D904C3F3C2
S31500001A30003252D48021304B1A81A3F86010A3F8EB
S31500001A407020A3F87220A3F87420A3F87620A3F8D8
S31500001A507820A3F87A20A3F87C20A3F87E20A3F8A8
S31500001A608020DA861A875A871A865A86198821F0BC
S31500001A7010010904090C1980198821F020010904B4
S31500001A80090C1980198821F001010904090C198033
S31500001A90198821F040010904090C1980A3F8462091
S31500001AA0A3F84820A3F84A202268C2F30033D204E0
S31500001AB018D4EFF3108180F31088226842F4805224
S31500001AC02260226881F3108818465DF8044B70473F
S31500001AD040F2E2505DF8044B704740F2DC505DF88E
S31500001AE0044B70474FF4BC605DF8044B704700BF71
S31500001AF0044008400000094000101140F0B50028DD
S31500001B004ED101243A4B3B4ED3F800243A4F60F3B2
S31500001B100412C3F800240A7D91F90D301201374DE5
S31500001B2006EB030CD2B28CF8002347F8231003F11E
S31500001B30C00C5A0955F82CE0920002F1604203F0FD
S31500001B401F0302F5614204FA03F360F3104E45F8F1
S31500001B502CE0C2F880311360CB7C91F90C201B017C
S31500001B601644DBB286F8003347F8221002F1C006AD
S31500001B70530955F826709B00DFF884C002F01F0257
S31500001B8003F1604304FA02F203F5614360F3104780
S31500001B9045F82670C3F880211A60CCF80010F0BD15
S31500001BA00128FCD191F91020CB7D134E02F160443F
S31500001BB01B01124D04F56144DBB284F8003346F88C
S31500001BC0221002F1C00455F8246053099B0002F06C
S31500001BD01F02904003F16043094A6FF3104645F82F
S31500001BE0246003F56143C3F8800118601160F0BDFD
S31500001BF00000094000E100E0D40D00200060004034
S31500001C00B4050020012103F0F1B800BF4FF47A714A
S31500001C1003F0ECB8EFF30383103B084A5BB2C03322
S31500001C2052F8231006486FF3104142F82310038838
S31500001C309BB2012B00D1704701F072BA00600040E0
S31500001C402803002010B4EFF30383103B084A5BB26D
S31500001C5003F1C00152F82100064C6FF3104042F820
S31500001C60210054F823305DF8044B987800F01ABB35
S31500001C7000600040D40D0020EFF30383103B054ABB
S31500001C805BB2C03352F823106FF3104142F82310B1
S31500001C90704700BF00600040FFF7EEBFEFF303831D
S31500001CA0103B084A5BB2C03352F8231006486FF364
S31500001CB0104142F8231043889BB2012B00D1704794
S31500001CC001F02EBA0060004028030020FFF7D4BFC1
S31500001CD0FFF7D2BF2DE9F043012A064683B03FD075
S31500001CE0834BB3F84050B3F84670B3F848E0B3F806
S31500001CF04AC01C8ED88EB3F838805B8FADB2BFB2A7
S31500001D001FFA8EFE1FFA8CFCA4B280B21FFA88F866
S31500001D101FFA83F9002315F47F4F33800B800DD013
S31500001D2005EA04035C040CD5012A4BF6FF720CBFCE
S31500001D30704B6F4BA3F840201223338003B0BDE8ED
S31500001D40F0831C0428D49C0433D5012A4DF6FF7277
S31500001D500CBF684B664BA3F8402013233380EDE796
S31500001D60644BB3F84050B3F84670B3F848E0B3F8A4
S31500001D704AC01C8ED88EB3F83880B3F83A90ADB20C
S31500001D80BFB21FFA8EFE1FFA8CFCA4B280B21FFAF5
S31500001D9088F81FFA89F9BDE7012A47F6FF720CBFDA
S31500001DA0544B534BA3F840201123338003B0BDE8B6
S31500001DB0F083DC0412D413F4807400EA070019D00F
S31500001DC0C50717D5012A40F2FE320CBF494B484BD6
S31500001DD0A3F84620012333800B80AFE7012A4EF695
S31500001DE0FF720CBF434B424BA3F8402014233380B1
S31500001DF00D80A3E713F480650CEA090C0FD01CF0E4
S31500001E00010F0CD0012A40F2FE320CBF394B384B81
S31500001E10A3F84A200222012332800B808EE713F4B6
S31500001E2000770EEA08080FD018F0010F0CD0012A2F
S31500001E3040F2FE320CBF2F4B2D4BA3F84820032255
S31500001E40012332800B8079E71B051ED464B1C3439E
S31500001E50012A0CBF274A264AC3F30903A2F84630D3
S31500001E6001233380088069E7002D2FD06FEA0C0329
S31500001E70012A0CBF1F4A1E4AC3F30903A2F84A30BF
S31500001E8002233380A1F800C058E710460191009262
S31500001E90FFF780F90199009A08804FF2FF70012A36
S31500001EA00CBF144B124BA3F84000152333800B785C
S31500001EB003F00703062B7FF441AF1046009100F0B4
S31500001EC001FA0023009933800B8037E7002F3FF497
S31500001ED035AF6FEA0803012A0CBF064A044AC3F36A
S31500001EE00903A2F8483003233380A1F8008025E7D0
S31500001EF0000009400010114010B5044600F0E2F958
S31500001F002046FFF7D3F90246094B20461A80FFF711
S31500001F10DDF90246074B20461A80FFF7E7F902462D
S31500001F20054B20461A80FFF7F1F9044B188010BDC7
S31500001F30C609002026070020C40900202407002027
S31500001F4008B590F82000FFF725F900F07000A0F121
S31500001F503000B0FA80F0400908BD00BF38B50F4D1B
S31500001F6004462B8803F47F43B3F5407F0AD006D896
S31500001F70B3F5807F06D0B3F5007F03D038BDB3F547
S31500001F80806FFBD120460021FEF72CFE29882046D3
S31500001F90BDE83840090AFEF725BE00BFCA09002081
S31500001FA010B5044690F8200000F07CF994F8200063
S31500001FB0BDE8104000F066B90B46022201461846FD
S31500001FC0FFF7B6BB02220021FFF7B2BB2DE9F041B5
S31500001FD01F4693F8203006468846144623BB42081F
S31500001FE040D0551EADB2013504EB450534F8022B41
S31500001FF041463846FEF74CFEAC42F7D1F1072CD5E8
S31500002000414638460022FEF713FF15F8012B4146DC
S315000020103846FEF76BFE384641464FF48062FEF7BF
S3150000202007FF2846BDE8F081820819D0551EADB2DB
S31500002030013504EB850554F8042B41463846FEF776
S31500002040F9FDAC42F7D1B2071AD4F3070CD44146D6
S3150000205038464FF40062FEF7EBFE2846BDE8F081F5
S315000020602546F0E72546C9E7414638460022FEF7F1
S31500002070DFFE4146384615F8012BFEF737FEE6E748
S31500002080414638464FF48062FEF7D2FE4146384656
S3150000209035F8022BFEF7FCFDD7E700BF2DE9F0412E
S315000020A01E4693F8203080460F461446A3B94308CF
S315000020B03DD05D1EADB2013502EB450539463046D1
S315000020C0FEF7CCFD24F8020BAC42F7D118F0010F55
S315000020D02FD12846BDE8F081830823D05D1EADB21E
S315000020E0013502EB850539463046FEF78DFD44F88D
S315000020F0040BAC42F7D108F00308B8F1000FE8D0A2
S3150000210039463046FEF780FD08F1FF339BB20133B6
S315000021102B4405F8010B9D424FEA1020F9D12846C1
S31500002120BDE8F0811546B8F1000FD2D0E8E71546B4
S31500002130CCE739463046FEF791FD05F8010B2846F7
S31500002140BDE8F0812DE9F0410446154610460F46DC
S315000021502146FEF733FC21462846FEF77BFF214643
S315000021602846FEF7AFFF21462846FEF7F7FF214631
S315000021702846FEF773FC28460021FEF7E5FD00F031
S315000021800F00844223D021462846DFF8548000F011
S3150000219055FA21462846FFF733FA58F82460A6B1C7
S315000021A00E4B214653F8243028463361B784FFF797
S315000021B0F5F958F82410F0844B681BB10022084644
S315000021C011469847002348F82430BDE8F0810023E3
S315000021D028461A461946FEF727FCD4E7F8060020DB
S315000021E0B805002010B5064C238803B910BDFFF7CB
S315000021F07DFB6420FFF706FD0023238010BD00BF92
S31500002200120300200122024B1A80FFF77DBB00BF9C
S315000022101203002030B9074A13889BB243F010031B
S3150000222013807047044A13889BB243F0100313804F
S31500002230704700BF000009400010114038B9054A38
S31500002240138823F010031B041B0C13807047024AEB
S31500002250F6E700BF000009400010114030B9074AF8
S31500002260138E9BB243F4804313867047044A138E41
S315000022709BB243F480431386704700BF00000940B9
S315000022800010114038B9054A138E23F480431B040D
S315000022901B0C13867047024AF6E700BF0000094090
S315000022A0001011404BF6FF7218B9044BA3F84020FA
S315000022B07047034BA3F84020704700BF0000094059
S315000022C0001011404FF6F77218B9044BA3F84020DE
S315000022D07047034BA3F84020704700BF0000094039
S315000022E00010114040B9094AB2F860309BB243F081
S315000022F00403A2F860307047054AB2F860309BB21A
S3150000230043F00403A2F86030704700BF00000940A4
S315000023100010114000BB2E490B460A8892B242F4C7
S3150000232080620A801A885205FCD505224FF4806126
S315000023304FF41D40C3F8F0201A8822F02002120440
S31500002340120C1A801A8892B242F001021A8019847D
S31500002350198599851886704710B51E4C0120FFF720
S3150000236051FCE38F012023F001031B041B0CE387C0
S31500002370FFF74CFC2246E38F23F002031B041B0CE1
S31500002380E387238823F020031B041B0C2380238868
S315000023909BB243F001032380B4F802319BB243F4AD
S315000023A08043A4F80231D388DB07FCD540F60773D7
S315000023B04FF400614FF41D405380D38F9BB243F41A
S315000023C08073D387118411859185108610BD00BF57
S315000023D0000009400010114088B90C4AB2F860307C
S315000023E023F003031B041B0CA2F86030B2F8603024
S315000023F09BB231B943F00103A2F860307047044A3A
S31500002400ECE743F00203A2F8603070470000094091
S315000024100010114030B50E4B04788FB033F81430ED
S315000024209BB2022B02D000200FB030BD094B1B8897
S31500002430012B0BD00125084B10466A468DF820402B
S315000024401D8000F00FFA00200FB030BDD520EBE75D
S315000024502803002028070020C809002030B5204B9B
S315000024600446007899B033F810308DF848009BB2D6
S31500002470022B02D0002019B030BD0D4671B1194BA8
S315000024801B88012B26D00124174B294610460AAA81
S315000024901C8000F0A3F9002019B030BD002AEED14F
S315000024A0A3880AA8C3B1FFF78DFDD4E9030100256F
S315000024B08C22247804AB83E80300082001A98DF858
S315000024C004400395ADF808508DF8072000F0EAF8AF
S315000024D02846D0E7D520CEE700F0BEF8E5E700BFF6
S315000024E02803002028070020C8090020C378052BF0
S315000024F018D8F0B45C000C4DE3B2ED5C0B4EC5EBA6
S31500002500C50306EBC3030A4FDA6057F82470047854
S315000025105F6083F82040DD831846F0BC99601A613D
S3150000252000F08EBC00207047B4150100240A00207C
S315000025307C010020C378052B35D82DE9F0415D00DC
S3150000254006466B1C1948DBB2C45C194BC4EBC400CD
S31500002550062C03EBC0000FD14FF00A0E91F8008055
S31500002560144AA44682F8088049783027C3F85821CF
S315000025705172C3F860E104E081600261E7001FFA6E
S3150000258084FCDFF834E06A1C31785EF822203C1BBC
S3150000259003EBC40383F82010A3F81EC05A60BDE8FD
S315000025A0F04100F04DBC0020704700BFB41501009B
S315000025B0240A0020DC0100207C010020092900D922
S315000025C07047FEF763BD00BF092901D90020704797
S315000025D008B5FEF7E3FF00F0030008BD09290FD890
S315000025E010B541B10446FEF719FF2046FEF78AFFF3
S315000025F0C0F30A0010BDFEF7CDFEC0F30A0010BD01
S3150000260000207047092901D90020704710B50446FB
S31500002610FEF704FF2046FEF719FF00F0100010BD7C
S31500002620092901D90020704710B50446FEF7F6FEC9
S315000026302046FEF70BFF00F4404010BD092900D9E3
S31500002640704738B50C460546FEF7F8FF2146284682
S31500002650BDE83840FFF714B8092900D970470122B0
S31500002660FFF766B8092900D9704738B50C46054604
S31500002670FEF7A4F921462846BDE838400222FFF7B6
S3150000268083B800BF08B5FEF793FA00F007000138DB
S3150000269080B2032896BF024B002033F8100008BD15
S315000026A0C0150100F0B40D460B4F3E7806EBC6048C
S315000026B0BB1907EB840498700C340FCD0FC40FCDF3
S315000026C00FC401362B68F6B2092E23608ABF002399
S315000026D03E703B70F0BC70475C0C002000F06EB999
S315000026E038B5054690F82000FEF7DEF928460121A8
S315000026F0FEF714FA0520FFF789FA00242846FEF7AC
S315000027003DFA820709D10B20FFF780FA2846FEF72B
S3150000271035FA0B348307A4B20DD001340120A4B2DC
S31500002720FFF774FAB4F5167FE8D328460121FEF7C1
S315000027300DFA002038BD28460121FEF707FA0120D0
S3150000274038BD00BF38B504460621FEF7E7F92A2052
S31500002750FFF75CFA2046FFF7B3F805460621204648
S31500002760FEF7F4F91620FFF751FAC5F3002038BD3D
S3150000277038B504461821FEF7D1F92A20FFF746FAA4
S315000027802046FFF79DF8054618212046FEF7DEF99C
S31500002790C5F3402038BD00BF10B504468AB0FFF728
S315000027A09FFF2046FFF7CEFF18B90B4B18800AB0E3
S315000027B010BD2046FFF7DCFF002814BF02220122CD
S315000027C094F82040044B0B2001A98DF804401A8090
S315000027D0FFF768FF0AB010BD2007002070B5144649
S315000027E0002201261C4D1D4B28601D4D19602046F8
S315000027F0114620232E80FEF717F920460021FEF70A
S31500002800D1FB20460021FEF715FD00212246084691
S3150000281000F04CFDB042054605D020F00206B6B2E7
S315000028205EB1284670BD20460021FFF7C7FE204650
S315000028300021FFF711FF284670BD31462046FEF7FE
S315000028405DFC31462046FFF7B9FE20463146FFF7CC
S3150000285003FF284670BD00BFF8060020E0050020F3
S3150000286028070020F8B50023144601260E4A0F4F0C
S315000028700F4D106039601A46194620462E80FEF725
S31500002880D3F820460021FEF78DFB20460021FEF7F7
S31500002890C5FB20460021FFF791FE2046BDE8F84023
S315000028A00021FFF7D9BE00BFF8060020E005002092
S315000028B02807002038B50C4600210546184A194B52
S315000028C0204611801980FEF749FC00212046FEF7BC
S315000028D0C1FB00212046FEF7F5FB94F820300021CD
S315000028E0012B0CBF4FF400624FF480622046FEF7C6
S315000028F09FFA25F00203052B07D0082D0AD094F87D
S315000029002000BDE83840FFF7EDBC2046BDE8384062
S31500002910FFF758BB2046BDE838400021FEF74EB809
S3150000292028070020C8090020704700BF704700BF75
S31500002930012210B5064B8AB090F8204001A9032069
S315000029408DF804401A80FFF7ADFE0AB010BD00BF37
S31500002950A809002000B58BB090F8203001A904200A
S315000029608DF80430FFF79EFE0BB05DF804FB00BF48
S3150000297000B58BB090F8203001A905208DF8043001
S31500002980FFF790FE0BB05DF804FB00BF704700BF79
S31500002990094B1A88012A00D07047002210B58AB068
S315000029A090F8204001A906208DF804401A80FFF710
S315000029B079FE0AB010BD00BFA8090020F0B5764C1C
S315000029C091B094F8513094F850209A4201D111B048
S315000029D0F0BD04EBC301486834F833208078013A2F
S315000029E049888DF82800142A2FD8DFE802F0726C87
S315000029F0662E2E2E2E2E2E2E2E2E2E2E2E2E584974
S31500002A002E3C0B0011F0070575D1644B1B88012B7A
S31500002A1000F0AC80624B1B8813F0600F03F060027D
S31500002A2000F0A8805F486049604A614E07880988BF
S31500002A3060481288F66A478003808180C28016B19A
S31500002A40294602AAB04794F851305B4A0133DBB2FB
S31500002A50A2FB0312D20802EB8202A3EB420384F824
S31500002A60513011B0F0BD01F07002402A3DD036D889
S31500002A70102AEAD102A800F043FF94F85130E4E7A7
S31500002A804B4B5B6A002B6CD0002202A811460190CA
S31500002A9098470198FFF784FA94F85130D5E7FEF786
S31500002AA003F89DF8280000F0D3FF402802A853D071
S31500002AB000F054FF94F85130C7E702A800F006FB77
S31500002AC094F85130C1E702A800F006FB94F85130A3
S31500002AD0BBE702A800F0CAFA94F85130B5E7602ABD
S31500002AE003D001F050015029AFD102A800F07AFFBF
S31500002AF094F85130A9E701F00501012933D0052DDD
S31500002B0031D0274B1B8813F0600F8BD1691E042927
S31500002B103AD8DFE801F0150F09031B0002A801F0FF
S31500002B20B1FB94F8513090E702A801F0BBF994F894
S31500002B3051308AE702A801F04BFB94F8513084E744
S31500002B4002A801F067F894F851307EE702A801F078
S31500002B50ABF994F8513078E700F0F2FE94F8513072
S31500002B6073E702A896E7FFF7C7F9CAE702A8FFF7D7
S31500002B70F5F94FE7114B124902A81A800A8001F0B5
S31500002B8009F894F8513060E7072002A9FFF792FE92
S31500002B9094F8513059E700BFD009002018030020EF
S31500002BA0C609002026070020C409002024070020AB
S31500002BB0740900202C070020CDCCCCCCC8090020FD
S31500002BC02807002038B50F4BC58B044643F825006F
S31500002BD0FFF7B6F9012806D0284622460721FFF757
S31500002BE0B1FA002038BD20462946FFF70BFD20B973
S31500002BF0284600F0E7FB002038BD284600F028FBF9
S31500002C00002038BDB8050020002210B40748084C43
S31500002C10084B11462280028003F5FF7223F8021F3B
S31500002C209342FBD15DF8044B704700BF16030020AA
S31500002C3014030020720700200021054A054B10806E
S31500002C4003F5FF7223F8021F9342FBD1704700BFC2
S31500002C501403002072070020FF22044B03F1200119
S31500002C6023F8022F8B421A84FAD1704732070020CC
S31500002C70014B9B68187970477409002030B4104BDB
S31500002C809B689C78DA78197844EA0224A1420B44BE
S31500002C9011D200258AB25978042903D19978814244
S31500002CA008BFDD7819780A4492B2A2420B44F2D3E7
S31500002CB0284630BC70470025284630BC704700BF08
S31500002CC0740900202DE9F043224B9B68DA789D7841
S31500002CD01C7805EB0225ADB2AC42234431D24FF04D
S31500002CE0000CDFF874E0E0466646A2B219E0052C57
S31500002CF011D166450FD29F7893F9029008EB06042E
S31500002D0007F00F074FEAD97907EB0917E4B2013646
S31500002D102EF81740B6B21F783A4492B2AA423B4404
S31500002D200FD25C78042CE2D19C7884420BD01C79BB
S31500002D3044441FFA84F81C782244D2B2AA4223449F
S31500002D40EFD3BDE8F083DC788C42F0D193F804C071
S31500002D50F1E700BF7409002034070020044B1888EF
S31500002D6020B1044B9B68D879C0F34010704700BF70
S31500002D701403002074090020024B9B68D879C0F325
S31500002D808010704774090020092800D9704738B5AB
S31500002D900446154600F056FB032819D8DFE800F074
S31500002DA0110A020338BD2A462046BDE838400521EF
S31500002DB0FFF7C8B92A462046BDE83840042100F08E
S31500002DC0BBBB2A462046BDE83840032100F0B4BB11
S31500002DD02A462046BDE838400721FFF7B3B900BFB1
S31500002DE0092800D9704770B504460E4615460146B7
S31500002DF01046FEF72FF92A463146204600F056FACD
S31500002E00012809D821462846FEF778F921462846A2
S31500002E10BDE87040FFF7D2BB022809D121462846FB
S31500002E20FEF7FCF821462846BDE87040FFF7C6BB12
S31500002E302A462046BDE870400721FFF783B900BF48
S31500002E40C18BC1B10D4B10B553F82130044623B1E7
S31500002E50FFF7E6FBB0F5404F0BD12046FFF770F8C1
S31500002E60012801D0FF2010BD2046BDE81040FFF725
S31500002E70A9BED52010BDFF20704700BFB8050020B1
S31500002E800F4B70B4D0E90212D0E90054DA60C2697F
S31500002E901D605C600569446999608169DA6190F832
S31500002EA03020066A1D615C61456A846A9961C16A5F
S31500002EB083F83020C3E90865C3E90A4170BC70474E
S31500002EC0740900200021084B084A0948C3E900118B
S31500002ED0C3E90211C3E90522C3E90722C3E90922AE
S31500002EE01961D862704700BF7409002029290000C3
S31500002EF02D29000070B54B688EB01868D9685A68DD
S31500002F00CDE90101D2B19C6819691E7D0D4B0E48B1
S31500002F10039204940D4A059106930D490D4B0E4DEF
S31500002F200E4C079001A8CDE90854CDE90A128DF898
S31500002F3034600C93FFF7A4FF0EB070BD9A68144678
S31500002F40E2E700BFC52F0000312900008D290000EF
S31500002F5071290000654400009129000055290000F0
S31500002F602DE9F84F0478944226D2074690469B46B0
S31500002F704FF0000A4FF0FF0906E0052E12D02D781B
S31500002F802C44A4B2A0450AD93D196E78042EF4D17A
S31500002F9095F805A02D782C44A4B2A045F4D848464F
S31500002FA0BDE8F88F52465946284600F097FB0028A0
S31500002FB018BF4FF00009E2E74FF0FF094846BDE8A9
S31500002FC0F88F00BFF0B5274B05461A880E46012A32
S31500002FD08DB035D003AFC02E234B24D09C68002C77
S31500002FE03CD002226270DB681BB107225A7004B91A
S31500002FF0FEE7E378A27895F8200002EB032292B26E
S31500003000019200F0EBFB2B463146019A2046FFF772
S31500003010A7FF95F82030394601208DF80C30FFF7D0
S3150000302041FB0DB0F0BDD3E90224AAB107215170CE
S31500003030DB68002BDBD002225A70002CD8D0D8E7F0
S31500003040002190F8202003AF1980062039468DF81C
S315000030500C20FFF727FBBEE72346EAE7DB68002BD9
S31500003060C3D1C5E7A809002074090020CB0719D5EC
S315000030700021024610B50446084600F0E3F903288D
S3150000308019D007D802280FD12046BDE810400021EC
S31500003090FFF7E2BAFF280DD12146BDE81040072010
S315000030A0FFF708BC00F04EBA2046BDE810400021EC
S315000030B0FDF7D0BF10BD20460021FDF773FF214666
S315000030C0BDE810400520FFF7F5BB00BFCB0700D5D4
S315000030D0704700F067BA00BFCB0717D5002102463C
S315000030E010B50446084600F0E1F8022811D005D8CC
S315000030F02046BDE810400021FEF730B8FF2807D172
S315000031002146BDE810400720FFF7D4BB00F076BA91
S3150000311010BD2046BDE810400021FFF79DBA00BF54
S3150000312038B5EFF30383124A103B5BB252F82350D3
S31500003130104CA878FFF756F894F8500004EBC0033B
S31500003140C0005D60811CAA7818462144FEF7C2FDC6
S3150000315094F85030084A0133DBB2A2FB0312D208BE
S3150000316002EB8202A3EB420384F8503038BD00BF65
S31500003170D40D0020D0090020CDCCCCCC2DE9F041D7
S315000031800446154610460F462146FDF717FC214614
S315000031902846FDF75FFF21462846FDF793FFDFF837
S315000031A04C8021462846FDF7D9FF21462846FDF7E3
S315000031B055FC58F82460A6B10B4B284653F824302A
S315000031C021463361B784FEF7E9F9002258F8243026
S315000031D01146F0845D681846DC83A847002348F84A
S315000031E02430BDE8F08100BFF8060020B8050020B5
S315000031F030B4054691F82020EC08104B02EB820211
S3150000320002EB820204F0100405F00F05012003EB27
S3150000321082032C4304E088B20A2803F10A030AD089
S315000032205A89411C012AF6D19A8902F01F0294425A
S31500003230F1D130BC7047FF2030BC70470806002033
S315000032400020704708B5FDF715FCC0F3C01008BD97
S31500003250092800D9704770B50446114B014653F84A
S31500003260205028462E69FDF7A9FB0E49AA680E4B89
S31500003270284641F82460214643F82420FDF7DAFF6A
S3150000328021462846FDF796FF20462A460021FFF7ED
S31500003290A7FD21462846BDE87040FFF7DDB900BF0F
S315000032A0B8050020F8060020E00500202DE9F04FC3
S315000032B0092883B058D8154650EA010204460E463E
S315000032C066D00A46002301462846FDF78DFBFF28F7
S315000032D04AD021462846FDF72FFA0746DFF8DC904C
S315000032E021462846FFF77AF959F82430BB46BB42F7
S315000032F02AD94FF0020821462846FFF765F903460A
S31500003300DFF8BCA0214628460193FDF757FB2B4664
S31500003310314638465AF82420FEF758FE59F824302C
S315000033204AF824009B4525D8DF1B49F8247021461E
S315000033302846FDF77FFF019B03F00303012B31D0E5
S31500003340404603B0BDE8F08F43B39FB2B7FBF0F839
S3150000335000FB18701FFA80F8B8F1000F2AD1002C74
S3150000336008BF4FF00208C6E74FF0FF08404603B01B
S31500003370BDE8F08F00233146284649F82430FDF792
S315000033809DFD0304D3D431462846FDF7D1FDCEE793
S31500003390202311462846FDF727FB98E71F464FF0E6
S315000033A00108A8E728462146FFF756F9404603B02C
S315000033B0BDE8F08F4FF001089DE700BFF80600203A
S315000033C0E0050020092800D97047F8B51A4B0446D5
S315000033D053F82050014628462E69FDF7EFFA0023E0
S315000033E0AF68164A1649284642F8246041F8247008
S315000033F01A462146FDF718FB21462846FFF7EEF848
S315000034004EB1B6FBF0F200FB126090B92146284699
S3150000341092B2FDF70FFB21462846FFF71DF921461C
S315000034202846FDF7FBFD21462846BDE8F840FFF794
S31500003430C5B80132EAE700BFB8050020F80600204B
S31500003440E005002009282DE9F84F36D8164604462F
S315000034500A468946002301463046FDF7C5FAFF288D
S3150000346005462AD0324F21463046FFF7B7F857F8BF
S315000034702430C5F30B05AB42AA462ED33DD00DB37F
S31500003480B5FBF0F300FB135080B2002848D14FF093
S315000034900208DFF8A0B03346494628465BF82420E8
S315000034A0FEF7FCFD4BF8240057F824304046A3EB0A
S315000034B00A0347F82430BDE8F88F4FF0FF0840466E
S315000034C0BDE8F88F21463046FDF778FA4FF001083F
S315000034D049463046FDF766FDE6E721463046FDF7EC
S315000034E06DFA57F824304FF003089AB2924647F81F
S315000034F02450002DECD01546CBE74CB9B5FBF0F3C4
S3150000350000FB135080B218B92A464FF00208F0E7C4
S3150000351021463046FDF752FA4FF000082A46E8E702
S3150000352021463046FDF74AFA4FF00108B1E700BFE1
S31500003530F8060020E0050020092800D97047FFF7AB
S315000035401DBE00BF2DE9F843012480460E462746DE
S31500003550DFF84C9002E001340A2C1BD007FA04F382
S315000035601E42A5B2F7D029464046FDF763FE59F83C
S315000035702430002BEFD029464046FFF743F81028A9
S31500003580424628464FF0000106D00134FFF7FCFB07
S315000035900A2CE3D1BDE8F883FFF722FCDBE700BF86
S315000035A0B80500202DE9F843012480460D4627463C
S315000035B0DFF8449007FA04F31D42A6B209D059F881
S315000035C0243033B131464046FFF72AF8B0F5404F74
S315000035D004D001340A2CEDD1BDE8F8834046FDF74E
S315000035E049FE10F4004F4246304614BF052107211C
S315000035F0FEF7A8FDEDE700BFB80500202DE9F0476E
S31500003600012406460D462746DFF8C890DFF8C88035
S3150000361007FA04F31D421FFA84FA25D059F824301C
S3150000362013B396F8203003EB830304EB430338F817
S315000036301330012B18D051463046FEF7C5FF8207DE
S3150000364036D451463046FDF7A9FF430439D496F8DF
S315000036502030504603EB830304EB4303324601213B
S3150000366028F81370FFF78AFD0134062CD0D14FF0ED
S315000036700108DFF8609008FA04F31D42A7B20ED0E5
S3150000368059F824305BB139463046FEF79DFF10F0FD
S31500003690020F3246384607D00621FEF753FD0134A5
S315000036A00A2CE8D1BDE8F0870121FFF767FDF6E7B0
S315000036B05046324606210134FEF744FD062CA7D1BA
S315000036C0D5E7514630460134FDF718FD062C9FD14B
S315000036D0CDE700BFB8050020D00600204378052BB3
S315000036E00CD12DE9F043C37803F00303022B1DD060
S315000036F0032B06D000231846BDE8F08300231846A6
S31500003700704790F902308478002BF3DA022AF1D15F
S31500003710642391F820602F4D03FB06539B8F002BEB
S31500003720E8D10627DFF8B0803B4612E090F9025058
S315000037308478002D3ADB0A2ADCD1642291F82060D5
S31500003740244D02FB0652928A002AD3D11F464FF41B
S31500003750854864224FF0010C4FF0000E02FB06F183
S3150000376090F8059007EB8702007901EB420204F01E
S315000037700F04A91848EA040840EA0920664525F816
S3150000378002C0A1F80280C880A1F808E04FEA8702CB
S31500003790B1D1012B1AD0022B47F6484118BF0021A0
S315000037A0174405EB4705A5F86810A4E70A2AA1D136
S315000037B0642391F82060074D03FB06535B89002BB9
S315000037C098D1012744F210283B46C2E747F6084144
S315000037D0E6E700BF080600201080FFFF30B46FF058
S315000037E06305002105FB00F50D4B00EB800404EB9F
S315000037F0840203F15A0404EB820403EB820372355C
S315000038005A89012A06D101285981998108BF59533D
S31500003810198259820A33A342F2D130BC704700BFE5
S31500003820080600202DE9F041012405466427244EB0
S3150000383002E001340A2C2BD095F8202004EB8403F7
S3150000384007FB02F202EB4303F35A012BF1D10021ED
S315000038502846FDF779FA1FFA84F800F00F00804534
S3150000386018D001212846FDF76FFA00F00F008045B9
S315000038701ED002212846FDF767FA00F00F008045AA
S315000038800FD0414628460134FCF77CFF0A2CD3D1E1
S31500003890BDE8F081002328461A461946FDF7C4F80C
S315000038A0DFE70023022219462846FDF7BDF8E8E7C0
S315000038B00023012219462846FDF7B6F8D9E700BFCE
S315000038C008060020F8B50124054664270B4E02E0E1
S315000038D001340A2C11D095F8202004EB840307FB51
S315000038E002F202EB4303F35A012BF1D1A1B22846AF
S315000038F00134FDF701F80A2CEDD1F8BD08060020C9
S3150000390038B504460C4D00F0C3F8FFF77DF92046A4
S31500003910FEF7B8FE6B6923B1084A014612882046B5
S31500003920984720460021FDF71DFD2B682046D979D2
S31500003930BDE83840FDF74ABD740900202007002085
S3150000394010B504460A20FEF761F92046FEF724FF6B
S3150000395094F82000BDE81040FEF75CBC2DE9F0416C
S315000039600546FDF7ADF895F82000FEF767FC002345
S315000039701849194A01246427184E0B80138001E068
S315000039800A2C19D095F8203004EB840207FB03F3C8
S3150000399003EB4203F35A1FFA84F8012B04F10104E6
S315000039A0EED12A4608214046FEF7CCFB4146284682
S315000039B0FCF7A2FF0A2CE5D1094BDB691BB10022FB
S315000039C028461146984795F82000BDE8F041FEF7D5
S315000039D019BC00BF140300201603002008060020AF
S315000039E07409002070B5044690F82000FEF736FCF6
S315000039F094F82000FDF7CEFB05462046FDF7BEF8FD
S31500003A006B0603D500F00300012809D094F82000C6
S31500003A10FEF748FC94F82000BDE87040FEF732BC83
S31500003A2094F82000FEF7EEFB00F034F8054B1B6A15
S31500003A3033B1054A2046BDE8704011880022184778
S31500003A4070BD00BF7409002016030020FEF7BABA45
S31500003A5070B506463046FDF79DFB05460A20FEF783
S31500003A60D1F83046FDF796FB04460A20FEF7CAF861
S31500003A703046FDF78FFB85EA040344401C432306CA
S31500003A80E8D415F0800F14BF4020432070BD00BF5E
S31500003A90704700BF704700BFF8B500220546294BA6
S31500003AA00E4603F1200123F8022F8B421A84FAD125
S31500003AB00024254B03F5FF7223F8024F9342FBD1F6
S31500003AC0224B23481C80234A2349244B048014801C
S31500003AD00C801C802248234B234A2449244F04800F
S31500003AE014800C80342200211C605C6021483C60FC
S31500003AF00BF0E9FE0021204B204A03F1280043F891
S31500003B00041B834242F8041BF9D10E211C4B03F11E
S31500003B100A0203F8011F9342FBD10022194B1A49EE
S31500003B2003F1140023F8022B834241F8042BF9D148
S31500003B30164C174B3146284622801A80BDE8F840BD
S31500003B40FFF7D8B93207002072070020CA09002003
S31500003B50C609002026070020C409002024070020EB
S31500003B60280700202C070020C8090020A8090020EB
S31500003B70C009002074090020E0050020F806002096
S31500003B805D0C0020AC090020B805002014030020BD
S31500003B90160300202DE9F0410025174B17491B8815
S31500003BA00D8003F47F43B3F5106F0ED0B3F5306F7D
S31500003BB019D1134B9B6AB3B1124A134914882A468A
S31500003BC031F81410BDE8F0411847104E104F044666
S31500003BD03088B7F80080FFF72FF83388434502D0C6
S31500003BE0074B9B690BB9BDE8F0812A462046398808
S31500003BF0BDE8F041184700BFC6090020C8090020EB
S31500003C0074090020C409002074070020260700203C
S31500003C1014030020974B70B51988024601F47F43C0
S31500003C20B3F5006F82B030D017D8002B5AD0B3F559
S31500003C30C06F3AD111F01F033DD18F4B19880B0A83
S31500003C40013BCCB2062B30D8DFE813F0A800C30046
S31500003C50B4002F002F0095007600B3F5206F24D115
S31500003C6001F01F01012920D1834B1B88EBB9834B3F
S31500003C701888012819D1824B1B88FE2B15D8814C38
S31500003C80814934F813300B7051E07D487A4B048833
S31500003C901B8801F01F0043EA0401014389B221B9E0
S31500003CA0764B1888012800F0A580104602B0BDE8C2
S31500003CB07040FEF787B9012BF7D16F48704D6F4CF6
S31500003CC0724B06882D8872482488DB6A46800180FC
S31500003CD08580C480002B00F09280002102B0BDE8F0
S31500003CE070401847644B1B88002BDED1634C248838
S31500003CF0022CDAD1674C01F01F010129238000F064
S31500003D00908002297DD00029CFD15D4B1B88002BE6
S31500003D10CBD10190FFF730F85F4B20701B88019ADA
S31500003D20012B04BF40F0020020700220594902B066
S31500003D30BDE87040FEF752BD0190FFF783FA0128F7
S31500003D40019AB2D14E4B1B882343AED11046FEF7E3
S31500003D5099FC4E4B494CD3E90213C02818BF1946AB
S31500003D602488C8788B78019A03EB002398B2A04286
S31500003D70DDD92046DBE70190FFF764FA0128019AB6
S31500003D8093D13F4B1B8823438FD140493B4B496816
S31500003D9018880B788342CAD81846C8E7384B1B8860
S31500003DA0234382D13949354B096818880B788342F9
S31500003DB0F2D9BCE7354B93F83010A1427FF675AFC8
S31500003DC019692E4B51F8241018880B788342E3D9D1
S31500003DD0ADE72B4B1B8823437FF467AF0190FEF7BB
S31500003DE051FC264C294B2488D3E90213C02808BF6E
S31500003DF01946B6E7294B2A491B880B7097E702B08C
S31500003E0070BD1F4D2B881B071BD190F82000019217
S31500003E10FDF7F4FA10F0020F019A86D00123237001
S31500003E2083E70190FEF78CF80128019A7FF43DAFF5
S31500003E30FEF71EFF124B019A1B888342FFF475AFF3
S31500003E4033E70190FEF77CF80128019A7FF42DAF45
S31500003E5011462888FFF7CCF9FF280146019A3FF45E
S31500003E6024AF1046FEF7B0FB10F0020F019AD5D131
S31500003E705BE700BFC60900202607002024070020B4
S31500003E80C4090020740700202403002074090020C0
S31500003E902C0700201C03002016030020140300201A
S31500003EA020030020FEF78EB82DE9F041BB4D0446F5
S31500003EB02A888CB002F47F43B3F5A06F00F08180AE
S31500003EC01ED9B3F5106F00F08C80B3F5306F09D1B1
S31500003ED0FEF736F8012805D12B8803F01F03012BC6
S31500003EE000F0B7802046FEF76DF8AD4E3388012B03
S31500003EF02BD021460020FEF7DDFC0CB0BDE8F0819A
S31500003F00B3F5807F41D0B3F5407FEBD1A54B1B883D
S31500003F10002BE7D112F01F0200F0DA80022AE1D16D
S31500003F20A14B1B88002BDDD1A04B1888020707D0B8
S31500003F302146FFF75DF9FF28D4D02146FEF73CF86D
S31500003F4000212046FEF788FBCFE700278C22964902
S31500003F50964B088893491B8809882D88ADF81C3034
S31500003F6094F82030ADF81A00ADF81E10082003A909
S31500003F70ADF818500597ADF810708DF80F208DF834
S31500003F800C30FEF78FFB3780B3E7864B1B88002B80
S31500003F90A8D112F01F0200F08580022AA2D1824B1E
S31500003FA01B88002B9ED1814B1B8813F00F0140F01C
S31500003FB098800191FEF756FB20460199FEF74CFBCF
S31500003FC093E77A4B77491B88098802F01F020B4357
S31500003FD01A4392B2002A85D1734B1B887F2BAFD927
S31500003FE080E7D3067FF47EAF714B6F4F9A683B88AC
S31500003FF052799A4202D0002B7FF474AF6B4A694B18
S31500004000168819880E43B6B2002E7FF46BAF314680
S315000040102046FEF721FB3B88002B3FF466AF654A3E
S3150000402012889A423FF461AFFEF716FEFEF720FEB5
S31500004030074638B1304600210136FEF743FEB0B2DE
S315000040408742F8D82046FFF73DFC2046FFF7EAFBFB
S315000040504BE7FEF70DFE554E33889842FFF442AF0C
S31500004060504A1788002F7FF43DAF1846FEF706FE2C
S315000040704D4B1B889842FFF435AF3288DFF84C81F0
S31500004080DBB23946204628F81230FEF7E5FAFEF78D
S31500004090E3FD308838F81010FEF714FE2046FFF7CF
S315000040A0C1FB22E7404B1B88012B7FF41BAF3F4B24
S315000040B01E88002E7FF416AFFEF750FE01287FF40F
S315000040C011AF3D4B314620461E80FEF7C5FA0CE780
S315000040D0354B1B88012B43D0022B2BD0FFF7B6FCA8
S315000040E003E718462146FFF783F8FF2806463FF404
S315000040F0F9AE01462046FEF767FA0128314620460A
S3150000410040D0FEF7AFFA31462046FDF7D7FA002138
S315000041102046FEF7A1FA294B33F81620012A7FF430
S31500004120E4AE0022264823F81620114603682046EE
S315000041309847DAE6FEF7A6FAC0287FF4D3AE1B4B03
S315000041401B88A3F5804211047FF5CCAE01201D49E2
S315000041501D4A0880002120461380FEF77DFAC4E63A
S31500004160124B1E88002E7FF4BDAEFEF7F7FD012828
S3150000417003467FF4B7AE104A314620461380FEF759
S315000041806BFAB2E6FCF71AFC31462046FDF796FAC2
S3150000419031462046FEF760FAB9E700BFC60900209F
S315000041A0C80900202407002026070020C409002093
S315000041B0740900201403002016030020AC09002017
S315000041C0C009002018030020CA0900207407002037
S315000041D0F0B5274E044633888BB003F47F43B3F51E
S315000041E0006F06D013D9B3F5206F02D0B3F5406F38
S315000041F012D1204D00212046FEF72EFA2B88012BE6
S3150000420011D021460020FEF755FB0BB0F0BD002B68
S31500004210EFD0B3F5C06FECD0164D2046FDF7D2FEB9
S315000042202B88012BEDD100278C221349134B0888CC
S3150000423013491B8809883688ADF8143094F8203065
S31500004240ADF81200ADF81610082001A98DF8072068
S315000042508DF80430ADF810600397ADF80870FEF7DE
S3150000426021FA214600202F80FEF724FB0BB0F0BD7B
S31500004270C6090020C809002026070020C40900201E
S3150000428024070020F0B5204E044633888BB003F493
S315000042907F43B3F5E06F0BD01C4DFDF793FE2B88E3
S315000042A0012B0CD021460020FEF704FB0BB0F0BD1D
S315000042B0164D0021FEF7D0F92B88012BF2D10027ED
S315000042C08C221349134B088813491B8809883688A2
S315000042D0ADF8143094F82030ADF81200ADF8161091
S315000042E0082001A98DF807208DF80430ADF810607C
S315000042F00397ADF80870FEF7D5F9214600202F8008
S31500004300FEF7D8FA0BB0F0BDC6090020C809002098
S3150000431026070020C409002024070020034630B5E4
S315000043200D4600228C248BB05968006895F8205001
S3150000433004AB03C3072001A98DF804500392ADF81E
S3150000434008208DF80740FEF7ADF90BB030BD00BF71
S31500004350034630B50D4600228C248BB059680068A0
S3150000436095F8205004AB03C3072001A98DF804502B
S315000043708DF807400392ADF80820FEF793F90BB0CD
S3150000438030BD00BF034630B50C4600258C228BB0ED
S315000043905968006804AB03C394F8203001A90720CC
S315000043A08DF804308DF807200395ADF80850FEF718
S315000043B079F921462846FEF77DFA0BB030BD00BFDD
S315000043C0034630B50C468BB05968006804AB03C38E
S315000043D020460021FEF740F900258C2394F8202082
S315000043E001A908208DF804208DF807300395ADF853
S315000043F00850FEF757F9044B214628461D80FEF764
S3150000440059FA0BB030BD00BFC8090020034630B5CD
S315000044100C468BB05968006804AB03C320460021E4
S31500004420FEF71AF900258C220C4994F82000BDF8F5
S31500004430163009688DF804005B1A082001A9039359
S315000044408DF80720ADF80850FEF72CF9044B2146ED
S3150000445028461D80FEF72EFA0BB030BDF806002068
S31500004460C809002030B404880B4604F06004202CF0
S315000044700546114601D0402C06D1052B1ED8DFE893
S3150000448003F016060A060E1230BCFFF761BF284677
S3150000449030BCFFF743BF284630BCFFF791BF284624
S315000044A030BCFFF7B3BF284630BCFFF76BBF002315
S315000044B030BC0449044A0B8013807047072030BC87
S315000044C0FEF7F8B928070020C80900200A4600F1BF
S315000044D00C0303CB1060516000207047F8B50E2323
S315000044E0104E0B700F460546FEF7F8F874783378D1
S315000044F0A34215D004EBC40406EB84040C340FCCA1
S315000045000FC50FCC0FC57378226833449B782A6099
S315000045103B7073780133DBB2092B88BF00237370BD
S315000045200020F8BD5C0C0020F0B58A780C461346D6
S315000045300270CA783A4E02F07F02F15CC270226ABB
S3150000454001298FB0826155D022780546012A03D011
S315000045500221344A22F8131031787278114342D07E
S3150000456000210120304A314F22F81310F0544FF445
S315000045700C722F4827F813100BF0A5F92378012B9E
S3150000458003D1002630460FB0F0BD2878FDF7CAF9F2
S3150000459006460028F6D121462846FFF77DFA214631
S315000045A02878FDF7ABFA2878FDF7B4FE6378022B7E
S315000045B025D02878FFF74CFA402827D02378012BFE
S315000045C0DFD030462A7837F812309BB243F0010329
S315000045D027F8123037F812309BB243F0020327F85F
S315000045E012300FB0F0BD4FF4BA7212480BF06BF9EF
S315000045F02B78B5E740F2DD5630460FB0F0BD2B788C
S3150000460068468DF82030FCF773FAD2E72878FCF775
S315000046104BFA0A20FDF7FAFA2878FDF7FBFDCDE7FD
S315000046202C03002028030020580C0020540C0020E6
S31500004630240A00205C0C002070B505460078FDF7C2
S3150000464099F9C0B92B780E4E0E4936F81320044658
S3150000465092B2012AC85407D100220B49204621F8FC
S31500004660132026F8132070BDFEF72CFC2878FFF7E0
S31500004670B5F82B78F0E74FF4BC64204670BD00BF58
S31500004680280300202C030020540C002070B505469A
S315000046900C4606202B782D492D4A31F81360A07060
S315000046A032F813208EB092B2002A3ED031F8132091
S315000046B08DF8203093B2012B02D100200EB070BDD0
S315000046C0002668462670FDF7DDFF802831D0C02819
S315000046D00ABF0223667063702878FCF75BFD00F062
S315000046E07003202B2BD011D9302B25D02F2B05D89A
S315000046F00020184B1B88E3700EB070BD602B02D0F3
S315000047000AD9702BF4D10423A370F1E7D3B1102B8F
S31500004710EED10123A370EBE700F060004028F2D051
S315000047200C4B00201B88E370E6E740F2DC500EB02D
S3150000473070BD01236370CFE70323A370D8E702237C
S31500004740A370D5E70623A370D2E700BF2803002095
S31500004750540C00202007002070B504460678124845
S3150000476082B030F816000D4680B2022804BF03F06E
S315000047707F03E37016462046627801A9FFF786FF9D
S315000047809DF80630032B03D040F2DC5002B070BD1A
S31500004790324629462046FDF7A9FE0028F6D0D52840
S315000047A0F2D140F2DD50F1E72803002070B504464F
S315000047B00678124882B030F816000D4680B20228FC
S315000047C004BF03F07F03E37016462046627801A912
S315000047D0FFF75CFF9DF80630032B03D040F2DC5058
S315000047E002B070BD324629462046FDF7A3FE0028DA
S315000047F0F6D0D528F2D140F2DD50F1E728030020AB
S31500004800F0B583B00E46174601A942780546FFF774
S315000048103DFF18B99DF80630032B04D040F2DC5456
S31500004820204603B0F0BD04463A4631462846FDF719
S31500004830F1FDD52804D0FF28F0D0204603B0F0BD06
S3150000484040F2DD54ECE700BFF0B583B00E461746E4
S3150000485001A942780546FFF719FF18B99DF80630F9
S31500004860032B04D040F2DC54204603B0F0BD0446CE
S315000048703A4631462846FDF7F1FDD52804D0FF28F3
S31500004880F0D0204603B0F0BD40F2DD54ECE700BFA7
S3150000489070B582B00E46427801A90546FFF7F6FECE
S315000048A018B99DF80630032B04D040F2DC5420469C
S315000048B002B070BD0446B1B22878A980FDF78CFD20
S315000048C0204602B070BD00BFF8B500284CD00024C9
S315000048D00B6840F202460433254640F2034740F295
S315000048E0044C03EBC0010FE0BA422FD153F8042C5D
S315000048F002F0B852B2F1807F14BF44F0020445F0D2
S31500004900020508338B4210D01A88B242ECD153F814
S31500004910042C083302F0B852B2F1807F14BF44F081
S31500004920010445F001058B42EED1E443E4B20120D7
S3150000493000F02AFB0E4A012092F8BB341D432C409E
S3150000494082F8BB44BDE8F84000F0EEBA6245D8D123
S3150000495053F8042C02F0B852B2F1807F0CBF45F038
S31500004960040544F00404CCE70546FF24DFE700BF56
S3150000497000E001400146F8B5044631F8040BFFF7A4
S31500004980A3FFEFF31082012383F31088DFF8B4C08E
S31500004990DCF800301BB940202849CB70C870DCF821
S315000049A000300133CCF8003082F3108827886FB3CB
S315000049B06368013FBFB203F10801214C01EBC70751
S315000049C008E0D2B21B0113448F4244F823000B4681
S315000049D01CD0083118689A8810F4803F4FEA1223D9
S315000049E0EFD0130AD2B202EB031554F825E01B01EF
S315000049F0134420F480366FF3104E8F4244F825E0BE
S31500004A0044F8256044F823000B46E2D1EFF3108208
S31500004A10012383F31088DCF8003023B1DCF8003082
S31500004A20013BCCF80030DCF800301BB9802003498C
S31500004A30CB70C87082F31088F8BD00BF000D084027
S31500004A4000080840D00D002008B50346034A084672
S31500004A501A60FFF78FFF002008BD00BF54524F5069
S31500004A60F0B40B7C416003F5800303F568631B0219
S31500004A708360EFF31085012383F310880A7C032AF1
S31500004A806CD8C2F10304A340DB433B4A14682340BD
S31500004A9013600C7C394A384B032C88BF13461B68BD
S31500004AA085F31088002382681372137AC3F34004D7
S31500004AB09B07FAD4CD699472EB782E782F7903F0A0
S31500004AC007030D7A002E42D1002D4ED100264C68E8
S31500004AD01773476896735372631E95729BB2C460D0
S31500004AE03D7C138091F91230254AB34242F82540A5
S31500004AF022DB01244A7C03F160451201214FD2B228
S31500004B0005F5614585F800231F4D47F823005A092E
S31500004B1003F1C00755F827C0920002F1604203F086
S31500004B201F0302F5614204FA03F366F3104C45F8DD
S31500004B3027C0C2F8803113600023D1E90541134A2A
S31500004B40C0E90443F0BC8161026018467047502EEC
S31500004B5006BF254643F050033343B7E7C2F11304BB
S31500004B60064AA340DB43146891E785F0020543EA51
S31500004B700513DBB23546A9E70C4008401040084053
S31500004B8030030020D40D002000600040544741004F
S31500004B908268117A01F00101137AC3F34003994246
S31500004BA0FAD1F12300201372704700BF8268107A91
S31500004BB000F00100137AC3F340039842FAD1137A46
S31500004BC00020C3F340030B7113889BB20B60704740
S31500004BD0F0B585B0EFF30383103B214A5BB203F1D6
S31500004BE0C00152F821001F4C6FF3104042F821001B
S31500004BF054F82350D5E901120878137A0128DBB25C
S31500004C000CD1F424E86803F0F003147213720E7CDE
S31500004C10154C411E89B244F8260011802F69B7B1A0
S31500004C206C69D4B194E8070001AE86E807009B06DC
S31500004C3044BF00232371AB6920462360B8476B69E4
S31500004C401BB196E8070083E80700AA68137ADBB26F
S31500004C5003F00F03137205B0F0BD01AE3446E6E76C
S31500004C6000600040D40D002030030020064B0749A9
S31500004C7093F826001A6A51F82030C2F302620449FA
S31500004C80D3400B60704700BF00E00140BC0200202B
S31500004C9094030020474BF0B401214AF203541A460C
S31500004CA04548A0F8FE43A3F80411B2F804319BB2BC
S31500004CB0002BFAD101214FF4004409263F4DA2F8FA
S31500004CC000113F48A9603C4A29603E4D92F82610E3
S31500004CD045603D4D3D4FC0E902453D4D0760C0E989
S31500004CE00445146A50F82110C4F30264E140394CBB
S31500004CF0216082F8133482F8A26092F8801419B108
S31500004D0082F8813482F880342B4B002543F202125C
S31500004D10194683F832501A8591F83C301D07FBD5A9
S31500004D200023254A81F82A3092F83C309906FBD5B3
S31500004D3005234FF0030C012542F2017700261D4999
S31500004D4081F81CC182F82630234B136292F8263074
S31500004D50116A50F82330C1F30261CB401649236033
S31500004D6082F8305082F85250A2F8487082F84A60B1
S31500004D7091F83C305B06FBD591F874300E4A43F04F
S31500004D80400381F8743092F87430DB09FBD00623B7
S31500004D904620094982F86C3082F8740082F8743033
S31500004DA091F87430DB09FBD1F0BC4FF42543A1F830
S31500004DB0FE33704700C0014000E001400070004033
S31500004DC0BC02002000127A0000366E01002D31016F
S31500004DD000C2EB0B940300202114012000BEFEE765
S31500004DE0A0F101000028FBD1704700BFF0B44FF4DA
S31500004DF07A7600234FF0FF3201FB00F1A1FB064556
S31500004E000F48AB4207680F4808BFA242B0FBF7F055
S31500004E1006D3B4FBF0F0800880B1F0BCFFF7E0BF2A
S31500004E208000B1FBF0F0A0FB06018B4208BF824276
S31500004E30F2D2F0BC4FF0FF30FFF7D2BFF0BC7047A4
S31500004E409403002000CA9A3B70B500240A4B0B4E0F
S31500004E50B3F84051ADB225FA04F3DB07E0B203D54F
S31500004E6056F8243003B198470134102CF3D1024B85
S31500004E70A3F8305170BD00BF006000404803002019
S31500004E80F0B5032085B000F07FF86FF0FF054FF016
S31500004E90FF311F4C0023224601271E4804F1C0069D
S31500004EA08564CDE90111039132F8020F590960B109
S31500004EB004A800EB810151F80C0C03F01F0507FA5A
S31500004EC005F520EA050041F80C0CB24203F1010396
S31500004ED0EAD1019A104B114911480A60C3F88022A1
S31500004EE0029A0260C3F88422039A03208A60C3F8F8
S31500004EF0882200F019F800230A4803F1C00234F8AA
S31500004F00021F0133602B40F82210F6D105B0F0BD28
S31500004F10F21401000080004000E100E070800040D3
S31500004F207480004000600040EFF31081012383F39A
S31500004F301088124B33F8102092B22AB133F81020A1
S31500004F40013A92B223F8102033F810309BB293B98D
S31500004F500B4A10B4B2F8FE330A4C9BB234F8100078
S31500004F6043F4254323EA0003A2F8FE3381F31088B5
S31500004F705DF8044B704781F3108870478803002062
S31500004F8000E00140C815010030B4EFF310810123A1
S31500004F9083F310880D4A32F810309BB263B90C4C7B
S31500004FA00C4DB4F8FE3335F810509BB22B4343F446
S31500004FB025439BB2A4F8FE3332F8103001339BB27E
S31500004FC022F8103081F3108830BC70478803002027
S31500004FD000E00140C81501000D4908B50A680346FE
S31500004FE04AB103330B4823F003031344834206D824
S31500004FF010460B6008BD084802460860F1E70AF053
S315000050006DFB0C234FF0FF320360104608BD00BF56
S3150000501090030020206A00209856002000BE7047AA
S3150000502008B500F003F8FBF705FBFEE74FF4700147
S31500005030234B244A70B50020C3F888109A60FBF70A
S3150000504089F9FFF727FE0120FBF784F91E4B83F34E
S315000050500A881E481E4A0021121A0AF034FC1D480E
S315000050601D4A1E49121A0AF007FC1D4D1D4B5B1BFB
S31500005070002B07DD00249E1055F8043B01349847A9
S31500005080A642F9DCFFF7F2FD0320FFF77DFF0023C0
S315000050904FF6FF70144903F108020133092B21F87A
S315000050A01200F8D10320FFF73FFF0220FBF752F969
S315000050B0FFF7E6FEBDE87040002000F017B800BF1D
S315000050C000ED00E000000000206A0020D802002069
S315000050D09856002000000020BC020020B02C0100E1
S315000050E0B4020020B8020020000D0840704700BF3F
S315000050F010B584B069460120FBF752F9DDE90002DC
S31500005100074B029CA0FB030103FB021100194FF0A1
S315000051100003044A41EBE4710AF09CF804B010BDA8
S3150000512000CA9A3B40420F0000B585B0694601208F
S31500005130FBF736F9DDE900200649A2FB012301FB56
S31500005140003302988446101843EBEC7105B05DF805
S3150000515004FB00BF00CA9A3B014B1868704700BFAA
S31500005160D01501002DE9F04F91B01A9F002F3AD0CB
S3150000517007F1500904464846884616461D4600F083
S315000051809DFD80B37CB3D4F800A0BAF1000F04D023
S315000051906425284611B0BDE8F08F404604F0F0FDC6
S315000051A030B306B3FDB1CE460DF12C0CBEE80F00B0
S315000051B0ACE80F00DEF80030CCF8003000F08EFED0
S315000051C0844610AB13E90700CDF820C08DE8070030
S315000051D00C9B51460B9A08A800F0FAFE50B10A281B
S315000051E013D00125D5E70B25284611B0BDE8F08F71
S315000051F0C825CEE708A804F08FF9824638B108A87A
S3150000520000F024FFBAF10A0FEBD10A25C1E74046A8
S31500005210CDF824A004F0BEFD8246404604F0C2FD4F
S31500005220EC468646B9E80F000DF1240BCDF814B014
S31500005230ACE80F00D9F800302846CCF800305146CB
S31500005240724608AB04F000F8054608A800F0FEFE1A
S3150000525020B95DB1672D02D0692D5FD0012509986F
S31500005260002896D07B6D396E984792E7404604F049
S31500005270A1FD0028F2D009980AF0D7FC3B6D396EE3
S315000052800130984709998146084607910AF0CDFCF6
S315000052900799421C48460AF0EFFA2A4648460AA9E8
S315000052A000F09AFF002837D10A9B002B38D1C02086
S315000052B03B6D396E98472060A0B3404604F082FDEE
S315000052C007F16403009331463B464A46256801F0E0
S315000052D08DF82168C5F8BC00D1F8BC0088B36831E8
S315000052E001F060F923680546F0B997F8482018469A
S315000052F083F8B020394668220AF0BEFAD8F80020B2
S31500005300C0F8B820099810B17B6D396E98474846A9
S315000053107B6D396E98473CE70125F3E767259EE7E5
S315000053206725EFE70A25EDE7002BF5D0D3F8BC306B
S315000053303BB1404604F046FD2368D3F8BC1001F0AB
S3150000534033F97B6D396E2068984700230125236069
S31500005350D8E700BFF0B587B06C460D4F0646502221
S315000053600C4938460AF088FA07F15005684600F0FD
S3150000537097FC0FCC0FC523682B6000F02BFF394636
S315000053807866682230460AF077FA304607B0F0BDF4
S3150000539098030020D8150100F8B1036870B50446DB
S315000053A0B3B11646D3F8BC2092B1D3F8B8000D4677
S315000053B003F0D0FE60B12368D3F8BC0040B155B10C
S315000053C03246294600F0B0FF003818BF012070BDF4
S315000053D04FF4967070BD0B2070BD4FF496707047F9
S315000053E0002840D010B50378044684B0042B45D875
S315000053F0DFE803F00E152B3203008B68426B53F87F
S31500005400220018B10123002084F8393004B010BD01
S315000054100B68426B53F822000028F3D1F6E70B69BC
S31500005420426B53F822000028F0D0002360680DF18B
S315000054300F018DF80F3005F0E3F9D0B99DF80F3064
S315000054409BB1012384F83930E0E78B69426B53F84E
S3150000545022000028D6D1D9E70B6A426B53F8220006
S315000054600028CFD1D2E70B20704700F019FD0120AC
S31500005470CCE7019000F014FD0198C7E70120C5E7CD
S31500005480002844D000B503788FB0042B46D8DFE857
S3150000549003F01410270310000B6A426B53F82230F6
S315000054A03BB1826800F11001406804F0CFFD00288E
S315000054B02FD100200FB05DF804FB0B68426B53F848
S315000054C02230002BF5D0D0E90101002302AA04F016
S315000054D00BFE0028EED040F291139842EAD011E07C
S315000054E08B69426B53F82230002BE2D0826800F1C0
S315000054F01001406803F0CEFD0028DAD040F2F51323
