S01A00006D6963726F726F735F7465737462656E63682E737265637D
S31500000000C07B0020F11600001D150000ED16000053
S31500000010ED160000ED160000ED160000ED160000CE
S31500000020000000000000000000000000ED160000C7
S31500000030ED16000000000000ED160000ED160000B1
S31500000040DD120000350F0000A1100000350F000082
S31500000050FD0F00000000000000000000000000008E
S31500000060000000000000000000000000000000008A
S31500000070000000000000000000000000000000007A
S31500000080000000000000000000000000000000006A
S31500000090000000000000000000000000000000005A
S315000000A0000000000000000000000000000000004A
S315000000B0000000000000000000000000000000003A
S315000000C0000000000000000000000000000000002A
S315000000D0000000000000000000000000000000001A
S315000000E0000000000000000000000000000000000A
S315000000F000000000000000000000000000000000FA
S3150000010000000000000000000000000000000000E9
S3150000011000000000000000000000000000000000D9
S3150000012000000000000000000000000000000000C9
S3150000013000000000000000000000000000000000B9
S3150000014000000000000000000000000000000000A9
S315000001500000000000000000000000000000000099
S315000001600000000000000000000000000000000089
S315000001700000000000000000000000000000000079
S315000001800000000000000000000000000000000069
S315000001900000000000000000000000000000000059
S315000001A00000000000000000000000000000000049
S315000001B00000000000000000000000000000000039
S315000001C0FFFFFFFFFFFFFFFFFFFFFFFFFFFFFFFF39
S315000001D0FFFFFFFFFFFFFFFFFFFFFFFFFFFFFFFF29
S315000001E0FFFFFFFFFFFFFFFFFFFFFFFFFFFFFFFF19
S315000001F0FFFFFFFFFFFFFFFFFFFFFFFFFFFFFFFF09
S3150000020010B5054C237833B9044B13B1044800E00C
S3150000021000BF0123237010BDF8000020000000007D
S31500000220483D000008B5034B1BB10349034800E0F5
S3150000023000BF08BD00000000FC000020483D000093
S31500000240002110B52248234C88B0CDE90004224B8A
S315000002500846224A01F016FB03A801F0E5FA204CF5
S315000002602049214A214B03A8CDE90341CDE90523C5
S3150000027001F0E8FA30B3EFF31081012383F310881D
S315000002801B4B1A681AB940241A48027304731A6879
S3150000029001321A6081F31088174B18495B685A8837
S315000002A0130A1B0153FA82F251F8223023F001138C
S315000002B023F4404343F0040341F8223000F03AF8B7
S315000002C008B010BD2F210E4802F00AFAD3E700BF8E
S315000002D0E1040000F5050000CD040000B1040000B3
S315000002E01D03000021030000250300002903000070
S315000002F02C04002000FD0140883C000000F801406D
S31500000300D0370000022800D07047024B02485968D7
S3150000031000F0D2BAF8390000A003002002F0C4B8F9
S3150000032002F0CAB802F0F4B90B46012103FB00F053
S3150000033002F0ACB8704700BF044AD2E9003101337D
S3150000034041F10001C2E90031704700BF28010020D9
S315000003502DE9F0433A4E0D46337883B0002B35D065
S31500000360384B394F5E68394C6946394800F016FFFC
S31500000370D4E90002D7E900370099711A354ED6E95B
S31500000380004604FB02F200FB0622A3FB0136A4FB97
S31500000390004001FB07661C19024446EB0206204694
S315000003A021A3D3E90023314601F0A2FE03462B60C8
S315000003B0DB176B6031461CA3D3E90023204601F00E
S315000003C097FE0020AA6003B0BDE8F0834FF0010954
S315000003D0DFF870801E48414600F0F2FE1C4800F02F
S315000003E0C1FE98F80800184F09FA00F001F0B4FBB6
S315000003F00FA3D3E9002301F043FD0FA3D3E90023A4
S3150000040001F014FC01F08CFE86F80090D8F8046028
S315000004103860A6FB000306FB01330C4C79602060B4
S315000004206360A1E7AFF3008000CA9A3B00000000BA
S3150000043000000000389C8C410000000065CDCD41D5
S31500000440300100201C3A0000200100201801002085
S31500000450C40300202801002038B58388B3F5006F57
S3150000046009D0B3F5005F06D0B3F5806F07D001223F
S315000004700B4B1A7038BD01220A4B1A7038BD4C223C
S31500000480094D0A4B2C6800F1140102FB043002F0FE
S315000004901BF8072C04F1010308BF00232B6038BDAD
S315000004A094030020950300209C03002034010020C3
S315000004B008B50449044800F0DDFBB0FA80F04009B5
S315000004C008BD00BF043A0000A803002008B5034891
S315000004D000F076FBB0FA80F0400908BDA8030020C2
S315000004E001232DE9F0414FF4805514461A4494B087
S315000004F0082A0195ADF8083015D8D2B20420394B38
S315000005008DF80A201B78039053B90023364E374FD7
S315000005103F2C33703B7021D9002014B0BDE8F08128
S3150000052006230393F1E70C2A4FD9102A51D9142A2E
S315000005304DD9182A51D9202A51D9302A4BD83022E0
S315000005400420284B8DF80A201B780390002BE7D156
S31500000550254E264F154633703B7000E01546224661
S315000005600DF1110001F0B0FF01AB04F10D00002107
S315000005702A1B18448DF8104001F0B3FF00211C48D7
S3150000058001AA00F0F1F90028C6D101F029F9337863
S31500000590054688467BB114E001F022F9431B61EB66
S315000005A00801642B71F1000308DA01210A2000F02A
S315000005B081FF33782BB93B78002BEDD03378002BB5
S315000005C0AAD0204614B0BDE8F0810C2296E714228A
S315000005D094E7102292E7402290E718228EE7202225
S315000005E08CE700BF31010020950300209403002012
S315000005F0A80300202DE9F04F83B01D468B46924696
S3150000060001F0EEF8DFF87C8004460E46DFF87890BD
S31500000610EF170AE0D8F80030D9F80020934212D13B
S3150000062001214FF4FA7000F045FF01F0D9F8001BE4
S3150000063061EB0601A84271EB0703EBDB00242046C1
S3150000064003B0BDE8F08F4C2203FB02F20C49019384
S315000006508818047B5445F1D80D3211445846224679
S3150000066001F032FF019B2046072B03F101020ABF6E
S315000006700023C8F80020C8F8003003B0BDE8F08FAA
S3150000068034010020980300209C03002008B5FFF7E2
S31500000690D7FD002008BD00BF0022034610461A60A1
S315000006A0704700BF0B0A10B41B01064C53FA81F1C8
S315000006B054F821300020C3F340035DF8044B137057
S315000006C0704700BF00F80140090A490101F1804165
S315000006D001F5F8314B68002013807047090A49017B
S315000006E023EA020C01F180411A4001F5F83142EA91
S315000006F00C4200208A6070470123C8B283404AB981
S315000007001A040B0A5B0103F1804303F5F83300205A
S315000007109A6070479AB2F4E7090A490101F18041EB
S3150000072001F5F83110B40C6802EA030C4CEA040C2B
S3150000073062EA030202EA0C0200205DF8044B0A603A
S31500000740704700BF090A490101F1804101F5F831FE
S315000007504B680020C3F30F4313807047012310B486
S315000007604FEA112C4FEA4C1C0CF1804C0CF5F83C6E
S31500000770DCF80440C9B203FA01F18BB201EA144174
S31500000780C91AB1FA81F1490900205DF8044B1170CC
S31500000790704700BF090A490123EA020C01F18041B2
S315000007A01A4001F5F83142EA0C420020CA6070474F
S315000007B0012A14D04FF480300B0A5B0103F1804309
S315000007C003F5F83310B4CAB2DC6800FA02F2224329
S315000007D0120C120400205DF8044BDA6070470B0A15
S315000007E05B0103F1804303F5F833D868C9B28A4048
S315000007F0024392B20020DA60704700BFF0B5EFF313
S315000008001082012383F31088284E33681BB92849C8
S315000008100B7340230B7333680133336082F3108804
S3150000082003887BB3426803F1FF3E1FFA8EFE02F196
S315000008300801204C01EBCE0E08E0D2B21B01134496
S315000008408E450A4644F823001CD008311068928869
S3150000085010F4803F4FEA1223EFD0130AD2B202EB14
S31500000860031C54F82C701B01134420F480356FF3DD
S3150000087010478E4544F82C700A4644F82C5044F82C
S315000008802300E2D1EFF31082012383F3108833684B
S3150000089013B13368013B336033681BB980200449C8
S315000008A00B73087382F31088F0BD00BF2C04002080
S315000008B000FD014000F8014008B5034B03600846FF
S315000008C0FFF79CFF002008BD54524F5008B508465C
S315000008D0FFF794FF002008BD30B4EFF31084012326
S315000008E083F310881D4B186828B94FF0400C1C4D37
S315000008F0287385F80CC018680130186084F31088D6
S31500000900D4034FEA1120C9B219D40001154C014491
S3150000091044F82120EFF31082012181F31088196831
S3150000092011B11968013919601B681BB980200C497F
S315000009300B73087382F31088002030BC7047094C93
S3150000094001EB001C54F82C5000016FF3104544F8DD
S315000009502C5022F4803544F82C50D7E72C04002084
S3150000096000FD014000F80140F0B5D0E900342468EC
S3150000097001EB841103EB010C9CF87440240749D465
S315000009804C251479567901FB05F5E40744EA86748B
S31500000990166803EB050E3443CEF804469479082C0A
S315000009A028D9182C39D925090B354FF04C0C0CFBDE
S315000009B001FC966803EB0C0E2D0706F007060CF5F6
S315000009C0C26CCEF80856013C0C32CEF80C66634475
S315000009D00134013B02EB040C12F8014B624503F8AB
S315000009E0014FF9D1036803EB010C012300208CF8B9
S315000009F07030F0BD9668270706F00706CEF8087631
S31500000A00CEF80C66002CF0D005F5C2652B440C32EE
S31500000A10013CDDE74EF66320F0BDA4F10805AD0804
S31500000A200835EDB2C1E700BF1F2930B53ED84C24CA
S31500000A3001F0070304FB03F34FEAD10E03EB8E2EFE
S31500000A400EF5126E8644DEF800301C4DC3F380743A
S31500000A5054714FEAD37CDEF8084023F0604382F8F5
S31500000A6004C01360DEF8043004F007041B0F946022
S31500000A70EC5C0EF10C03947144B10C34A6440B32B9
S31500000A8013F801CB734502F801CFF9D11F2907D816
S31500000A900122436B02FA01F123EA0101416330BDF1
S31500000AA0FF230E3900EB81014B6030BD4C23A1F1D1
S31500000AB0200E03FB0E0E0EF5A46EC4E7703C00007C
S31500000AC070B5456904460E4698B0A5B12946602220
S31500000AD0684601F0F9FC60223146284601F0F4FC34
S31500000AE0284623699847606918B16022694601F073
S31500000AF0EBFC18B070BD0D46F2E700BFF0B54668D6
S31500000B000F063568046801F00F0233D404EB051CA8
S31500000B10DCF804304FEA051E5D0718D4DB0701D464
S31500000B20052A16D00EF104012144DCF8043023F026
S31500000B3007031343CCF804304B6803F007039A42CB
S31500000B40FAD17444636803F007030373F0BDC90761
S31500000B50E4D4DCF804300EF1040123F0070343F07B
S31500000B600103CCF8043021444B6803F00703012B42
S31500000B70FAD1DAE7A769A36923F007031343A36150
S31500000B80E36903F007039A42FAD1FB070FD5CF07B3
S31500000B900DD433694FEA051EDB69D3E90223E2630C
S31500000BA023647444636803F007030373F0BD4FEADC
S31500000BB0051E7444636803F007030373F0BD00BFAA
S31500000BC038B500234468836094F91530002B0DDB9B
S31500000BD00121254D5A0903F01F03203201FA03F3C0
S31500000BE045F82230BFF34F8FBFF36F8F94F917305C
S31500000BF0002B0DDB01211C4D5A0903F01F03203287
S31500000C0001FA03F345F82230BFF34F8FBFF36F8F1E
S31500000C100822154BC3F88020BFF34F8FBFF36F8FA9
S31500000C201022C3F88020BFF34F8FBFF36F8F81214F
S31500000C30FFF764FF8521FFF761FFEFF310800123C3
S31500000C4083F31088094A21689568C1F11B018B401E
S31500000C502B439360936880F310880020044B22682E
S31500000C6043F8220038BD00BF00E100E00040084024
S31500000C70E003002000222DE9F84F8B68D1F8109090
S31500000C80D1F80080A44D0361CB680F460646C0E943
S31500000C900051C0E90523D9F81CA0EFF31080012309
S31500000CA083F310889D4AC8F11B018B40916821EAA5
S31500000CB003039360936880F31088EC6914F00804CA
S31500000CC0FBD130468121FFF719FF4FF40013DAF804
S31500000CD0042093496A61EB62C5F8B040DAF8103037
S31500000CE090482B63DAF80830EB63DAF80C302B64A3
S31500000CF09AF815301B01DBB281F804338A4B046184
S31500000D00D3F8102364F31042C3F81023D3F810234A
S31500000D10BFF35F8F1022C1F880210A60DAF8002045
S31500000D20AA619AF81420C6601201D2B281F8032390
S31500000D30D3F80C2364F31042C3F80C23D3F80C3316
S31500000D40BFF35F8F0823C1F880310B60774BB8F192
S31500000D50010F43F828604FF48073AB621FD0D9F8B7
S31500000D6000A06D4D08F0010B04F00F0E22090EF1E4
S31500000D70120C42F4807205EB0C1CAA629AE80F0072
S31500000D808CE80F0005EB0E1EDEF8283101346BF3FC
S31500000D90C713202C0AF1100ACEF82831E4D1002519
S31500000DA05D4C01213046A562FFF7A8FED9F8140074
S31500000DB0D7F804E04168DEF80030FF298C4628BFEA
S31500000DC04FF0FF0C013BC3F3090A036801395A1EB1
S31500000DD0D2B242EA0122DEF804104B1E4AEA43432D
S31500000DE0DEE902A10AF1FF3A43EA4A6301F1FF3A5A
S31500000DF0D0E902E10EF1FF3042EA0042013942EA4F
S31500000E0001624FEA48104FEA081101F1804100F1F2
S31500000E10804043EA8A2301F5302100F530200B603B
S31500000E20C0F8002199F8183008F122085B0243EA5D
S31500000E300C4343F4806343F00103C0F80431D9F84E
S31500000E40083044F82830D9F8103043F003034B60DB
S31500000E5097F91530AB4225DB3A7D03F1604112016B
S31500000E60D2B201F5614181F800232E4A03F1C00197
S31500000E7042F823602C4A52F8210065F3104042F8EC
S31500000E80210052F82120BFF35F8F012203F01F01DA
S31500000E905B099B0003F1604303F561438A40C3F895
S31500000EA080211A6097F91730002B26DB3A7D03F173
S31500000EB0604112011B48D2B201F5614181F800235D
S31500000EC0194A03F1C00140F8236052F821006FF37C
S31500000ED0104042F8210052F82120BFF35F8F012114
S31500000EE05A09920003F01F0302F1604202F56142C3
S31500000EF001FA03F3C2F88031136030468021FFF710
S31500000F00FDFD0021FFF7FAFD0023094AB3811846CB
S31500000F10B260BDE8F88F00BF00000B4000400840FB
S31500000F2000E100E03004002000600040E003002003
S31500000F304446435270B598B0EFF30383103B5BB25F
S31500000F40032B2BD01C462A4B00215C2201A853F808
S31500000F502450002601F0C5FAD5E900324FF4807C12
S31500000F601168284603EB0113DA6892B20292AA6965
S31500000F70ADF804C0DE6000916946CDE90362FFF773
S31500000F809FFD1C4A04F1C00352F823106FF3104171
S31500000F9042F8231052F8233018B070BD164B602269
S31500000FA0002168461C6801F09CFA4FF4805000212D
S31500000FB02268136AADF804001D0C1B0403EB0573CD
S31500000FC002939B0311620BD5936E93FAA3F3B3FAC4
S31500000FD083F302EB83020393536C23F004035364FD
S31500000FE0A3692046694603240493FFF769FDC8E711
S31500000FF03004002000600040E00300202DE9F043AB
S31500001000244D99B0EC6E94FAA4F4002C33D0B4FAC3
S3150000101084F6012E34462EDC01274FF480622B6EB7
S31500001020B74020341F420394ADF804201AD14FF084
S315000010304C0808FB0658DFF86490D8F82835214696
S31500001040C3F30123134805AA0093FFF7EDFC009BA9
S31500001050694659F8230083690493FFF731FD2B6E27
S315000010601F42EAD0B60006F1804606F53026736CBC
S3150000107023F008037364074BDB6E43B9064AD2F8C4
S31500001080101363F31041C2F81013D2F8103319B0DD
S31500001090BDE8F08300000B4000600040E003002044
S315000010A070B598B0EFF303842C4B103C64B253F840
S315000010B02460726831681568B3690095049301F17C
S315000010C0A4035B5D03F0FF002BBB38E04FF4006028
S315000010D001EB8302136825F00045ADF8040093FA8E
S315000010E0A3F323B3B3FA83F3072B20DC03EB8512B8
S315000010F00A4492F874C069466FF3420C304682F88F
S3150000110074C00393FFF7DCFC316801F1A4035B5D57
S3150000111003F0FF009BB16A0010F0010F02F12003FB
S31500001120D4D121324FF4007001EB8202D2E753682A
S3150000113093FAA3F37BB1B3FA83F32033D6E7084BD4
S31500001140C03453F824206FF3104243F8242053F898
S31500001150243018B070BD4023C8E700BF300400201B
S31500001160006000408268117B01F00101137BC3F32C
S3150000117040039942FAD143681978012907D1C16819
S3150000118093F810C004484B1E40F82C101360F1234E
S3150000119000201373704700BFE40300208268107BB1
S315000011A000F00100137BC3F340039842FAD1137B8E
S315000011B00020C3F340030B7113680B60704700BF38
S315000011C0F0B50A7C416002F5800202F568621202FF
S315000011D08260EFF31086012383F310880D7C3A4C6E
S315000011E0C5F10305AB40E56825EA0303E360E36860
S315000011F086F3108800231373137BC3F3400C9B07FD
S31500001200FAD4CC6982F80EC0E278267883680D7A23
S31500001210247902F00702002E47D1002D4CD100267A
S315000012201C744C68D0F804E0671E9E745A739D7354
S31500001230C4609EF810201F6091F91230DFF898C044
S31500001240B3424CF8224026DB4A7C03F1604412018B
S315000012501E4DD2B204F5614484F800231C4A03F102
S31500001260C00445F8230052F8245066F3104542F8AE
S31500001270245052F82420BFF35F8F01245A099200AC
S3150000128003F01F0302F1604202F5614204FA03F320
S31500001290C2F8803113600023D1E905410D4A04618B
S315000012A08161026043611846F0BD502E06BF654657
S315000012B042F050023243B2E785F0020542EA0512D7
S315000012C0D2B23546ABE700BF0040084030040020EC
S315000012D00060004054474100E40300202DE9F0413E
S315000012E084B0EFF30383103B1F4A5BB203F1C001E6
S315000012F052F821006FF3104042F8210052F82120E5
S315000013001A4A52F82340D4E901261278337B012A7F
S31500001310DBB204D1F42203F0F00332733373D4F852
S315000013201080B8F1000F15D0656901AFCDB195E811
S31500001330070087E807009B0644BF00232B71A369BB
S3150000134028462B60C04763691BB197E8070083E80E
S315000013500700337BDBB203F00F03337304B0BDE841
S31500001360F0813D46E7E700BF006000403004002002
S31500001370064B074993F826001A6A51F82030C2F343
S3150000138002620449D3400B60704700BF00E0014091
S31500001390D8000020BC0500204AF203500123394939
S315000013A0394A70B4A1F8FE03A2F80431B2F8043148
S315000013B09BB2002BFAD101214FF400453348344C3F
S315000013C003618560A2F80011A16021600921202433
S315000013D0304E05F1987505F52D45C0E90056294AA8
S315000013E092F82650156A82F8134482F8A21082F801
S315000013F032302949294BC160436192F83C301907C4
S31500001400FBD54FF43C5400231E49148582F82A303C
S3150000141091F83C309B06FBD505234FF0010C1A4E84
S315000014201F4D86F81CC10D6281F8263091F82630D2
S315000014301C4C50F82330086A124AC0F30260C340BD
S31500001440236091F8763043F0400381F8763092F8C5
S315000014507630DB09FBD0C523032082F86E0082F8C4
S31500001460763092F87630074903F0BF0382F876307B
S3150000147091F87630DB09FBD170BC4FF42543A1F817
S31500001480FE33704700E0014000C00140D800002054
S315000014900070004000127A0080969800001C4E0EE4
S315000014A021120220BC050020A0F101000028FBD17A
S315000014B0704700BF10B54FF47A72164C164B24686D
S315000014C04FF0000EB3FBF4FC4FF0FF3300FB01F1CD
S315000014D0A1FB020483427EEB040407D3B0FBFCF0BD
S315000014E0800880B1BDE81040FFF7DEBF4FEA8C0CE4
S315000014F0B1FBFCF1A1FB02128B427EEB020203D38D
S3150000150008460028EED110BD1846BDE81040FFF78A
S31500001510CBBF00BFBC05002000CA9A3B70B50024B3
S315000015200A4B0B4EB3F84051ADB225FA04F3DB0774
S31500001530E0B203D556F8243003B198470134102C95
S31500001540F3D1024BA3F8305170BD00BF00600040DC
S31500001550EC03002030B56FF0FF0585B0032000F0E6
S3150000156079F84FF0FF311F4C1F482246856400234F
S315000015700125CDE90111039104F1C00E32F8020FE5
S31500001580590960B104A800EB810151F80C0C03F075
S315000015901F0C05FA0CFC20EA0C0041F80C0C7245F5
S315000015A003F10103EAD10199104B0F4A0320116799
S315000015B0C3F8801202995167C3F8841203999167A0
S315000015C0C3F8881200F016F80023094803F1C00298
S315000015D034F8021F0133602B40F82210F6D105B013
S315000015E030BD00BF7A3B00000080004000E100E013
S315000015F000600040EFF31081012383F31088124B43
S3150000160033F8102092B22AB133F81020013A92B280
S3150000161023F8102033F810309BB293B90B4A10B45C
S31500001620B2F8FE330A4C9BB234F8100043F425435B
S3150000163023EA0003A2F8FE3381F310885DF8044B19
S31500001640704781F310887047B005002000E0014024
S31500001650803C000030B4EFF31081012383F310883F
S315000016600E4A32F810309BB26BB90D4C0D4DB4F8E2
S31500001670FE3335F810C09BB243EA0C0343F425430E
S315000016809BB2A4F8FE3332F8103001339BB222F835
S31500001690103081F3108830BC704700BFB0050020C1
S315000016A000E00140803C00000D4908B50A68034689
S315000016B04AB103330B4823F003031344834206D88D
S315000016C010460B6008BD084802460860F1E700F0C6
S315000016D0E5FE0C234FF0FF320360104608BD00BF45
S315000016E0B8050020284100209006002000BE704763
S315000016F008B500F003F8FEF7C9FFFEE74FF47002E5
S3150000170070B52B4B2B4CC3F888209C60EFF31081EF
S31500001710012585F31088284B9A6822F480129A6076
S315000017209B6881F310880020FEF7ECFDFFF734FE7E
S315000017302846FEF7E7FD2368A3F56A53183B83F3B3
S315000017400A881E481E4A0021121A00F0CAFE1D48C9
S315000017501D4A1E49121A00F0B7FE1D4D1D4B5B1B9C
S31500001760002B07DD00249E1055F8043B01349847F2
S31500001770A642F9DCFFF7FCFD0320FFF76BFF002311
S315000017804FF6FF70144903F10C020133092B21F8BF
S315000017902200F8D10320FFF72DFF0220FEF7B2FD4D
S315000017A0FFF7D8FEBDE87040002000F017B800BF74
S315000017B000ED00E00000000000400840F8000020B6
S315000017C08C06002000000020D8000020543D0000B8
S315000017D0D0000020D400002000FD0140704700BF6B
S315000017E010B584B069460120FEF7B2FDDDE90002BE
S315000017F0074B029CA0FB030103FB021100194FF0EB
S315000018000003044A41EBE47100F022FC04B010BD71
S3150000181000CA9A3B40420F0000F038BE00F078BF85
S3150000182000F04ABE00F040BE70B404460646044DC1
S315000018300FCD0FC42B683046236070BC704700BFC5
S315000018409C3C0000A0B102689AB1416899B170B49D
S31500001850C4685CB1856885B100260120084BC3E9E0
S315000018600021C3E902541E6170BC70472046FBE7A5
S31500001870704710467047084670472846F4E700BF91
S3150000188058000020F0B4DDE904676AB163B15EB1C7
S3150000189057B10546064C0020C4E90112C4E90336D7
S315000018A025706761F0BC70470B20F0BC704700BF25
S315000018B07006002081F0004102E000BF83F0004383
S315000018C030B54FEA41044FEA430594EA050F08BFD5
S315000018D090EA020F1FBF54EA000C55EA020C7FEA99
S315000018E0645C7FEA655C00F0E2804FEA5454D4EB16
S315000018F05555B8BF6D420CDD2C4480EA020281EAE0
S31500001900030382EA000083EA010180EA020281EA17
S315000019100303362D88BF30BD11F0004F4FEA013169
S315000019204FF4801C4CEA113102D0404261EB410178
S3150000193013F0004F4FEA03334CEA133302D05242FE
S3150000194063EB430394EA050F00F0A780A4F10104BA
S31500001950D5F1200E0DDB02FA0EFC22FA05F28018F4
S3150000196041F1000103FA0EF2801843FA05F35941DA
S315000019700EE0A5F120050EF1200E012A03FA0EFC59
S3150000198028BF4CF0020C43FA05F3C01851EBE37183
S3150000199001F0004507D54FF0000EDCF1000C7EEBA0
S315000019A000006EEB0101B1F5801F1BD3B1F5001FDE
S315000019B00CD349085FEA30004FEA3C0C04F10104FD
S315000019C04FEA445212F5800F80F09A80BCF1004F26
S315000019D008BF5FEA500C50F1000041EB045141EAA8
S315000019E0050130BD5FEA4C0C404141EB0101013C71
S315000019F028BFB1F5801FE9D291F0000F04BF014660
S31500001A000020B1FA81F308BF2033A3F10B03B3F131
S31500001A1020020CDA0C3208DD02F1140CC2F10C02C1
S31500001A2001FA0CF021FA02F10CE002F11402D8BF1F
S31500001A30C2F1200C01FA02F120FA0CFCDCBF41EAEB
S31500001A400C019040E41AA2BF01EB0451294330BDBA
S31500001A506FEA04041F3C1CDA0C340EDC04F1140497
S31500001A60C4F1200220FA04F001FA02F340EA03006E
S31500001A7021FA04F345EA030130BDC4F10C04C4F1B4
S31500001A80200220FA02F001FA04F340EA0300294694
S31500001A9030BD21FA04F0294630BD94F0000F83F4DE
S31500001AA0801306BF81F480110134013D4EE77FEAC1
S31500001AB0645C18BF7FEA655C29D094EA050F08BF0D
S31500001AC090EA020F05D054EA000C04BF19461046EE
S31500001AD030BD91EA030F1EBF0021002030BD5FEA32
S31500001AE0545C05D14000494128BF41F0004130BD5A
S31500001AF014F580043CBF01F5801130BD01F00045AE
S31500001B0045F0FE4141F470014FF0000030BD7FEA20
S31500001B10645C1ABF194610467FEA655C1CBF0B461B
S31500001B20024650EA013406BF52EA033591EA030F32
S31500001B3041F4002130BD00BF90F0000F04BF00212A
S31500001B40704730B54FF4806404F132044FF000055D
S31500001B504FF0000150E700BF90F0000F04BF0021D6
S31500001B60704730B54FF4806404F1320410F000453C
S31500001B7048BF40424FF000013EE700BF42004FEA37
S31500001B80E2014FEA31014FEA02701FBF12F07F43B4
S31500001B9093F07F4F81F06051704732F07F4208BF6B
S31500001BA0704793F07F4F04BF41F40021704730B572
S31500001BB04FF4607401F0004521F000411CE700BFBE
S31500001BC050EA010208BF704730B54FF000050AE041
S31500001BD050EA010208BF704730B511F0004502D542
S31500001BE0404261EB41014FF4806404F132045FEA44
S31500001BF0915C3FF4D8AE4FF003025FEADC0C18BFED
S31500001C0003325FEADC0C18BF033202EBDC02C2F1DE
S31500001C10200300FA03FC20FA02F001FA03FE40EA70
S31500001C200E0021FA02F11444BDE600BF70B54FF074
S31500001C30FF0C4CF4E06C1CEA11541DBF1CEA135552
S31500001C4094EA0C0F95EA0C0F00F0DEF82C4481EABA
S31500001C50030621EA4C5123EA4C5350EA013518BFDA
S31500001C6052EA033541F4801143F4801338D0A0FBC7
S31500001C7002CE4FF00005E1FB02E506F00042E0FB74
S31500001C8003E54FF00006E1FB03569CF0000F18BF7A
S31500001C904EF0010EA4F1FF04B6F5007F64F5407422
S31500001CA004D25FEA4E0E6D4146EB060642EAC621B5
S31500001CB041EA55514FEAC52040EA5E504FEACE2E22
S31500001CC0B4F1FD0C88BFBCF5E06F1ED8BEF1004F25
S31500001CD008BF5FEA500E50F1000041EB045170BDA1
S31500001CE006F0004646EA010140EA020081EA0301E5
S31500001CF0B4EB5C04C2BFD4EB0C0541EA045170BDE1
S31500001D0041F480114FF0000E013C00F3AB8014F15A
S31500001D10360FDEBF002001F0004170BDC4F10004A3
S31500001D20203C35DA0C341BDC04F11404C4F1200524
S31500001D3000FA05F320FA04F001FA05F240EA02007F
S31500001D4001F0004221F0004110EBD37021FA04F6B5
S31500001D5042EB06015EEA430E08BF20EAD37070BD6F
S31500001D60C4F10C04C4F1200500FA04F320FA05F0CE
S31500001D7001FA04F240EA020001F0004110EBD370D0
S31500001D8041F100015EEA430E08BF20EAD37070BD40
S31500001D90C4F1200500FA05F24EEA020E20FA04F319
S31500001DA001FA05F243EA020321FA04F001F00041C8
S31500001DB021FA04F220EA020000EBD3705EEA430E39
S31500001DC008BF20EAD37070BD94F0000F0FD101F068
S31500001DD00046400041EB010111F4801F08BF013CA1
S31500001DE0F7D041EA060195F0000F18BF704703F0DF
S31500001DF00046520043EB030313F4801F08BF013D66
S31500001E00F7D043EA0603704794EA0C0F0CEA135521
S31500001E1018BF95EA0C0F0CD050EA410618BF52EADB
S31500001E204306D1D181EA030101F000414FF00000E1
S31500001E3070BD50EA410606BF1046194652EA4306EF
S31500001E4019D094EA0C0F02D150EA013613D195EA63
S31500001E500C0F05D152EA03361CBF104619460AD1AB
S31500001E6081EA030101F0004141F0FE4141F47001B5
S31500001E704FF0000070BD41F0FE4141F4780170BDA5
S31500001E8070B54FF0FF0C4CF4E06C1CEA11541DBF0A
S31500001E901CEA135594EA0C0F95EA0C0F00F0A7F80C
S31500001EA0A4EB050481EA030E52EA03354FEA013139
S31500001EB000F088804FEA03334FF0805545EA13134C
S31500001EC043EA12634FEA022245EA111545EA106514
S31500001ED04FEA00260EF000419D4208BF964244F1AB
S31500001EE0FD0404F5407402D25B084FEA3202B61ACA
S31500001EF065EB03055B084FEA32024FF480104FF49E
S31500001F00002CB6EB020E75EB030E22BFB61A754611
S31500001F1040EA0C005B084FEA3202B6EB020E75EBA4
S31500001F20030E22BFB61A754640EA5C005B084FEA0C
S31500001F303202B6EB020E75EB030E22BFB61A7546D9
S31500001F4040EA9C005B084FEA3202B6EB020E75EBE4
S31500001F50030E22BFB61A754640EADC0055EA060EA5
S31500001F6018D04FEA051545EA16754FEA06164FEAE8
S31500001F70C30343EA52734FEAC2025FEA1C1CC0D194
S31500001F8011F4801F0BD141EA00014FF000004FF021
S31500001F90004CB6E711F4801F04BF01430020B4F1E2
S31500001FA0FD0C88BFBCF5E06F3FF6AFAEB5EB030C9A
S31500001FB004BFB6EB020C5FEA500C50F1000041EB97
S31500001FC0045170BD0EF0004E4EEA113114EB5C0464
S31500001FD0C2BFD4EB0C0541EA045170BD41F4801137
S31500001FE04FF0000E013C90E645EA060E8DE60CEA3F
S31500001FF0135594EA0C0F08BF95EA0C0F3FF43BAF5C
S3150000200094EA0C0F0AD150EA01347FF434AF95EA12
S315000020100C0F7FF425AF104619462CE795EA0C0FF6
S3150000202006D152EA03353FF4FDAE1046194622E7C3
S3150000203050EA410618BF52EA43067FF4C5AE50EA9D
S3150000204041047FF40DAF52EA43057FF4EBAE12E78D
S315000020507BB972B90029BEBF00204FF0004106E0EF
S3150000206008BF00281CBF6FF000414FF0FF3000F0A2
S31500002070EBB9ADF1080C6DE904CE002909DB002BA4
S315000020801ADB00F06BF8DDF804E0DDE9022304B0AA
S315000020907047404261EB4101002B1BDB00F05EF80C
S315000020A0DDF804E0DDE9022304B0404261EB4101C2
S315000020B0524263EB43037047524263EB430300F023
S315000020C04DF8DDF804E0DDE9022304B0404261EB9F
S315000020D041017047524263EB430300F03FF8DDF8DD
S315000020E004E0DDE9022304B0524263EB4303704788
S315000020F053B94AB9002908BF00281CBF4FF0FF3169
S315000021004FF0FF3000F0A0B9ADF1080C6DE904CE38
S3150000211000F024F8DDF804E0DDE9022304B070479E
S31500002120D0B500220B4B06460F46FFF77FFD00F0A9
S315000021308DF90446FFF700FD0022074BFFF776FDF9
S3150000214002460B4630463946FFF7B8FB00F07EF9EB
S315000021502146D0BD0000F03D0000F0412DE9F04FD2
S31500002160099D04460F46002B48D18A42944661D900
S31500002170B2FA82F343B1C3F120019F4002FA03FC95
S315000021809C4020FA01F10F434FEA1C411FFA8CFED6
S31500002190220CB7FBF1F601FB167706FB0EF042EABE
S315000021A00742904208D91CEB020206F1FF3702D221
S315000021B0904200F237813E46121AA4B2B2FBF1F009
S315000021C001FB102200FB0EFE44EA0244A64508D994
S315000021D01CEB040400F1FF3202D2A64500F21C817A
S315000021E0104640EA0640A4EB0E0400261DB1DC4072
S315000021F00023C5E900433146BDE8F08F8B4209D97B
S31500002200002D00F0FD800026C5E90001304631466C
S31500002210BDE8F08FB3FA83F6002E4BD18B42C0F0A7
S31500002220F280824240F2EF803046002DE3D0C5E9CD
S315000022300047E0E702B9FFDEB2FA82F3002B40F076
S315000022409D80891A4FEA124E97B20126200CB1FBE7
S31500002250FEF20EFB121140EA014107FB02F0884232
S315000022600FD91CEB010102F1FF382CBF4FF0010919
S315000022704FF00009884203D9B9F1000F00F0CF8072
S315000022804246091AA4B2B1FBFEF00EFB101100FB88
S3150000229007F744EA0144A74208D91CEB040400F1FD
S315000022A0FF3102D2A74200F2B4800846E41B40EA9E
S315000022B002409BE7C6F12007B34001FA06F422FA72
S315000022C007FCF940B2404CEA030C20FA07F34FEA48
S315000022D01C491C431FFA8CFE00FA06F3200CB1FBC6
S315000022E0F9F809FB181140EA014108FB0EF0884293
S315000022F00FD91CEB010108F1FF3A2CBF4FF0010B7F
S315000023004FF0000B884203D9BBF1000F00F08D801F
S31500002310D046091AA4B2B1FBF9F009FB101100FB73
S315000023200EFE44EA01418E4507D91CEB010100F17E
S31500002330FF3401D28E457FD8204640EA0840A1EB03
S315000023400E01A0FB029841454C46C64602D306D173
S315000023504B4504D20138B9EB020468EB0C0E002D94
S3150000236070D01A1B61EB0E0122FA06F301FA07F789
S31500002370F14000261F43C5E900713CE702FA03FC61
S31500002380C3F1200001FA03F221FA00F64FEA1C4ECF
S3150000239024FA00F11FFA8CF79C401143B6FBFEF0BD
S315000023A00A0C0EFB106642EA064200FB07F696424E
S315000023B00ED91CEB020200F1FF382CBF4FF00109C9
S315000023C04FF00009964202D9B9F1000F31D04046CC
S315000023D0921B89B2B2FBFEF60EFB162241EA0241BF
S315000023E006FB07F28A4207D91CEB010106F1FF380A
S315000023F001D28A4223D84646891A46EA004625E78C
S315000024002E462846F7E6841A61EB030301201F4691
S315000024100BE76444023849E764440238E1E6023ACD
S3150000242061442EE7023E6244C6E6A8F10208614412
S315000024306FE702386244CBE7023861447DE7023E2B
S315000024406144D9E72E46D6E6704700BF4A0011D24E
S3150000245012F5001211D20DD56FF47873B3EB6252F8
S315000024600ED44FEAC12343F0004343EA505323FA04
S3150000247002F070474FF00000704750EA013002D179
S315000024804FF0FF3070474FF000007047024B0A468E
S315000024900146186800F02DB86C000020014B186842
S315000024A0704700BF6C000020024B0146186800F020
S315000024B0A3B800BF6C000020024B0146186800F06C
S315000024C02FB800BF6C0000200A44431E914200D181
S315000024D0704710B511F8014B914203F8014FF9D13D
S315000024E010BD02440346934200D1704703F8011B16
S315000024F0F9E737B5A1FB02244CB91146019200F069
S315000025007BF8019A054630B9284603B030BD0C2247
S3150000251000250260F8E72146FFF7E3FFF4E7FFFF37
S3150000252037B5002943D051F8043C0C1F0190002B0D
S31500002530B8BFE41800F0FCF91E4A0198136833B9D5
S315000025406360146003B0BDE8304000F0F7B9A34201
S3150000255008D9256861198B4201BF19685B6849195A
S315000025602160EDE71A465B680BB1A342FAD9116800
S315000025705518A5420BD12468214454181160A34272
S31500002580E0D11C685B68214453601160DAE702D928
S315000025900C230360D6E7256861198B4202BF1968D0
S315000025A05B684919636008BF21605460CAE703B0DD
S315000025B030BD00BFC005002070B50E4E0C46054666
S315000025C0316811B900F0ACF830602146284600F0B9
S315000025D0A7F8431C0AD0C41C24F00304A04207D069
S315000025E0211A284600F09CF8013001D14FF0FF3443
S315000025F0204670BDC40500202DE9F041CD1C0746DC
S3150000260025F0030508350C2D38BF0C25002D01DB00
S31500002610A94205D90C2300263B603046BDE8F0816F
S315000026202E4E00F085F933681C4634BB29463846E1
S31500002630FFF7C2FF431C04464DD134682646002EE0
S3150000264040D123683146384604EB030800F068F8A9
S3150000265080453AD12168033538466D1A25F00305C1
S3150000266008350C2D38BF0C252946FFF7A5FF01308C
S315000026702BD023682B4423600EE02268521B1ED405
S315000026800B2A16D96119A342256018BF59606368E1
S3150000269008BF316062514B6004F10B06384600F00A
S315000026A04DF9231D26F00706F21AB6D09B1BA35040
S315000026B0B3E76268A3420CBF32605A60ECE7234678
S315000026C06468B2E734467668B9E70C2338463B605F
S315000026D000F034F9A1E72560DEE700BFC005002061
S315000026E00FB40A4B13B51C6824B1A36913B920466D
S315000026F000F07EF805AB049AA1682046019300F02D
S315000027007BF902B0BDE8104004B070476C000020B1
S31500002710024B0A460146186800F016B96C00002004
S3150000272038B50023054D044608462B60FEF7BCFF6E
S31500002730431C02D12B6803B1236038BDCC050020B1
S31500002740002310B504468360818119464366C28121
S3150000275008228361C0E90033C0E904335C30FFF727
S31500002760C0FE054B24626362044BA362044BE36222
S31500002770044B236310BD00BF852F0000A72F000068
S31500002780DF2F000003300000014900F0AFB800BFA2
S31500002790D932000070B568224D1E0E46554305F12C
S315000027A07401FFF729FF044640B1002105F16802D4
S315000027B0C0E900160C30A060FFF793FE204670BDFE
S315000027C0014800F0B3B800BFC9050020014800F079
S315000027D0AEB800BFC9050020014800F0A7B800BF89
S315000027E0CA050020014800F0A2B800BFCA050020B3
S315000027F010B50446FFF7F0FFA3691BB1BDE8104012
S31500002800FFF7F0BFC4E9123323652046124B134A83
S315000028101B68A262A34204BF0123A36100F020F853
S315000028206060204600F01CF8A060204600F018F812
S3150000283000220421E0606068FFF782FF012209217F
S31500002840A068FFF77DFF02221221E068FFF778FFFC
S315000028500123A361D2E700BFB03C00008927000036
S31500002860F8B50746FFF7ACFF1E4B1E68B36913B9F0
S315000028703046FFF7BDFF4836D6E90134013B03D5A4
S3150000288033680BB33668F7E7B4F90C50D5B9164B75
S3150000289004F158006566E36000F047F8FFF796FF1D
S315000028A00822294604F15C002560A561C4E90155AA
S315000028B0C4E90455FFF715FEC4E90D55C4E91255E0
S315000028C02046F8BD6834D9E704213846FFF762FF91
S315000028D0044630600028D5D1FFF778FF0C233B6013
S315000028E0EEE700BFB03C00000100FFFF2DE9F84312
S315000028F00646884600F148040027D4E90195B9F157
S31500002900010905D52468002CF7D13846BDE8F883BF
S31500002910AB89012B07D9B5F90E30013303D029460F
S315000029203046C04707436835E9E770477047704748
S315000029300148FFF7FBBF00BFC80500200148FFF7AD
S31500002940F6BF00BFC80500202DE9F04180461446B9
S315000029500E4621B91146BDE8F041FFF74DBE2AB932
S315000029602546FFF7DDFD2846BDE8F08100F076FD3F
S315000029708442074602D8B4EB500F12D8214640468F
S31500002980FFF73AFE05460028EDD0BC422246314606
S3150000299028BF3A46FFF798FD31464046FFF7C0FD8F
S315000029A0E1E73546DFE79368013B002B936010B4FF
S315000029B008DA9469A34201DB0A2903D15DF8044BC6
S315000029C000F024BB1368581C1060084619705DF8A7
S315000029D0044B7047F8B506460F461446D518AC4268
S315000029E001D1002007E03A4614F8011B3046FFF7F4
S315000029F0DAFF431CF3D1F8BD2DE9F04F0D469DB02B
S31500002A0014469846064618B183690BB9FFF7F0FEDF
S31500002A10894B9D421BD175686B6ED90705D4AB896E
S31500002A209A0502D4A86DFFF781FFAB891B0701D574
S31500002A302B69EBB92946304600F04CFBC0B16B6EF2
S31500002A40DC070ED54FF0FF301DB0BDE8F08F7B4B95
S31500002A509D4201D1B568DFE7794B9D4208BFF56815
S31500002A60DAE7AB899805EDD4A86DFFF760FFE9E7D3
S31500002A700023CDF80C804FF00109DFF8C8810993D7
S31500002A8020238DF8293030238DF82A3023469A46A4
S31500002A9013F8012B0AB1252AF9D1BAEB040B0BD096
S31500002AA05B46224629463046FFF794FF013000F088
S31500002AB0AA80099A5A4409929AF80030002B00F02D
S31500002AC0A28000234FF0FF320AF1010A0493079314
S31500002AD08DF853301A93CDE90523544605225948FB
S31500002AE014F8011B00F0ACFC049AD8B9D10644BF17
S31500002AF020238DF85330130744BF2B238DF8533012
S31500002B009AF800302A2B15D0079A544600204FF029
S31500002B100A0C214611F8013B303B092B4ED9B0B1C6
S31500002B20079214E0A0EB0803A24609FA03F3134345
S31500002B300493D2E7039B191D1B68002B0391BBBFAF
S31500002B405B4242F0020207930793B8BF04922378D0
S31500002B502E2B0CD163782A2B35D1039B02341A1DF8
S31500002B601B68002B0392B8BF4FF0FF330593DFF8C5
S31500002B70E4A003222178504600F062FC40B14023D5
S31500002B80A0EB0A00013403FA00F0049B034304930C
S31500002B9014F8011B06222C488DF8281000F050FC72
S31500002BA000283FD0294B1BBB039B073323F00703A9
S31500002BB008330393099B3B44099367E70CFB0232F6
S31500002BC00C460120A5E7002301344FF00A0C1946F4
S31500002BD00593204610F8012B303A092A03D9002B19
S31500002BE0C5D00591C3E70CFB012104460123F0E79C
S31500002BF003AB2A4604A930460093154B00E000BFFC
S31500002C000746781CD6D16B6ED90705D4AB899A05D1
S31500002C1002D4A86DFFF78BFEAB895B063FF512AFBA
S31500002C20099811E703AB2A4604A930460093084BDE
S31500002C3000F082F8E4E700BFD43C0000F43C00005A
S31500002C40B43C0000143D00001E3D000000000000E2
S31500002C50D52900001A3D00002DE9F0471646994691
S31500002C608A6807460B690C46DDF820809342B8BF98
S31500002C701346336091F843200AB101333360236869
S31500002C80990642BF336802333360256815F006059E
S31500002C9006D104F1190AE36832689B1AAB4229DCB3
S31500002CA094F84320131E226818BF012392062ED4DF
S31500002CB004F1430249463846C047013021D0236813
S31500002CC01A3454F80E5C03F0060332680026042B0F
S31500002CD054F8123C08BFAD1A54F80A2C14BF00254C
S31500002CE025EAE5759342C4BF9B1AED18B5421AD181
S31500002CF0002008E00123524649463846C0470130C5
S31500002D0003D14FF0FF30BDE8F0870135C3E7E11886
S31500002D105A1C30200233224481F8430094F84510AF
S31500002D2082F84310C4E70123224649463846C04785
S31500002D300130E6D00136D9E72DE9FF470F7E9146EF
S31500002D4080460C46782F9A460C9D01F1430207D81F
S31500002D50622F0AD8002F00F0D880582F00F0A380E9
S31500002D6004F1420584F842703AE0A7F16303152B9B
S31500002D70F6D801A151F823F0D12D0000E52D000071
S31500002D80612D0000612D0000612D0000612D000005
S31500002D90E52D0000612D0000612D0000612D000071
S31500002DA0612D0000F12E0000152E0000D32E00002C
S31500002DB0612D0000612D0000132F0000612D000021
S31500002DC0152E0000612D0000612D0000DB2E000095
S31500002DD02B681A1D1B682A6004F1420584F84230EC
S31500002DE00123A3E020682968060601F104030AD539
S31500002DF00E682B60002E03DA2D23764284F84330CA
S31500002E005E480A2319E00E6810F0400F2B6018BFC9
S31500002E1036B2EFE72B682068191D2960010601D537
S31500002E201E6802E04606FBD51E886F2F53480CBF6E
S31500002E3008230A23002184F843106568002DA56045
S31500002E40A2BF216821F0040121600EB9002D4DD0EA
S31500002E501546B6FBF3F103FB1167C75D05F8017D67
S31500002E6037460E46BB42F4D9082B0BD12368DE0742
S31500002E7008D5236961689942DEBF302305F8013C15
S31500002E8005F1FF35521B22614B4603AA21464046F7
S31500002E90CDF800A0FFF7E0FE01304CD14FF0FF3037
S31500002EA004B0BDE8F087354881F845702968236885
S31500002EB051F8046B29601D0614D5DF0744BF43F0A3
S31500002EC0200323601EB9236823F020032360102308
S31500002ED0B0E7236843F0200323607823284884F86A
S31500002EE04530E3E7590648BFB6B2E6E71546BBE705
S31500002EF02B682668181D6169286035061B6801D590
S31500002F00196002E07006FBD519800023154623617F
S31500002F10BAE72B6800211A1D2A601D6862682846D8
S31500002F2000F08EFA08B1401B6060636823610023DD
S31500002F3084F84330A8E723692A4649464046D047E5
S31500002F400130ABD023689B0713D4E068039B9842FB
S31500002F50B8BF1846A4E70123324649464046D04743
S31500002F6001309BD00135E36803995B1AAB42F2DC72
S31500002F70EBE7002504F11906F5E700BF253D000043
S31500002F80363D000010B50C46B1F90E1000F06EFA91
S31500002F900028ABBF636DA3891B1823F48053ACBF15
S31500002FA06365A38110BD2DE9F0411F468B89054657
S31500002FB00C46DB05164605D502230022B1F90E1094
S31500002FC000F0C6F9A3893246B4F90E10284623F458
S31500002FD08053A3813B46BDE8F04100F069B810B5C7
S31500002FE00C46B1F90E1000F0B3F9431CA38915BFC6
S31500002FF0606523F4805343F48053A38118BFA381F3
S3150000300010BDB1F90E1000F0D3B8FFFFF8B50E46AB
S315000030101446054618B183690BB9FFF7E9FB214B46
S315000030209C422BD16C68A369A360A3891A072FD58C
S3150000303023696BB32369F6B220683746C01A636901
S31500003040834204DC2146284600F046F930BBA368DB
S315000030500130013BA36023685A1C22601E7063691D
S31500003060834204D0A389DB0706D50A2E04D1214664
S31500003070284600F031F988B93846F8BD0A4B9C421B
S3150000308001D1AC68CFE7094B9C4208BFEC68CAE7A0
S315000030902146284600F01EF80028CBD04FF0FF3717
S315000030A0EAE700BFD43C0000F43C0000B43C00005A
S315000030B038B50446064D0846114600222A601A46CF
S315000030C000F0AFFA431C02D12B6803B1236038BD70
S315000030D0CC050020324B70B51D6806460C4625B15E
S315000030E0AB6913B92846FFF783FB2E4B9C420FD1E1
S315000030F06C68A389B4F90C2019072CD4DD0611D409
S315000031000923336042F040034FF0FF30A3813EE0D5
S31500003110254B9C4201D1AC68EBE7244B9C4208BF8F
S31500003120EC68E6E7580712D5616B41B104F1440338
S31500003130994202D03046FFF7F3F900236363A3896F
S3150000314023F02403A3810023636023692360A389FA
S3150000315043F00803A38123694BB9A38903F42073C1
S31500003160B3F5007F03D02146304600F029F9A08947
S31500003170B4F90C2010F001030AD00023A3606369A0
S315000031805B42A361236943B910F08000BAD170BDD8
S31500003190810758BF6369A360F4E70020F7E700BF23
S315000031A06C000020D43C0000F43C0000B43C00005D
S315000031B038B50023054D044608462B6000F062FA38
S315000031C0431C02D12B6803B1236038BDCC05002017
S315000031D08A892DE9F041054610070C4658D44B68FC
S315000031E0002B05DC0B6C002B02DC0020BDE8F08117
S315000031F0E66A002EF9D0002312F480522F682B6065
S3150000320032D0606DA3895A0705D56368C01A636B0F
S315000032100BB1236CC01A00230246E66A2846216ACF
S31500003220B047431CA38906D129681D292CD8294AF1
S31500003230CA40D60728D50022D904626022692260D6
S3150000324004D5421C01D12B6803B96065616B2F6000
S315000032500029CAD004F14403994202D02846FFF758
S315000032605FF900206063C1E7216A01232846B04761
S31500003270411CC7D12B68002BC4D01D2B01D0162BA7
S3150000328001D12F60B1E7A38943F04003A381ADE7E5
S315000032900F69002FA9D093070E680F600CBF4B690A
S315000032A00023A6EB07088B60B8F1000F9DDD4346AF
S315000032B03A46216A2846A66AB047002806DCA38952
S315000032C04FF0FF3043F04003A3818FE70744A8EB9C
S315000032D00008E9E70100402038B50B6905460C46B1
S315000032E013B90025284638BD18B183690BB9FFF715
S315000032F07FFA144B9C421BD16C68B4F90C30002B3E
S31500003300EFD0626ED00704D4990502D4A06DFFF702
S315000033100DFB28462146FFF75BFF636E0546DA077D
S31500003320E0D4A3899B05DDD4A06DFFF700FBD9E7A8
S31500003330054B9C4201D1AC68DFE7044B9C4208BFB9
S31500003340EC68DAE7D43C0000F43C0000B43C000032
S3150000335038B50446064D0846114600222A601A462C
S3150000336000F04DF9431C02D12B6803B1236038BD30
S31500003370CC05002070B50E46B1F90E1096B0144675
S3150000338000291D4608DAB6F90C3000222A601A0612
S3150000339010D44FF480630EE06A4600F079F80028F6
S315000033A0F1DB019A02F47042A2F500535A425A41E7
S315000033B02A60EEE740230020236016B070BDFFFFB1
S315000033C08B8973B59D0706460C4607D504F147035E
S315000033D0236023610123636102B070BD01AB6A46BD
S315000033E0FFF7C8FF009905463046FFF705F948B9CB
S315000033F0B4F90C309A05EFD423F0030343F002032B
S31500003400A381E3E70D4BB362A389206043F08003F9
S315000034102061A381009B6361019B5BB1B4F90E102F
S31500003420304600F047F828B1A38923F0030343F0A0
S315000034300103A381A0890543A581CDE78927000063
S31500003440C9B2024410B59042034601D1002303E0FD
S315000034501C7801308C42F6D1184610BD51F8043C58
S31500003460181F002BBCBF0B58C018704738B5044650
S31500003470064D0846114600222A601A4600F067F8F3
S31500003480431C02D12B6803B1236038BDCC05002054
S3150000349038B50023064D0446084611462B6000F059
S315000034A038F9431C02D12B6803B1236038BD00BF35
S315000034B0CC05002038B50023054D044608462B6090
S315000034C000F035F9431C02D12B6803B1236038BDE7
S315000034D0CC0500200A4B10B50446186818B183695C
S315000034E00BB9FFF785F9132C07D8064850F8342096
S315000034F0013202D000EBC40010BD0020FCE700BF83
S315000035006C000020D0050020F8B504461326FEF70F
S31500003510C5FF0027054630463946ABBE064620465F
S315000035202E60F8BD431C01D1FFF7EEBF704730B5E2
S3150000353085B0062401AD0392CDE901012046294656
S31500003540ABBE04462046FFF7EDFF05B030BD37B5EC
S3150000355015460191FFF7BEFF0446019938B9FEF7FB
S315000035609DFF092303604FF0FF3003B030BD2A46AC
S315000035700068FFF7DCFF431CF7D02A1A6368134480
S3150000358010466360F1E7F7B50C461646FFF7A2FF53
S31500003590054640B9FEF782FF092303604FF0FF346A
S315000035A0204603B0F0BD022E03D9FEF777FF16239F
S315000035B0F3E7012E12D14368E418F6D42B680A26E5
S315000035C06F46CDE9003430463946ABBE0646304636
S315000035D0FFF7A8FF0028E1DB6C60E1E7022EEDD1E2
S315000035E003680C266F46009330463946ABBE064646
S315000035F03046FFF797FF431CD0D00444DEE7FFF7C1
S31500003600C2BF30B585B0052401AD0392CDE90101F5
S3150000361020462946ABBE04462046FFF783FF05B089
S3150000362030BD37B515460191FFF754FF04460199A1
S3150000363030B9FEF733FF092303604FF0FF3012E085
S315000036402A460068FFF7DDFF0028F6DB62682B1AC2
S31500003650A8421A44626005D1002003B0BDE830409C
S31500003660FFF752BF184603B030BD37B5022401AD8F
S31500003670019020462946ABBE04462046FFF752FF7E
S3150000368003B030BD38B50546FFF724FF044630B910
S31500003690FEF704FF092303604FF0FF3038BD013DFC
S315000036A0012D09D8094B9A681B699A4204D14FF03B
S315000036B0FF3303600020F1E72068FFF7D6FF0028FC
S315000036C0ECD14FF0FF332360E8E700BFD0050020C0
S315000036D070B50C46FFF7FEFE054630B9FEF7DEFE76
S315000036E0092303604FF0FF3070BD63680C2643F476
S315000036F0005363604FF48063A36430462946ABBE33
S3150000370005462846FFF70EFF431C1CBF206100201C
S31500003710EAE70B465822002110B504461846FEF784
S31500003720E0FE01462046BDE81040FFF7D1BF70B568
S31500003730FFF7D0FE0925044620B9FEF7AFFE056067
S31500003740204670BD28462146ABBE0446012CF7D064
S31500003750FEF7A4FE00240546132630462146ABBEDE
S3150000376006462E60ECE7FFFF4275696C74207769A8
S3150000377074682052656E6573617320416476616E6C
S3150000378063656420466C657869626C6520536F6674
S315000037907477617265205061636B61676520766539
S315000037A07273696F6E20342E342E3000342E342E10
S315000037B03000000000000404F8B500BFF8BC08BCE7
S315000037C09E467047F8B500BFF8BC08BC9E467047D9
S315000037D04572726F72206F6E2064656661756C74D7
S315000037E020616C6C6F6361746F727320286C696EF4
S315000037F065202564290A00FF0010008000F0FF9F65
S315000038000080000001000000000000000000000031
S3150000381000000000000000000000000000000000A2
S315000038200000000000000000000000000000000092
S315000038300000000000000000000000000000000082
S315000038400000000000000000000000000000000072
S315000038500000000000000000000000000000000062
S315000038600000000000000000000000000000000052
S315000038700000000000000000000000000000000042
S315000038800000000000000000000000000000000032
S315000038900000000000000000000000000000000022
S315000038A00000000000000000000000000000000012
S315000038B00000000000000000000000000000000002
S315000038C000000000000000000000000000000000F2
S315000038D000000000000000000000000000000000E2
S315000038E000000000000000000000000000000000D2
S315000038F000000000000000000000000000000000C2
S3150000390000000000000000000000000000000000B1
S3150000391000000000000000000000000000000000A1
S315000039200000000000000000000000000000000091
S315000039300000000000000000000000000000000081
S315000039400000000000000000000000000000000071
S315000039500000000000000000000000000000000061
S315000039600000000000000000000000000000000051
S315000039700000000000000000000000000000000041
S315000039800000000000000000000000000000000031
S315000039900000000000000000000000000000000021
S315000039A00000000000000000000000000000000011
S315000039B00000000000000000000000000000000001
S315000039C000000000000000000000000000000000F1
S315000039D000000000000000000000000000000000E1
S315000039E000000000000000000000000000000000D1
S315000039F00000000000000000A0030020443A000080
S31500003A003C3C0000000000000000002059040000BB
S31500003A10000000002000002003010002000000005A
S31500003A207017000000000000B80B0000000C00003A
S31500003A3039030000000000003C3A000000000001CD
S31500003A40000000FF260000004C3A000000000103C1
S31500003A50080A000000000103090A00000000010333
S31500003A600A0A0000000001030B0A00000000010220
S31500003A700C0A0000000001000D0A00000000010011
S31500003A800E0A0000000001000F0A000000400000BE
S31500003A90010B000000000100030B00000000010301
S31500003AA0040B000000000103050B000000000103E9
S31500003AB0060B000000000103070B000000000103D5
S31500003AC0080B000000000103090B000000000000C5
S31500003AD0000C000000000000010C00000040000087
S31500003AE0040C000000400000050C0000050000006A
S31500003AF0060C000005000000070C00000000010392
S31500003B00080C000000000103090C0000000001027F
S31500003B100D0C0000000001030E0C00000000010364
S31500003B200F0C000005000000010D0000050000005C
S31500003B30020D000005000000030D0000000000005B
S31500003B40040D000000000000070D00000000010346
S31500003B50080D000000000103090D000000400000F0
S31500003B600C0D0000004000000D0D0000004000009C
S31500003B700E0D0000050000000F0D0000400064005F
S31500003B8063005A0059000000000000000000000019
S31500003B90000000000000000000000000000000001F
S31500003BA0000000000000000000000000000000000F
S31500003BB000000000000000000000000000000000FF
S31500003BC000000000000000000000000000000000EF
S31500003BD000000000000000000000000000000000DF
S31500003BE000000000000000000000000000000000CF
S31500003BF000000000000000000000000000000000BF
S31500003C0000000000000000000000000000000000AE
S31500003C10000000000000000000000000000000009E
S31500003C20000000000000000000000000000000008E
S31500003C30000000000000000000000000B9080000BD
S31500003C4099060000CD080000D90800005D070000B5
S31500003C50B1070000A5060000F906000019070000DC
S31500003C604507000095070000C9060000DD060000B4
S31500003C700001020304050607080C10141820304042
S31500003C80010002000800100006000000903C000041
S31500003C90010D020D030D0F0D060C070C00000000B0
S31500003CA0000000000000000000000000000000000E
S31500003CB0700000200000000000000000000000006E
S31500003CC000000000000000000000000000000000EE
S31500003CD000000000000000000000000000000000DE
S31500003CE000000000000000000000000000000000CE
S31500003CF000000000000000000000000000000000BE
S31500003D0000000000000000000000000000000000AD
S31500003D1000000000232D302B2000686C4C006566E7
S31500003D206745464700303132333435363738394106
S31500003D30424344454600303132333435363738391C
S31100003D4061626364656600FF000000001D
S30D00003D4C10E4FF7F01000000F6
S31500003D54010000003B000000140000000400000005
S31500003D64010000000E000000050000000100000034
S31500003D74F837000000000000010000000000000009
S31500003D84003E00001000002001000000400000205A
S31500003D94030000000100000073730000727300004A
S31500003DA4000000000C0C000025180000211800007B
S31500003DB41D18000019180000000000007000002003
S31500003DC400000000D43C0000F43C0000B43C0000B9
S31500003DD400000000000000000000000000000000D9
S31500003DE400000000000000000000000000000000C9
S31500003DF400000000000000000000000000000000B9
S31500003E0400000000000000000000000000000000A8
S31500003E140000000000000000000000000000000098
S30D00003E24250200000102000066
S3150100A100FFFFFFFFFFFFFFFFFFFFFFFFFFFFFFFF58
S3150100A110FFFFFFFFFFFFFFFFFFFFFFFFFFFFFFFF48
S3150100A120FFFFFFFFFFFFFFFFFFFFFFFFFFFFFFFF38
S30D0100A130FFFFFFFFFFFFFFFF28
S3150100A200FFFDF0FFFFFFFFFFFFFFFFFFFFFFFFFF68
S3150100A210FFFFFFFFFFFFFFFFFFFFFFFFFFFFFFFF47
S3150100A220FFFFFFFFFFFFFFFFFFFFFFFFFFFFFFFF37
S3150100A230FFFFFFFFFFFFFFFFFFFFFFFFFFFFFFFF27
S3150100A240FFFFFFFFFFFFFFFFFFFFFFFFFFFFFFFF17
S3150100A250FFFFFFFFFFFFFFFFFFFFFFFFFFFFFFFF07
S3150100A260FFFFFFFFFFFFFFFFFFFFFFFFFFFFFFFFF7
S3150100A270FFFFFFFFFFFFFFFFFFFFFFFFFFFFFFFFE7
S3150100A280F8F8F0FFFFFFFFFFFFFFFFFFFFFFFFFFF4
S3150100A290FFFFFFFFFFFFFFFFFFFFFFFFFFFFFFFFC7
S3150100A2A0FFFFFFFFFFFFFFFFFFFFFFFFFFFFFFFFB7
S3150100A2B0FFFFFFFFFFFFFFFFFFFFFFFFFFFFFFFFA7
S3110100A2C0FFFFFFFFFFFFFFFFFFFFFFFF97
S705000016F1F3
