S01A00006D6963726F726F735F7465737462656E63682E737265637D
S31500000000F87C00203D190000651700003919000032
S315000000103919000039190000391900003919000092
S315000000200000000000000000000000003919000078
S3150000003039190000000000003919000039190000C4
S315000000402D15000031100000A511000095120000CA
S3150000005031100000F9100000000000000000000050
S31500000060000000000000000000000000000000008A
S31500000070000000000000000000000000000000007A
S31500000080000000000000000000000000000000006A
S31500000090000000000000000000000000000000005A
S315000000A0000000000000000000000000000000004A
S315000000B0000000000000000000000000000000003A
S315000000C0000000000000000000000000000000002A
S315000000D0000000000000000000000000000000001A
S315000000E0000000000000000000000000000000000A
S315000000F000000000000000000000000000000000FA
S3150000010000000000000000000000000000000000E9
S3150000011000000000000000000000000000000000D9
S3150000012000000000000000000000000000000000C9
S3150000013000000000000000000000000000000000B9
S3150000014000000000000000000000000000000000A9
S315000001500000000000000000000000000000000099
S315000001600000000000000000000000000000000089
S315000001700000000000000000000000000000000079
S315000001800000000000000000000000000000000069
S315000001900000000000000000000000000000000059
S315000001A00000000000000000000000000000000049
S315000001B00000000000000000000000000000000039
S315000001C00348044B834202D0034B03B118477047E0
S315000001D0D4000020D400002000000000064B074990
S315000001E0C91A891048BF0131491003D0044B0BB11D
S315000001F001481847704700BFD4000020D4000020F3
S315000002000000000010B5064C237843B9FFF7D8FF6D
S31500000210044B13B10448AFF300800123237010BDD3
S31500000220F000002000000000303E000008B5054B3D
S315000002301BB105490548AFF30080BDE80840FFF74C
S31500000240CDBF00BF00000000F4000020303E0000DB
S31500000250002110B52248234C88B0CDE90004224B7A
S315000002600846224A01F042FC03A801F011FC204C8A
S315000002702049214A214B03A8CDE90341CDE90523B5
S3150000028001F016FC30B3EFF31081012383F31088DD
S315000002901B4B1A681AB940241A48027304731A6869
S315000002A001321A6081F31088174B18495B685A8827
S315000002B0130A1B0153FA82F251F8223023F001137C
S315000002C023F4404343F0040341F8223000F03AF8A7
S315000002D008B010BD2F210E4802F014FAD3E700BF74
S315000002E0D1040000ED050000BD040000A1040000DB
S315000002F02D03000031030000350300003903000020
S315000003002804002000FD0140D43D000000F8014013
S3150000031018390000022800D07047024B024859687D
S3150000032000F0ACBA403B00009803002002F02ABE61
S3150000033002F030BE02F0E8BF0B46012103FB00F0DD
S3150000034002F0C6BF704700BF044AD2E9003101334C
S3150000035041F10001C2E90031704700BF20010020D1
S315000003602DE9F041324E334D33780C466F6882B03A
S315000003705BB3314D314E6946314800F0CDFF314B0C
S31500000380D3E90020009BA7EB030CD6E9001302FB80
S3150000039003F301FB0033D5E90005A2FB01210B4461
S315000003A0A0FB0C010CFB0511801841EB03011AA3FD
S315000003B0D3E9002301F0CEFF034600202360DB17BC
S315000003C0A260636002B0BDE8F0814FF001082946E3
S315000003D01B4800F0F9FF1A4800F0C0FF287A164DB6
S315000003E008FA00F001F0EAFC0DA3D3E9002301F0BE
S315000003F079FE0DA3D3E9002301F04AFD01F0C2FF07
S315000004002860A7FB000307FB013386F800800B4E2C
S31500000410696030607360AEE700CA9A3B0000000076
S3150000042000000000389C8C410000000065CDCD41E5
S31500000430280100204C3B000018010020100100207C
S31500000440A00300202001002038B58388B3F5006F93
S315000004501AD0B3F5005F17D0B3F5806F03D0012231
S315000004600B4B1A7038BD4C220A4D0B4B2C6800F111
S31500000470140102FB043002F077FD072C04F101039E
S3150000048008BF00232B6038BD0122044B1A7038BD0B
S31500000490290100202C010020340100202A0100201F
S315000004A008B50449044800F035FCB0FA80F040096C
S315000004B008BD00BF743B0000C003002008B5034818
S315000004C000F034FBB0FA80F0400908BDC0030020FC
S315000004D001232DE9F0414FF4805594B0ADF8083072
S315000004E0D318082B1446019514D8DDB200233B4AD5
S315000004F03B4E12783B4F9A4214BF062204223F2CF1
S315000005008DF80A50039233703B701ED9002014B048
S31500000510BDE8F0810C2B0BD9102B56D9142B4AD9D8
S31500000520182B56D9202B56D9302B50D8302500E021
S315000005300C252A4B8DF80A501B78002B3DD104223E
S31500000540274E284F33703B70039222460DF111005F
S3150000055002F00AFD01AB04F10D0000212A1B18442C
S315000005608DF8104002F030FF00211F4801AA00F06C
S3150000057049FB0028CAD101F067FA33780546884658
S315000005807BB114E001F060FA401B61EB08016428BE
S3150000059071F1000108DA01210A2001F0B7F8337879
S315000005A02BB93B78002BEDD03378002BAED020460C
S315000005B014B0BDE8F0811425BBE700230622084EDF
S315000005C0084F33703B700392BFE71025B1E7402513
S315000005D08CE71825ADE72025ABE700BF9403002084
S315000005E02A01002029010020C00300202DE9F04F38
S315000005F083B01D468B46924601F026FADFF87880D6
S3150000060004460E46DFF87490EF170AE0D8F800307B
S31500000610D9F80020934211D101214FF4FA7001F06C
S3150000062075F801F011FA001B61EB0601A842B94109
S31500000630ECDB0024204603B0BDE8F08F4C2203FB20
S3150000064002F20C4901938818047B5445F1D80D3207
S3150000065011445846224602F087FC019B2046072B90
S3150000066003F1010208BF0022C8F8002003B0BDE86C
S31500000670F08F00BF34010020300100202C01002043
S3150000068008B5FFF7E5FD002008BD00BF00220346C0
S3150000069010461A60704700BF0B0A10B41B01064CC7
S315000006A053FA81F154F821300020C3F340035DF87A
S315000006B0044B1370704700BF00F80140090A490156
S315000006C001F1804101F5F8314B6800201380704735
S315000006D0090A490123EA020C01F180411A4001F599
S315000006E0F83142EA0C4200208A6070470120CBB202
S315000006F0984080B202B900040B0A5B0103F1804303
S3150000070003F5F83398600020704700BF090A4901D5
S3150000071001F1804101F5F83110B40C6802EA030CCE
S315000007204CEA040C62EA030202EA0C0200205DF8BD
S31500000730044B0A60704700BF090A490101F1804174
S3150000074001F5F8314B680020C3F30F43138070475F
S31500000750012310B44FEA112C4FEA4C1C0CF1804CCB
S315000007600CF5F83CDCF80440C9B28B4099B203EAB8
S3150000077014435B1AB3FA83F35B0900205DF8044B5C
S3150000078013707047090A490123EA020C01F18041FE
S315000007901A4001F5F83142EA0C420020CA6070475F
S315000007A001200B0A5B0103F1804303F5F833C9B25C
S315000007B010B400FA01F1DC68012A4FEA01400DBFCE
S315000007C084438C4304430C430020DC605DF8044BF7
S315000007D0704700BFF0B5EFF31082012383F3108852
S315000007E0234F3B681BB923490B7340230B733B68AC
S315000007F001333B6082F3108803882BB341681E4C9B
S3150000080001EBC30E06E01B01083113448E4544F884
S31500000810230019D008688A88C5034FEA1223D2B28A
S31500000820F1D502EB031C54F82C601B01083120F4AF
S31500000830803526F4803613448E4544F82C6044F8FF
S315000008402C5044F82300E5D1EFF31082012383F303
S3150000085010883B6813B13B68013B3B603B681BB9A2
S31500000860802004490B73087382F31088F0BD00BF23
S315000008702804002000FD014000F8014008B5034BA4
S3150000088003600846FFF7A6FF002008BD54524F50EC
S3150000089008B50846FFF79EFF002008BD30B4EFF309
S315000008A01084012383F310881D4B186828B94FF074
S315000008B0400C1C4D287385F80CC018680130186070
S315000008C084F31088D4034FEA1120C9B219D4000169
S315000008D0154C084444F82020EFF31082012181F3DF
S315000008E01088196811B11968013919601B681BB99C
S315000008F080200C490B73087382F31088002030BCEB
S315000009007047094C01EB001C54F82C50000125F4EB
S31500000910803544F82C5022F4803544F82C50D7E723
S315000009202804002000FD014000F801401F2930B5D1
S315000009303FD84C2401F0070E04FB0EFECB080EEB4D
S31500000940832E0EF5126E8644DEF80030214DC3F379
S31500000950807454714FEAD37CDEF8084023F060437C
S3150000096082F804C01360DEF8043004F007041B0F9D
S315000009709460EC5C0EF10C03947144B10C34A64403
S315000009800B3213F801CB734502F801CFF9D11F29B9
S3150000099006D80122436B8A4023EA0203436330BD33
S315000009A027294FF0FF030FD9123900EB81014B6065
S315000009B030BD4FF04C0E0EFB010E27298CBFAEF555
S315000009C0C56EAEF58C6EBFE70E3900EB8100436055
S315000009D030BD00BFBC3D000070B5456904460E46FB
S315000009E098B0A5B160222946684602F0BDFA602299
S315000009F03146284602F0B8FA2846236998476069C6
S31500000A0018B16022694602F0AFFA18B070BD0D4603
S31500000A10F2E700BF2DE9F04146680F063568046825
S31500000A2001F00F0249D404EB0518D8F804704FEA18
S31500000A30051E17F0040F0EF104032AD117F0010F5B
S31500000A4004EB030C01D1052A26D0D8F8043023F094
S31500000A5007031343C8F80430DCF8043003F0070337
S31500000A609A42F9D1BA070DD0CB070BD43369AA1D28
S31500000A70DB6904EB850553F822306A6D03F0010348
S31500000A8013436B657444636803F007030373BDE89F
S31500000A90F08111F0010FD1D104EB030CD8F804302A
S31500000AA023F0070343F00103C8F80430DCF80430F0
S31500000AB003F00703012BF9D1C7E7A76917F0010770
S31500000AC001D1CB0724D4A36923F007031343A36101
S31500000AD0E36903F007039A42FAD187B1CB070ED434
S31500000AE033694FEA051EDB69D3E90223E263236417
S31500000AF07444636803F007030373BDE8F0814FEAAB
S31500000B00051E7444636803F007030373BDE8F081B0
S31500000B10E36B23F00103E363236C23F001032364F7
S31500000B20636D23F001036365CDE700BF38B500238D
S31500000B304468836094F91530002B0DDB01212E4D9E
S31500000B405A0903F01F03203201FA03F345F8223055
S31500000B50BFF34F8FBFF36F8F94F91730002B0DDB68
S31500000B600121254D5A0903F01F03203201FA03F330
S31500000B7045F82230BFF34F8FBFF36F8F94F91630CD
S31500000B80002B0DDB01211C4D5A0903F01F032032F7
S31500000B9001FA03F345F82230BFF34F8FBFF36F8F8F
S31500000BA01022154BC3F88020BFF34F8FBFF36F8F12
S31500000BB02022C3F88020BFF34F8FBFF36F8F8121B0
S31500000BC0FFF728FF8521FFF725FFEFF310800123AC
S31500000BD083F31088094A21689568C1F11B018B408F
S31500000BE02B439360936880F310880020044B22689F
S31500000BF043F8220038BD00BF00E100E00040084095
S31500000C00DC0300202DE9F041137955794468DB07B0
S31500000C1043EA857325681468272943EA04030468B0
S31500000C2027D801EB851E04EB0E0595F874502D07A9
S31500000C305ED44C2505FB0E45C5F804369579082D7E
S31500000C4060D9182D58D92F090B374C2303FB0EF307
S31500000C50966804EB03083F0706F0070603F5C26330
S31500000C60C8F8087602F10C0CC8F80C6623441DBBC4
S31500000C702EE04C26A1F1280707EB050E06FB0E45D4
S31500000C80C5F8B8359579082D30D9182D3CD92E09D7
S31500000C900B364C2303FB0EF3976804EB0308360769
S31500000CA007F0070703F2C453C8F8BC6502F10C0C41
S31500000CB0C8F8C075234495B10C352A44013B1CF88D
S31500000CC0014B944503F8014FF9D12729046806D84A
S31500000CD00123744484F870300020BDE8F081FF23BE
S31500000CE00EF1160E04EB8E046360F5E72E46D0E790
S31500000CF04EF66320BDE8F081A5F10807BF08083766
S31500000D00FFB2A2E72F46A0E7A5F10806B608083607
S31500000D10F6B2BEE700222DE9F84F8B68D1F810A095
S31500000D20D1F80080BB4D0361CB680F460646C0E98B
S31500000D300051C0E90523DAF81C90EFF31080012377
S31500000D4083F31088B44AC8F11B018B40916821EAED
S31500000D5003039360936880F31088EC6914F0080429
S31500000D60FBD130468121FFF755FE4FF40010D9F82C
S31500000D700430AA4A6B61E862C5F8B040D9F8103071
S31500000D80A7482B63D9F80830A649EB63D9F80C308D
S31500000D902B6499F8153044611B01DBB282F80533E8
S31500000DA0D1F8143364F31043C1F81433D1F8143373
S31500000DB0BFF35F8F2023C2F880311360D9F800306B
S31500000DC0AB61D9F81830066123F001036B6599F819
S31500000DD014301B01DBB282F80433D1F8103364F30C
S31500000DE01043C1F81033D1F81033BFF35F8F1023CF
S31500000DF0C2F8803113604FF480738B4AB8F1010F4B
S31500000E0042F82860DAF800B0AB621FD0DFF804E2DF
S31500000E1008F0010904F00F0C22090CF1120542F446
S31500000E2080720EEB0515CEF828209BE80F0085E8AA
S31500000E300F000EEB0C1CDCF82831013469F3C713E4
S31500000E40202C0BF1100BCCF82831E3D10025714C86
S31500000E5001213046A562FFF7DDFDDAF814C0D7F8A8
S31500000E6004E0DCF80420DEF80030FF2A914628BFB3
S31500000E704FF0FF09013BC3F30900DCF80030013AEB
S31500000E80013BDBB243EA0223DEF80420013A40EAE2
S31500000E904242DEE9020E013842EA40620EF1FF3EAE
S31500000EA042EA8E20DCE902E20EF1FF3C013A43EA17
S31500000EB00C4343EA02634FEA081202F1804202F54C
S31500000EC0302210604FEA481000F1804000F53020D3
S31500000ED0C0F800319AF8183008F122085B0243EA9C
S31500000EE0094343F480630B43C0F80431DAF8083051
S31500000EF044F82830DAF8103043F00303536097F9CA
S31500000F001530AB4224DB3A7D03F160401201D2B2C8
S31500000F1000F5614080F80023414A03F1C00042F821
S31500000F202360404A52F8204065F3104442F82040BE
S31500000F3052F82020BFF35F8F5A09920003F01F0377
S31500000F4002F1604202F561429940C2F880111160D7
S31500000F5097F91730002B25DB3A7D03F1604112012A
S31500000F60D2B201F5614181F800232D492D4A41F89D
S31500000F70236003F1C00152F8210020F4803042F8CA
S31500000F80210052F82120BFF35F8F012203F01F01D9
S31500000F905B099B0003F1604303F561438A40C3F894
S31500000FA080211A6097F91630002B26DB3A7D03F173
S31500000FB0604112011A48D2B201F5614181F800235D
S31500000FC0184A03F1C00140F8236052F8210020F4CA
S31500000FD0803042F8210052F82120BFF35F8F0121B3
S31500000FE05A09920003F01F0302F1604202F56142C2
S31500000FF001FA03F3C2F88031136030468021FFF70F
S3150000100009FD0021FFF706FD084BB1810846B360D4
S31500001010BDE8F88F00000B400040084000E100E00A
S315000010202C04002000600040DC03002044464352AC
S3150000103070B598B0EFF30383103B5BB2042B2BD053
S315000010401C462A4B5A2200210DF1060053F8245063
S3150000105002F0BAF94FF4807200216B68ADF80420F3
S315000010601E682B68284603EB0613DA6892B20292D2
S31500001070D960AB69694600960493FFF7ADFC1C4A3C
S3150000108004F1C00352F8231021F4803142F82310F2
S3150000109052F8233018B070BD164B60220021684606
S315000010A01C6802F091F94FF4805300212268ADF8D4
S315000010B00430136A180C1B0403EB007302939B03A2
S315000010C011620BD5936E93FAA3F3B3FA83F302EB93
S315000010D083020393536C23F004035364A3692046ED
S315000010E0694604930424FFF777FCC8E72C04002024
S315000010F000600040DC0300202DE9F043DFF8989003
S3150000110099B0D9F86C4094FAA4F41CB1B4FA84F4FA
S31500001110012C0EDD204BDB6E43B9204AD2F81413A6
S3150000112063F31041C2F81413D2F8143319B0BDE8B2
S31500001130F08301254FF48062D9F86030A54004F1B0
S3150000114020072B420397ADF804201AD14C2606FB44
S315000011500496DFF84C80D6F828353946C3F30123C8
S315000011600D4805AA0093FFF7E1FB009B694658F876
S31500001170230083690493FFF72FFCD9F860302B42D4
S31500001180E9D0A40004F1804404F53024636C23F014
S3150000119008036364BEE700BF00000B400060004028
S315000011A0DC0300202DE9F04198B0EFF30384374BC0
S315000011B0103C64B253F82480D8F80430D8F81820CC
S315000011C01E68D8F800101D6901F1A4070096049264
S315000011D0BB5D37444BBB4AE04FF40060203301EB64
S315000011E083021368ADF8040093FAA3F31BB1B3FAB4
S315000011F083F3072B07DD536893FAA3F3002B43D041
S31500001200B3FA83F3203303EB8612114491F874206A
S3150000121022F0060281F87420694640460393FFF7E0
S31500001220DBFB3B781BB3D8F800103A787300D0B2DA
S31500001230D20726F00046CFD4020712D5EA69063354
S3150000124052F823308A6D13F4805F0CBF4FF40050C0
S315000012504FF4006022F0100228238A65ADF80400DE
S31500001260DAE721334FF4007001EB8302B9E7084B4C
S31500001270C03453F8242022F4803243F8242053F853
S31500001280243018B0BDE8F0814023BCE72C040020D0
S315000012900060004070B598B0EFF3038628234FF442
S315000012A080621A49103E76B251F82640616820687D
S315000012B009680393036EADF80420DA05009110D493
S315000012C0134D282105AAFFF731FB009B694655F807
S315000012D0230083690493FFF77FFB2068036EDB0519
S315000012E0EFD5836D23F008038365836D13F0080340
S315000012F009D1084AC03652F8261063F3104142F865
S31500001300261052F8263018B070BD00BF2C040020FD
S31500001310DC0300200060004030B4057B84689DB18A
S3150000132004F10C02107800F001001378C3F34003B7
S315000013308342FAD11378C3F340030B713DB123689E
S31500001340002030BC0B60704704F10802EAE72388EE
S31500001350002030BC9BB20B60704700BF30B4057BE9
S31500001360846895B104F10C02117801F0010113783B
S31500001370C3F340038B42FAD143681978012907D099
S3150000138030BCF12300201370704704F10802EBE72C
S3150000139001691B7C481E45B120600A4830BC40F8F4
S315000013A02310F12300201370704780B2208002338F
S315000013B00448DBB240F82310F12330BC0020137040
S315000013C0704700BFE00300200123F0B403734160BF
S315000013D00A7C0446120202F1804202F5682282600B
S315000013E0EFF3108583F310884B48267BC068002EE8
S315000013F07ED00E7CC6F10306B340DB43034046486D
S31500001400C360C36885F3108800231373137BC3F38B
S3150000141040009B07FAD4277B9073A6680D7AC869AB
S31500001420002F62D006F10C02C37890F800C003F0DA
S3150000143007030079BCF1000F4ED1002D64D1107165
S3150000144000209071537095704A68636822611B7C16
S31500001450501E002F38D03060304840F8232091F9D4
S315000014601230002B26DB4A7C03F160401201D2B217
S3150000147000F5614080F8002329482A4A40F82340B5
S3150000148003F1C00052F8205025F4803542F8205070
S3150000149052F82020BFF35F8F01205A09920003F013
S315000014A01F0302F1604202F5614200FA03F3C2F83B
S315000014B0803113600020D1E905521B4B6561E26162
S315000014C02360A061F0BC704780B2308002331348BD
S315000014D0DBB240F82320C2E7BCF1500F06BF00255F
S315000014E043F050034CEA0303A9E706F108029BE721
S315000014F091F810C00CF1020C5FFA8CFCCCF1030CD5
S3150000150003FA0CF3DB4379E785F0020543EA05139A
S31500001510DBB2654693E700BF00400840E0030020C9
S315000015202C04002000600040544741002DE9F041A2
S3150000153084B0EFF30383103B214A5BB203F1C00191
S3150000154052F8210020F4803042F8210052F8212080
S315000015501C4A52F82340237BA5686BB30C3562689E
S315000015602B781278DBB2012A04D1F42203F0F003BF
S315000015702A702B70D4F81480B8F1000F15D0A66924
S3150000158001AFDEB196E8070087E807009B0644BF77
S3150000159000233371E36930463360C047A3691BB14A
S315000015A097E8070083E807002B78DBB203F00F0308
S315000015B02B7004B0BDE8F0810835D0E73E46E5E77C
S315000015C0006000402C040020064B074993F82600D3
S315000015D01A6A51F82030C2F302620449D3400B6004
S315000015E0704700BF00E00140D4000020B80500208D
S315000015F04AF2035001233949394A70B4A1F8FE036F
S31500001600A2F80431B2F804319BB2002BFAD10121C1
S315000016104FF400453348344C03618560A2F800114D
S31500001620A160216009212024304E05F1987505F549
S315000016302D45C0E90056294A92F82650156A82F8C7
S31500001640134482F8A21082F832302949294BC1602E
S31500001650436192F83C301907FBD54FF43C54002304
S315000016601E49148582F82A3091F83C309B06FBD53A
S3150000167005234FF0010C1A4E1F4D86F81CC10D6252
S3150000168081F8263091F826301C4C50F82330086A31
S31500001690124AC0F30260C340236091F8763043F0EB
S315000016A0400381F8763092F87630DB09FBD0C5230B
S315000016B0032082F86E0082F8763092F87630074979
S315000016C003F0BF0382F8763091F87630DB09FBD160
S315000016D070BC4FF42543A1F8FE33704700E001408B
S315000016E000C00140D40000200070004000127A00C3
S315000016F080969800001C4E0E21120220B80500208C
S31500001700A0F101000028FBD1704700BF4FF47A73A7
S3150000171010B400FB01F1114C114A2468B2FBF4F23B
S31500001720A1FB03043CB9B0FBF2F0800860B15DF8A0
S31500001730044BFFF7E5BF9200B1FBF2F1A1FB0313E7
S315000017402BB908460028F2D15DF8044B70474FF0DC
S31500001750FF3C5DF8044B6046FFF7D2BFB80500209A
S3150000176000CA9A3B70B500240B4B0C4EB3F82021EF
S31500001770B3F84051ADB2154025FA04F3DB0704D5A2
S3150000178056F82430E0B203B198470134102CF3D157
S31500001790014BA3F8305170BD00600040E803002003
S315000017A030B5032085B000F07DF86FF0FF054FF0EF
S315000017B0FF31204C002322464FF0010E1E4885645F
S315000017C0CDE90111039104F1C00532F8020F590960
S315000017D060B104A800EB810151F80C0C03F01F0C5A
S315000017E00EFA0CFC20EA0C0041F80C0C954203F1B1
S315000017F00103EAD10199114B0F4A03201167C3F87F
S31500001800801202995167C3F8841203999167C3F84D
S31500001810881200F017F80023094834F8022F03F164
S31500001820C00101330AB140F82120A542F5D105B027
S3150000183030BD00BFC63C00000080004000E100E073
S3150000184000600040EFF31081012383F31088124BF0
S3150000185033F8102092B22AB133F81020013A92B22E
S3150000186023F8102033F810309BB293B90B4A10B40A
S31500001870B2F8FE330A4C9BB234F8100043F4254309
S3150000188023EA0003A2F8FE3381F310885DF8044BC7
S31500001890704781F310887047AC05002000E00140D6
S315000018A0CC3D000030B4EFF31081012383F31088A0
S315000018B00E4A32F810309BB26BB90D4C0D4DB4F890
S315000018C0FE3335F810C09BB243EA0C0343F42543BC
S315000018D09BB2A4F8FE3332F8103001339BB222F8E3
S315000018E0103081F3108830BC704700BFAC05002073
S315000018F000E00140CC3D00000C4A08B503461068E4
S3150000190040B103330A4923F0030303448B4205D84D
S31500001910136008BD074908461160F2E701F030FD83
S315000019200C2203464FF0FF301A6008BDB4050020B4
S3150000193060420020C807002000BE704708B500F0CE
S3150000194003F8FEF79DFEFEE74FF4700270B5314BCB
S31500001950314CC3F888209C60EFF31081012585F394
S3150000196010882E4B9A6822F480129A609B6881F345
S3150000197010880020FEF7CEFCFFF73AFE2846FEF759
S31500001980C9FC2368A3F56A53183B83F30A882448E5
S31500001990244A0021121A01F017FD2348234A24493C
S315000019A0121A01F0E1FA234D234B5B1B002B07DDD6
S315000019B000249E1055F8043B01349847A642F9DCF2
S315000019C0FFF702FE0320FFF76DFF00234FF6FF70BF
S315000019D01A4903F10C020133102B21F82200F8D129
S315000019E000240320FFF72EFF0320FFF75BFF144BB5
S315000019F003205C609C60DC601C61FFF723FF022013
S31500001A00FEF788FCFFF7CCFE2046BDE8704000F0EC
S31500001A1019B800BF00ED00E00000000000400840DB
S31500001A20F0000020C407002000000020D4000020A1
S31500001A305C3E0000CC000020D000002000FD0140EC
S31500001A4000000E40704700BF30B585B069460120E2
S31500001A50FEF786FC084C0098019DA0FB040104FBE0
S31500001A600511029C00230019044A41EBE47100F0C1
S31500001A7021FC05B030BD00BF00CA9A3B40420F00B2
S31500001A8001F026BC01F040BC01F084BA01F07ABA3C
S31500001A90844630B4054C0FCC25686446ACE80F008C
S31500001AA02046CCF8005030BC704700BFE83D00002F
S31500001AB0A8B10268A2B14168A1B110B4C46864B10A
S31500001AC0806838B1084B1A600022C3E90110012072
S31500001AD0C3E903425DF8044B70472046FAE77047B6
S31500001AE010467047084670475C00002070B4DDE978
S31500001AF0035662B15BB155B14EB1064C2070C4E9D4
S31500001B0001120020C4E90335666170BC70470B20E2
S31500001B1070BC7047BC05002081F0004102E000BFA8
S31500001B2083F0004330B54FEA41044FEA430594EA97
S31500001B30050F08BF90EA020F1FBF54EA000C55EAD2
S31500001B40020C7FEA645C7FEA655C00F0E2804FEAA3
S31500001B505454D4EB5555B8BF6D420CDD2C4480EA85
S31500001B60020281EA030382EA000083EA010180EAB5
S31500001B70020281EA0303362D88BF30BD11F0004F03
S31500001B804FEA01314FF4801C4CEA113102D0404239
S31500001B9061EB410113F0004F4FEA03334CEA133374
S31500001BA002D0524263EB430394EA050F00F0A7808C
S31500001BB0A4F10104D5F1200E0DDB02FA0EFC22FA87
S31500001BC005F2801841F1000103FA0EF2801843FA7B
S31500001BD005F359410EE0A5F120050EF1200E012A6C
S31500001BE003FA0EFC28BF4CF0020C43FA05F3C018AA
S31500001BF051EBE37101F0004507D54FF0000EDCF123
S31500001C00000C7EEB00006EEB0101B1F5801F1BD3CB
S31500001C10B1F5001F0CD349085FEA30004FEA3C0CCF
S31500001C2004F101044FEA445212F5800F80F09A80C5
S31500001C30BCF1004F08BF5FEA500C50F1000041EBC9
S31500001C40045141EA050130BD5FEA4C0C404141EBCD
S31500001C500101013C28BFB1F5801FE9D291F0000FC8
S31500001C6004BF01460020B1FA81F308BF2033A3F177
S31500001C700B03B3F120020CDA0C3208DD02F1140C6E
S31500001C80C2F10C0201FA0CF021FA02F10CE002F1A9
S31500001C901402D8BFC2F1200C01FA02F120FA0CFCA2
S31500001CA0DCBF41EA0C019040E41AA2BF01EB0451EB
S31500001CB0294330BD6FEA04041F3C1CDA0C340EDCE9
S31500001CC004F11404C4F1200220FA04F001FA02F32C
S31500001CD040EA030021FA04F345EA030130BDC4F1EA
S31500001CE00C04C4F1200220FA02F001FA04F340EADF
S31500001CF00300294630BD21FA04F0294630BD94F090
S31500001D00000F83F4801306BF81F480110134013D76
S31500001D104EE77FEA645C18BF7FEA655C29D094EAE7
S31500001D20050F08BF90EA020F05D054EA000C04BF65
S31500001D301946104630BD91EA030F1EBF0021002050
S31500001D4030BD5FEA545C05D14000494128BF41F0EF
S31500001D50004130BD14F580043CBF01F5801130BD53
S31500001D6001F0004545F0FE4141F470014FF00000DE
S31500001D7030BD7FEA645C1ABF194610467FEA655C8F
S31500001D801CBF0B46024650EA013406BF52EA033531
S31500001D9091EA030F41F4002130BD00BF90F0000F1F
S31500001DA004BF0021704730B54FF4806404F132045B
S31500001DB04FF000054FF0000150E700BF90F0000F14
S31500001DC004BF0021704730B54FF4806404F132043B
S31500001DD010F0004548BF40424FF000013EE700BF0B
S31500001DE042004FEAE2014FEA31014FEA02701FBF9B
S31500001DF012F07F4393F07F4F81F06051704732F0CD
S31500001E007F4208BF704793F07F4F04BF41F4002123
S31500001E10704730B54FF4607401F0004521F0004181
S31500001E201CE700BF50EA010208BF704730B54FF00B
S31500001E3000050AE050EA010208BF704730B511F00C
S31500001E40004502D5404261EB41014FF4806404F144
S31500001E5032045FEA915C3FF4D8AE4FF003025FEACA
S31500001E60DC0C18BF03325FEADC0C18BF033202EB4E
S31500001E70DC02C2F1200300FA03FC20FA02F001FAA8
S31500001E8003FE40EA0E0021FA02F11444BDE600BF4B
S31500001E9070B54FF0FF0C4CF4E06C1CEA11541DBFFA
S31500001EA01CEA135594EA0C0F95EA0C0F00F0DEF8C5
S31500001EB02C4481EA030621EA4C5123EA4C5350EAAA
S31500001EC0013518BF52EA033541F4801143F48013FB
S31500001ED038D0A0FB02CE4FF00005E1FB02E506F08C
S31500001EE00042E0FB03E54FF00006E1FB03569CF0E1
S31500001EF0000F18BF4EF0010EA4F1FF04B6F5007FE7
S31500001F0064F5407404D25FEA4E0E6D4146EB060658
S31500001F1042EAC62141EA55514FEAC52040EA5E50E1
S31500001F204FEACE2EB4F1FD0C88BFBCF5E06F1ED88B
S31500001F30BEF1004F08BF5FEA500E50F1000041EBC2
S31500001F40045170BD06F0004646EA010140EA02006F
S31500001F5081EA0301B4EB5C04C2BFD4EB0C0541EA91
S31500001F60045170BD41F480114FF0000E013C00F3A6
S31500001F70AB8014F1360FDEBF002001F0004170BDCA
S31500001F80C4F10004203C35DA0C341BDC04F11404E3
S31500001F90C4F1200500FA05F320FA04F001FA05F26F
S31500001FA040EA020001F0004221F0004110EBD3703C
S31500001FB021FA04F642EB06015EEA430E08BF20EA68
S31500001FC0D37070BDC4F10C04C4F1200500FA04F30B
S31500001FD020FA05F001FA04F240EA020001F000419D
S31500001FE010EBD37041F100015EEA430E08BF20EA10
S31500001FF0D37070BDC4F1200500FA05F24EEA020E58
S3150000200020FA04F301FA05F243EA020321FA04F086
S3150000201001F0004121FA04F220EA020000EBD3703D
S315000020205EEA430E08BF20EAD37070BD94F0000F3D
S315000020300FD101F00046400041EB010111F4801F71
S3150000204008BF013CF7D041EA060195F0000F18BF22
S31500002050704703F00046520043EB030313F4801F5E
S3150000206008BF013DF7D043EA0603704794EA0C0F18
S315000020700CEA135518BF95EA0C0F0CD050EA41062E
S3150000208018BF52EA4306D1D181EA030101F00041AB
S315000020904FF0000070BD50EA410606BF10461946D3
S315000020A052EA430619D094EA0C0F02D150EA0136DF
S315000020B013D195EA0C0F05D152EA03361CBF104620
S315000020C019460AD181EA030101F0004141F0FE41BF
S315000020D041F470014FF0000070BD41F0FE4141F443
S315000020E0780170BD70B54FF0FF0C4CF4E06C1CEA43
S315000020F011541DBF1CEA135594EA0C0F95EA0C0FF8
S3150000210000F0A7F8A4EB050481EA030E52EA0335B2
S315000021104FEA013100F088804FEA03334FF08055D3
S3150000212045EA131343EA12634FEA022245EA111500
S3150000213045EA10654FEA00260EF000419D4208BFB1
S31500002140964244F1FD0404F5407402D25B084FEA5E
S315000021503202B61A65EB03055B084FEA32024FF40A
S3150000216080104FF4002CB6EB020E75EB030E22BF67
S31500002170B61A754640EA0C005B084FEA3202B6EB27
S31500002180020E75EB030E22BFB61A754640EA5C00D6
S315000021905B084FEA3202B6EB020E75EB030E22BF66
S315000021A0B61A754640EA9C005B084FEA3202B6EB67
S315000021B0020E75EB030E22BFB61A754640EADC0026
S315000021C055EA060E18D04FEA051545EA16754FEA88
S315000021D006164FEAC30343EA52734FEAC2025FEAA6
S315000021E01C1CC0D111F4801F0BD141EA00014FF035
S315000021F000004FF0004CB6E711F4801F04BF014306
S315000022000020B4F1FD0C88BFBCF5E06F3FF6AFAE21
S31500002210B5EB030C04BFB6EB020C5FEA500C50F1B1
S31500002220000041EB045170BD0EF0004E4EEA113134
S3150000223014EB5C04C2BFD4EB0C0541EA045170BD3B
S3150000224041F480114FF0000E013C90E645EA060E7F
S315000022508DE60CEA135594EA0C0F08BF95EA0C0FAD
S315000022603FF43BAF94EA0C0F0AD150EA01347FF4F5
S3150000227034AF95EA0C0F7FF425AF104619462CE7CC
S3150000228095EA0C0F06D152EA03353FF4FDAE10462F
S31500002290194622E750EA410618BF52EA43067FF480
S315000022A0C5AE50EA41047FF40DAF52EA43057FF410
S315000022B0EBAE12E77BB972B90029BEBF00204FF022
S315000022C0004106E008BF00281CBF6FF000414FF038
S315000022D0FF3000F0F5B9ADF1080C6DE904CE002928
S315000022E009DB002B1ADB00F06BF8DDF804E0DDE912
S315000022F0022304B07047404261EB4101002B1BDB17
S3150000230000F05EF8DDF804E0DDE9022304B04042A7
S3150000231061EB4101524263EB43037047524263EB68
S31500002320430300F04DF8DDF804E0DDE9022304B0D4
S31500002330404261EB41017047524263EB430300F0B8
S315000023403FF8DDF804E0DDE9022304B0524263EB16
S315000023504303704753B94AB9002908BF00281CBF78
S315000023604FF0FF314FF0FF3000F0AAB9ADF1080C85
S315000023706DE904CE00F024F8DDF804E0DDE902237F
S3150000238004B07047D0B500220B4B06460F46FFF748
S315000023907FFD00F097F90446FFF700FD0022074B8A
S315000023A0FFF776FD02460B4630463946FFF7B8FB87
S315000023B000F088F92146D0BD0000F03D0000F04154
S315000023C02DE9F04F099D0E4604460F46002B47D1D6
S315000023D08A429446B2FA82F35AD943B102FA03FC0E
S315000023E0C3F120029F409C4020FA02F217434FEAB5
S315000023F01C461FFA8CFE220CB7FBF6F106FB117782
S3150000240001FB0EF042EA0742904208D91CEB020299
S3150000241001F1FF3702D2904200F23C813946121A8E
S31500002420A4B2B2FBF6F006FB102200FB0EFE44EA55
S315000024300244A64508D91CEB040400F1FF3202D27F
S31500002440A64500F22A81104640EA0140A4EB0E049C
S3150000245000211DB1DC400023C5E90043BDE8F08F33
S315000024608B4205D90DB1C5E9000100210846F5E703
S31500002470B3FA83F100294FD1B342C0F00281824200
S3150000248040F2FF800846002DE8D0C5E90047E5E7A1
S31500002490002B40F0AF808A1A4FEA1C4E1FFA8CF7C9
S315000024A00121B2FBFEF60EFB1620220C42EA004288
S315000024B007FB06F090420FD91CEB020206F1FF382B
S315000024C02CBF4FF001094FF00009904203D9B9F132
S315000024D0000F00F0DC804646121AA4B2B2FBFEF0F2
S315000024E00EFB102200FB07F744EA0244A7420FD96D
S315000024F01CEB040400F1FF322CBF4FF0010E4FF02D
S31500002500000EA74203D9BEF1000F00F0C9801046A5
S31500002510E41B40EA06409CE7C1F120048B4006FA22
S3150000252001FC00FA01FE22FA04F7E6408A401F4346
S3150000253020FA04F34FEA174843EA0C031FFA87FC14
S315000025404FEA1349B6FBF8F008FB106649EA06465F
S3150000255000FB0CF9B1450ED9BE1900F1FF3A2CBFAC
S315000025604FF0010B4FF0000BB14503D9BBF1000F43
S3150000257000F0A2805046A6EB09061FFA83F9B6FBC7
S31500002580F8F308FB136603FB0CFC49EA0646B44560
S315000025900ED9BE1903F1FF382CBF4FF001094FF0D9
S315000025A00009B44503D9B9F1000F00F08280434613
S315000025B043EA0040A6EB0C06A0FB028C66454346A8
S315000025C0E14602D307D1C64505D2B8EB02036CEB50
S315000025D0070C0138E1465DB1BEEB030266EB090666
S315000025E006FA04F422FA01F3CE401C43C5E900467C
S315000025F0002133E702FA03FCC3F1200299409C4014
S31500002600D6404FEA1C4E20FA02F21FFA8CF7B6FBB0
S31500002610FEF00A430EFB1066110C41EA064100FB70
S3150000262007F68E420ED91CEB010100F1FF382CBFD4
S315000026304FF001094FF000098E4202D9B9F1000F9F
S3150000264034D04046891B92B2B1FBFEF60EFB161142
S3150000265042EA014206FB07F191420ED91CEB020247
S3150000266006F1FF382CBF4FF001094FF000099142E7
S3150000267002D9B9F1000F16D04646521A46EA004171
S315000026800FE7841A66EB030201201746FBE6023EBB
S31500002690624421E702396244C1E664440238D3E663
S315000026A06444023834E7023E6244E6E70238614495
S315000026B0C8E7023B3E447BE702383E445BE700BF87
S315000026C0704700BF4A0011D212F5001211D20DD583
S315000026D06FF47873B3EB62520ED44FEAC12343F022
S315000026E0004343EA505323FA02F070474FF00000CC
S315000026F0704750EA013002D14FF0FF3070474FF07B
S31500002700000070470FB407B5064904AB086853F8D4
S31500002710042B8168019300F031F803B05DF804EBF7
S3150000272004B07047700000209368013B002B936053
S3150000273010B408DA9469A34201DB0A2903D15DF8D3
S31500002740044B00F033B91368581C10600846197022
S315000027505DF8044B7047F8B506460F461446D51883
S31500002760AC4201D1002007E03A4614F8011B30467E
S31500002770FFF7DAFF431CF3D1F8BDFFFF2DE9F04F59
S315000027800D469DB014469846064618B1036A0BB925
S3150000279000F036FD6B6ED90705D4AB899A0502D4D5
S315000027A0A86D00F092FEAB891B0701D52B699BB97A
S315000027B02946304600F038F970B16B6EDC0704D557
S315000027C04FF0FF301DB0BDE8F08FAB899805F7D408
S315000027D0A86D00F07BFEF3E70023CDF80C804FF0E8
S315000027E00109DFF8B481099320238DF829303023BD
S315000027F08DF82A3023469A4613F8012B0AB1252A6A
S31500002800F9D1BAEB040B0BD05B462246294630467B
S31500002810FFF7A1FF013000F0A780099A5A440992F8
S315000028209AF80030002B00F09F8000234FF0FF3213
S315000028300AF1010A049307938DF853301A93CDE9F0
S31500002840052354460522544814F8011B00F07EFB6C
S31500002850049AD8B9D10644BF20238DF85330130704
S3150000286044BF2B238DF853309AF800302A2B15D00D
S31500002870079A544600204FF00A0C214611F8013BF6
S31500002880303B092B4BD9B0B1079214E0A0EB0803FB
S31500002890A24609FA03F313430493D2E7039B191DD7
S315000028A01B68002B0391BBBF5B4242F002020793F9
S315000028B00793B8BF049223782E2B0AD163782A2B6C
S315000028C032D1039B02341A1D1B6843EAE373039259
S315000028D00593DFF8D4A003222178504600F036FB9A
S315000028E038B1A0EB0A004022049B01348240134316
S315000028F0049314F8011B062228488DF8281000F0CE
S3150000290025FB00283FD0264B1BBB039B073323F038
S31500002910070308330393099B3B4409936AE70CFBBF
S3150000292002320C460120A8E7002301344FF00A0CBE
S3150000293019460593204610F8012B303A092A03D987
S31500002940002BC6D00591C4E70CFB012104460123E8
S31500002950F0E703AB2A4604A930460093114BAFF3C8
S3150000296000800746781CD6D16B6ED90705D4AB8993
S315000029709A0502D4A86D00F0A9FDAB895B063FF568
S315000029801FAF09981EE703AB2A4604A930460093F9
S31500002990044B00F011F9E4E7FC3D0000063E0000A0
S315000029A00000000057270000023E0000F8B50E4662
S315000029B01446054618B1036A0BB900F021FCA36959
S315000029C0A360A3891A0701D5236943B9214628467E
S315000029D000F02AF818B14FF0FF373846F8BD2368E3
S315000029E0F6B222693746981A6369834205DC2146A6
S315000029F0284600F083FA0028EDD1A368013BA360C6
S31500002A0023685A1C22601E70431C62699A4204D0D5
S31500002A10A389DB07E1D50A2EDFD12146284600F03F
S31500002A206DFA0028D9D0D6E738B5294B05460C46AD
S31500002A30186818B1036A0BB900F0E2FBB4F90C3060
S31500002A40190722D4DA0607D409222A6043F0400384
S31500002A504FF0FF30A38133E0580712D5616B41B1C7
S31500002A6004F14403994202D0284600F0E3FC002317
S31500002A706363A38923F02403A3810023636023698E
S31500002A802360A38943F00803A38123694BB9A38973
S31500002A9003F42073B3F5007F03D02146284600F0E7
S31500002AA03BFDB4F90C3013F001020AD00022A260FB
S31500002AB062695242A261226942B913F08000C5D10F
S31500002AC038BD990758BF6269A260F4E70020F7E7AE
S31500002AD0700000202DE9F047164698468A6807469A
S31500002AE00B690C46DDF820909342B8BF134633605D
S31500002AF091F843200AB1013333602368990642BF37
S31500002B00336802333360256815F0060506D104F1F3
S31500002B10190AE36832689B1AAB422BDC94F84330FF
S31500002B202268003B18BF0123920630D404F1430209
S31500002B3041463846C847013023D023681A3454F832
S31500002B400A2C03F00603042B0ABF54F80E5C00257A
S31500002B5033684FF0000608BFED1A54F8123C08BF60
S31500002B6025EAE5759342C4BF9B1AED18B5421AD102
S31500002B70002008E00123524641463846C847013046
S31500002B8003D14FF0FF30BDE8F0870135C1E7E1180A
S31500002B905A1C30200233224481F8430094F8451031
S31500002BA082F84310C2E70123224641463846C84709
S31500002BB00130E6D00136D9E72DE9FF470F7E914671
S31500002BC080460C46782F9A460C9E01F1430207D8A0
S31500002BD0622F0AD8002F00F0D180582F00F0B8805D
S31500002BE004F1420684F842703AE0A7F16303152B1C
S31500002BF0F6D801A151F823F0512C0000652C0000F5
S31500002C00E12B0000E12B0000E12B0000E12B00008E
S31500002C10652C0000E12B0000E12B0000E12B0000F9
S31500002C20E12B0000632D00008F2C00001D2D0000FD
S31500002C30E12B0000E12B0000852D0000E12B0000B8
S31500002C408F2C0000E12B0000E12B0000252D000059
S31500002C5033681A1D1B68326004F1420684F842305C
S31500002C6001239CE033682068191D3160060601D5F2
S31500002C701D6803E04506FBD5B3F90050002D03DAC5
S31500002C802D236D4284F8433058480A2311E0216809
S31500002C903368080653F8045B02D4490648BFADB250
S31500002CA06F2F3360514814BF0A230823002184F88C
S31500002CB043106668002EA66005DB21682E4321F0CE
S31500002CC0040121604BD01646B5FBF3F103FB115707
S31500002CD0C75D06F8017D2F460D46BB42F4D9082B89
S31500002CE00BD12368DF0708D5236961689942DEBFE7
S31500002CF0302306F8013C06F1FF36921B22614B4653
S31500002D0003AA21464046CDF800A0FFF7E3FE0130B6
S31500002D104AD14FF0FF3004B0BDE8F087236843F096
S31500002D202003236078273248236884F845701F06FD
S31500002D30316851F8045B02D45F0648BFADB231601A
S31500002D40D90744BF43F0200323601DB11023ADE72C
S31500002D502648E9E7236823F020032360F6E71646B2
S31500002D60BDE733682568181D616930602E061B684B
S31500002D7001D5196002E06806FBD5198000231646C6
S31500002D802361BCE7336800211A1D32601E68626841
S31500002D90304600F0DBF808B1801B60606368236191
S31500002DA0002384F84330AAE7236932464946404661
S31500002DB0D0470130ADD023689B0713D4E068039B4E
S31500002DC09842B8BF1846A6E7012332464946404610
S31500002DD0D04701309DD00135E36803995B1AAB42B9
S31500002DE0F2DCEBE7002504F11906F5E70D3E0000DD
S31500002DF01E3E0000B1F90C202DE9F04116070546EC
S31500002E000C4654D44B68002B02DC0B6C002B48DDBF
S31500002E10E66A002E45D0002312F480522F68216AFC
S31500002E202B6030D0626DA389590705D56368D21A25
S31500002E30636B0BB1236CD21A0023E66A216A28461B
S31500002E40B047431CA38906D129681D292BD82A4AD5
S31500002E50CA40D60727D50022D904626022692260BB
S31500002E6004D5421C01D12B6803B96065616B2F60E4
S31500002E70B9B104F14403994202D0284600F0DAFAC7
S31500002E80002363630DE001232846B0470246501C29
S31500002E90C9D12B68002BC6D01D2B01D0162B1DD1F6
S31500002EA02F60002021E043F040031BB21AE00F69B7
S31500002EB0002FF6D093070E680F600CBF4B690023F6
S31500002EC0A6EB07088B60B8F1000FEADD43463A46E9
S31500002ED0216A2846A66AB047002808DCB4F90C30F7
S31500002EE043F040034FF0FF30A381BDE8F081074473
S31500002EF0A8EB0008E7E700BF0100402038B50B69E2
S31500002F0005460C4613B90025284638BD18B1036A94
S31500002F100BB900F075F9B4F90C30002BF3D0626EE2
S31500002F20D00704D4990502D4A06D00F0CEFA284645
S31500002F302146FFF75FFF636E0546DA07E4D4A389EF
S31500002F409B05E1D4A06D00F0C1FADDE7C9B20346E6
S31500002F50024410B59342184601D1002003E00478DC
S31500002F6001338C42F6D110BD0A44431E914200D172
S31500002F70704710B511F8014B914203F8014FF9D192
S31500002F8010BDFFFF024B0146186800F02DB800BFC8
S31500002F9070000020024B0146186800F04BBA00BFD3
S31500002FA07000002070B50F4E0C460546316811B909
S31500002FB000F0C4F930602146284600F0BFF9431CF2
S31500002FC003D14FF0FF34204670BDC41C24F0030427
S31500002FD0A042F8D0211A284600F0B0F90130F2D10B
S31500002FE0EFE700BFD80500202DE9F843CD1C0646C3
S31500002FF025F0030508350C2D38BF0C25002D01DB07
S31500003000A94204D90C2333600020BDE8F883DFF819
S31500003010D48000F051F9D8F800301C4644BB29464C
S315000030203046FFF7BFFF431C044658D1D8F800408E
S315000030302746002F43D1002C4BD023683946304613
S3150000304004EB030900F07AF9814542D12168304644
S315000030506D1A2946FFF7A6FF01303AD023682B44A4
S315000030602360D8F800305A6862BBC8F800700FE0D9
S315000030702268521B20D40B2A17D96119A342256056
S3150000308018BF5960636808BFC8F8001062514B60EA
S31500003090304600F017F904F10B00231D20F007005D
S315000030A0C21A1CBF1B1AA350AFE76268A3420CBF2B
S315000030B0C8F800205A60EBE723466468AEE73C4652
S315000030C07F68B6E71A465B68A342FBD100235360CC
S315000030D0DEE70C233046336000F0F4F894E7056031
S315000030E0D6E700BFDC050020002310B50446836048
S315000030F0818119464366C28108228361C0E9003393
S31500003100C0E904335C3000F05FF90D4B2462636262
S315000031100C4BA3620C4BE3620C4B23630C4B9C429F
S3150000312006D003F16802944202D0D0339C4205D106
S3150000313004F15800BDE8104000F0C6B910BD00BF4C
S3150000314031320000533200008B320000AF320000F3
S31500003150E0050020024A0349034800F017B900BF02
S31500003160C0000020FD2E00007400002041680C4BBA
S31500003170994210B5044601D0FFF7C0FEA168094B7D
S31500003180994202D02046FFF7B9FEE168064B994204
S3150000319004D02046BDE81040FFF7B0BE10BD00BF0A
S315000031A0E005002048060020B006002010B50B4BB5
S315000031B004210B4C0B4A20461A600022FFF794FFAD
S315000031C004F1680001220921FFF78EFF04F1D00007
S315000031D002221221BDE81040FFF786BF1807002023
S315000031E0E005002055310000014800F06EB900BF2F
S315000031F01D070020014800F069B900BF1D07002027
S3150000320010B50446FFF7F0FF236A1BB1BDE8104076
S31500003210FFF7F0BF044B2362044B1B68002BF5D16C
S31500003220FFF7C4FFF2E700BF6D310000180700206A
S3150000323010B50C46B1F90E1000F06EF80028ABBFC1
S31500003240636DA3891B1823F48053ACBF6365A38108
S3150000325010BD2DE9F0411F468B8905460C46DB055E
S31500003260164605D502230022B1F90E1000F0C2F968
S31500003270A3893246B4F90E10284623F48053A3815D
S315000032803B46BDE8F04100F069B810B50C46B1F90F
S315000032900E1000F0AFF9431CA38915BF606523F437
S315000032A0805343F48053A38118BFA38110BDB1F9A5
S315000032B00E1000F06DB9FFFF014800F006B900BF1F
S315000032C01C070020014800F001B900BF1C070020C0
S315000032D0024B0A460146186800F002B8700000204A
S315000032E070B5A1FB025434B92946FFF77DFE0646A8
S315000032F028B9304670BD0C2200260260F9E72A463E
S31500003300214600F061F8F4E7024B0A4601461868C8
S3150000331000F062B87000002038B50446064D084635
S31500003320114600222A601A4600F0BBF9431C02D15E
S315000033302B6803B1236038BD2007002038B5002371
S31500003340054D044608462B60FEF7D6FA431C02D10B
S315000033502B6803B1236038BD2007002038B504462A
S31500003360064D0846114600222A601A4600F001FA68
S31500003370431C02D12B6803B1236038BD200700200F
S31500003380014B1868704700BF700000202DE9F84314
S315000033900746884614460026D4E90195B9F1010985
S315000033A005D52468002CF7D13046BDE8F883AB89F3
S315000033B0012B07D9B5F90E30013303D0294638461B
S315000033C0C04706436835E9E702440346934200D105
S315000033D0704703F8011BF9E72DE9F041074614464B
S315000033E00D4621B91146BDE8F041FFF7FDBD2AB9EA
S315000033F0254600F01FF82846BDE8F08100F00CF9DC
S315000034008442064602D8B4EB500FF4D8214638461B
S31500003410FFF7EAFD804608B94546ECE7B442224686
S31500003420294628BF3246FFF79FFD2946384600F059
S3150000343001F8F1E738B50546002941D051F8043CBA
S315000034400C1F002BB8BFE418FFF736FF1D4A1368A0
S3150000345033B9636014602846BDE83840FFF732BFD1
S31500003460A34208D9206821188B4201BF19685B68FE
S3150000347009182160EDE71A465B680BB1A342FAD939
S3150000348011685018A0420BD12068014450181160F1
S315000034908342E0D118685B68084453601060DAE73D
S315000034A002D90C232B60D6E7206821188B4202BF75
S315000034B019685B680918636008BF21605460CAE731
S315000034C038BD00BFDC05002070477047704770B5F7
S315000034D00C46B1F90E1096B0154600291E460CDAB8
S315000034E0A389002113F0800F14BF40234FF480639B
S315000034F0002031602B6016B070BD6A4600F058F8A7
S315000035000028EDDB019901F47041A1F50053594201
S3150000351059414FF48063EBE78B89F7B59D07064663
S315000035200C4607D504F14703236023610123636139
S3150000353003B0F0BD01AB6A46FFF7C9FF009F054621
S3150000354030463946FFF750FD48B9B4F90C309A05B4
S31500003550EED423F0030343F00203A381E2E7A38939
S31500003560206043F08003A381019BC4E904075BB19B
S31500003570B4F90E10304600F02DF828B1A38923F0D7
S31500003580030343F00103A381A3891D43A581CFE76C
S3150000359038B50023054D044608462B6000F016F9A1
S315000035A0431C02D12B6803B1236038BD20070020DD
S315000035B038B50023064D0446084611462B6000F038
S315000035C04CF9431C02D12B6803B1236038BD00BF00
S315000035D02007002038B50023054D044608462B6019
S315000035E000F049F9431C02D12B6803B1236038BDB2
S315000035F02007002038B50446064D0846114600222D
S315000036002A601A4600F0A3F8431C02D12B6803B1C6
S31500003610236038BD2007002051F8043C181F002BFA
S31500003620BCBF0B58C01870470A4B10B50446186843
S3150000363018B1036A0BB9FFF7E3FD132C07D8064848
S3150000364050F83420013202D000EBC40010BD002037
S31500003650FCE700BF7000002024070020F8B50446F0
S315000036601326FFF78DFE0027054630463946ABBECA
S31500003670064620462E60F8BD431C01D1FFF7EEBF7B
S31500003680704730B585B0062401AD0392CDE901013E
S3150000369020462946ABBE04462046FFF7EDFF05B09F
S315000036A030BD70B50E461446FFF7BEFF054630B96D
S315000036B0FFF766FE092303604FF0FF3070BD224618
S315000036C031460068FFF7DDFF431CF5D06B68201A12
S315000036D003446B60F2E7F7B50C461646FFF7A4FF06
S315000036E0054640B9FFF74CFE092303604FF0FF344F
S315000036F0204603B0F0BD022E03D9FFF741FE162384
S31500003700F3E7012E12D14368E418F6D42B680A2693
S315000037106F46CDE9003430463946ABBE06463046E4
S31500003720FFF7AAFF0028E1DB6C60E1E7022E0368E1
S31500003730ECD10C266F46009330463946ABBE0646A2
S315000037403046FFF799FF431CD0D00444DEE7FFF76D
S31500003750C2BF30B585B0052401AD0392CDE90101A4
S3150000376020462946ABBE04462046FFF785FF05B036
S3150000377030BD70B50E461546FFF756FF044630B904
S31500003780FFF7FEFD092303604FF0FF3070BD2A46A8
S3150000379031460068FFF7DDFF031EF5DB6268E81AB5
S315000037A0AB4202446260F1D10020BDE87040FFF7F1
S315000037B055BF37B5022401AD019020462946ABBE60
S315000037C004462046FFF758FF03B030BD38B505461E
S315000037D0FFF72AFF044630B9FFF7D2FD092303603D
S315000037E04FF0FF3038BD013D012D09D8094B9A68CD
S315000037F01B699A4204D14FF0FF3303600020F1E7C2
S315000038002068FFF7D6FF0028ECD14FF0FF33236086
S31500003810E8E700BF2407002070B50C46FFF704FF59
S31500003820054630B9FFF7ACFD092303604FF0FF30C2
S3150000383070BD63680C2643F4005363604FF48063E5
S31500003840A36430462946ABBE05462846FFF714FF5B
S31500003850431CEBD020610020EAE70B4658220021EA
S3150000386010B504461846FFF7AFFD01462046BDE8F1
S315000038701040FFF7D1BF70B5FFF7D6FE0924054605
S3150000388020B9FFF77DFD0460002070BD2046294663
S31500003890ABBE0446012C2046F7D0FFF771FD132579
S315000038A00446002628463146ABBE05462560EBE7B2
S315000038B04275696C7420776974682052656E657309
S315000038C0617320416476616E63656420466C657839
S315000038D069626C6520536F6674776172652050610A
S315000038E0636B6167652076657273696F6E20352E2E
S315000038F0362E3000352E362E30000000000006052C
S31500003900F8B500BFF8BC08BC9E467047F8B500BFC6
S31500003910F8BC08BC9E4670474572726F72206F6E87
S315000039202064656661756C7420616C6C6F6361748C
S315000039306F727320286C696E65202564290A00FF62
S315000039400010008000F0FF9F0080000001000000D2
S315000039500000000000000000000000000000000061
S315000039600000000000000000000000000000000051
S315000039700000000000000000000000000000000041
S315000039800000000000000000000000000000000031
S315000039900000000000000000000000000000000021
S315000039A00000000000000000000000000000000011
S315000039B00000000000000000000000000000000001
S315000039C000000000000000000000000000000000F1
S315000039D000000000000000000000000000000000E1
S315000039E000000000000000000000000000000000D1
S315000039F000000000000000000000000000000000C1
S31500003A0000000000000000000000000000000000B0
S31500003A1000000000000000000000000000000000A0
S31500003A200000000000000000000000000000000090
S31500003A300000000000000000000000000000000080
S31500003A400000000000000000000000000000000070
S31500003A500000000000000000000000000000000060
S31500003A600000000000000000000000000000000050
S31500003A700000000000000000000000000000000040
S31500003A800000000000000000000000000000000030
S31500003A900000000000000000000000000000000020
S31500003AA00000000000000000000000000000000010
S31500003AB00000000000000000000000000000000000
S31500003AC000000000000000000000000000000000F0
S31500003AD000000000000000000000000000000000E0
S31500003AE000000000000000000000000000000000D0
S31500003AF000000000000000000000000000000000C0
S31500003B0000000000000000000000000000000000AF
S31500003B10000000000000000000000000000000009F
S31500003B20000000000000000000000000000000008F
S31500003B30000000000000000000000000000000007F
S31500003B40980300208C3B0000883D00000000000028
S31500003B507017000000000000B80B0000000C000009
S31500003B6049030000000000006C3B0000000000015B
S31500003B7000000002000000004C0000204904000084
S31500003B8000000000000000200301030226000000E0
S31500003B90983B00000000000000000103080A000036
S31500003BA000000103090A0000000001030A0A0000E0
S31500003BB0000001030B0A0000000001020C0A0000CD
S31500003BC0000001000D0A0000000001000E0A0000BE
S31500003BD0000001000F0A000000400000010B000079
S31500003BE000000100030B000000000103040B0000AD
S31500003BF000000103050B000000000103060B000096
S31500003C0000000103070B000000000103080B000081
S31500003C1000000103090B000000000000000C00007A
S31500003C2000000000010C000000400000040C000031
S31500003C3000400000050C000005000000060C000016
S31500003C4005000000070C000000000103080C00003E
S31500003C5000000103090C0000000001020D0C000029
S31500003C60000001030E0C0000000001030F0C000011
S31500003C7005000000010D000005000000020D000017
S31500003C8005000000030D000000000000040D000008
S31500003C9000000000070D000000000103080D0000F1
S31500003CA000000103090D0000004000000C0D00009B
S31500003CB0004000000D0D0000004000000E0D000049
S31500003CC0050000000F0D0000400064006300650061
S31500003CD05A0059000000000000000000000000002B
S31500003CE000000000000000000000000000000000CE
S31500003CF000000000000000000000000000000000BE
S31500003D0000000000000000000000000000000000AD
S31500003D10000000000000000000000000000000009D
S31500003D20000000000000000000000000000000008D
S31500003D30000000000000000000000000000000007D
S31500003D40000000000000000000000000000000006D
S31500003D50000000000000000000000000000000005D
S31500003D60000000000000000000000000000000004D
S31500003D70000000000000000000000000000000003D
S31500003D8000000000000000007D0800008D06000015
S31500003D90910800009D08000051070000A1070000DF
S31500003DA099060000ED0600000D0700003907000027
S31500003DB085070000BD060000D106000000010203D1
S31500003DC004050607080C10141820304001000200F4
S31500003DD00800100006000000DC3D0000010D020D89
S31500003DE0030D0F0D060C070C00000000000000007C
S31500003DF0000000000000000000000000232D302B12
S31500003E002000686C4C0065666745464700303132D5
S31500003E10333435363738394142434445460030312C
S31500003E20323334353637383961626364656600FF8C
S31500003E301000000000000000017A5200027C0E0112
S31500003E401B0C0D0010000000180000000000000010
S31100003E5010000000000000000000000050
S31500003E5C40390000000000000100000000000000D6
S31500003E6C003E00003C000020010000002000002065
S31500003E7C0300000001000000737300007273000061
S31500003E8C000000000C0C0000006060000100000047
S31500003E9C0E000000050000000100000001000000FB
S31500003EAC3B00000014000000040000008D1A000006
S31500003EBC891A0000851A0000811A00000000000013
S31500003ECC7400002000000000E005002048060020D9
S31500003EDCB0060020000000000000000000000000FA
S31500003EEC00000000000000000000000000000000C0
S31500003EFC00000000000000000000000000000000B0
S31500003F0C000000000000000000000000000000009F
S31500003F1C0000000003000000E00500202D02000058
S30900003F2C0502000084
S3150100A100FFFFFFFFFFFFFFFFFFFFFFFFFFFFFFFF58
S3090100A134FFFFFFFF24
S3150100A200FFFDF0FFFFFFFFFFFFFFFFFFFFFFFFFF68
S3150100A210FFFFFFFFFFFFFFFFFFFFFFFFFFFFFFFF47
S3150100A220FFFFFFFFFFFFFFFFFFFFFFFFFFFFFFFF37
S3150100A230FFFFFFFFFFFFFFFFFFFFFFFFFFFFFFFF27
S3150100A240FFFFFFFFFFFFFFFFFFFFFFFFFFFFFFFF17
S3150100A250FFFFFFFFFFFFFFFFFFFFFFFFFFFFFFFF07
S3150100A260FFFFFFFFFFFFFFFFFFFFFFFFFFFFFFFFF7
S3150100A270FFFFFFFFFFFFFFFFFFFFFFFFFFFFFFFFE7
S3150100A280F8F8F0FFFFFFFFFFFFFFFFFFFFFFFFFFF4
S3150100A290FFFFFFFFFFFFFFFFFFFFFFFFFFFFFFFFC7
S3150100A2A0FFFFFFFFFFFFFFFFFFFFFFFFFFFFFFFFB7
S3150100A2B0FFFFFFFFFFFFFFFFFFFFFFFFFFFFFFFFA7
S3150100A2C0FFFFFFFFFFFFFFFFFFFFFFFFFFFFFFFF97
S7050000193DA4
